{
	"contracts/ERC20Token_flattened.sol": {
		"VEGAN": {
			"abi": [
				{
					"inputs": [
						{
							"internalType": "address",
							"name": "initialOwner",
							"type": "address"
						}
					],
					"stateMutability": "nonpayable",
					"type": "constructor"
				},
				{
					"inputs": [],
					"name": "ECDSAInvalidSignature",
					"type": "error"
				},
				{
					"inputs": [
						{
							"internalType": "uint256",
							"name": "length",
							"type": "uint256"
						}
					],
					"name": "ECDSAInvalidSignatureLength",
					"type": "error"
				},
				{
					"inputs": [
						{
							"internalType": "bytes32",
							"name": "s",
							"type": "bytes32"
						}
					],
					"name": "ECDSAInvalidSignatureS",
					"type": "error"
				},
				{
					"inputs": [
						{
							"internalType": "address",
							"name": "spender",
							"type": "address"
						},
						{
							"internalType": "uint256",
							"name": "allowance",
							"type": "uint256"
						},
						{
							"internalType": "uint256",
							"name": "needed",
							"type": "uint256"
						}
					],
					"name": "ERC20InsufficientAllowance",
					"type": "error"
				},
				{
					"inputs": [
						{
							"internalType": "address",
							"name": "sender",
							"type": "address"
						},
						{
							"internalType": "uint256",
							"name": "balance",
							"type": "uint256"
						},
						{
							"internalType": "uint256",
							"name": "needed",
							"type": "uint256"
						}
					],
					"name": "ERC20InsufficientBalance",
					"type": "error"
				},
				{
					"inputs": [
						{
							"internalType": "address",
							"name": "approver",
							"type": "address"
						}
					],
					"name": "ERC20InvalidApprover",
					"type": "error"
				},
				{
					"inputs": [
						{
							"internalType": "address",
							"name": "receiver",
							"type": "address"
						}
					],
					"name": "ERC20InvalidReceiver",
					"type": "error"
				},
				{
					"inputs": [
						{
							"internalType": "address",
							"name": "sender",
							"type": "address"
						}
					],
					"name": "ERC20InvalidSender",
					"type": "error"
				},
				{
					"inputs": [
						{
							"internalType": "address",
							"name": "spender",
							"type": "address"
						}
					],
					"name": "ERC20InvalidSpender",
					"type": "error"
				},
				{
					"inputs": [
						{
							"internalType": "uint256",
							"name": "deadline",
							"type": "uint256"
						}
					],
					"name": "ERC2612ExpiredSignature",
					"type": "error"
				},
				{
					"inputs": [
						{
							"internalType": "address",
							"name": "signer",
							"type": "address"
						},
						{
							"internalType": "address",
							"name": "owner",
							"type": "address"
						}
					],
					"name": "ERC2612InvalidSigner",
					"type": "error"
				},
				{
					"inputs": [],
					"name": "EnforcedPause",
					"type": "error"
				},
				{
					"inputs": [],
					"name": "ExpectedPause",
					"type": "error"
				},
				{
					"inputs": [
						{
							"internalType": "address",
							"name": "account",
							"type": "address"
						},
						{
							"internalType": "uint256",
							"name": "currentNonce",
							"type": "uint256"
						}
					],
					"name": "InvalidAccountNonce",
					"type": "error"
				},
				{
					"inputs": [],
					"name": "InvalidShortString",
					"type": "error"
				},
				{
					"inputs": [
						{
							"internalType": "address",
							"name": "owner",
							"type": "address"
						}
					],
					"name": "OwnableInvalidOwner",
					"type": "error"
				},
				{
					"inputs": [
						{
							"internalType": "address",
							"name": "account",
							"type": "address"
						}
					],
					"name": "OwnableUnauthorizedAccount",
					"type": "error"
				},
				{
					"inputs": [
						{
							"internalType": "string",
							"name": "str",
							"type": "string"
						}
					],
					"name": "StringTooLong",
					"type": "error"
				},
				{
					"anonymous": false,
					"inputs": [
						{
							"indexed": true,
							"internalType": "address",
							"name": "owner",
							"type": "address"
						},
						{
							"indexed": true,
							"internalType": "address",
							"name": "spender",
							"type": "address"
						},
						{
							"indexed": false,
							"internalType": "uint256",
							"name": "value",
							"type": "uint256"
						}
					],
					"name": "Approval",
					"type": "event"
				},
				{
					"anonymous": false,
					"inputs": [],
					"name": "EIP712DomainChanged",
					"type": "event"
				},
				{
					"anonymous": false,
					"inputs": [
						{
							"indexed": true,
							"internalType": "address",
							"name": "previousOwner",
							"type": "address"
						},
						{
							"indexed": true,
							"internalType": "address",
							"name": "newOwner",
							"type": "address"
						}
					],
					"name": "OwnershipTransferred",
					"type": "event"
				},
				{
					"anonymous": false,
					"inputs": [
						{
							"indexed": false,
							"internalType": "address",
							"name": "account",
							"type": "address"
						}
					],
					"name": "Paused",
					"type": "event"
				},
				{
					"anonymous": false,
					"inputs": [
						{
							"indexed": true,
							"internalType": "address",
							"name": "from",
							"type": "address"
						},
						{
							"indexed": true,
							"internalType": "address",
							"name": "to",
							"type": "address"
						},
						{
							"indexed": false,
							"internalType": "uint256",
							"name": "value",
							"type": "uint256"
						}
					],
					"name": "Transfer",
					"type": "event"
				},
				{
					"anonymous": false,
					"inputs": [
						{
							"indexed": false,
							"internalType": "address",
							"name": "account",
							"type": "address"
						}
					],
					"name": "Unpaused",
					"type": "event"
				},
				{
					"inputs": [],
					"name": "DOMAIN_SEPARATOR",
					"outputs": [
						{
							"internalType": "bytes32",
							"name": "",
							"type": "bytes32"
						}
					],
					"stateMutability": "view",
					"type": "function"
				},
				{
					"inputs": [
						{
							"internalType": "address",
							"name": "owner",
							"type": "address"
						},
						{
							"internalType": "address",
							"name": "spender",
							"type": "address"
						}
					],
					"name": "allowance",
					"outputs": [
						{
							"internalType": "uint256",
							"name": "",
							"type": "uint256"
						}
					],
					"stateMutability": "view",
					"type": "function"
				},
				{
					"inputs": [
						{
							"internalType": "address",
							"name": "spender",
							"type": "address"
						},
						{
							"internalType": "uint256",
							"name": "value",
							"type": "uint256"
						}
					],
					"name": "approve",
					"outputs": [
						{
							"internalType": "bool",
							"name": "",
							"type": "bool"
						}
					],
					"stateMutability": "nonpayable",
					"type": "function"
				},
				{
					"inputs": [
						{
							"internalType": "address",
							"name": "account",
							"type": "address"
						}
					],
					"name": "balanceOf",
					"outputs": [
						{
							"internalType": "uint256",
							"name": "",
							"type": "uint256"
						}
					],
					"stateMutability": "view",
					"type": "function"
				},
				{
					"inputs": [
						{
							"internalType": "uint256",
							"name": "value",
							"type": "uint256"
						}
					],
					"name": "burn",
					"outputs": [],
					"stateMutability": "nonpayable",
					"type": "function"
				},
				{
					"inputs": [
						{
							"internalType": "address",
							"name": "account",
							"type": "address"
						},
						{
							"internalType": "uint256",
							"name": "value",
							"type": "uint256"
						}
					],
					"name": "burnFrom",
					"outputs": [],
					"stateMutability": "nonpayable",
					"type": "function"
				},
				{
					"inputs": [],
					"name": "decimals",
					"outputs": [
						{
							"internalType": "uint8",
							"name": "",
							"type": "uint8"
						}
					],
					"stateMutability": "view",
					"type": "function"
				},
				{
					"inputs": [],
					"name": "eip712Domain",
					"outputs": [
						{
							"internalType": "bytes1",
							"name": "fields",
							"type": "bytes1"
						},
						{
							"internalType": "string",
							"name": "name",
							"type": "string"
						},
						{
							"internalType": "string",
							"name": "version",
							"type": "string"
						},
						{
							"internalType": "uint256",
							"name": "chainId",
							"type": "uint256"
						},
						{
							"internalType": "address",
							"name": "verifyingContract",
							"type": "address"
						},
						{
							"internalType": "bytes32",
							"name": "salt",
							"type": "bytes32"
						},
						{
							"internalType": "uint256[]",
							"name": "extensions",
							"type": "uint256[]"
						}
					],
					"stateMutability": "view",
					"type": "function"
				},
				{
					"inputs": [
						{
							"internalType": "address",
							"name": "to",
							"type": "address"
						},
						{
							"internalType": "uint256",
							"name": "amount",
							"type": "uint256"
						}
					],
					"name": "mint",
					"outputs": [],
					"stateMutability": "nonpayable",
					"type": "function"
				},
				{
					"inputs": [],
					"name": "name",
					"outputs": [
						{
							"internalType": "string",
							"name": "",
							"type": "string"
						}
					],
					"stateMutability": "view",
					"type": "function"
				},
				{
					"inputs": [
						{
							"internalType": "address",
							"name": "owner",
							"type": "address"
						}
					],
					"name": "nonces",
					"outputs": [
						{
							"internalType": "uint256",
							"name": "",
							"type": "uint256"
						}
					],
					"stateMutability": "view",
					"type": "function"
				},
				{
					"inputs": [],
					"name": "owner",
					"outputs": [
						{
							"internalType": "address",
							"name": "",
							"type": "address"
						}
					],
					"stateMutability": "view",
					"type": "function"
				},
				{
					"inputs": [],
					"name": "pause",
					"outputs": [],
					"stateMutability": "nonpayable",
					"type": "function"
				},
				{
					"inputs": [],
					"name": "paused",
					"outputs": [
						{
							"internalType": "bool",
							"name": "",
							"type": "bool"
						}
					],
					"stateMutability": "view",
					"type": "function"
				},
				{
					"inputs": [
						{
							"internalType": "address",
							"name": "owner",
							"type": "address"
						},
						{
							"internalType": "address",
							"name": "spender",
							"type": "address"
						},
						{
							"internalType": "uint256",
							"name": "value",
							"type": "uint256"
						},
						{
							"internalType": "uint256",
							"name": "deadline",
							"type": "uint256"
						},
						{
							"internalType": "uint8",
							"name": "v",
							"type": "uint8"
						},
						{
							"internalType": "bytes32",
							"name": "r",
							"type": "bytes32"
						},
						{
							"internalType": "bytes32",
							"name": "s",
							"type": "bytes32"
						}
					],
					"name": "permit",
					"outputs": [],
					"stateMutability": "nonpayable",
					"type": "function"
				},
				{
					"inputs": [],
					"name": "renounceOwnership",
					"outputs": [],
					"stateMutability": "nonpayable",
					"type": "function"
				},
				{
					"inputs": [],
					"name": "symbol",
					"outputs": [
						{
							"internalType": "string",
							"name": "",
							"type": "string"
						}
					],
					"stateMutability": "view",
					"type": "function"
				},
				{
					"inputs": [],
					"name": "totalSupply",
					"outputs": [
						{
							"internalType": "uint256",
							"name": "",
							"type": "uint256"
						}
					],
					"stateMutability": "view",
					"type": "function"
				},
				{
					"inputs": [
						{
							"internalType": "address",
							"name": "to",
							"type": "address"
						},
						{
							"internalType": "uint256",
							"name": "value",
							"type": "uint256"
						}
					],
					"name": "transfer",
					"outputs": [
						{
							"internalType": "bool",
							"name": "",
							"type": "bool"
						}
					],
					"stateMutability": "nonpayable",
					"type": "function"
				},
				{
					"inputs": [
						{
							"internalType": "address",
							"name": "from",
							"type": "address"
						},
						{
							"internalType": "address",
							"name": "to",
							"type": "address"
						},
						{
							"internalType": "uint256",
							"name": "value",
							"type": "uint256"
						}
					],
					"name": "transferFrom",
					"outputs": [
						{
							"internalType": "bool",
							"name": "",
							"type": "bool"
						}
					],
					"stateMutability": "nonpayable",
					"type": "function"
				},
				{
					"inputs": [
						{
							"internalType": "address",
							"name": "newOwner",
							"type": "address"
						}
					],
					"name": "transferOwnership",
					"outputs": [],
					"stateMutability": "nonpayable",
					"type": "function"
				},
				{
					"inputs": [],
					"name": "unpause",
					"outputs": [],
					"stateMutability": "nonpayable",
					"type": "function"
				}
			],
			"devdoc": {
				"errors": {
					"ECDSAInvalidSignature()": [
						{
							"details": "The signature derives the `address(0)`."
						}
					],
					"ECDSAInvalidSignatureLength(uint256)": [
						{
							"details": "The signature has an invalid length."
						}
					],
					"ECDSAInvalidSignatureS(bytes32)": [
						{
							"details": "The signature has an S value that is in the upper half order."
						}
					],
					"ERC20InsufficientAllowance(address,uint256,uint256)": [
						{
							"details": "Indicates a failure with the `spender`’s `allowance`. Used in transfers.",
							"params": {
								"allowance": "Amount of tokens a `spender` is allowed to operate with.",
								"needed": "Minimum amount required to perform a transfer.",
								"spender": "Address that may be allowed to operate on tokens without being their owner."
							}
						}
					],
					"ERC20InsufficientBalance(address,uint256,uint256)": [
						{
							"details": "Indicates an error related to the current `balance` of a `sender`. Used in transfers.",
							"params": {
								"balance": "Current balance for the interacting account.",
								"needed": "Minimum amount required to perform a transfer.",
								"sender": "Address whose tokens are being transferred."
							}
						}
					],
					"ERC20InvalidApprover(address)": [
						{
							"details": "Indicates a failure with the `approver` of a token to be approved. Used in approvals.",
							"params": {
								"approver": "Address initiating an approval operation."
							}
						}
					],
					"ERC20InvalidReceiver(address)": [
						{
							"details": "Indicates a failure with the token `receiver`. Used in transfers.",
							"params": {
								"receiver": "Address to which tokens are being transferred."
							}
						}
					],
					"ERC20InvalidSender(address)": [
						{
							"details": "Indicates a failure with the token `sender`. Used in transfers.",
							"params": {
								"sender": "Address whose tokens are being transferred."
							}
						}
					],
					"ERC20InvalidSpender(address)": [
						{
							"details": "Indicates a failure with the `spender` to be approved. Used in approvals.",
							"params": {
								"spender": "Address that may be allowed to operate on tokens without being their owner."
							}
						}
					],
					"ERC2612ExpiredSignature(uint256)": [
						{
							"details": "Permit deadline has expired."
						}
					],
					"ERC2612InvalidSigner(address,address)": [
						{
							"details": "Mismatched signature."
						}
					],
					"EnforcedPause()": [
						{
							"details": "The operation failed because the contract is paused."
						}
					],
					"ExpectedPause()": [
						{
							"details": "The operation failed because the contract is not paused."
						}
					],
					"InvalidAccountNonce(address,uint256)": [
						{
							"details": "The nonce used for an `account` is not the expected current nonce."
						}
					],
					"OwnableInvalidOwner(address)": [
						{
							"details": "The owner is not a valid owner account. (eg. `address(0)`)"
						}
					],
					"OwnableUnauthorizedAccount(address)": [
						{
							"details": "The caller account is not authorized to perform an operation."
						}
					]
				},
				"events": {
					"Approval(address,address,uint256)": {
						"details": "Emitted when the allowance of a `spender` for an `owner` is set by a call to {approve}. `value` is the new allowance."
					},
					"EIP712DomainChanged()": {
						"details": "MAY be emitted to signal that the domain could have changed."
					},
					"Paused(address)": {
						"details": "Emitted when the pause is triggered by `account`."
					},
					"Transfer(address,address,uint256)": {
						"details": "Emitted when `value` tokens are moved from one account (`from`) to another (`to`). Note that `value` may be zero."
					},
					"Unpaused(address)": {
						"details": "Emitted when the pause is lifted by `account`."
					}
				},
				"kind": "dev",
				"methods": {
					"DOMAIN_SEPARATOR()": {
						"details": "Returns the domain separator used in the encoding of the signature for {permit}, as defined by {EIP712}."
					},
					"allowance(address,address)": {
						"details": "See {IERC20-allowance}."
					},
					"approve(address,uint256)": {
						"details": "See {IERC20-approve}. NOTE: If `value` is the maximum `uint256`, the allowance is not updated on `transferFrom`. This is semantically equivalent to an infinite approval. Requirements: - `spender` cannot be the zero address."
					},
					"balanceOf(address)": {
						"details": "See {IERC20-balanceOf}."
					},
					"burn(uint256)": {
						"details": "Destroys a `value` amount of tokens from the caller. See {ERC20-_burn}."
					},
					"burnFrom(address,uint256)": {
						"details": "Destroys a `value` amount of tokens from `account`, deducting from the caller's allowance. See {ERC20-_burn} and {ERC20-allowance}. Requirements: - the caller must have allowance for ``accounts``'s tokens of at least `value`."
					},
					"decimals()": {
						"details": "Returns the number of decimals used to get its user representation. For example, if `decimals` equals `2`, a balance of `505` tokens should be displayed to a user as `5.05` (`505 / 10 ** 2`). Tokens usually opt for a value of 18, imitating the relationship between Ether and Wei. This is the default value returned by this function, unless it's overridden. NOTE: This information is only used for _display_ purposes: it in no way affects any of the arithmetic of the contract, including {IERC20-balanceOf} and {IERC20-transfer}."
					},
					"eip712Domain()": {
						"details": "See {IERC-5267}."
					},
					"name()": {
						"details": "Returns the name of the token."
					},
					"nonces(address)": {
						"details": "Returns the current nonce for `owner`. This value must be included whenever a signature is generated for {permit}. Every successful call to {permit} increases ``owner``'s nonce by one. This prevents a signature from being used multiple times."
					},
					"owner()": {
						"details": "Returns the address of the current owner."
					},
					"paused()": {
						"details": "Returns true if the contract is paused, and false otherwise."
					},
					"permit(address,address,uint256,uint256,uint8,bytes32,bytes32)": {
						"details": "Sets `value` as the allowance of `spender` over ``owner``'s tokens, given ``owner``'s signed approval. IMPORTANT: The same issues {IERC20-approve} has related to transaction ordering also apply here. Emits an {Approval} event. Requirements: - `spender` cannot be the zero address. - `deadline` must be a timestamp in the future. - `v`, `r` and `s` must be a valid `secp256k1` signature from `owner` over the EIP712-formatted function arguments. - the signature must use ``owner``'s current nonce (see {nonces}). For more information on the signature format, see the https://eips.ethereum.org/EIPS/eip-2612#specification[relevant EIP section]. CAUTION: See Security Considerations above."
					},
					"renounceOwnership()": {
						"details": "Leaves the contract without owner. It will not be possible to call `onlyOwner` functions. Can only be called by the current owner. NOTE: Renouncing ownership will leave the contract without an owner, thereby disabling any functionality that is only available to the owner."
					},
					"symbol()": {
						"details": "Returns the symbol of the token, usually a shorter version of the name."
					},
					"totalSupply()": {
						"details": "See {IERC20-totalSupply}."
					},
					"transfer(address,uint256)": {
						"details": "See {IERC20-transfer}. Requirements: - `to` cannot be the zero address. - the caller must have a balance of at least `value`."
					},
					"transferFrom(address,address,uint256)": {
						"details": "See {IERC20-transferFrom}. Emits an {Approval} event indicating the updated allowance. This is not required by the EIP. See the note at the beginning of {ERC20}. NOTE: Does not update the allowance if the current allowance is the maximum `uint256`. Requirements: - `from` and `to` cannot be the zero address. - `from` must have a balance of at least `value`. - the caller must have allowance for ``from``'s tokens of at least `value`."
					},
					"transferOwnership(address)": {
						"details": "Transfers ownership of the contract to a new account (`newOwner`). Can only be called by the current owner."
					}
				},
				"version": 1
			},
			"evm": {
				"assembly": "    /* \"contracts/ERC20Token_flattened.sol\":84759:85505  contract VEGAN is ERC20, ERC20Burnable, ERC20Pausable, Ownable, ERC20Permit {... */\n  mstore(0x40, 0x0160)\n    /* \"contracts/ERC20Token_flattened.sol\":84841:85031  constructor(address initialOwner)... */\n  callvalue\n  dup1\n  iszero\n  tag_1\n  jumpi\n  0x00\n  dup1\n  revert\ntag_1:\n  pop\n  mload(0x40)\n  sub(codesize, bytecodeSize)\n  dup1\n  bytecodeSize\n  dup4\n  codecopy\n  dup2\n  dup2\n  add\n  0x40\n  mstore\n  dup2\n  add\n  swap1\n  tag_2\n  swap2\n  swap1\n  tag_3\n  jump\t// in\ntag_2:\n    /* \"contracts/ERC20Token_flattened.sol\":83445:83497  constructor(string memory name) EIP712(name, \"1\") {} */\n  mload(0x40)\n  dup1\n  0x40\n  add\n  0x40\n  mstore\n  dup1\n  0x05\n  dup2\n  mstore\n  0x20\n  add\n  0x564547414e000000000000000000000000000000000000000000000000000000\n  dup2\n  mstore\n  pop\n    /* \"contracts/ERC20Token_flattened.sol\":83484:83488  name */\n  dup1\n    /* \"contracts/ERC20Token_flattened.sol\":77289:77720  constructor(string memory name, string memory version) {... */\n  mload(0x40)\n  dup1\n  0x40\n  add\n  0x40\n  mstore\n  dup1\n  0x01\n  dup2\n  mstore\n  0x20\n  add\n  0x3100000000000000000000000000000000000000000000000000000000000000\n  dup2\n  mstore\n  pop\n    /* \"contracts/ERC20Token_flattened.sol\":84921:84933  initialOwner */\n  dup4\n    /* \"contracts/ERC20Token_flattened.sol\":12757:12870  constructor(string memory name_, string memory symbol_) {... */\n  mload(0x40)\n  dup1\n  0x40\n  add\n  0x40\n  mstore\n  dup1\n  0x05\n  dup2\n  mstore\n  0x20\n  add\n  0x564547414e000000000000000000000000000000000000000000000000000000\n  dup2\n  mstore\n  pop\n  mload(0x40)\n  dup1\n  0x40\n  add\n  0x40\n  mstore\n  dup1\n  0x03\n  dup2\n  mstore\n  0x20\n  add\n  0x56474e0000000000000000000000000000000000000000000000000000000000\n  dup2\n  mstore\n  pop\n    /* \"contracts/ERC20Token_flattened.sol\":12831:12836  name_ */\n  dup2\n    /* \"contracts/ERC20Token_flattened.sol\":12823:12828  _name */\n  0x03\n    /* \"contracts/ERC20Token_flattened.sol\":12823:12836  _name = name_ */\n  swap1\n  dup2\n  tag_11\n  swap2\n  swap1\n  tag_12\n  jump\t// in\ntag_11:\n  pop\n    /* \"contracts/ERC20Token_flattened.sol\":12856:12863  symbol_ */\n  dup1\n    /* \"contracts/ERC20Token_flattened.sol\":12846:12853  _symbol */\n  0x04\n    /* \"contracts/ERC20Token_flattened.sol\":12846:12863  _symbol = symbol_ */\n  swap1\n  dup2\n  tag_13\n  swap2\n  swap1\n  tag_12\n  jump\t// in\ntag_13:\n  pop\n    /* \"contracts/ERC20Token_flattened.sol\":12757:12870  constructor(string memory name_, string memory symbol_) {... */\n  pop\n  pop\n    /* \"contracts/ERC20Token_flattened.sol\":24362:24367  false */\n  0x00\n    /* \"contracts/ERC20Token_flattened.sol\":24352:24359  _paused */\n  0x05\n  0x00\n    /* \"contracts/ERC20Token_flattened.sol\":24352:24367  _paused = false */\n  0x0100\n  exp\n  dup2\n  sload\n  dup2\n  0xff\n  mul\n  not\n  and\n  swap1\n  dup4\n  iszero\n  iszero\n  mul\n  or\n  swap1\n  sstore\n  pop\n    /* \"contracts/ERC20Token_flattened.sol\":28441:28442  0 */\n  0x00\n    /* \"contracts/ERC20Token_flattened.sol\":28417:28443  initialOwner == address(0) */\n  0xffffffffffffffffffffffffffffffffffffffff\n  and\n    /* \"contracts/ERC20Token_flattened.sol\":28417:28429  initialOwner */\n  dup2\n    /* \"contracts/ERC20Token_flattened.sol\":28417:28443  initialOwner == address(0) */\n  0xffffffffffffffffffffffffffffffffffffffff\n  and\n  sub\n    /* \"contracts/ERC20Token_flattened.sol\":28413:28508  if (initialOwner == address(0)) {... */\n  tag_16\n  jumpi\n    /* \"contracts/ERC20Token_flattened.sol\":28494:28495  0 */\n  0x00\n    /* \"contracts/ERC20Token_flattened.sol\":28466:28497  OwnableInvalidOwner(address(0)) */\n  mload(0x40)\n  0x1e4fbdf700000000000000000000000000000000000000000000000000000000\n  dup2\n  mstore\n  0x04\n  add\n  tag_17\n  swap2\n  swap1\n  tag_18\n  jump\t// in\ntag_17:\n  mload(0x40)\n  dup1\n  swap2\n  sub\n  swap1\n  revert\n    /* \"contracts/ERC20Token_flattened.sol\":28413:28508  if (initialOwner == address(0)) {... */\ntag_16:\n    /* \"contracts/ERC20Token_flattened.sol\":28517:28549  _transferOwnership(initialOwner) */\n  tag_19\n    /* \"contracts/ERC20Token_flattened.sol\":28536:28548  initialOwner */\n  dup2\n    /* \"contracts/ERC20Token_flattened.sol\":28517:28535  _transferOwnership */\n  shl(0x20, tag_20)\n    /* \"contracts/ERC20Token_flattened.sol\":28517:28549  _transferOwnership(initialOwner) */\n  0x20\n  shr\n  jump\t// in\ntag_19:\n    /* \"contracts/ERC20Token_flattened.sol\":28369:28556  constructor(address initialOwner) {... */\n  pop\n    /* \"contracts/ERC20Token_flattened.sol\":77362:77407  name.toShortStringWithFallback(_nameFallback) */\n  tag_22\n    /* \"contracts/ERC20Token_flattened.sol\":77393:77406  _nameFallback */\n  0x06\n    /* \"contracts/ERC20Token_flattened.sol\":77362:77366  name */\n  dup4\n    /* \"contracts/ERC20Token_flattened.sol\":77362:77392  name.toShortStringWithFallback */\n  shl(0x20, tag_23)\n  swap1\n    /* \"contracts/ERC20Token_flattened.sol\":77362:77407  name.toShortStringWithFallback(_nameFallback) */\n  swap2\n  swap1\n  0x20\n  shr\n  jump\t// in\ntag_22:\n    /* \"contracts/ERC20Token_flattened.sol\":77354:77407  _name = name.toShortStringWithFallback(_nameFallback) */\n  0x0120\n  dup2\n  dup2\n  mstore\n  pop\n  pop\n    /* \"contracts/ERC20Token_flattened.sol\":77428:77479  version.toShortStringWithFallback(_versionFallback) */\n  tag_24\n    /* \"contracts/ERC20Token_flattened.sol\":77462:77478  _versionFallback */\n  0x07\n    /* \"contracts/ERC20Token_flattened.sol\":77428:77435  version */\n  dup3\n    /* \"contracts/ERC20Token_flattened.sol\":77428:77461  version.toShortStringWithFallback */\n  shl(0x20, tag_23)\n  swap1\n    /* \"contracts/ERC20Token_flattened.sol\":77428:77479  version.toShortStringWithFallback(_versionFallback) */\n  swap2\n  swap1\n  0x20\n  shr\n  jump\t// in\ntag_24:\n    /* \"contracts/ERC20Token_flattened.sol\":77417:77479  _version = version.toShortStringWithFallback(_versionFallback) */\n  0x0140\n  dup2\n  dup2\n  mstore\n  pop\n  pop\n    /* \"contracts/ERC20Token_flattened.sol\":77519:77523  name */\n  dup2\n    /* \"contracts/ERC20Token_flattened.sol\":77503:77525  keccak256(bytes(name)) */\n  dup1\n  mload\n  swap1\n  0x20\n  add\n  keccak256\n    /* \"contracts/ERC20Token_flattened.sol\":77489:77525  _hashedName = keccak256(bytes(name)) */\n  0xe0\n  dup2\n  dup2\n  mstore\n  pop\n  pop\n    /* \"contracts/ERC20Token_flattened.sol\":77568:77575  version */\n  dup1\n    /* \"contracts/ERC20Token_flattened.sol\":77552:77577  keccak256(bytes(version)) */\n  dup1\n  mload\n  swap1\n  0x20\n  add\n  keccak256\n    /* \"contracts/ERC20Token_flattened.sol\":77535:77577  _hashedVersion = keccak256(bytes(version)) */\n  0x0100\n  dup2\n  dup2\n  mstore\n  pop\n  pop\n    /* \"contracts/ERC20Token_flattened.sol\":77605:77618  block.chainid */\n  chainid\n    /* \"contracts/ERC20Token_flattened.sol\":77588:77618  _cachedChainId = block.chainid */\n  0xa0\n  dup2\n  dup2\n  mstore\n  pop\n  pop\n    /* \"contracts/ERC20Token_flattened.sol\":77653:77676  _buildDomainSeparator() */\n  tag_25\n    /* \"contracts/ERC20Token_flattened.sol\":77653:77674  _buildDomainSeparator */\n  shl(0x20, tag_26)\n    /* \"contracts/ERC20Token_flattened.sol\":77653:77676  _buildDomainSeparator() */\n  0x20\n  shr\n  jump\t// in\ntag_25:\n    /* \"contracts/ERC20Token_flattened.sol\":77628:77676  _cachedDomainSeparator = _buildDomainSeparator() */\n  0x80\n  dup2\n  dup2\n  mstore\n  pop\n  pop\n    /* \"contracts/ERC20Token_flattened.sol\":77708:77712  this */\n  address\n    /* \"contracts/ERC20Token_flattened.sol\":77686:77713  _cachedThis = address(this) */\n  0xffffffffffffffffffffffffffffffffffffffff\n  and\n  0xc0\n  dup2\n  0xffffffffffffffffffffffffffffffffffffffff\n  and\n  dup2\n  mstore\n  pop\n  pop\n    /* \"contracts/ERC20Token_flattened.sol\":77289:77720  constructor(string memory name, string memory version) {... */\n  pop\n  pop\n    /* \"contracts/ERC20Token_flattened.sol\":83445:83497  constructor(string memory name) EIP712(name, \"1\") {} */\n  pop\n    /* \"contracts/ERC20Token_flattened.sol\":84978:85024  _mint(msg.sender, 21000000 * 10 ** decimals()) */\n  tag_29\n    /* \"contracts/ERC20Token_flattened.sol\":84984:84994  msg.sender */\n  caller\n    /* \"contracts/ERC20Token_flattened.sol\":85013:85023  decimals() */\n  tag_30\n    /* \"contracts/ERC20Token_flattened.sol\":85013:85021  decimals */\n  shl(0x20, tag_31)\n    /* \"contracts/ERC20Token_flattened.sol\":85013:85023  decimals() */\n  0x20\n  shr\n  jump\t// in\ntag_30:\n    /* \"contracts/ERC20Token_flattened.sol\":85007:85009  10 */\n  0x0a\n    /* \"contracts/ERC20Token_flattened.sol\":85007:85023  10 ** decimals() */\n  tag_32\n  swap2\n  swap1\n  tag_33\n  jump\t// in\ntag_32:\n    /* \"contracts/ERC20Token_flattened.sol\":84996:85004  21000000 */\n  0x01406f40\n    /* \"contracts/ERC20Token_flattened.sol\":84996:85023  21000000 * 10 ** decimals() */\n  tag_34\n  swap2\n  swap1\n  tag_35\n  jump\t// in\ntag_34:\n    /* \"contracts/ERC20Token_flattened.sol\":84978:84983  _mint */\n  shl(0x20, tag_36)\n    /* \"contracts/ERC20Token_flattened.sol\":84978:85024  _mint(msg.sender, 21000000 * 10 ** decimals()) */\n  0x20\n  shr\n  jump\t// in\ntag_29:\n    /* \"contracts/ERC20Token_flattened.sol\":84841:85031  constructor(address initialOwner)... */\n  pop\n    /* \"contracts/ERC20Token_flattened.sol\":84759:85505  contract VEGAN is ERC20, ERC20Burnable, ERC20Pausable, Ownable, ERC20Permit {... */\n  jump(tag_37)\n    /* \"contracts/ERC20Token_flattened.sol\":30056:30243  function _transferOwnership(address newOwner) internal virtual {... */\ntag_20:\n    /* \"contracts/ERC20Token_flattened.sol\":30129:30145  address oldOwner */\n  0x00\n    /* \"contracts/ERC20Token_flattened.sol\":30148:30154  _owner */\n  0x05\n  0x01\n  swap1\n  sload\n  swap1\n  0x0100\n  exp\n  swap1\n  div\n  0xffffffffffffffffffffffffffffffffffffffff\n  and\n    /* \"contracts/ERC20Token_flattened.sol\":30129:30154  address oldOwner = _owner */\n  swap1\n  pop\n    /* \"contracts/ERC20Token_flattened.sol\":30173:30181  newOwner */\n  dup2\n    /* \"contracts/ERC20Token_flattened.sol\":30164:30170  _owner */\n  0x05\n  0x01\n    /* \"contracts/ERC20Token_flattened.sol\":30164:30181  _owner = newOwner */\n  0x0100\n  exp\n  dup2\n  sload\n  dup2\n  0xffffffffffffffffffffffffffffffffffffffff\n  mul\n  not\n  and\n  swap1\n  dup4\n  0xffffffffffffffffffffffffffffffffffffffff\n  and\n  mul\n  or\n  swap1\n  sstore\n  pop\n    /* \"contracts/ERC20Token_flattened.sol\":30227:30235  newOwner */\n  dup2\n    /* \"contracts/ERC20Token_flattened.sol\":30196:30236  OwnershipTransferred(oldOwner, newOwner) */\n  0xffffffffffffffffffffffffffffffffffffffff\n  and\n    /* \"contracts/ERC20Token_flattened.sol\":30217:30225  oldOwner */\n  dup2\n    /* \"contracts/ERC20Token_flattened.sol\":30196:30236  OwnershipTransferred(oldOwner, newOwner) */\n  0xffffffffffffffffffffffffffffffffffffffff\n  and\n  0x8be0079c531659141344cd1fd0a4f28419497f9722a3daafe3b4186f6b6457e0\n  mload(0x40)\n  mload(0x40)\n  dup1\n  swap2\n  sub\n  swap1\n  log3\n    /* \"contracts/ERC20Token_flattened.sol\":30119:30243  {... */\n  pop\n    /* \"contracts/ERC20Token_flattened.sol\":30056:30243  function _transferOwnership(address newOwner) internal virtual {... */\n  pop\n  jump\t// out\n    /* \"contracts/ERC20Token_flattened.sol\":71939:72279  function toShortStringWithFallback(string memory value, string storage store) internal returns (ShortString) {... */\ntag_23:\n    /* \"contracts/ERC20Token_flattened.sol\":72035:72046  ShortString */\n  0x00\n    /* \"contracts/ERC20Token_flattened.sol\":72084:72086  32 */\n  0x20\n    /* \"contracts/ERC20Token_flattened.sol\":72068:72073  value */\n  dup4\n    /* \"contracts/ERC20Token_flattened.sol\":72062:72081  bytes(value).length */\n  mload\n    /* \"contracts/ERC20Token_flattened.sol\":72062:72086  bytes(value).length < 32 */\n  lt\n    /* \"contracts/ERC20Token_flattened.sol\":72058:72273  if (bytes(value).length < 32) {... */\n  iszero\n  tag_40\n  jumpi\n    /* \"contracts/ERC20Token_flattened.sol\":72109:72129  toShortString(value) */\n  tag_41\n    /* \"contracts/ERC20Token_flattened.sol\":72123:72128  value */\n  dup4\n    /* \"contracts/ERC20Token_flattened.sol\":72109:72122  toShortString */\n  shl(0x20, tag_42)\n    /* \"contracts/ERC20Token_flattened.sol\":72109:72129  toShortString(value) */\n  0x20\n  shr\n  jump\t// in\ntag_41:\n    /* \"contracts/ERC20Token_flattened.sol\":72102:72129  return toShortString(value) */\n  swap1\n  pop\n  jump(tag_39)\n    /* \"contracts/ERC20Token_flattened.sol\":72058:72273  if (bytes(value).length < 32) {... */\ntag_40:\n    /* \"contracts/ERC20Token_flattened.sol\":72201:72206  value */\n  dup3\n    /* \"contracts/ERC20Token_flattened.sol\":72160:72192  StorageSlot.getStringSlot(store) */\n  tag_44\n    /* \"contracts/ERC20Token_flattened.sol\":72186:72191  store */\n  dup4\n    /* \"contracts/ERC20Token_flattened.sol\":72160:72185  StorageSlot.getStringSlot */\n  shl(0x20, tag_45)\n    /* \"contracts/ERC20Token_flattened.sol\":72160:72192  StorageSlot.getStringSlot(store) */\n  0x20\n  shr\n  jump\t// in\ntag_44:\n    /* \"contracts/ERC20Token_flattened.sol\":72160:72198  StorageSlot.getStringSlot(store).value */\n  0x00\n  add\n    /* \"contracts/ERC20Token_flattened.sol\":72160:72206  StorageSlot.getStringSlot(store).value = value */\n  swap1\n  dup2\n  tag_46\n  swap2\n  swap1\n  tag_12\n  jump\t// in\ntag_46:\n  pop\n    /* \"contracts/ERC20Token_flattened.sol\":70415:70481  0x00000000000000000000000000000000000000000000000000000000000000FF */\n  0xff\n    /* \"contracts/ERC20Token_flattened.sol\":72244:72261  FALLBACK_SENTINEL */\n  0x00\n  shl\n    /* \"contracts/ERC20Token_flattened.sol\":72220:72262  return ShortString.wrap(FALLBACK_SENTINEL) */\n  swap1\n  pop\n    /* \"contracts/ERC20Token_flattened.sol\":71939:72279  function toShortStringWithFallback(string memory value, string storage store) internal returns (ShortString) {... */\ntag_39:\n  swap3\n  swap2\n  pop\n  pop\n  jump\t// out\n    /* \"contracts/ERC20Token_flattened.sol\":78074:78253  function _buildDomainSeparator() private view returns (bytes32) {... */\ntag_26:\n    /* \"contracts/ERC20Token_flattened.sol\":78129:78136  bytes32 */\n  0x00\n    /* \"contracts/ERC20Token_flattened.sol\":76040:76135  keccak256(\"EIP712Domain(string name,string version,uint256 chainId,address verifyingContract)\") */\n  0x8b73c3c69bb8fe3d512ecc4cf759cc79239f7b179b0ffacaa9a75d522b39400f\n    /* \"contracts/ERC20Token_flattened.sol\":78187:78198  _hashedName */\n  mload(0xe0)\n    /* \"contracts/ERC20Token_flattened.sol\":78200:78214  _hashedVersion */\n  mload(0x0100)\n    /* \"contracts/ERC20Token_flattened.sol\":78216:78229  block.chainid */\n  chainid\n    /* \"contracts/ERC20Token_flattened.sol\":78239:78243  this */\n  address\n    /* \"contracts/ERC20Token_flattened.sol\":78165:78245  abi.encode(TYPE_HASH, _hashedName, _hashedVersion, block.chainid, address(this)) */\n  add(0x20, mload(0x40))\n  tag_48\n  swap6\n  swap5\n  swap4\n  swap3\n  swap2\n  swap1\n  tag_49\n  jump\t// in\ntag_48:\n  mload(0x40)\n  0x20\n  dup2\n  dup4\n  sub\n  sub\n  dup2\n  mstore\n  swap1\n  0x40\n  mstore\n    /* \"contracts/ERC20Token_flattened.sol\":78155:78246  keccak256(abi.encode(TYPE_HASH, _hashedName, _hashedVersion, block.chainid, address(this))) */\n  dup1\n  mload\n  swap1\n  0x20\n  add\n  keccak256\n    /* \"contracts/ERC20Token_flattened.sol\":78148:78246  return keccak256(abi.encode(TYPE_HASH, _hashedName, _hashedVersion, block.chainid, address(this))) */\n  swap1\n  pop\n    /* \"contracts/ERC20Token_flattened.sol\":78074:78253  function _buildDomainSeparator() private view returns (bytes32) {... */\n  swap1\n  jump\t// out\n    /* \"contracts/ERC20Token_flattened.sol\":13863:13945  function decimals() public view virtual returns (uint8) {... */\ntag_31:\n    /* \"contracts/ERC20Token_flattened.sol\":13912:13917  uint8 */\n  0x00\n    /* \"contracts/ERC20Token_flattened.sol\":13936:13938  18 */\n  0x12\n    /* \"contracts/ERC20Token_flattened.sol\":13929:13938  return 18 */\n  swap1\n  pop\n    /* \"contracts/ERC20Token_flattened.sol\":13863:13945  function decimals() public view virtual returns (uint8) {... */\n  swap1\n  jump\t// out\n    /* \"contracts/ERC20Token_flattened.sol\":18582:18790  function _mint(address account, uint256 value) internal {... */\ntag_36:\n    /* \"contracts/ERC20Token_flattened.sol\":18671:18672  0 */\n  0x00\n    /* \"contracts/ERC20Token_flattened.sol\":18652:18673  account == address(0) */\n  0xffffffffffffffffffffffffffffffffffffffff\n  and\n    /* \"contracts/ERC20Token_flattened.sol\":18652:18659  account */\n  dup3\n    /* \"contracts/ERC20Token_flattened.sol\":18652:18673  account == address(0) */\n  0xffffffffffffffffffffffffffffffffffffffff\n  and\n  sub\n    /* \"contracts/ERC20Token_flattened.sol\":18648:18739  if (account == address(0)) {... */\n  tag_52\n  jumpi\n    /* \"contracts/ERC20Token_flattened.sol\":18725:18726  0 */\n  0x00\n    /* \"contracts/ERC20Token_flattened.sol\":18696:18728  ERC20InvalidReceiver(address(0)) */\n  mload(0x40)\n  0xec442f0500000000000000000000000000000000000000000000000000000000\n  dup2\n  mstore\n  0x04\n  add\n  tag_53\n  swap2\n  swap1\n  tag_18\n  jump\t// in\ntag_53:\n  mload(0x40)\n  dup1\n  swap2\n  sub\n  swap1\n  revert\n    /* \"contracts/ERC20Token_flattened.sol\":18648:18739  if (account == address(0)) {... */\ntag_52:\n    /* \"contracts/ERC20Token_flattened.sol\":18748:18783  _update(address(0), account, value) */\n  tag_54\n    /* \"contracts/ERC20Token_flattened.sol\":18764:18765  0 */\n  0x00\n    /* \"contracts/ERC20Token_flattened.sol\":18768:18775  account */\n  dup4\n    /* \"contracts/ERC20Token_flattened.sol\":18777:18782  value */\n  dup4\n    /* \"contracts/ERC20Token_flattened.sol\":18748:18755  _update */\n  shl(0x20, tag_55)\n    /* \"contracts/ERC20Token_flattened.sol\":18748:18783  _update(address(0), account, value) */\n  0x20\n  shr\n  jump\t// in\ntag_54:\n    /* \"contracts/ERC20Token_flattened.sol\":18582:18790  function _mint(address account, uint256 value) internal {... */\n  pop\n  pop\n  jump\t// out\n    /* \"contracts/ERC20Token_flattened.sol\":70733:71019  function toShortString(string memory str) internal pure returns (ShortString) {... */\ntag_42:\n    /* \"contracts/ERC20Token_flattened.sol\":70798:70809  ShortString */\n  0x00\n    /* \"contracts/ERC20Token_flattened.sol\":70821:70838  bytes memory bstr */\n  dup1\n    /* \"contracts/ERC20Token_flattened.sol\":70847:70850  str */\n  dup3\n    /* \"contracts/ERC20Token_flattened.sol\":70821:70851  bytes memory bstr = bytes(str) */\n  swap1\n  pop\n    /* \"contracts/ERC20Token_flattened.sol\":70879:70881  31 */\n  0x1f\n    /* \"contracts/ERC20Token_flattened.sol\":70865:70869  bstr */\n  dup2\n    /* \"contracts/ERC20Token_flattened.sol\":70865:70876  bstr.length */\n  mload\n    /* \"contracts/ERC20Token_flattened.sol\":70865:70881  bstr.length > 31 */\n  gt\n    /* \"contracts/ERC20Token_flattened.sol\":70861:70933  if (bstr.length > 31) {... */\n  iszero\n  tag_57\n  jumpi\n    /* \"contracts/ERC20Token_flattened.sol\":70918:70921  str */\n  dup3\n    /* \"contracts/ERC20Token_flattened.sol\":70904:70922  StringTooLong(str) */\n  mload(0x40)\n  0x305a27a900000000000000000000000000000000000000000000000000000000\n  dup2\n  mstore\n  0x04\n  add\n  tag_58\n  swap2\n  swap1\n  tag_59\n  jump\t// in\ntag_58:\n  mload(0x40)\n  dup1\n  swap2\n  sub\n  swap1\n  revert\n    /* \"contracts/ERC20Token_flattened.sol\":70861:70933  if (bstr.length > 31) {... */\ntag_57:\n    /* \"contracts/ERC20Token_flattened.sol\":70999:71003  bstr */\n  dup1\n    /* \"contracts/ERC20Token_flattened.sol\":70999:71010  bstr.length */\n  mload\n    /* \"contracts/ERC20Token_flattened.sol\":70990:70994  bstr */\n  dup2\n    /* \"contracts/ERC20Token_flattened.sol\":70982:70995  bytes32(bstr) */\n  tag_60\n  swap1\n  tag_61\n  jump\t// in\ntag_60:\n    /* \"contracts/ERC20Token_flattened.sol\":70974:70996  uint256(bytes32(bstr)) */\n  0x00\n  shr\n    /* \"contracts/ERC20Token_flattened.sol\":70974:71010  uint256(bytes32(bstr)) | bstr.length */\n  or\n    /* \"contracts/ERC20Token_flattened.sol\":70966:71011  bytes32(uint256(bytes32(bstr)) | bstr.length) */\n  0x00\n  shl\n    /* \"contracts/ERC20Token_flattened.sol\":70942:71012  return ShortString.wrap(bytes32(uint256(bytes32(bstr)) | bstr.length)) */\n  swap2\n  pop\n  pop\n    /* \"contracts/ERC20Token_flattened.sol\":70733:71019  function toShortString(string memory str) internal pure returns (ShortString) {... */\n  swap2\n  swap1\n  pop\n  jump\t// out\n    /* \"contracts/ERC20Token_flattened.sol\":68249:68451  function getStringSlot(string storage store) internal pure returns (StringSlot storage r) {... */\ntag_45:\n    /* \"contracts/ERC20Token_flattened.sol\":68317:68337  StringSlot storage r */\n  0x00\n    /* \"contracts/ERC20Token_flattened.sol\":68425:68435  store.slot */\n  dup2\n    /* \"contracts/ERC20Token_flattened.sol\":68415:68435  r.slot := store.slot */\n  swap1\n  pop\n    /* \"contracts/ERC20Token_flattened.sol\":68249:68451  function getStringSlot(string storage store) internal pure returns (StringSlot storage r) {... */\n  swap2\n  swap1\n  pop\n  jump\t// out\n    /* \"contracts/ERC20Token_flattened.sol\":85338:85503  function _update(address from, address to, uint256 value)... */\ntag_55:\n    /* \"contracts/ERC20Token_flattened.sol\":85466:85496  super._update(from, to, value) */\n  tag_64\n    /* \"contracts/ERC20Token_flattened.sol\":85480:85484  from */\n  dup4\n    /* \"contracts/ERC20Token_flattened.sol\":85486:85488  to */\n  dup4\n    /* \"contracts/ERC20Token_flattened.sol\":85490:85495  value */\n  dup4\n    /* \"contracts/ERC20Token_flattened.sol\":85466:85479  super._update */\n  shl(0x20, tag_65)\n    /* \"contracts/ERC20Token_flattened.sol\":85466:85496  super._update(from, to, value) */\n  0x20\n  shr\n  jump\t// in\ntag_64:\n    /* \"contracts/ERC20Token_flattened.sol\":85338:85503  function _update(address from, address to, uint256 value)... */\n  pop\n  pop\n  pop\n  jump\t// out\n    /* \"contracts/ERC20Token_flattened.sol\":27019:27164  function _update(address from, address to, uint256 value) internal virtual override whenNotPaused {... */\ntag_65:\n    /* \"contracts/ERC20Token_flattened.sol\":24595:24614  _requireNotPaused() */\n  tag_67\n    /* \"contracts/ERC20Token_flattened.sol\":24595:24612  _requireNotPaused */\n  shl(0x20, tag_68)\n    /* \"contracts/ERC20Token_flattened.sol\":24595:24614  _requireNotPaused() */\n  0x20\n  shr\n  jump\t// in\ntag_67:\n    /* \"contracts/ERC20Token_flattened.sol\":27127:27157  super._update(from, to, value) */\n  tag_70\n    /* \"contracts/ERC20Token_flattened.sol\":27141:27145  from */\n  dup4\n    /* \"contracts/ERC20Token_flattened.sol\":27147:27149  to */\n  dup4\n    /* \"contracts/ERC20Token_flattened.sol\":27151:27156  value */\n  dup4\n    /* \"contracts/ERC20Token_flattened.sol\":27127:27140  super._update */\n  shl(0x20, tag_71)\n    /* \"contracts/ERC20Token_flattened.sol\":27127:27157  super._update(from, to, value) */\n  0x20\n  shr\n  jump\t// in\ntag_70:\n    /* \"contracts/ERC20Token_flattened.sol\":27019:27164  function _update(address from, address to, uint256 value) internal virtual override whenNotPaused {... */\n  pop\n  pop\n  pop\n  jump\t// out\n    /* \"contracts/ERC20Token_flattened.sol\":25123:25251  function _requireNotPaused() internal view virtual {... */\ntag_68:\n    /* \"contracts/ERC20Token_flattened.sol\":25188:25196  paused() */\n  tag_73\n    /* \"contracts/ERC20Token_flattened.sol\":25188:25194  paused */\n  shl(0x20, tag_74)\n    /* \"contracts/ERC20Token_flattened.sol\":25188:25196  paused() */\n  0x20\n  shr\n  jump\t// in\ntag_73:\n    /* \"contracts/ERC20Token_flattened.sol\":25184:25245  if (paused()) {... */\n  iszero\n  tag_75\n  jumpi\n    /* \"contracts/ERC20Token_flattened.sol\":25219:25234  EnforcedPause() */\n  mload(0x40)\n  0xd93c066500000000000000000000000000000000000000000000000000000000\n  dup2\n  mstore\n  0x04\n  add\n  mload(0x40)\n  dup1\n  swap2\n  sub\n  swap1\n  revert\n    /* \"contracts/ERC20Token_flattened.sol\":25184:25245  if (paused()) {... */\ntag_75:\n    /* \"contracts/ERC20Token_flattened.sol\":25123:25251  function _requireNotPaused() internal view virtual {... */\n  jump\t// out\n    /* \"contracts/ERC20Token_flattened.sol\":17132:18239  function _update(address from, address to, uint256 value) internal virtual {... */\ntag_71:\n    /* \"contracts/ERC20Token_flattened.sol\":17237:17238  0 */\n  0x00\n    /* \"contracts/ERC20Token_flattened.sol\":17221:17239  from == address(0) */\n  0xffffffffffffffffffffffffffffffffffffffff\n  and\n    /* \"contracts/ERC20Token_flattened.sol\":17221:17225  from */\n  dup4\n    /* \"contracts/ERC20Token_flattened.sol\":17221:17239  from == address(0) */\n  0xffffffffffffffffffffffffffffffffffffffff\n  and\n  sub\n    /* \"contracts/ERC20Token_flattened.sol\":17217:17757  if (from == address(0)) {... */\n  tag_77\n  jumpi\n    /* \"contracts/ERC20Token_flattened.sol\":17373:17378  value */\n  dup1\n    /* \"contracts/ERC20Token_flattened.sol\":17357:17369  _totalSupply */\n  0x02\n  0x00\n    /* \"contracts/ERC20Token_flattened.sol\":17357:17378  _totalSupply += value */\n  dup3\n  dup3\n  sload\n  tag_78\n  swap2\n  swap1\n  tag_79\n  jump\t// in\ntag_78:\n  swap3\n  pop\n  pop\n  dup2\n  swap1\n  sstore\n  pop\n    /* \"contracts/ERC20Token_flattened.sol\":17217:17757  if (from == address(0)) {... */\n  jump(tag_80)\ntag_77:\n    /* \"contracts/ERC20Token_flattened.sol\":17409:17428  uint256 fromBalance */\n  0x00\n    /* \"contracts/ERC20Token_flattened.sol\":17431:17440  _balances */\n  dup1\n    /* \"contracts/ERC20Token_flattened.sol\":17431:17446  _balances[from] */\n  0x00\n    /* \"contracts/ERC20Token_flattened.sol\":17441:17445  from */\n  dup6\n    /* \"contracts/ERC20Token_flattened.sol\":17431:17446  _balances[from] */\n  0xffffffffffffffffffffffffffffffffffffffff\n  and\n  0xffffffffffffffffffffffffffffffffffffffff\n  and\n  dup2\n  mstore\n  0x20\n  add\n  swap1\n  dup2\n  mstore\n  0x20\n  add\n  0x00\n  keccak256\n  sload\n    /* \"contracts/ERC20Token_flattened.sol\":17409:17446  uint256 fromBalance = _balances[from] */\n  swap1\n  pop\n    /* \"contracts/ERC20Token_flattened.sol\":17478:17483  value */\n  dup2\n    /* \"contracts/ERC20Token_flattened.sol\":17464:17475  fromBalance */\n  dup2\n    /* \"contracts/ERC20Token_flattened.sol\":17464:17483  fromBalance < value */\n  lt\n    /* \"contracts/ERC20Token_flattened.sol\":17460:17575  if (fromBalance < value) {... */\n  iszero\n  tag_81\n  jumpi\n    /* \"contracts/ERC20Token_flattened.sol\":17535:17539  from */\n  dup4\n    /* \"contracts/ERC20Token_flattened.sol\":17541:17552  fromBalance */\n  dup2\n    /* \"contracts/ERC20Token_flattened.sol\":17554:17559  value */\n  dup4\n    /* \"contracts/ERC20Token_flattened.sol\":17510:17560  ERC20InsufficientBalance(from, fromBalance, value) */\n  mload(0x40)\n  0xe450d38c00000000000000000000000000000000000000000000000000000000\n  dup2\n  mstore\n  0x04\n  add\n  tag_82\n  swap4\n  swap3\n  swap2\n  swap1\n  tag_83\n  jump\t// in\ntag_82:\n  mload(0x40)\n  dup1\n  swap2\n  sub\n  swap1\n  revert\n    /* \"contracts/ERC20Token_flattened.sol\":17460:17575  if (fromBalance < value) {... */\ntag_81:\n    /* \"contracts/ERC20Token_flattened.sol\":17727:17732  value */\n  dup2\n    /* \"contracts/ERC20Token_flattened.sol\":17713:17724  fromBalance */\n  dup2\n    /* \"contracts/ERC20Token_flattened.sol\":17713:17732  fromBalance - value */\n  sub\n    /* \"contracts/ERC20Token_flattened.sol\":17695:17704  _balances */\n  0x00\n    /* \"contracts/ERC20Token_flattened.sol\":17695:17710  _balances[from] */\n  dup1\n    /* \"contracts/ERC20Token_flattened.sol\":17705:17709  from */\n  dup7\n    /* \"contracts/ERC20Token_flattened.sol\":17695:17710  _balances[from] */\n  0xffffffffffffffffffffffffffffffffffffffff\n  and\n  0xffffffffffffffffffffffffffffffffffffffff\n  and\n  dup2\n  mstore\n  0x20\n  add\n  swap1\n  dup2\n  mstore\n  0x20\n  add\n  0x00\n  keccak256\n    /* \"contracts/ERC20Token_flattened.sol\":17695:17732  _balances[from] = fromBalance - value */\n  dup2\n  swap1\n  sstore\n  pop\n    /* \"contracts/ERC20Token_flattened.sol\":17395:17757  {... */\n  pop\n    /* \"contracts/ERC20Token_flattened.sol\":17217:17757  if (from == address(0)) {... */\ntag_80:\n    /* \"contracts/ERC20Token_flattened.sol\":17785:17786  0 */\n  0x00\n    /* \"contracts/ERC20Token_flattened.sol\":17771:17787  to == address(0) */\n  0xffffffffffffffffffffffffffffffffffffffff\n  and\n    /* \"contracts/ERC20Token_flattened.sol\":17771:17773  to */\n  dup3\n    /* \"contracts/ERC20Token_flattened.sol\":17771:17787  to == address(0) */\n  0xffffffffffffffffffffffffffffffffffffffff\n  and\n  sub\n    /* \"contracts/ERC20Token_flattened.sol\":17767:18192  if (to == address(0)) {... */\n  tag_84\n  jumpi\n    /* \"contracts/ERC20Token_flattened.sol\":17950:17955  value */\n  dup1\n    /* \"contracts/ERC20Token_flattened.sol\":17934:17946  _totalSupply */\n  0x02\n  0x00\n    /* \"contracts/ERC20Token_flattened.sol\":17934:17955  _totalSupply -= value */\n  dup3\n  dup3\n  sload\n  sub\n  swap3\n  pop\n  pop\n  dup2\n  swap1\n  sstore\n  pop\n    /* \"contracts/ERC20Token_flattened.sol\":17767:18192  if (to == address(0)) {... */\n  jump(tag_85)\ntag_84:\n    /* \"contracts/ERC20Token_flattened.sol\":18162:18167  value */\n  dup1\n    /* \"contracts/ERC20Token_flattened.sol\":18145:18154  _balances */\n  0x00\n    /* \"contracts/ERC20Token_flattened.sol\":18145:18158  _balances[to] */\n  dup1\n    /* \"contracts/ERC20Token_flattened.sol\":18155:18157  to */\n  dup5\n    /* \"contracts/ERC20Token_flattened.sol\":18145:18158  _balances[to] */\n  0xffffffffffffffffffffffffffffffffffffffff\n  and\n  0xffffffffffffffffffffffffffffffffffffffff\n  and\n  dup2\n  mstore\n  0x20\n  add\n  swap1\n  dup2\n  mstore\n  0x20\n  add\n  0x00\n  keccak256\n  0x00\n    /* \"contracts/ERC20Token_flattened.sol\":18145:18167  _balances[to] += value */\n  dup3\n  dup3\n  sload\n  add\n  swap3\n  pop\n  pop\n  dup2\n  swap1\n  sstore\n  pop\n    /* \"contracts/ERC20Token_flattened.sol\":17767:18192  if (to == address(0)) {... */\ntag_85:\n    /* \"contracts/ERC20Token_flattened.sol\":18222:18224  to */\n  dup2\n    /* \"contracts/ERC20Token_flattened.sol\":18207:18232  Transfer(from, to, value) */\n  0xffffffffffffffffffffffffffffffffffffffff\n  and\n    /* \"contracts/ERC20Token_flattened.sol\":18216:18220  from */\n  dup4\n    /* \"contracts/ERC20Token_flattened.sol\":18207:18232  Transfer(from, to, value) */\n  0xffffffffffffffffffffffffffffffffffffffff\n  and\n  0xddf252ad1be2c89b69c2b068fc378daa952ba7f163c4a11628f55a4df523b3ef\n    /* \"contracts/ERC20Token_flattened.sol\":18226:18231  value */\n  dup4\n    /* \"contracts/ERC20Token_flattened.sol\":18207:18232  Transfer(from, to, value) */\n  mload(0x40)\n  tag_86\n  swap2\n  swap1\n  tag_87\n  jump\t// in\ntag_86:\n  mload(0x40)\n  dup1\n  swap2\n  sub\n  swap1\n  log3\n    /* \"contracts/ERC20Token_flattened.sol\":17132:18239  function _update(address from, address to, uint256 value) internal virtual {... */\n  pop\n  pop\n  pop\n  jump\t// out\n    /* \"contracts/ERC20Token_flattened.sol\":24971:25055  function paused() public view virtual returns (bool) {... */\ntag_74:\n    /* \"contracts/ERC20Token_flattened.sol\":25018:25022  bool */\n  0x00\n    /* \"contracts/ERC20Token_flattened.sol\":25041:25048  _paused */\n  0x05\n  0x00\n  swap1\n  sload\n  swap1\n  0x0100\n  exp\n  swap1\n  div\n  0xff\n  and\n    /* \"contracts/ERC20Token_flattened.sol\":25034:25048  return _paused */\n  swap1\n  pop\n    /* \"contracts/ERC20Token_flattened.sol\":24971:25055  function paused() public view virtual returns (bool) {... */\n  swap1\n  jump\t// out\n    /* \"#utility.yul\":88:205   */\ntag_90:\n    /* \"#utility.yul\":197:198   */\n  0x00\n    /* \"#utility.yul\":194:195   */\n  dup1\n    /* \"#utility.yul\":187:199   */\n  revert\n    /* \"#utility.yul\":334:460   */\ntag_92:\n    /* \"#utility.yul\":371:378   */\n  0x00\n    /* \"#utility.yul\":411:453   */\n  0xffffffffffffffffffffffffffffffffffffffff\n    /* \"#utility.yul\":404:409   */\n  dup3\n    /* \"#utility.yul\":400:454   */\n  and\n    /* \"#utility.yul\":389:454   */\n  swap1\n  pop\n    /* \"#utility.yul\":334:460   */\n  swap2\n  swap1\n  pop\n  jump\t// out\n    /* \"#utility.yul\":466:562   */\ntag_93:\n    /* \"#utility.yul\":503:510   */\n  0x00\n    /* \"#utility.yul\":532:556   */\n  tag_138\n    /* \"#utility.yul\":550:555   */\n  dup3\n    /* \"#utility.yul\":532:556   */\n  tag_92\n  jump\t// in\ntag_138:\n    /* \"#utility.yul\":521:556   */\n  swap1\n  pop\n    /* \"#utility.yul\":466:562   */\n  swap2\n  swap1\n  pop\n  jump\t// out\n    /* \"#utility.yul\":568:690   */\ntag_94:\n    /* \"#utility.yul\":641:665   */\n  tag_140\n    /* \"#utility.yul\":659:664   */\n  dup2\n    /* \"#utility.yul\":641:665   */\n  tag_93\n  jump\t// in\ntag_140:\n    /* \"#utility.yul\":634:639   */\n  dup2\n    /* \"#utility.yul\":631:666   */\n  eq\n    /* \"#utility.yul\":621:684   */\n  tag_141\n  jumpi\n    /* \"#utility.yul\":680:681   */\n  0x00\n    /* \"#utility.yul\":677:678   */\n  dup1\n    /* \"#utility.yul\":670:682   */\n  revert\n    /* \"#utility.yul\":621:684   */\ntag_141:\n    /* \"#utility.yul\":568:690   */\n  pop\n  jump\t// out\n    /* \"#utility.yul\":696:839   */\ntag_95:\n    /* \"#utility.yul\":753:758   */\n  0x00\n    /* \"#utility.yul\":784:790   */\n  dup2\n    /* \"#utility.yul\":778:791   */\n  mload\n    /* \"#utility.yul\":769:791   */\n  swap1\n  pop\n    /* \"#utility.yul\":800:833   */\n  tag_143\n    /* \"#utility.yul\":827:832   */\n  dup2\n    /* \"#utility.yul\":800:833   */\n  tag_94\n  jump\t// in\ntag_143:\n    /* \"#utility.yul\":696:839   */\n  swap3\n  swap2\n  pop\n  pop\n  jump\t// out\n    /* \"#utility.yul\":845:1196   */\ntag_3:\n    /* \"#utility.yul\":915:921   */\n  0x00\n    /* \"#utility.yul\":964:966   */\n  0x20\n    /* \"#utility.yul\":952:961   */\n  dup3\n    /* \"#utility.yul\":943:950   */\n  dup5\n    /* \"#utility.yul\":939:962   */\n  sub\n    /* \"#utility.yul\":935:967   */\n  slt\n    /* \"#utility.yul\":932:1051   */\n  iszero\n  tag_145\n  jumpi\n    /* \"#utility.yul\":970:1049   */\n  tag_146\n  tag_90\n  jump\t// in\ntag_146:\n    /* \"#utility.yul\":932:1051   */\ntag_145:\n    /* \"#utility.yul\":1090:1091   */\n  0x00\n    /* \"#utility.yul\":1115:1179   */\n  tag_147\n    /* \"#utility.yul\":1171:1178   */\n  dup5\n    /* \"#utility.yul\":1162:1168   */\n  dup3\n    /* \"#utility.yul\":1151:1160   */\n  dup6\n    /* \"#utility.yul\":1147:1169   */\n  add\n    /* \"#utility.yul\":1115:1179   */\n  tag_95\n  jump\t// in\ntag_147:\n    /* \"#utility.yul\":1105:1179   */\n  swap2\n  pop\n    /* \"#utility.yul\":1061:1189   */\n  pop\n    /* \"#utility.yul\":845:1196   */\n  swap3\n  swap2\n  pop\n  pop\n  jump\t// out\n    /* \"#utility.yul\":1202:1301   */\ntag_96:\n    /* \"#utility.yul\":1254:1260   */\n  0x00\n    /* \"#utility.yul\":1288:1293   */\n  dup2\n    /* \"#utility.yul\":1282:1294   */\n  mload\n    /* \"#utility.yul\":1272:1294   */\n  swap1\n  pop\n    /* \"#utility.yul\":1202:1301   */\n  swap2\n  swap1\n  pop\n  jump\t// out\n    /* \"#utility.yul\":1307:1487   */\ntag_97:\n    /* \"#utility.yul\":1355:1432   */\n  0x4e487b7100000000000000000000000000000000000000000000000000000000\n    /* \"#utility.yul\":1352:1353   */\n  0x00\n    /* \"#utility.yul\":1345:1433   */\n  mstore\n    /* \"#utility.yul\":1452:1456   */\n  0x41\n    /* \"#utility.yul\":1449:1450   */\n  0x04\n    /* \"#utility.yul\":1442:1457   */\n  mstore\n    /* \"#utility.yul\":1476:1480   */\n  0x24\n    /* \"#utility.yul\":1473:1474   */\n  0x00\n    /* \"#utility.yul\":1466:1481   */\n  revert\n    /* \"#utility.yul\":1493:1673   */\ntag_98:\n    /* \"#utility.yul\":1541:1618   */\n  0x4e487b7100000000000000000000000000000000000000000000000000000000\n    /* \"#utility.yul\":1538:1539   */\n  0x00\n    /* \"#utility.yul\":1531:1619   */\n  mstore\n    /* \"#utility.yul\":1638:1642   */\n  0x22\n    /* \"#utility.yul\":1635:1636   */\n  0x04\n    /* \"#utility.yul\":1628:1643   */\n  mstore\n    /* \"#utility.yul\":1662:1666   */\n  0x24\n    /* \"#utility.yul\":1659:1660   */\n  0x00\n    /* \"#utility.yul\":1652:1667   */\n  revert\n    /* \"#utility.yul\":1679:1999   */\ntag_99:\n    /* \"#utility.yul\":1723:1729   */\n  0x00\n    /* \"#utility.yul\":1760:1761   */\n  0x02\n    /* \"#utility.yul\":1754:1758   */\n  dup3\n    /* \"#utility.yul\":1750:1762   */\n  div\n    /* \"#utility.yul\":1740:1762   */\n  swap1\n  pop\n    /* \"#utility.yul\":1807:1808   */\n  0x01\n    /* \"#utility.yul\":1801:1805   */\n  dup3\n    /* \"#utility.yul\":1797:1809   */\n  and\n    /* \"#utility.yul\":1828:1846   */\n  dup1\n    /* \"#utility.yul\":1818:1899   */\n  tag_152\n  jumpi\n    /* \"#utility.yul\":1884:1888   */\n  0x7f\n    /* \"#utility.yul\":1876:1882   */\n  dup3\n    /* \"#utility.yul\":1872:1889   */\n  and\n    /* \"#utility.yul\":1862:1889   */\n  swap2\n  pop\n    /* \"#utility.yul\":1818:1899   */\ntag_152:\n    /* \"#utility.yul\":1946:1948   */\n  0x20\n    /* \"#utility.yul\":1938:1944   */\n  dup3\n    /* \"#utility.yul\":1935:1949   */\n  lt\n    /* \"#utility.yul\":1915:1933   */\n  dup2\n    /* \"#utility.yul\":1912:1950   */\n  sub\n    /* \"#utility.yul\":1909:1993   */\n  tag_153\n  jumpi\n    /* \"#utility.yul\":1965:1983   */\n  tag_154\n  tag_98\n  jump\t// in\ntag_154:\n    /* \"#utility.yul\":1909:1993   */\ntag_153:\n    /* \"#utility.yul\":1730:1999   */\n  pop\n    /* \"#utility.yul\":1679:1999   */\n  swap2\n  swap1\n  pop\n  jump\t// out\n    /* \"#utility.yul\":2005:2146   */\ntag_100:\n    /* \"#utility.yul\":2054:2058   */\n  0x00\n    /* \"#utility.yul\":2077:2080   */\n  dup2\n    /* \"#utility.yul\":2069:2080   */\n  swap1\n  pop\n    /* \"#utility.yul\":2100:2103   */\n  dup2\n    /* \"#utility.yul\":2097:2098   */\n  0x00\n    /* \"#utility.yul\":2090:2104   */\n  mstore\n    /* \"#utility.yul\":2134:2138   */\n  0x20\n    /* \"#utility.yul\":2131:2132   */\n  0x00\n    /* \"#utility.yul\":2121:2139   */\n  keccak256\n    /* \"#utility.yul\":2113:2139   */\n  swap1\n  pop\n    /* \"#utility.yul\":2005:2146   */\n  swap2\n  swap1\n  pop\n  jump\t// out\n    /* \"#utility.yul\":2152:2245   */\ntag_101:\n    /* \"#utility.yul\":2189:2195   */\n  0x00\n    /* \"#utility.yul\":2236:2238   */\n  0x20\n    /* \"#utility.yul\":2231:2233   */\n  0x1f\n    /* \"#utility.yul\":2224:2229   */\n  dup4\n    /* \"#utility.yul\":2220:2234   */\n  add\n    /* \"#utility.yul\":2216:2239   */\n  div\n    /* \"#utility.yul\":2206:2239   */\n  swap1\n  pop\n    /* \"#utility.yul\":2152:2245   */\n  swap2\n  swap1\n  pop\n  jump\t// out\n    /* \"#utility.yul\":2251:2358   */\ntag_102:\n    /* \"#utility.yul\":2295:2303   */\n  0x00\n    /* \"#utility.yul\":2345:2350   */\n  dup3\n    /* \"#utility.yul\":2339:2343   */\n  dup3\n    /* \"#utility.yul\":2335:2351   */\n  shl\n    /* \"#utility.yul\":2314:2351   */\n  swap1\n  pop\n    /* \"#utility.yul\":2251:2358   */\n  swap3\n  swap2\n  pop\n  pop\n  jump\t// out\n    /* \"#utility.yul\":2364:2757   */\ntag_103:\n    /* \"#utility.yul\":2433:2439   */\n  0x00\n    /* \"#utility.yul\":2483:2484   */\n  0x08\n    /* \"#utility.yul\":2471:2481   */\n  dup4\n    /* \"#utility.yul\":2467:2485   */\n  mul\n    /* \"#utility.yul\":2506:2603   */\n  tag_159\n    /* \"#utility.yul\":2536:2602   */\n  0xffffffffffffffffffffffffffffffffffffffffffffffffffffffffffffffff\n    /* \"#utility.yul\":2525:2534   */\n  dup3\n    /* \"#utility.yul\":2506:2603   */\n  tag_102\n  jump\t// in\ntag_159:\n    /* \"#utility.yul\":2624:2663   */\n  tag_160\n    /* \"#utility.yul\":2654:2662   */\n  dup7\n    /* \"#utility.yul\":2643:2652   */\n  dup4\n    /* \"#utility.yul\":2624:2663   */\n  tag_102\n  jump\t// in\ntag_160:\n    /* \"#utility.yul\":2612:2663   */\n  swap6\n  pop\n    /* \"#utility.yul\":2696:2700   */\n  dup1\n    /* \"#utility.yul\":2692:2701   */\n  not\n    /* \"#utility.yul\":2685:2690   */\n  dup5\n    /* \"#utility.yul\":2681:2702   */\n  and\n    /* \"#utility.yul\":2672:2702   */\n  swap4\n  pop\n    /* \"#utility.yul\":2745:2749   */\n  dup1\n    /* \"#utility.yul\":2735:2743   */\n  dup7\n    /* \"#utility.yul\":2731:2750   */\n  and\n    /* \"#utility.yul\":2724:2729   */\n  dup5\n    /* \"#utility.yul\":2721:2751   */\n  or\n    /* \"#utility.yul\":2711:2751   */\n  swap3\n  pop\n    /* \"#utility.yul\":2440:2757   */\n  pop\n  pop\n    /* \"#utility.yul\":2364:2757   */\n  swap4\n  swap3\n  pop\n  pop\n  pop\n  jump\t// out\n    /* \"#utility.yul\":2763:2840   */\ntag_104:\n    /* \"#utility.yul\":2800:2807   */\n  0x00\n    /* \"#utility.yul\":2829:2834   */\n  dup2\n    /* \"#utility.yul\":2818:2834   */\n  swap1\n  pop\n    /* \"#utility.yul\":2763:2840   */\n  swap2\n  swap1\n  pop\n  jump\t// out\n    /* \"#utility.yul\":2846:2906   */\ntag_105:\n    /* \"#utility.yul\":2874:2877   */\n  0x00\n    /* \"#utility.yul\":2895:2900   */\n  dup2\n    /* \"#utility.yul\":2888:2900   */\n  swap1\n  pop\n    /* \"#utility.yul\":2846:2906   */\n  swap2\n  swap1\n  pop\n  jump\t// out\n    /* \"#utility.yul\":2912:3054   */\ntag_106:\n    /* \"#utility.yul\":2962:2971   */\n  0x00\n    /* \"#utility.yul\":2995:3048   */\n  tag_164\n    /* \"#utility.yul\":3013:3047   */\n  tag_165\n    /* \"#utility.yul\":3022:3046   */\n  tag_166\n    /* \"#utility.yul\":3040:3045   */\n  dup5\n    /* \"#utility.yul\":3022:3046   */\n  tag_104\n  jump\t// in\ntag_166:\n    /* \"#utility.yul\":3013:3047   */\n  tag_105\n  jump\t// in\ntag_165:\n    /* \"#utility.yul\":2995:3048   */\n  tag_104\n  jump\t// in\ntag_164:\n    /* \"#utility.yul\":2982:3048   */\n  swap1\n  pop\n    /* \"#utility.yul\":2912:3054   */\n  swap2\n  swap1\n  pop\n  jump\t// out\n    /* \"#utility.yul\":3060:3135   */\ntag_107:\n    /* \"#utility.yul\":3103:3106   */\n  0x00\n    /* \"#utility.yul\":3124:3129   */\n  dup2\n    /* \"#utility.yul\":3117:3129   */\n  swap1\n  pop\n    /* \"#utility.yul\":3060:3135   */\n  swap2\n  swap1\n  pop\n  jump\t// out\n    /* \"#utility.yul\":3141:3410   */\ntag_108:\n    /* \"#utility.yul\":3251:3290   */\n  tag_169\n    /* \"#utility.yul\":3282:3289   */\n  dup4\n    /* \"#utility.yul\":3251:3290   */\n  tag_106\n  jump\t// in\ntag_169:\n    /* \"#utility.yul\":3312:3403   */\n  tag_170\n    /* \"#utility.yul\":3361:3402   */\n  tag_171\n    /* \"#utility.yul\":3385:3401   */\n  dup3\n    /* \"#utility.yul\":3361:3402   */\n  tag_107\n  jump\t// in\ntag_171:\n    /* \"#utility.yul\":3353:3359   */\n  dup5\n    /* \"#utility.yul\":3346:3350   */\n  dup5\n    /* \"#utility.yul\":3340:3351   */\n  sload\n    /* \"#utility.yul\":3312:3403   */\n  tag_103\n  jump\t// in\ntag_170:\n    /* \"#utility.yul\":3306:3310   */\n  dup3\n    /* \"#utility.yul\":3299:3404   */\n  sstore\n    /* \"#utility.yul\":3217:3410   */\n  pop\n    /* \"#utility.yul\":3141:3410   */\n  pop\n  pop\n  pop\n  jump\t// out\n    /* \"#utility.yul\":3416:3489   */\ntag_109:\n    /* \"#utility.yul\":3461:3464   */\n  0x00\n    /* \"#utility.yul\":3416:3489   */\n  swap1\n  jump\t// out\n    /* \"#utility.yul\":3495:3684   */\ntag_110:\n    /* \"#utility.yul\":3572:3604   */\n  tag_174\n  tag_109\n  jump\t// in\ntag_174:\n    /* \"#utility.yul\":3613:3678   */\n  tag_175\n    /* \"#utility.yul\":3671:3677   */\n  dup2\n    /* \"#utility.yul\":3663:3669   */\n  dup5\n    /* \"#utility.yul\":3657:3661   */\n  dup5\n    /* \"#utility.yul\":3613:3678   */\n  tag_108\n  jump\t// in\ntag_175:\n    /* \"#utility.yul\":3548:3684   */\n  pop\n    /* \"#utility.yul\":3495:3684   */\n  pop\n  pop\n  jump\t// out\n    /* \"#utility.yul\":3690:3876   */\ntag_111:\n    /* \"#utility.yul\":3750:3870   */\ntag_177:\n    /* \"#utility.yul\":3767:3770   */\n  dup2\n    /* \"#utility.yul\":3760:3765   */\n  dup2\n    /* \"#utility.yul\":3757:3771   */\n  lt\n    /* \"#utility.yul\":3750:3870   */\n  iszero\n  tag_179\n  jumpi\n    /* \"#utility.yul\":3821:3860   */\n  tag_180\n    /* \"#utility.yul\":3858:3859   */\n  0x00\n    /* \"#utility.yul\":3851:3856   */\n  dup3\n    /* \"#utility.yul\":3821:3860   */\n  tag_110\n  jump\t// in\ntag_180:\n    /* \"#utility.yul\":3794:3795   */\n  0x01\n    /* \"#utility.yul\":3787:3792   */\n  dup2\n    /* \"#utility.yul\":3783:3796   */\n  add\n    /* \"#utility.yul\":3774:3796   */\n  swap1\n  pop\n    /* \"#utility.yul\":3750:3870   */\n  jump(tag_177)\ntag_179:\n    /* \"#utility.yul\":3690:3876   */\n  pop\n  pop\n  jump\t// out\n    /* \"#utility.yul\":3882:4425   */\ntag_112:\n    /* \"#utility.yul\":3983:3985   */\n  0x1f\n    /* \"#utility.yul\":3978:3981   */\n  dup3\n    /* \"#utility.yul\":3975:3986   */\n  gt\n    /* \"#utility.yul\":3972:4418   */\n  iszero\n  tag_182\n  jumpi\n    /* \"#utility.yul\":4017:4055   */\n  tag_183\n    /* \"#utility.yul\":4049:4054   */\n  dup2\n    /* \"#utility.yul\":4017:4055   */\n  tag_100\n  jump\t// in\ntag_183:\n    /* \"#utility.yul\":4101:4130   */\n  tag_184\n    /* \"#utility.yul\":4119:4129   */\n  dup5\n    /* \"#utility.yul\":4101:4130   */\n  tag_101\n  jump\t// in\ntag_184:\n    /* \"#utility.yul\":4091:4099   */\n  dup2\n    /* \"#utility.yul\":4087:4131   */\n  add\n    /* \"#utility.yul\":4284:4286   */\n  0x20\n    /* \"#utility.yul\":4272:4282   */\n  dup6\n    /* \"#utility.yul\":4269:4287   */\n  lt\n    /* \"#utility.yul\":4266:4315   */\n  iszero\n  tag_185\n  jumpi\n    /* \"#utility.yul\":4305:4313   */\n  dup2\n    /* \"#utility.yul\":4290:4313   */\n  swap1\n  pop\n    /* \"#utility.yul\":4266:4315   */\ntag_185:\n    /* \"#utility.yul\":4328:4408   */\n  tag_186\n    /* \"#utility.yul\":4384:4406   */\n  tag_187\n    /* \"#utility.yul\":4402:4405   */\n  dup6\n    /* \"#utility.yul\":4384:4406   */\n  tag_101\n  jump\t// in\ntag_187:\n    /* \"#utility.yul\":4374:4382   */\n  dup4\n    /* \"#utility.yul\":4370:4407   */\n  add\n    /* \"#utility.yul\":4357:4368   */\n  dup3\n    /* \"#utility.yul\":4328:4408   */\n  tag_111\n  jump\t// in\ntag_186:\n    /* \"#utility.yul\":3987:4418   */\n  pop\n  pop\n    /* \"#utility.yul\":3972:4418   */\ntag_182:\n    /* \"#utility.yul\":3882:4425   */\n  pop\n  pop\n  pop\n  jump\t// out\n    /* \"#utility.yul\":4431:4548   */\ntag_113:\n    /* \"#utility.yul\":4485:4493   */\n  0x00\n    /* \"#utility.yul\":4535:4540   */\n  dup3\n    /* \"#utility.yul\":4529:4533   */\n  dup3\n    /* \"#utility.yul\":4525:4541   */\n  shr\n    /* \"#utility.yul\":4504:4541   */\n  swap1\n  pop\n    /* \"#utility.yul\":4431:4548   */\n  swap3\n  swap2\n  pop\n  pop\n  jump\t// out\n    /* \"#utility.yul\":4554:4723   */\ntag_114:\n    /* \"#utility.yul\":4598:4604   */\n  0x00\n    /* \"#utility.yul\":4631:4682   */\n  tag_190\n    /* \"#utility.yul\":4679:4680   */\n  0x00\n    /* \"#utility.yul\":4675:4681   */\n  not\n    /* \"#utility.yul\":4667:4672   */\n  dup5\n    /* \"#utility.yul\":4664:4665   */\n  0x08\n    /* \"#utility.yul\":4660:4673   */\n  mul\n    /* \"#utility.yul\":4631:4682   */\n  tag_113\n  jump\t// in\ntag_190:\n    /* \"#utility.yul\":4627:4683   */\n  not\n    /* \"#utility.yul\":4712:4716   */\n  dup1\n    /* \"#utility.yul\":4706:4710   */\n  dup4\n    /* \"#utility.yul\":4702:4717   */\n  and\n    /* \"#utility.yul\":4692:4717   */\n  swap2\n  pop\n    /* \"#utility.yul\":4605:4723   */\n  pop\n    /* \"#utility.yul\":4554:4723   */\n  swap3\n  swap2\n  pop\n  pop\n  jump\t// out\n    /* \"#utility.yul\":4728:5023   */\ntag_115:\n    /* \"#utility.yul\":4804:4808   */\n  0x00\n    /* \"#utility.yul\":4950:4979   */\n  tag_192\n    /* \"#utility.yul\":4975:4978   */\n  dup4\n    /* \"#utility.yul\":4969:4973   */\n  dup4\n    /* \"#utility.yul\":4950:4979   */\n  tag_114\n  jump\t// in\ntag_192:\n    /* \"#utility.yul\":4942:4979   */\n  swap2\n  pop\n    /* \"#utility.yul\":5012:5015   */\n  dup3\n    /* \"#utility.yul\":5009:5010   */\n  0x02\n    /* \"#utility.yul\":5005:5016   */\n  mul\n    /* \"#utility.yul\":4999:5003   */\n  dup3\n    /* \"#utility.yul\":4996:5017   */\n  or\n    /* \"#utility.yul\":4988:5017   */\n  swap1\n  pop\n    /* \"#utility.yul\":4728:5023   */\n  swap3\n  swap2\n  pop\n  pop\n  jump\t// out\n    /* \"#utility.yul\":5028:6423   */\ntag_12:\n    /* \"#utility.yul\":5145:5182   */\n  tag_194\n    /* \"#utility.yul\":5178:5181   */\n  dup3\n    /* \"#utility.yul\":5145:5182   */\n  tag_96\n  jump\t// in\ntag_194:\n    /* \"#utility.yul\":5247:5265   */\n  0xffffffffffffffff\n    /* \"#utility.yul\":5239:5245   */\n  dup2\n    /* \"#utility.yul\":5236:5266   */\n  gt\n    /* \"#utility.yul\":5233:5289   */\n  iszero\n  tag_195\n  jumpi\n    /* \"#utility.yul\":5269:5287   */\n  tag_196\n  tag_97\n  jump\t// in\ntag_196:\n    /* \"#utility.yul\":5233:5289   */\ntag_195:\n    /* \"#utility.yul\":5313:5351   */\n  tag_197\n    /* \"#utility.yul\":5345:5349   */\n  dup3\n    /* \"#utility.yul\":5339:5350   */\n  sload\n    /* \"#utility.yul\":5313:5351   */\n  tag_99\n  jump\t// in\ntag_197:\n    /* \"#utility.yul\":5398:5465   */\n  tag_198\n    /* \"#utility.yul\":5458:5464   */\n  dup3\n    /* \"#utility.yul\":5450:5456   */\n  dup3\n    /* \"#utility.yul\":5444:5448   */\n  dup6\n    /* \"#utility.yul\":5398:5465   */\n  tag_112\n  jump\t// in\ntag_198:\n    /* \"#utility.yul\":5492:5493   */\n  0x00\n    /* \"#utility.yul\":5516:5520   */\n  0x20\n    /* \"#utility.yul\":5503:5520   */\n  swap1\n  pop\n    /* \"#utility.yul\":5548:5550   */\n  0x1f\n    /* \"#utility.yul\":5540:5546   */\n  dup4\n    /* \"#utility.yul\":5537:5551   */\n  gt\n    /* \"#utility.yul\":5565:5566   */\n  0x01\n    /* \"#utility.yul\":5560:6178   */\n  dup2\n  eq\n  tag_200\n  jumpi\n    /* \"#utility.yul\":6222:6223   */\n  0x00\n    /* \"#utility.yul\":6239:6245   */\n  dup5\n    /* \"#utility.yul\":6236:6313   */\n  iszero\n  tag_201\n  jumpi\n    /* \"#utility.yul\":6288:6297   */\n  dup3\n    /* \"#utility.yul\":6283:6286   */\n  dup8\n    /* \"#utility.yul\":6279:6298   */\n  add\n    /* \"#utility.yul\":6273:6299   */\n  mload\n    /* \"#utility.yul\":6264:6299   */\n  swap1\n  pop\n    /* \"#utility.yul\":6236:6313   */\ntag_201:\n    /* \"#utility.yul\":6339:6406   */\n  tag_202\n    /* \"#utility.yul\":6399:6405   */\n  dup6\n    /* \"#utility.yul\":6392:6397   */\n  dup3\n    /* \"#utility.yul\":6339:6406   */\n  tag_115\n  jump\t// in\ntag_202:\n    /* \"#utility.yul\":6333:6337   */\n  dup7\n    /* \"#utility.yul\":6326:6407   */\n  sstore\n    /* \"#utility.yul\":6195:6417   */\n  pop\n    /* \"#utility.yul\":5530:6417   */\n  jump(tag_199)\n    /* \"#utility.yul\":5560:6178   */\ntag_200:\n    /* \"#utility.yul\":5612:5616   */\n  0x1f\n    /* \"#utility.yul\":5608:5617   */\n  not\n    /* \"#utility.yul\":5600:5606   */\n  dup5\n    /* \"#utility.yul\":5596:5618   */\n  and\n    /* \"#utility.yul\":5646:5683   */\n  tag_203\n    /* \"#utility.yul\":5678:5682   */\n  dup7\n    /* \"#utility.yul\":5646:5683   */\n  tag_100\n  jump\t// in\ntag_203:\n    /* \"#utility.yul\":5705:5706   */\n  0x00\n    /* \"#utility.yul\":5719:5927   */\ntag_204:\n    /* \"#utility.yul\":5733:5740   */\n  dup3\n    /* \"#utility.yul\":5730:5731   */\n  dup2\n    /* \"#utility.yul\":5727:5741   */\n  lt\n    /* \"#utility.yul\":5719:5927   */\n  iszero\n  tag_206\n  jumpi\n    /* \"#utility.yul\":5812:5821   */\n  dup5\n    /* \"#utility.yul\":5807:5810   */\n  dup10\n    /* \"#utility.yul\":5803:5822   */\n  add\n    /* \"#utility.yul\":5797:5823   */\n  mload\n    /* \"#utility.yul\":5789:5795   */\n  dup3\n    /* \"#utility.yul\":5782:5824   */\n  sstore\n    /* \"#utility.yul\":5863:5864   */\n  0x01\n    /* \"#utility.yul\":5855:5861   */\n  dup3\n    /* \"#utility.yul\":5851:5865   */\n  add\n    /* \"#utility.yul\":5841:5865   */\n  swap2\n  pop\n    /* \"#utility.yul\":5910:5912   */\n  0x20\n    /* \"#utility.yul\":5899:5908   */\n  dup6\n    /* \"#utility.yul\":5895:5913   */\n  add\n    /* \"#utility.yul\":5882:5913   */\n  swap5\n  pop\n    /* \"#utility.yul\":5756:5760   */\n  0x20\n    /* \"#utility.yul\":5753:5754   */\n  dup2\n    /* \"#utility.yul\":5749:5761   */\n  add\n    /* \"#utility.yul\":5744:5761   */\n  swap1\n  pop\n    /* \"#utility.yul\":5719:5927   */\n  jump(tag_204)\ntag_206:\n    /* \"#utility.yul\":5955:5961   */\n  dup7\n    /* \"#utility.yul\":5946:5953   */\n  dup4\n    /* \"#utility.yul\":5943:5962   */\n  lt\n    /* \"#utility.yul\":5940:6119   */\n  iszero\n  tag_207\n  jumpi\n    /* \"#utility.yul\":6013:6022   */\n  dup5\n    /* \"#utility.yul\":6008:6011   */\n  dup10\n    /* \"#utility.yul\":6004:6023   */\n  add\n    /* \"#utility.yul\":5998:6024   */\n  mload\n    /* \"#utility.yul\":6056:6104   */\n  tag_208\n    /* \"#utility.yul\":6098:6102   */\n  0x1f\n    /* \"#utility.yul\":6090:6096   */\n  dup10\n    /* \"#utility.yul\":6086:6103   */\n  and\n    /* \"#utility.yul\":6075:6084   */\n  dup3\n    /* \"#utility.yul\":6056:6104   */\n  tag_114\n  jump\t// in\ntag_208:\n    /* \"#utility.yul\":6048:6054   */\n  dup4\n    /* \"#utility.yul\":6041:6105   */\n  sstore\n    /* \"#utility.yul\":5963:6119   */\n  pop\n    /* \"#utility.yul\":5940:6119   */\ntag_207:\n    /* \"#utility.yul\":6165:6166   */\n  0x01\n    /* \"#utility.yul\":6161:6162   */\n  0x02\n    /* \"#utility.yul\":6153:6159   */\n  dup9\n    /* \"#utility.yul\":6149:6163   */\n  mul\n    /* \"#utility.yul\":6145:6167   */\n  add\n    /* \"#utility.yul\":6139:6143   */\n  dup9\n    /* \"#utility.yul\":6132:6168   */\n  sstore\n    /* \"#utility.yul\":5567:6178   */\n  pop\n  pop\n  pop\n    /* \"#utility.yul\":5530:6417   */\ntag_199:\n  pop\n    /* \"#utility.yul\":5120:6423   */\n  pop\n  pop\n  pop\n    /* \"#utility.yul\":5028:6423   */\n  pop\n  pop\n  jump\t// out\n    /* \"#utility.yul\":6429:6547   */\ntag_116:\n    /* \"#utility.yul\":6516:6540   */\n  tag_210\n    /* \"#utility.yul\":6534:6539   */\n  dup2\n    /* \"#utility.yul\":6516:6540   */\n  tag_93\n  jump\t// in\ntag_210:\n    /* \"#utility.yul\":6511:6514   */\n  dup3\n    /* \"#utility.yul\":6504:6541   */\n  mstore\n    /* \"#utility.yul\":6429:6547   */\n  pop\n  pop\n  jump\t// out\n    /* \"#utility.yul\":6553:6775   */\ntag_18:\n    /* \"#utility.yul\":6646:6650   */\n  0x00\n    /* \"#utility.yul\":6684:6686   */\n  0x20\n    /* \"#utility.yul\":6673:6682   */\n  dup3\n    /* \"#utility.yul\":6669:6687   */\n  add\n    /* \"#utility.yul\":6661:6687   */\n  swap1\n  pop\n    /* \"#utility.yul\":6697:6768   */\n  tag_212\n    /* \"#utility.yul\":6765:6766   */\n  0x00\n    /* \"#utility.yul\":6754:6763   */\n  dup4\n    /* \"#utility.yul\":6750:6767   */\n  add\n    /* \"#utility.yul\":6741:6747   */\n  dup5\n    /* \"#utility.yul\":6697:6768   */\n  tag_116\n  jump\t// in\ntag_212:\n    /* \"#utility.yul\":6553:6775   */\n  swap3\n  swap2\n  pop\n  pop\n  jump\t// out\n    /* \"#utility.yul\":6781:6961   */\ntag_117:\n    /* \"#utility.yul\":6829:6906   */\n  0x4e487b7100000000000000000000000000000000000000000000000000000000\n    /* \"#utility.yul\":6826:6827   */\n  0x00\n    /* \"#utility.yul\":6819:6907   */\n  mstore\n    /* \"#utility.yul\":6926:6930   */\n  0x11\n    /* \"#utility.yul\":6923:6924   */\n  0x04\n    /* \"#utility.yul\":6916:6931   */\n  mstore\n    /* \"#utility.yul\":6950:6954   */\n  0x24\n    /* \"#utility.yul\":6947:6948   */\n  0x00\n    /* \"#utility.yul\":6940:6955   */\n  revert\n    /* \"#utility.yul\":6967:7069   */\ntag_118:\n    /* \"#utility.yul\":7009:7017   */\n  0x00\n    /* \"#utility.yul\":7056:7061   */\n  dup2\n    /* \"#utility.yul\":7053:7054   */\n  0x01\n    /* \"#utility.yul\":7049:7062   */\n  shr\n    /* \"#utility.yul\":7028:7062   */\n  swap1\n  pop\n    /* \"#utility.yul\":6967:7069   */\n  swap2\n  swap1\n  pop\n  jump\t// out\n    /* \"#utility.yul\":7075:7923   */\ntag_119:\n    /* \"#utility.yul\":7136:7141   */\n  0x00\n    /* \"#utility.yul\":7143:7147   */\n  dup1\n    /* \"#utility.yul\":7167:7173   */\n  dup3\n    /* \"#utility.yul\":7158:7173   */\n  swap2\n  pop\n    /* \"#utility.yul\":7191:7196   */\n  dup4\n    /* \"#utility.yul\":7182:7196   */\n  swap1\n  pop\n    /* \"#utility.yul\":7205:7917   */\ntag_216:\n    /* \"#utility.yul\":7226:7227   */\n  0x01\n    /* \"#utility.yul\":7216:7224   */\n  dup6\n    /* \"#utility.yul\":7213:7228   */\n  gt\n    /* \"#utility.yul\":7205:7917   */\n  iszero\n  tag_218\n  jumpi\n    /* \"#utility.yul\":7321:7325   */\n  dup1\n    /* \"#utility.yul\":7316:7319   */\n  dup7\n    /* \"#utility.yul\":7312:7326   */\n  div\n    /* \"#utility.yul\":7306:7310   */\n  dup2\n    /* \"#utility.yul\":7303:7327   */\n  gt\n    /* \"#utility.yul\":7300:7350   */\n  iszero\n  tag_219\n  jumpi\n    /* \"#utility.yul\":7330:7348   */\n  tag_220\n  tag_117\n  jump\t// in\ntag_220:\n    /* \"#utility.yul\":7300:7350   */\ntag_219:\n    /* \"#utility.yul\":7380:7381   */\n  0x01\n    /* \"#utility.yul\":7370:7378   */\n  dup6\n    /* \"#utility.yul\":7366:7382   */\n  and\n    /* \"#utility.yul\":7363:7814   */\n  iszero\n  tag_221\n  jumpi\n    /* \"#utility.yul\":7795:7799   */\n  dup1\n    /* \"#utility.yul\":7788:7793   */\n  dup3\n    /* \"#utility.yul\":7784:7800   */\n  mul\n    /* \"#utility.yul\":7775:7800   */\n  swap2\n  pop\n    /* \"#utility.yul\":7363:7814   */\ntag_221:\n    /* \"#utility.yul\":7845:7849   */\n  dup1\n    /* \"#utility.yul\":7839:7843   */\n  dup2\n    /* \"#utility.yul\":7835:7850   */\n  mul\n    /* \"#utility.yul\":7827:7850   */\n  swap1\n  pop\n    /* \"#utility.yul\":7875:7907   */\n  tag_222\n    /* \"#utility.yul\":7898:7906   */\n  dup6\n    /* \"#utility.yul\":7875:7907   */\n  tag_118\n  jump\t// in\ntag_222:\n    /* \"#utility.yul\":7863:7907   */\n  swap5\n  pop\n    /* \"#utility.yul\":7205:7917   */\n  jump(tag_216)\ntag_218:\n    /* \"#utility.yul\":7075:7923   */\n  swap5\n  pop\n  swap5\n  swap3\n  pop\n  pop\n  pop\n  jump\t// out\n    /* \"#utility.yul\":7929:9002   */\ntag_120:\n    /* \"#utility.yul\":7983:7988   */\n  0x00\n    /* \"#utility.yul\":8174:8182   */\n  dup3\n    /* \"#utility.yul\":8164:8204   */\n  tag_224\n  jumpi\n    /* \"#utility.yul\":8195:8196   */\n  0x01\n    /* \"#utility.yul\":8186:8196   */\n  swap1\n  pop\n    /* \"#utility.yul\":8197:8202   */\n  jump(tag_223)\n    /* \"#utility.yul\":8164:8204   */\ntag_224:\n    /* \"#utility.yul\":8223:8227   */\n  dup2\n    /* \"#utility.yul\":8213:8249   */\n  tag_225\n  jumpi\n    /* \"#utility.yul\":8240:8241   */\n  0x00\n    /* \"#utility.yul\":8231:8241   */\n  swap1\n  pop\n    /* \"#utility.yul\":8242:8247   */\n  jump(tag_223)\n    /* \"#utility.yul\":8213:8249   */\ntag_225:\n    /* \"#utility.yul\":8309:8313   */\n  dup2\n    /* \"#utility.yul\":8357:8358   */\n  0x01\n    /* \"#utility.yul\":8352:8379   */\n  dup2\n  eq\n  tag_227\n  jumpi\n    /* \"#utility.yul\":8393:8394   */\n  0x02\n    /* \"#utility.yul\":8388:8579   */\n  dup2\n  eq\n  tag_228\n  jumpi\n    /* \"#utility.yul\":8302:8579   */\n  jump(tag_226)\n    /* \"#utility.yul\":8352:8379   */\ntag_227:\n    /* \"#utility.yul\":8370:8371   */\n  0x01\n    /* \"#utility.yul\":8361:8371   */\n  swap2\n  pop\n    /* \"#utility.yul\":8372:8377   */\n  pop\n  jump(tag_223)\n    /* \"#utility.yul\":8388:8579   */\ntag_228:\n    /* \"#utility.yul\":8433:8436   */\n  0xff\n    /* \"#utility.yul\":8423:8431   */\n  dup5\n    /* \"#utility.yul\":8420:8437   */\n  gt\n    /* \"#utility.yul\":8417:8460   */\n  iszero\n  tag_229\n  jumpi\n    /* \"#utility.yul\":8440:8458   */\n  tag_230\n  tag_117\n  jump\t// in\ntag_230:\n    /* \"#utility.yul\":8417:8460   */\ntag_229:\n    /* \"#utility.yul\":8489:8497   */\n  dup4\n    /* \"#utility.yul\":8486:8487   */\n  0x02\n    /* \"#utility.yul\":8482:8498   */\n  exp\n    /* \"#utility.yul\":8473:8498   */\n  swap2\n  pop\n    /* \"#utility.yul\":8524:8527   */\n  dup5\n    /* \"#utility.yul\":8517:8522   */\n  dup3\n    /* \"#utility.yul\":8514:8528   */\n  gt\n    /* \"#utility.yul\":8511:8551   */\n  iszero\n  tag_231\n  jumpi\n    /* \"#utility.yul\":8531:8549   */\n  tag_232\n  tag_117\n  jump\t// in\ntag_232:\n    /* \"#utility.yul\":8511:8551   */\ntag_231:\n    /* \"#utility.yul\":8564:8569   */\n  pop\n  jump(tag_223)\n    /* \"#utility.yul\":8302:8579   */\ntag_226:\n  pop\n    /* \"#utility.yul\":8688:8690   */\n  0x20\n    /* \"#utility.yul\":8678:8686   */\n  dup4\n    /* \"#utility.yul\":8675:8691   */\n  lt\n    /* \"#utility.yul\":8669:8672   */\n  0x0133\n    /* \"#utility.yul\":8663:8667   */\n  dup4\n    /* \"#utility.yul\":8660:8673   */\n  lt\n    /* \"#utility.yul\":8656:8692   */\n  and\n    /* \"#utility.yul\":8638:8640   */\n  0x4e\n    /* \"#utility.yul\":8628:8636   */\n  dup5\n    /* \"#utility.yul\":8625:8641   */\n  lt\n    /* \"#utility.yul\":8620:8622   */\n  0x0b\n    /* \"#utility.yul\":8614:8618   */\n  dup5\n    /* \"#utility.yul\":8611:8623   */\n  lt\n    /* \"#utility.yul\":8607:8642   */\n  and\n    /* \"#utility.yul\":8591:8702   */\n  or\n    /* \"#utility.yul\":8588:8834   */\n  iszero\n  tag_233\n  jumpi\n    /* \"#utility.yul\":8744:8752   */\n  dup3\n    /* \"#utility.yul\":8738:8742   */\n  dup3\n    /* \"#utility.yul\":8734:8753   */\n  exp\n    /* \"#utility.yul\":8725:8753   */\n  swap1\n  pop\n    /* \"#utility.yul\":8779:8782   */\n  dup4\n    /* \"#utility.yul\":8772:8777   */\n  dup2\n    /* \"#utility.yul\":8769:8783   */\n  gt\n    /* \"#utility.yul\":8766:8806   */\n  iszero\n  tag_234\n  jumpi\n    /* \"#utility.yul\":8786:8804   */\n  tag_235\n  tag_117\n  jump\t// in\ntag_235:\n    /* \"#utility.yul\":8766:8806   */\ntag_234:\n    /* \"#utility.yul\":8819:8824   */\n  jump(tag_223)\n    /* \"#utility.yul\":8588:8834   */\ntag_233:\n    /* \"#utility.yul\":8859:8901   */\n  tag_236\n    /* \"#utility.yul\":8897:8900   */\n  dup5\n    /* \"#utility.yul\":8887:8895   */\n  dup5\n    /* \"#utility.yul\":8881:8885   */\n  dup5\n    /* \"#utility.yul\":8878:8879   */\n  0x01\n    /* \"#utility.yul\":8859:8901   */\n  tag_119\n  jump\t// in\ntag_236:\n    /* \"#utility.yul\":8844:8901   */\n  swap3\n  pop\n  swap1\n  pop\n    /* \"#utility.yul\":8933:8937   */\n  dup2\n    /* \"#utility.yul\":8928:8931   */\n  dup5\n    /* \"#utility.yul\":8924:8938   */\n  div\n    /* \"#utility.yul\":8917:8922   */\n  dup2\n    /* \"#utility.yul\":8914:8939   */\n  gt\n    /* \"#utility.yul\":8911:8962   */\n  iszero\n  tag_237\n  jumpi\n    /* \"#utility.yul\":8942:8960   */\n  tag_238\n  tag_117\n  jump\t// in\ntag_238:\n    /* \"#utility.yul\":8911:8962   */\ntag_237:\n    /* \"#utility.yul\":8991:8995   */\n  dup2\n    /* \"#utility.yul\":8984:8989   */\n  dup2\n    /* \"#utility.yul\":8980:8996   */\n  mul\n    /* \"#utility.yul\":8971:8996   */\n  swap1\n  pop\n    /* \"#utility.yul\":7929:9002   */\ntag_223:\n  swap4\n  swap3\n  pop\n  pop\n  pop\n  jump\t// out\n    /* \"#utility.yul\":9008:9094   */\ntag_121:\n    /* \"#utility.yul\":9043:9050   */\n  0x00\n    /* \"#utility.yul\":9083:9087   */\n  0xff\n    /* \"#utility.yul\":9076:9081   */\n  dup3\n    /* \"#utility.yul\":9072:9088   */\n  and\n    /* \"#utility.yul\":9061:9088   */\n  swap1\n  pop\n    /* \"#utility.yul\":9008:9094   */\n  swap2\n  swap1\n  pop\n  jump\t// out\n    /* \"#utility.yul\":9100:9381   */\ntag_33:\n    /* \"#utility.yul\":9158:9163   */\n  0x00\n    /* \"#utility.yul\":9182:9205   */\n  tag_241\n    /* \"#utility.yul\":9200:9204   */\n  dup3\n    /* \"#utility.yul\":9182:9205   */\n  tag_104\n  jump\t// in\ntag_241:\n    /* \"#utility.yul\":9174:9205   */\n  swap2\n  pop\n    /* \"#utility.yul\":9226:9251   */\n  tag_242\n    /* \"#utility.yul\":9242:9250   */\n  dup4\n    /* \"#utility.yul\":9226:9251   */\n  tag_121\n  jump\t// in\ntag_242:\n    /* \"#utility.yul\":9214:9251   */\n  swap3\n  pop\n    /* \"#utility.yul\":9270:9374   */\n  tag_243\n    /* \"#utility.yul\":9307:9373   */\n  0xffffffffffffffffffffffffffffffffffffffffffffffffffffffffffffffff\n    /* \"#utility.yul\":9297:9305   */\n  dup5\n    /* \"#utility.yul\":9291:9295   */\n  dup5\n    /* \"#utility.yul\":9270:9374   */\n  tag_120\n  jump\t// in\ntag_243:\n    /* \"#utility.yul\":9261:9374   */\n  swap1\n  pop\n    /* \"#utility.yul\":9100:9381   */\n  swap3\n  swap2\n  pop\n  pop\n  jump\t// out\n    /* \"#utility.yul\":9387:9797   */\ntag_35:\n    /* \"#utility.yul\":9427:9434   */\n  0x00\n    /* \"#utility.yul\":9450:9470   */\n  tag_245\n    /* \"#utility.yul\":9468:9469   */\n  dup3\n    /* \"#utility.yul\":9450:9470   */\n  tag_104\n  jump\t// in\ntag_245:\n    /* \"#utility.yul\":9445:9470   */\n  swap2\n  pop\n    /* \"#utility.yul\":9484:9504   */\n  tag_246\n    /* \"#utility.yul\":9502:9503   */\n  dup4\n    /* \"#utility.yul\":9484:9504   */\n  tag_104\n  jump\t// in\ntag_246:\n    /* \"#utility.yul\":9479:9504   */\n  swap3\n  pop\n    /* \"#utility.yul\":9539:9540   */\n  dup3\n    /* \"#utility.yul\":9536:9537   */\n  dup3\n    /* \"#utility.yul\":9532:9541   */\n  mul\n    /* \"#utility.yul\":9561:9591   */\n  tag_247\n    /* \"#utility.yul\":9579:9590   */\n  dup2\n    /* \"#utility.yul\":9561:9591   */\n  tag_104\n  jump\t// in\ntag_247:\n    /* \"#utility.yul\":9550:9591   */\n  swap2\n  pop\n    /* \"#utility.yul\":9740:9741   */\n  dup3\n    /* \"#utility.yul\":9731:9738   */\n  dup3\n    /* \"#utility.yul\":9727:9742   */\n  div\n    /* \"#utility.yul\":9724:9725   */\n  dup5\n    /* \"#utility.yul\":9721:9743   */\n  eq\n    /* \"#utility.yul\":9701:9702   */\n  dup4\n    /* \"#utility.yul\":9694:9703   */\n  iszero\n    /* \"#utility.yul\":9674:9757   */\n  or\n    /* \"#utility.yul\":9651:9790   */\n  tag_248\n  jumpi\n    /* \"#utility.yul\":9770:9788   */\n  tag_249\n  tag_117\n  jump\t// in\ntag_249:\n    /* \"#utility.yul\":9651:9790   */\ntag_248:\n    /* \"#utility.yul\":9435:9797   */\n  pop\n    /* \"#utility.yul\":9387:9797   */\n  swap3\n  swap2\n  pop\n  pop\n  jump\t// out\n    /* \"#utility.yul\":9803:9880   */\ntag_122:\n    /* \"#utility.yul\":9840:9847   */\n  0x00\n    /* \"#utility.yul\":9869:9874   */\n  dup2\n    /* \"#utility.yul\":9858:9874   */\n  swap1\n  pop\n    /* \"#utility.yul\":9803:9880   */\n  swap2\n  swap1\n  pop\n  jump\t// out\n    /* \"#utility.yul\":9886:10004   */\ntag_123:\n    /* \"#utility.yul\":9973:9997   */\n  tag_252\n    /* \"#utility.yul\":9991:9996   */\n  dup2\n    /* \"#utility.yul\":9973:9997   */\n  tag_122\n  jump\t// in\ntag_252:\n    /* \"#utility.yul\":9968:9971   */\n  dup3\n    /* \"#utility.yul\":9961:9998   */\n  mstore\n    /* \"#utility.yul\":9886:10004   */\n  pop\n  pop\n  jump\t// out\n    /* \"#utility.yul\":10010:10128   */\ntag_124:\n    /* \"#utility.yul\":10097:10121   */\n  tag_254\n    /* \"#utility.yul\":10115:10120   */\n  dup2\n    /* \"#utility.yul\":10097:10121   */\n  tag_104\n  jump\t// in\ntag_254:\n    /* \"#utility.yul\":10092:10095   */\n  dup3\n    /* \"#utility.yul\":10085:10122   */\n  mstore\n    /* \"#utility.yul\":10010:10128   */\n  pop\n  pop\n  jump\t// out\n    /* \"#utility.yul\":10134:10798   */\ntag_49:\n    /* \"#utility.yul\":10339:10343   */\n  0x00\n    /* \"#utility.yul\":10377:10380   */\n  0xa0\n    /* \"#utility.yul\":10366:10375   */\n  dup3\n    /* \"#utility.yul\":10362:10381   */\n  add\n    /* \"#utility.yul\":10354:10381   */\n  swap1\n  pop\n    /* \"#utility.yul\":10391:10462   */\n  tag_256\n    /* \"#utility.yul\":10459:10460   */\n  0x00\n    /* \"#utility.yul\":10448:10457   */\n  dup4\n    /* \"#utility.yul\":10444:10461   */\n  add\n    /* \"#utility.yul\":10435:10441   */\n  dup9\n    /* \"#utility.yul\":10391:10462   */\n  tag_123\n  jump\t// in\ntag_256:\n    /* \"#utility.yul\":10472:10544   */\n  tag_257\n    /* \"#utility.yul\":10540:10542   */\n  0x20\n    /* \"#utility.yul\":10529:10538   */\n  dup4\n    /* \"#utility.yul\":10525:10543   */\n  add\n    /* \"#utility.yul\":10516:10522   */\n  dup8\n    /* \"#utility.yul\":10472:10544   */\n  tag_123\n  jump\t// in\ntag_257:\n    /* \"#utility.yul\":10554:10626   */\n  tag_258\n    /* \"#utility.yul\":10622:10624   */\n  0x40\n    /* \"#utility.yul\":10611:10620   */\n  dup4\n    /* \"#utility.yul\":10607:10625   */\n  add\n    /* \"#utility.yul\":10598:10604   */\n  dup7\n    /* \"#utility.yul\":10554:10626   */\n  tag_123\n  jump\t// in\ntag_258:\n    /* \"#utility.yul\":10636:10708   */\n  tag_259\n    /* \"#utility.yul\":10704:10706   */\n  0x60\n    /* \"#utility.yul\":10693:10702   */\n  dup4\n    /* \"#utility.yul\":10689:10707   */\n  add\n    /* \"#utility.yul\":10680:10686   */\n  dup6\n    /* \"#utility.yul\":10636:10708   */\n  tag_124\n  jump\t// in\ntag_259:\n    /* \"#utility.yul\":10718:10791   */\n  tag_260\n    /* \"#utility.yul\":10786:10789   */\n  0x80\n    /* \"#utility.yul\":10775:10784   */\n  dup4\n    /* \"#utility.yul\":10771:10790   */\n  add\n    /* \"#utility.yul\":10762:10768   */\n  dup5\n    /* \"#utility.yul\":10718:10791   */\n  tag_116\n  jump\t// in\ntag_260:\n    /* \"#utility.yul\":10134:10798   */\n  swap7\n  swap6\n  pop\n  pop\n  pop\n  pop\n  pop\n  pop\n  jump\t// out\n    /* \"#utility.yul\":10804:10973   */\ntag_125:\n    /* \"#utility.yul\":10888:10899   */\n  0x00\n    /* \"#utility.yul\":10922:10928   */\n  dup3\n    /* \"#utility.yul\":10917:10920   */\n  dup3\n    /* \"#utility.yul\":10910:10929   */\n  mstore\n    /* \"#utility.yul\":10962:10966   */\n  0x20\n    /* \"#utility.yul\":10957:10960   */\n  dup3\n    /* \"#utility.yul\":10953:10967   */\n  add\n    /* \"#utility.yul\":10938:10967   */\n  swap1\n  pop\n    /* \"#utility.yul\":10804:10973   */\n  swap3\n  swap2\n  pop\n  pop\n  jump\t// out\n    /* \"#utility.yul\":10979:11225   */\ntag_126:\n    /* \"#utility.yul\":11060:11061   */\n  0x00\n    /* \"#utility.yul\":11070:11183   */\ntag_263:\n    /* \"#utility.yul\":11084:11090   */\n  dup4\n    /* \"#utility.yul\":11081:11082   */\n  dup2\n    /* \"#utility.yul\":11078:11091   */\n  lt\n    /* \"#utility.yul\":11070:11183   */\n  iszero\n  tag_265\n  jumpi\n    /* \"#utility.yul\":11169:11170   */\n  dup1\n    /* \"#utility.yul\":11164:11167   */\n  dup3\n    /* \"#utility.yul\":11160:11171   */\n  add\n    /* \"#utility.yul\":11154:11172   */\n  mload\n    /* \"#utility.yul\":11150:11151   */\n  dup2\n    /* \"#utility.yul\":11145:11148   */\n  dup5\n    /* \"#utility.yul\":11141:11152   */\n  add\n    /* \"#utility.yul\":11134:11173   */\n  mstore\n    /* \"#utility.yul\":11106:11108   */\n  0x20\n    /* \"#utility.yul\":11103:11104   */\n  dup2\n    /* \"#utility.yul\":11099:11109   */\n  add\n    /* \"#utility.yul\":11094:11109   */\n  swap1\n  pop\n    /* \"#utility.yul\":11070:11183   */\n  jump(tag_263)\ntag_265:\n    /* \"#utility.yul\":11217:11218   */\n  0x00\n    /* \"#utility.yul\":11208:11214   */\n  dup5\n    /* \"#utility.yul\":11203:11206   */\n  dup5\n    /* \"#utility.yul\":11199:11215   */\n  add\n    /* \"#utility.yul\":11192:11219   */\n  mstore\n    /* \"#utility.yul\":11041:11225   */\n  pop\n    /* \"#utility.yul\":10979:11225   */\n  pop\n  pop\n  pop\n  jump\t// out\n    /* \"#utility.yul\":11231:11333   */\ntag_127:\n    /* \"#utility.yul\":11272:11278   */\n  0x00\n    /* \"#utility.yul\":11323:11325   */\n  0x1f\n    /* \"#utility.yul\":11319:11326   */\n  not\n    /* \"#utility.yul\":11314:11316   */\n  0x1f\n    /* \"#utility.yul\":11307:11312   */\n  dup4\n    /* \"#utility.yul\":11303:11317   */\n  add\n    /* \"#utility.yul\":11299:11327   */\n  and\n    /* \"#utility.yul\":11289:11327   */\n  swap1\n  pop\n    /* \"#utility.yul\":11231:11333   */\n  swap2\n  swap1\n  pop\n  jump\t// out\n    /* \"#utility.yul\":11339:11716   */\ntag_128:\n    /* \"#utility.yul\":11427:11430   */\n  0x00\n    /* \"#utility.yul\":11455:11494   */\n  tag_268\n    /* \"#utility.yul\":11488:11493   */\n  dup3\n    /* \"#utility.yul\":11455:11494   */\n  tag_96\n  jump\t// in\ntag_268:\n    /* \"#utility.yul\":11510:11581   */\n  tag_269\n    /* \"#utility.yul\":11574:11580   */\n  dup2\n    /* \"#utility.yul\":11569:11572   */\n  dup6\n    /* \"#utility.yul\":11510:11581   */\n  tag_125\n  jump\t// in\ntag_269:\n    /* \"#utility.yul\":11503:11581   */\n  swap4\n  pop\n    /* \"#utility.yul\":11590:11655   */\n  tag_270\n    /* \"#utility.yul\":11648:11654   */\n  dup2\n    /* \"#utility.yul\":11643:11646   */\n  dup6\n    /* \"#utility.yul\":11636:11640   */\n  0x20\n    /* \"#utility.yul\":11629:11634   */\n  dup7\n    /* \"#utility.yul\":11625:11641   */\n  add\n    /* \"#utility.yul\":11590:11655   */\n  tag_126\n  jump\t// in\ntag_270:\n    /* \"#utility.yul\":11680:11709   */\n  tag_271\n    /* \"#utility.yul\":11702:11708   */\n  dup2\n    /* \"#utility.yul\":11680:11709   */\n  tag_127\n  jump\t// in\ntag_271:\n    /* \"#utility.yul\":11675:11678   */\n  dup5\n    /* \"#utility.yul\":11671:11710   */\n  add\n    /* \"#utility.yul\":11664:11710   */\n  swap2\n  pop\n    /* \"#utility.yul\":11431:11716   */\n  pop\n    /* \"#utility.yul\":11339:11716   */\n  swap3\n  swap2\n  pop\n  pop\n  jump\t// out\n    /* \"#utility.yul\":11722:12035   */\ntag_59:\n    /* \"#utility.yul\":11835:11839   */\n  0x00\n    /* \"#utility.yul\":11873:11875   */\n  0x20\n    /* \"#utility.yul\":11862:11871   */\n  dup3\n    /* \"#utility.yul\":11858:11876   */\n  add\n    /* \"#utility.yul\":11850:11876   */\n  swap1\n  pop\n    /* \"#utility.yul\":11922:11931   */\n  dup2\n    /* \"#utility.yul\":11916:11920   */\n  dup2\n    /* \"#utility.yul\":11912:11932   */\n  sub\n    /* \"#utility.yul\":11908:11909   */\n  0x00\n    /* \"#utility.yul\":11897:11906   */\n  dup4\n    /* \"#utility.yul\":11893:11910   */\n  add\n    /* \"#utility.yul\":11886:11933   */\n  mstore\n    /* \"#utility.yul\":11950:12028   */\n  tag_273\n    /* \"#utility.yul\":12023:12027   */\n  dup2\n    /* \"#utility.yul\":12014:12020   */\n  dup5\n    /* \"#utility.yul\":11950:12028   */\n  tag_128\n  jump\t// in\ntag_273:\n    /* \"#utility.yul\":11942:12028   */\n  swap1\n  pop\n    /* \"#utility.yul\":11722:12035   */\n  swap3\n  swap2\n  pop\n  pop\n  jump\t// out\n    /* \"#utility.yul\":12041:12139   */\ntag_129:\n    /* \"#utility.yul\":12092:12098   */\n  0x00\n    /* \"#utility.yul\":12126:12131   */\n  dup2\n    /* \"#utility.yul\":12120:12132   */\n  mload\n    /* \"#utility.yul\":12110:12132   */\n  swap1\n  pop\n    /* \"#utility.yul\":12041:12139   */\n  swap2\n  swap1\n  pop\n  jump\t// out\n    /* \"#utility.yul\":12145:12261   */\ntag_130:\n    /* \"#utility.yul\":12196:12200   */\n  0x00\n    /* \"#utility.yul\":12219:12222   */\n  dup2\n    /* \"#utility.yul\":12211:12222   */\n  swap1\n  pop\n    /* \"#utility.yul\":12249:12253   */\n  0x20\n    /* \"#utility.yul\":12244:12247   */\n  dup3\n    /* \"#utility.yul\":12240:12254   */\n  add\n    /* \"#utility.yul\":12232:12254   */\n  swap1\n  pop\n    /* \"#utility.yul\":12145:12261   */\n  swap2\n  swap1\n  pop\n  jump\t// out\n    /* \"#utility.yul\":12267:12421   */\ntag_131:\n    /* \"#utility.yul\":12310:12321   */\n  0x00\n    /* \"#utility.yul\":12346:12375   */\n  tag_277\n    /* \"#utility.yul\":12370:12373   */\n  dup3\n    /* \"#utility.yul\":12364:12374   */\n  mload\n    /* \"#utility.yul\":12346:12375   */\n  tag_122\n  jump\t// in\ntag_277:\n    /* \"#utility.yul\":12409:12414   */\n  dup1\n    /* \"#utility.yul\":12385:12414   */\n  swap2\n  pop\n    /* \"#utility.yul\":12322:12421   */\n  pop\n    /* \"#utility.yul\":12267:12421   */\n  swap2\n  swap1\n  pop\n  jump\t// out\n    /* \"#utility.yul\":12427:13021   */\ntag_61:\n    /* \"#utility.yul\":12511:12516   */\n  0x00\n    /* \"#utility.yul\":12542:12580   */\n  tag_279\n    /* \"#utility.yul\":12574:12579   */\n  dup3\n    /* \"#utility.yul\":12542:12580   */\n  tag_129\n  jump\t// in\ntag_279:\n    /* \"#utility.yul\":12605:12610   */\n  dup3\n    /* \"#utility.yul\":12632:12672   */\n  tag_280\n    /* \"#utility.yul\":12666:12671   */\n  dup5\n    /* \"#utility.yul\":12632:12672   */\n  tag_130\n  jump\t// in\ntag_280:\n    /* \"#utility.yul\":12620:12672   */\n  swap1\n  pop\n    /* \"#utility.yul\":12691:12726   */\n  tag_281\n    /* \"#utility.yul\":12717:12725   */\n  dup2\n    /* \"#utility.yul\":12691:12726   */\n  tag_131\n  jump\t// in\ntag_281:\n    /* \"#utility.yul\":12682:12726   */\n  swap3\n  pop\n    /* \"#utility.yul\":12750:12752   */\n  0x20\n    /* \"#utility.yul\":12742:12748   */\n  dup3\n    /* \"#utility.yul\":12739:12753   */\n  lt\n    /* \"#utility.yul\":12736:13014   */\n  iszero\n  tag_282\n  jumpi\n    /* \"#utility.yul\":12821:12990   */\n  tag_283\n    /* \"#utility.yul\":12906:12972   */\n  0xffffffffffffffffffffffffffffffffffffffffffffffffffffffffffffffff\n    /* \"#utility.yul\":12876:12882   */\n  dup4\n    /* \"#utility.yul\":12872:12874   */\n  0x20\n    /* \"#utility.yul\":12868:12883   */\n  sub\n    /* \"#utility.yul\":12865:12866   */\n  0x08\n    /* \"#utility.yul\":12861:12884   */\n  mul\n    /* \"#utility.yul\":12821:12990   */\n  tag_102\n  jump\t// in\ntag_283:\n    /* \"#utility.yul\":12798:12803   */\n  dup4\n    /* \"#utility.yul\":12777:13004   */\n  and\n    /* \"#utility.yul\":12768:13004   */\n  swap3\n  pop\n    /* \"#utility.yul\":12736:13014   */\ntag_282:\n    /* \"#utility.yul\":12517:13021   */\n  pop\n  pop\n    /* \"#utility.yul\":12427:13021   */\n  swap2\n  swap1\n  pop\n  jump\t// out\n    /* \"#utility.yul\":13027:13218   */\ntag_79:\n    /* \"#utility.yul\":13067:13070   */\n  0x00\n    /* \"#utility.yul\":13086:13106   */\n  tag_285\n    /* \"#utility.yul\":13104:13105   */\n  dup3\n    /* \"#utility.yul\":13086:13106   */\n  tag_104\n  jump\t// in\ntag_285:\n    /* \"#utility.yul\":13081:13106   */\n  swap2\n  pop\n    /* \"#utility.yul\":13120:13140   */\n  tag_286\n    /* \"#utility.yul\":13138:13139   */\n  dup4\n    /* \"#utility.yul\":13120:13140   */\n  tag_104\n  jump\t// in\ntag_286:\n    /* \"#utility.yul\":13115:13140   */\n  swap3\n  pop\n    /* \"#utility.yul\":13163:13164   */\n  dup3\n    /* \"#utility.yul\":13160:13161   */\n  dup3\n    /* \"#utility.yul\":13156:13165   */\n  add\n    /* \"#utility.yul\":13149:13165   */\n  swap1\n  pop\n    /* \"#utility.yul\":13184:13187   */\n  dup1\n    /* \"#utility.yul\":13181:13182   */\n  dup3\n    /* \"#utility.yul\":13178:13188   */\n  gt\n    /* \"#utility.yul\":13175:13211   */\n  iszero\n  tag_287\n  jumpi\n    /* \"#utility.yul\":13191:13209   */\n  tag_288\n  tag_117\n  jump\t// in\ntag_288:\n    /* \"#utility.yul\":13175:13211   */\ntag_287:\n    /* \"#utility.yul\":13027:13218   */\n  swap3\n  swap2\n  pop\n  pop\n  jump\t// out\n    /* \"#utility.yul\":13224:13666   */\ntag_83:\n    /* \"#utility.yul\":13373:13377   */\n  0x00\n    /* \"#utility.yul\":13411:13413   */\n  0x60\n    /* \"#utility.yul\":13400:13409   */\n  dup3\n    /* \"#utility.yul\":13396:13414   */\n  add\n    /* \"#utility.yul\":13388:13414   */\n  swap1\n  pop\n    /* \"#utility.yul\":13424:13495   */\n  tag_290\n    /* \"#utility.yul\":13492:13493   */\n  0x00\n    /* \"#utility.yul\":13481:13490   */\n  dup4\n    /* \"#utility.yul\":13477:13494   */\n  add\n    /* \"#utility.yul\":13468:13474   */\n  dup7\n    /* \"#utility.yul\":13424:13495   */\n  tag_116\n  jump\t// in\ntag_290:\n    /* \"#utility.yul\":13505:13577   */\n  tag_291\n    /* \"#utility.yul\":13573:13575   */\n  0x20\n    /* \"#utility.yul\":13562:13571   */\n  dup4\n    /* \"#utility.yul\":13558:13576   */\n  add\n    /* \"#utility.yul\":13549:13555   */\n  dup6\n    /* \"#utility.yul\":13505:13577   */\n  tag_124\n  jump\t// in\ntag_291:\n    /* \"#utility.yul\":13587:13659   */\n  tag_292\n    /* \"#utility.yul\":13655:13657   */\n  0x40\n    /* \"#utility.yul\":13644:13653   */\n  dup4\n    /* \"#utility.yul\":13640:13658   */\n  add\n    /* \"#utility.yul\":13631:13637   */\n  dup5\n    /* \"#utility.yul\":13587:13659   */\n  tag_124\n  jump\t// in\ntag_292:\n    /* \"#utility.yul\":13224:13666   */\n  swap5\n  swap4\n  pop\n  pop\n  pop\n  pop\n  jump\t// out\n    /* \"#utility.yul\":13672:13894   */\ntag_87:\n    /* \"#utility.yul\":13765:13769   */\n  0x00\n    /* \"#utility.yul\":13803:13805   */\n  0x20\n    /* \"#utility.yul\":13792:13801   */\n  dup3\n    /* \"#utility.yul\":13788:13806   */\n  add\n    /* \"#utility.yul\":13780:13806   */\n  swap1\n  pop\n    /* \"#utility.yul\":13816:13887   */\n  tag_294\n    /* \"#utility.yul\":13884:13885   */\n  0x00\n    /* \"#utility.yul\":13873:13882   */\n  dup4\n    /* \"#utility.yul\":13869:13886   */\n  add\n    /* \"#utility.yul\":13860:13866   */\n  dup5\n    /* \"#utility.yul\":13816:13887   */\n  tag_124\n  jump\t// in\ntag_294:\n    /* \"#utility.yul\":13672:13894   */\n  swap3\n  swap2\n  pop\n  pop\n  jump\t// out\n    /* \"contracts/ERC20Token_flattened.sol\":84759:85505  contract VEGAN is ERC20, ERC20Burnable, ERC20Pausable, Ownable, ERC20Permit {... */\ntag_37:\n  mload(0x80)\n  mload(0xa0)\n  mload(0xc0)\n  mload(0xe0)\n  mload(0x0100)\n  mload(0x0120)\n  mload(0x0140)\n  codecopy(0x00, dataOffset(sub_0), dataSize(sub_0))\n  0x00\n  assignImmutable(\"0xef17f12455e22a45134579834cdca993c5eec3070954e76052dcfac9f22697b4\")\n  0x00\n  assignImmutable(\"0xb8163922f365f2d54f6122835c04019c69b181c4b5bf7a62d07ca62e91817bd9\")\n  0x00\n  assignImmutable(\"0xc9c370779fd62a0c7c118a2246ccad4c103473123315c14d4e476e7f4b22843f\")\n  0x00\n  assignImmutable(\"0xf40d89e88f976c0e4eebddab04ab11e8eb9a648fae2f79611f9b9f54d5ffefc8\")\n  0x00\n  assignImmutable(\"0xce191cb8321ca757450c20e87b57fa44746b6a87612dab9cf25801eef5ed67f8\")\n  0x00\n  assignImmutable(\"0x1a100bb1148e9e506f9ba8ec1947d4f84b922b6e9d33f30c8d12f2e351bcf10c\")\n  0x00\n  assignImmutable(\"0x29952515f5d57954abac5ab7b1327bd7bcbb5425c05d93673edc46b02d7cb56d\")\n  return(0x00, dataSize(sub_0))\nstop\n\nsub_0: assembly {\n        /* \"contracts/ERC20Token_flattened.sol\":84759:85505  contract VEGAN is ERC20, ERC20Burnable, ERC20Pausable, Ownable, ERC20Permit {... */\n      mstore(0x40, 0x80)\n      callvalue\n      dup1\n      iszero\n      tag_1\n      jumpi\n      0x00\n      dup1\n      revert\n    tag_1:\n      pop\n      jumpi(tag_2, lt(calldatasize, 0x04))\n      shr(0xe0, calldataload(0x00))\n      dup1\n      0x715018a6\n      gt\n      tag_25\n      jumpi\n      dup1\n      0x8da5cb5b\n      gt\n      tag_26\n      jumpi\n      dup1\n      0x8da5cb5b\n      eq\n      tag_19\n      jumpi\n      dup1\n      0x95d89b41\n      eq\n      tag_20\n      jumpi\n      dup1\n      0xa9059cbb\n      eq\n      tag_21\n      jumpi\n      dup1\n      0xd505accf\n      eq\n      tag_22\n      jumpi\n      dup1\n      0xdd62ed3e\n      eq\n      tag_23\n      jumpi\n      dup1\n      0xf2fde38b\n      eq\n      tag_24\n      jumpi\n      jump(tag_2)\n    tag_26:\n      dup1\n      0x715018a6\n      eq\n      tag_14\n      jumpi\n      dup1\n      0x79cc6790\n      eq\n      tag_15\n      jumpi\n      dup1\n      0x7ecebe00\n      eq\n      tag_16\n      jumpi\n      dup1\n      0x8456cb59\n      eq\n      tag_17\n      jumpi\n      dup1\n      0x84b0196e\n      eq\n      tag_18\n      jumpi\n      jump(tag_2)\n    tag_25:\n      dup1\n      0x3644e515\n      gt\n      tag_27\n      jumpi\n      dup1\n      0x3644e515\n      eq\n      tag_8\n      jumpi\n      dup1\n      0x3f4ba83a\n      eq\n      tag_9\n      jumpi\n      dup1\n      0x40c10f19\n      eq\n      tag_10\n      jumpi\n      dup1\n      0x42966c68\n      eq\n      tag_11\n      jumpi\n      dup1\n      0x5c975abb\n      eq\n      tag_12\n      jumpi\n      dup1\n      0x70a08231\n      eq\n      tag_13\n      jumpi\n      jump(tag_2)\n    tag_27:\n      dup1\n      0x06fdde03\n      eq\n      tag_3\n      jumpi\n      dup1\n      0x095ea7b3\n      eq\n      tag_4\n      jumpi\n      dup1\n      0x18160ddd\n      eq\n      tag_5\n      jumpi\n      dup1\n      0x23b872dd\n      eq\n      tag_6\n      jumpi\n      dup1\n      0x313ce567\n      eq\n      tag_7\n      jumpi\n    tag_2:\n      0x00\n      dup1\n      revert\n        /* \"contracts/ERC20Token_flattened.sol\":12935:13024  function name() public view virtual returns (string memory) {... */\n    tag_3:\n      tag_28\n      tag_29\n      jump\t// in\n    tag_28:\n      mload(0x40)\n      tag_30\n      swap2\n      swap1\n      tag_31\n      jump\t// in\n    tag_30:\n      mload(0x40)\n      dup1\n      swap2\n      sub\n      swap1\n      return\n        /* \"contracts/ERC20Token_flattened.sol\":15154:15340  function approve(address spender, uint256 value) public virtual returns (bool) {... */\n    tag_4:\n      tag_32\n      0x04\n      dup1\n      calldatasize\n      sub\n      dup2\n      add\n      swap1\n      tag_33\n      swap2\n      swap1\n      tag_34\n      jump\t// in\n    tag_33:\n      tag_35\n      jump\t// in\n    tag_32:\n      mload(0x40)\n      tag_36\n      swap2\n      swap1\n      tag_37\n      jump\t// in\n    tag_36:\n      mload(0x40)\n      dup1\n      swap2\n      sub\n      swap1\n      return\n        /* \"contracts/ERC20Token_flattened.sol\":14005:14102  function totalSupply() public view virtual returns (uint256) {... */\n    tag_5:\n      tag_38\n      tag_39\n      jump\t// in\n    tag_38:\n      mload(0x40)\n      tag_40\n      swap2\n      swap1\n      tag_41\n      jump\t// in\n    tag_40:\n      mload(0x40)\n      dup1\n      swap2\n      sub\n      swap1\n      return\n        /* \"contracts/ERC20Token_flattened.sol\":15900:16144  function transferFrom(address from, address to, uint256 value) public virtual returns (bool) {... */\n    tag_6:\n      tag_42\n      0x04\n      dup1\n      calldatasize\n      sub\n      dup2\n      add\n      swap1\n      tag_43\n      swap2\n      swap1\n      tag_44\n      jump\t// in\n    tag_43:\n      tag_45\n      jump\t// in\n    tag_42:\n      mload(0x40)\n      tag_46\n      swap2\n      swap1\n      tag_37\n      jump\t// in\n    tag_46:\n      mload(0x40)\n      dup1\n      swap2\n      sub\n      swap1\n      return\n        /* \"contracts/ERC20Token_flattened.sol\":13863:13945  function decimals() public view virtual returns (uint8) {... */\n    tag_7:\n      tag_47\n      tag_48\n      jump\t// in\n    tag_47:\n      mload(0x40)\n      tag_49\n      swap2\n      swap1\n      tag_50\n      jump\t// in\n    tag_49:\n      mload(0x40)\n      dup1\n      swap2\n      sub\n      swap1\n      return\n        /* \"contracts/ERC20Token_flattened.sol\":84527:84639  function DOMAIN_SEPARATOR() external view virtual returns (bytes32) {... */\n    tag_8:\n      tag_51\n      tag_52\n      jump\t// in\n    tag_51:\n      mload(0x40)\n      tag_53\n      swap2\n      swap1\n      tag_54\n      jump\t// in\n    tag_53:\n      mload(0x40)\n      dup1\n      swap2\n      sub\n      swap1\n      return\n        /* \"contracts/ERC20Token_flattened.sol\":85102:85165  function unpause() public onlyOwner {... */\n    tag_9:\n      tag_55\n      tag_56\n      jump\t// in\n    tag_55:\n      stop\n        /* \"contracts/ERC20Token_flattened.sol\":85171:85264  function mint(address to, uint256 amount) public onlyOwner {... */\n    tag_10:\n      tag_57\n      0x04\n      dup1\n      calldatasize\n      sub\n      dup2\n      add\n      swap1\n      tag_58\n      swap2\n      swap1\n      tag_34\n      jump\t// in\n    tag_58:\n      tag_59\n      jump\t// in\n    tag_57:\n      stop\n        /* \"contracts/ERC20Token_flattened.sol\":22580:22667  function burn(uint256 value) public virtual {... */\n    tag_11:\n      tag_60\n      0x04\n      dup1\n      calldatasize\n      sub\n      dup2\n      add\n      swap1\n      tag_61\n      swap2\n      swap1\n      tag_62\n      jump\t// in\n    tag_61:\n      tag_63\n      jump\t// in\n    tag_60:\n      stop\n        /* \"contracts/ERC20Token_flattened.sol\":24971:25055  function paused() public view virtual returns (bool) {... */\n    tag_12:\n      tag_64\n      tag_65\n      jump\t// in\n    tag_64:\n      mload(0x40)\n      tag_66\n      swap2\n      swap1\n      tag_37\n      jump\t// in\n    tag_66:\n      mload(0x40)\n      dup1\n      swap2\n      sub\n      swap1\n      return\n        /* \"contracts/ERC20Token_flattened.sol\":14160:14276  function balanceOf(address account) public view virtual returns (uint256) {... */\n    tag_13:\n      tag_67\n      0x04\n      dup1\n      calldatasize\n      sub\n      dup2\n      add\n      swap1\n      tag_68\n      swap2\n      swap1\n      tag_69\n      jump\t// in\n    tag_68:\n      tag_70\n      jump\t// in\n    tag_67:\n      mload(0x40)\n      tag_71\n      swap2\n      swap1\n      tag_41\n      jump\t// in\n    tag_71:\n      mload(0x40)\n      dup1\n      swap2\n      sub\n      swap1\n      return\n        /* \"contracts/ERC20Token_flattened.sol\":29437:29538  function renounceOwnership() public virtual onlyOwner {... */\n    tag_14:\n      tag_72\n      tag_73\n      jump\t// in\n    tag_72:\n      stop\n        /* \"contracts/ERC20Token_flattened.sol\":22983:23141  function burnFrom(address account, uint256 value) public virtual {... */\n    tag_15:\n      tag_74\n      0x04\n      dup1\n      calldatasize\n      sub\n      dup2\n      add\n      swap1\n      tag_75\n      swap2\n      swap1\n      tag_34\n      jump\t// in\n    tag_75:\n      tag_76\n      jump\t// in\n    tag_74:\n      stop\n        /* \"contracts/ERC20Token_flattened.sol\":84277:84420  function nonces(address owner) public view virtual override(IERC20Permit, Nonces) returns (uint256) {... */\n    tag_16:\n      tag_77\n      0x04\n      dup1\n      calldatasize\n      sub\n      dup2\n      add\n      swap1\n      tag_78\n      swap2\n      swap1\n      tag_69\n      jump\t// in\n    tag_78:\n      tag_79\n      jump\t// in\n    tag_77:\n      mload(0x40)\n      tag_80\n      swap2\n      swap1\n      tag_41\n      jump\t// in\n    tag_80:\n      mload(0x40)\n      dup1\n      swap2\n      sub\n      swap1\n      return\n        /* \"contracts/ERC20Token_flattened.sol\":85037:85096  function pause() public onlyOwner {... */\n    tag_17:\n      tag_81\n      tag_82\n      jump\t// in\n    tag_81:\n      stop\n        /* \"contracts/ERC20Token_flattened.sol\":79105:79662  function eip712Domain()... */\n    tag_18:\n      tag_83\n      tag_84\n      jump\t// in\n    tag_83:\n      mload(0x40)\n      tag_85\n      swap8\n      swap7\n      swap6\n      swap5\n      swap4\n      swap3\n      swap2\n      swap1\n      tag_86\n      jump\t// in\n    tag_85:\n      mload(0x40)\n      dup1\n      swap2\n      sub\n      swap1\n      return\n        /* \"contracts/ERC20Token_flattened.sol\":28782:28867  function owner() public view virtual returns (address) {... */\n    tag_19:\n      tag_87\n      tag_88\n      jump\t// in\n    tag_87:\n      mload(0x40)\n      tag_89\n      swap2\n      swap1\n      tag_90\n      jump\t// in\n    tag_89:\n      mload(0x40)\n      dup1\n      swap2\n      sub\n      swap1\n      return\n        /* \"contracts/ERC20Token_flattened.sol\":13137:13230  function symbol() public view virtual returns (string memory) {... */\n    tag_20:\n      tag_91\n      tag_92\n      jump\t// in\n    tag_91:\n      mload(0x40)\n      tag_93\n      swap2\n      swap1\n      tag_31\n      jump\t// in\n    tag_93:\n      mload(0x40)\n      dup1\n      swap2\n      sub\n      swap1\n      return\n        /* \"contracts/ERC20Token_flattened.sol\":14471:14649  function transfer(address to, uint256 value) public virtual returns (bool) {... */\n    tag_21:\n      tag_94\n      0x04\n      dup1\n      calldatasize\n      sub\n      dup2\n      add\n      swap1\n      tag_95\n      swap2\n      swap1\n      tag_34\n      jump\t// in\n    tag_95:\n      tag_96\n      jump\t// in\n    tag_94:\n      mload(0x40)\n      tag_97\n      swap2\n      swap1\n      tag_37\n      jump\t// in\n    tag_97:\n      mload(0x40)\n      dup1\n      swap2\n      sub\n      swap1\n      return\n        /* \"contracts/ERC20Token_flattened.sol\":83551:84223  function permit(... */\n    tag_22:\n      tag_98\n      0x04\n      dup1\n      calldatasize\n      sub\n      dup2\n      add\n      swap1\n      tag_99\n      swap2\n      swap1\n      tag_100\n      jump\t// in\n    tag_99:\n      tag_101\n      jump\t// in\n    tag_98:\n      stop\n        /* \"contracts/ERC20Token_flattened.sol\":14707:14847  function allowance(address owner, address spender) public view virtual returns (uint256) {... */\n    tag_23:\n      tag_102\n      0x04\n      dup1\n      calldatasize\n      sub\n      dup2\n      add\n      swap1\n      tag_103\n      swap2\n      swap1\n      tag_104\n      jump\t// in\n    tag_103:\n      tag_105\n      jump\t// in\n    tag_102:\n      mload(0x40)\n      tag_106\n      swap2\n      swap1\n      tag_41\n      jump\t// in\n    tag_106:\n      mload(0x40)\n      dup1\n      swap2\n      sub\n      swap1\n      return\n        /* \"contracts/ERC20Token_flattened.sol\":29687:29902  function transferOwnership(address newOwner) public virtual onlyOwner {... */\n    tag_24:\n      tag_107\n      0x04\n      dup1\n      calldatasize\n      sub\n      dup2\n      add\n      swap1\n      tag_108\n      swap2\n      swap1\n      tag_69\n      jump\t// in\n    tag_108:\n      tag_109\n      jump\t// in\n    tag_107:\n      stop\n        /* \"contracts/ERC20Token_flattened.sol\":12935:13024  function name() public view virtual returns (string memory) {... */\n    tag_29:\n        /* \"contracts/ERC20Token_flattened.sol\":12980:12993  string memory */\n      0x60\n        /* \"contracts/ERC20Token_flattened.sol\":13012:13017  _name */\n      0x03\n        /* \"contracts/ERC20Token_flattened.sol\":13005:13017  return _name */\n      dup1\n      sload\n      tag_111\n      swap1\n      tag_112\n      jump\t// in\n    tag_111:\n      dup1\n      0x1f\n      add\n      0x20\n      dup1\n      swap2\n      div\n      mul\n      0x20\n      add\n      mload(0x40)\n      swap1\n      dup2\n      add\n      0x40\n      mstore\n      dup1\n      swap3\n      swap2\n      swap1\n      dup2\n      dup2\n      mstore\n      0x20\n      add\n      dup3\n      dup1\n      sload\n      tag_113\n      swap1\n      tag_112\n      jump\t// in\n    tag_113:\n      dup1\n      iszero\n      tag_114\n      jumpi\n      dup1\n      0x1f\n      lt\n      tag_115\n      jumpi\n      0x0100\n      dup1\n      dup4\n      sload\n      div\n      mul\n      dup4\n      mstore\n      swap2\n      0x20\n      add\n      swap2\n      jump(tag_114)\n    tag_115:\n      dup3\n      add\n      swap2\n      swap1\n      0x00\n      mstore\n      keccak256(0x00, 0x20)\n      swap1\n    tag_116:\n      dup2\n      sload\n      dup2\n      mstore\n      swap1\n      0x01\n      add\n      swap1\n      0x20\n      add\n      dup1\n      dup4\n      gt\n      tag_116\n      jumpi\n      dup3\n      swap1\n      sub\n      0x1f\n      and\n      dup3\n      add\n      swap2\n    tag_114:\n      pop\n      pop\n      pop\n      pop\n      pop\n      swap1\n      pop\n        /* \"contracts/ERC20Token_flattened.sol\":12935:13024  function name() public view virtual returns (string memory) {... */\n      swap1\n      jump\t// out\n        /* \"contracts/ERC20Token_flattened.sol\":15154:15340  function approve(address spender, uint256 value) public virtual returns (bool) {... */\n    tag_35:\n        /* \"contracts/ERC20Token_flattened.sol\":15227:15231  bool */\n      0x00\n        /* \"contracts/ERC20Token_flattened.sol\":15243:15256  address owner */\n      dup1\n        /* \"contracts/ERC20Token_flattened.sol\":15259:15271  _msgSender() */\n      tag_118\n        /* \"contracts/ERC20Token_flattened.sol\":15259:15269  _msgSender */\n      tag_119\n        /* \"contracts/ERC20Token_flattened.sol\":15259:15271  _msgSender() */\n      jump\t// in\n    tag_118:\n        /* \"contracts/ERC20Token_flattened.sol\":15243:15271  address owner = _msgSender() */\n      swap1\n      pop\n        /* \"contracts/ERC20Token_flattened.sol\":15281:15312  _approve(owner, spender, value) */\n      tag_120\n        /* \"contracts/ERC20Token_flattened.sol\":15290:15295  owner */\n      dup2\n        /* \"contracts/ERC20Token_flattened.sol\":15297:15304  spender */\n      dup6\n        /* \"contracts/ERC20Token_flattened.sol\":15306:15311  value */\n      dup6\n        /* \"contracts/ERC20Token_flattened.sol\":15281:15289  _approve */\n      tag_121\n        /* \"contracts/ERC20Token_flattened.sol\":15281:15312  _approve(owner, spender, value) */\n      jump\t// in\n    tag_120:\n        /* \"contracts/ERC20Token_flattened.sol\":15329:15333  true */\n      0x01\n        /* \"contracts/ERC20Token_flattened.sol\":15322:15333  return true */\n      swap2\n      pop\n      pop\n        /* \"contracts/ERC20Token_flattened.sol\":15154:15340  function approve(address spender, uint256 value) public virtual returns (bool) {... */\n      swap3\n      swap2\n      pop\n      pop\n      jump\t// out\n        /* \"contracts/ERC20Token_flattened.sol\":14005:14102  function totalSupply() public view virtual returns (uint256) {... */\n    tag_39:\n        /* \"contracts/ERC20Token_flattened.sol\":14057:14064  uint256 */\n      0x00\n        /* \"contracts/ERC20Token_flattened.sol\":14083:14095  _totalSupply */\n      sload(0x02)\n        /* \"contracts/ERC20Token_flattened.sol\":14076:14095  return _totalSupply */\n      swap1\n      pop\n        /* \"contracts/ERC20Token_flattened.sol\":14005:14102  function totalSupply() public view virtual returns (uint256) {... */\n      swap1\n      jump\t// out\n        /* \"contracts/ERC20Token_flattened.sol\":15900:16144  function transferFrom(address from, address to, uint256 value) public virtual returns (bool) {... */\n    tag_45:\n        /* \"contracts/ERC20Token_flattened.sol\":15987:15991  bool */\n      0x00\n        /* \"contracts/ERC20Token_flattened.sol\":16003:16018  address spender */\n      dup1\n        /* \"contracts/ERC20Token_flattened.sol\":16021:16033  _msgSender() */\n      tag_124\n        /* \"contracts/ERC20Token_flattened.sol\":16021:16031  _msgSender */\n      tag_119\n        /* \"contracts/ERC20Token_flattened.sol\":16021:16033  _msgSender() */\n      jump\t// in\n    tag_124:\n        /* \"contracts/ERC20Token_flattened.sol\":16003:16033  address spender = _msgSender() */\n      swap1\n      pop\n        /* \"contracts/ERC20Token_flattened.sol\":16043:16080  _spendAllowance(from, spender, value) */\n      tag_125\n        /* \"contracts/ERC20Token_flattened.sol\":16059:16063  from */\n      dup6\n        /* \"contracts/ERC20Token_flattened.sol\":16065:16072  spender */\n      dup3\n        /* \"contracts/ERC20Token_flattened.sol\":16074:16079  value */\n      dup6\n        /* \"contracts/ERC20Token_flattened.sol\":16043:16058  _spendAllowance */\n      tag_126\n        /* \"contracts/ERC20Token_flattened.sol\":16043:16080  _spendAllowance(from, spender, value) */\n      jump\t// in\n    tag_125:\n        /* \"contracts/ERC20Token_flattened.sol\":16090:16116  _transfer(from, to, value) */\n      tag_127\n        /* \"contracts/ERC20Token_flattened.sol\":16100:16104  from */\n      dup6\n        /* \"contracts/ERC20Token_flattened.sol\":16106:16108  to */\n      dup6\n        /* \"contracts/ERC20Token_flattened.sol\":16110:16115  value */\n      dup6\n        /* \"contracts/ERC20Token_flattened.sol\":16090:16099  _transfer */\n      tag_128\n        /* \"contracts/ERC20Token_flattened.sol\":16090:16116  _transfer(from, to, value) */\n      jump\t// in\n    tag_127:\n        /* \"contracts/ERC20Token_flattened.sol\":16133:16137  true */\n      0x01\n        /* \"contracts/ERC20Token_flattened.sol\":16126:16137  return true */\n      swap2\n      pop\n      pop\n        /* \"contracts/ERC20Token_flattened.sol\":15900:16144  function transferFrom(address from, address to, uint256 value) public virtual returns (bool) {... */\n      swap4\n      swap3\n      pop\n      pop\n      pop\n      jump\t// out\n        /* \"contracts/ERC20Token_flattened.sol\":13863:13945  function decimals() public view virtual returns (uint8) {... */\n    tag_48:\n        /* \"contracts/ERC20Token_flattened.sol\":13912:13917  uint8 */\n      0x00\n        /* \"contracts/ERC20Token_flattened.sol\":13936:13938  18 */\n      0x12\n        /* \"contracts/ERC20Token_flattened.sol\":13929:13938  return 18 */\n      swap1\n      pop\n        /* \"contracts/ERC20Token_flattened.sol\":13863:13945  function decimals() public view virtual returns (uint8) {... */\n      swap1\n      jump\t// out\n        /* \"contracts/ERC20Token_flattened.sol\":84527:84639  function DOMAIN_SEPARATOR() external view virtual returns (bytes32) {... */\n    tag_52:\n        /* \"contracts/ERC20Token_flattened.sol\":84586:84593  bytes32 */\n      0x00\n        /* \"contracts/ERC20Token_flattened.sol\":84612:84632  _domainSeparatorV4() */\n      tag_131\n        /* \"contracts/ERC20Token_flattened.sol\":84612:84630  _domainSeparatorV4 */\n      tag_132\n        /* \"contracts/ERC20Token_flattened.sol\":84612:84632  _domainSeparatorV4() */\n      jump\t// in\n    tag_131:\n        /* \"contracts/ERC20Token_flattened.sol\":84605:84632  return _domainSeparatorV4() */\n      swap1\n      pop\n        /* \"contracts/ERC20Token_flattened.sol\":84527:84639  function DOMAIN_SEPARATOR() external view virtual returns (bytes32) {... */\n      swap1\n      jump\t// out\n        /* \"contracts/ERC20Token_flattened.sol\":85102:85165  function unpause() public onlyOwner {... */\n    tag_56:\n        /* \"contracts/ERC20Token_flattened.sol\":28675:28688  _checkOwner() */\n      tag_134\n        /* \"contracts/ERC20Token_flattened.sol\":28675:28686  _checkOwner */\n      tag_135\n        /* \"contracts/ERC20Token_flattened.sol\":28675:28688  _checkOwner() */\n      jump\t// in\n    tag_134:\n        /* \"contracts/ERC20Token_flattened.sol\":85148:85158  _unpause() */\n      tag_137\n        /* \"contracts/ERC20Token_flattened.sol\":85148:85156  _unpause */\n      tag_138\n        /* \"contracts/ERC20Token_flattened.sol\":85148:85158  _unpause() */\n      jump\t// in\n    tag_137:\n        /* \"contracts/ERC20Token_flattened.sol\":85102:85165  function unpause() public onlyOwner {... */\n      jump\t// out\n        /* \"contracts/ERC20Token_flattened.sol\":85171:85264  function mint(address to, uint256 amount) public onlyOwner {... */\n    tag_59:\n        /* \"contracts/ERC20Token_flattened.sol\":28675:28688  _checkOwner() */\n      tag_140\n        /* \"contracts/ERC20Token_flattened.sol\":28675:28686  _checkOwner */\n      tag_135\n        /* \"contracts/ERC20Token_flattened.sol\":28675:28688  _checkOwner() */\n      jump\t// in\n    tag_140:\n        /* \"contracts/ERC20Token_flattened.sol\":85240:85257  _mint(to, amount) */\n      tag_142\n        /* \"contracts/ERC20Token_flattened.sol\":85246:85248  to */\n      dup3\n        /* \"contracts/ERC20Token_flattened.sol\":85250:85256  amount */\n      dup3\n        /* \"contracts/ERC20Token_flattened.sol\":85240:85245  _mint */\n      tag_143\n        /* \"contracts/ERC20Token_flattened.sol\":85240:85257  _mint(to, amount) */\n      jump\t// in\n    tag_142:\n        /* \"contracts/ERC20Token_flattened.sol\":85171:85264  function mint(address to, uint256 amount) public onlyOwner {... */\n      pop\n      pop\n      jump\t// out\n        /* \"contracts/ERC20Token_flattened.sol\":22580:22667  function burn(uint256 value) public virtual {... */\n    tag_63:\n        /* \"contracts/ERC20Token_flattened.sol\":22634:22660  _burn(_msgSender(), value) */\n      tag_145\n        /* \"contracts/ERC20Token_flattened.sol\":22640:22652  _msgSender() */\n      tag_146\n        /* \"contracts/ERC20Token_flattened.sol\":22640:22650  _msgSender */\n      tag_119\n        /* \"contracts/ERC20Token_flattened.sol\":22640:22652  _msgSender() */\n      jump\t// in\n    tag_146:\n        /* \"contracts/ERC20Token_flattened.sol\":22654:22659  value */\n      dup3\n        /* \"contracts/ERC20Token_flattened.sol\":22634:22639  _burn */\n      tag_147\n        /* \"contracts/ERC20Token_flattened.sol\":22634:22660  _burn(_msgSender(), value) */\n      jump\t// in\n    tag_145:\n        /* \"contracts/ERC20Token_flattened.sol\":22580:22667  function burn(uint256 value) public virtual {... */\n      pop\n      jump\t// out\n        /* \"contracts/ERC20Token_flattened.sol\":24971:25055  function paused() public view virtual returns (bool) {... */\n    tag_65:\n        /* \"contracts/ERC20Token_flattened.sol\":25018:25022  bool */\n      0x00\n        /* \"contracts/ERC20Token_flattened.sol\":25041:25048  _paused */\n      0x05\n      0x00\n      swap1\n      sload\n      swap1\n      0x0100\n      exp\n      swap1\n      div\n      0xff\n      and\n        /* \"contracts/ERC20Token_flattened.sol\":25034:25048  return _paused */\n      swap1\n      pop\n        /* \"contracts/ERC20Token_flattened.sol\":24971:25055  function paused() public view virtual returns (bool) {... */\n      swap1\n      jump\t// out\n        /* \"contracts/ERC20Token_flattened.sol\":14160:14276  function balanceOf(address account) public view virtual returns (uint256) {... */\n    tag_70:\n        /* \"contracts/ERC20Token_flattened.sol\":14225:14232  uint256 */\n      0x00\n        /* \"contracts/ERC20Token_flattened.sol\":14251:14260  _balances */\n      dup1\n        /* \"contracts/ERC20Token_flattened.sol\":14251:14269  _balances[account] */\n      0x00\n        /* \"contracts/ERC20Token_flattened.sol\":14261:14268  account */\n      dup4\n        /* \"contracts/ERC20Token_flattened.sol\":14251:14269  _balances[account] */\n      0xffffffffffffffffffffffffffffffffffffffff\n      and\n      0xffffffffffffffffffffffffffffffffffffffff\n      and\n      dup2\n      mstore\n      0x20\n      add\n      swap1\n      dup2\n      mstore\n      0x20\n      add\n      0x00\n      keccak256\n      sload\n        /* \"contracts/ERC20Token_flattened.sol\":14244:14269  return _balances[account] */\n      swap1\n      pop\n        /* \"contracts/ERC20Token_flattened.sol\":14160:14276  function balanceOf(address account) public view virtual returns (uint256) {... */\n      swap2\n      swap1\n      pop\n      jump\t// out\n        /* \"contracts/ERC20Token_flattened.sol\":29437:29538  function renounceOwnership() public virtual onlyOwner {... */\n    tag_73:\n        /* \"contracts/ERC20Token_flattened.sol\":28675:28688  _checkOwner() */\n      tag_151\n        /* \"contracts/ERC20Token_flattened.sol\":28675:28686  _checkOwner */\n      tag_135\n        /* \"contracts/ERC20Token_flattened.sol\":28675:28688  _checkOwner() */\n      jump\t// in\n    tag_151:\n        /* \"contracts/ERC20Token_flattened.sol\":29501:29531  _transferOwnership(address(0)) */\n      tag_153\n        /* \"contracts/ERC20Token_flattened.sol\":29528:29529  0 */\n      0x00\n        /* \"contracts/ERC20Token_flattened.sol\":29501:29519  _transferOwnership */\n      tag_154\n        /* \"contracts/ERC20Token_flattened.sol\":29501:29531  _transferOwnership(address(0)) */\n      jump\t// in\n    tag_153:\n        /* \"contracts/ERC20Token_flattened.sol\":29437:29538  function renounceOwnership() public virtual onlyOwner {... */\n      jump\t// out\n        /* \"contracts/ERC20Token_flattened.sol\":22983:23141  function burnFrom(address account, uint256 value) public virtual {... */\n    tag_76:\n        /* \"contracts/ERC20Token_flattened.sol\":23058:23103  _spendAllowance(account, _msgSender(), value) */\n      tag_156\n        /* \"contracts/ERC20Token_flattened.sol\":23074:23081  account */\n      dup3\n        /* \"contracts/ERC20Token_flattened.sol\":23083:23095  _msgSender() */\n      tag_157\n        /* \"contracts/ERC20Token_flattened.sol\":23083:23093  _msgSender */\n      tag_119\n        /* \"contracts/ERC20Token_flattened.sol\":23083:23095  _msgSender() */\n      jump\t// in\n    tag_157:\n        /* \"contracts/ERC20Token_flattened.sol\":23097:23102  value */\n      dup4\n        /* \"contracts/ERC20Token_flattened.sol\":23058:23073  _spendAllowance */\n      tag_126\n        /* \"contracts/ERC20Token_flattened.sol\":23058:23103  _spendAllowance(account, _msgSender(), value) */\n      jump\t// in\n    tag_156:\n        /* \"contracts/ERC20Token_flattened.sol\":23113:23134  _burn(account, value) */\n      tag_158\n        /* \"contracts/ERC20Token_flattened.sol\":23119:23126  account */\n      dup3\n        /* \"contracts/ERC20Token_flattened.sol\":23128:23133  value */\n      dup3\n        /* \"contracts/ERC20Token_flattened.sol\":23113:23118  _burn */\n      tag_147\n        /* \"contracts/ERC20Token_flattened.sol\":23113:23134  _burn(account, value) */\n      jump\t// in\n    tag_158:\n        /* \"contracts/ERC20Token_flattened.sol\":22983:23141  function burnFrom(address account, uint256 value) public virtual {... */\n      pop\n      pop\n      jump\t// out\n        /* \"contracts/ERC20Token_flattened.sol\":84277:84420  function nonces(address owner) public view virtual override(IERC20Permit, Nonces) returns (uint256) {... */\n    tag_79:\n        /* \"contracts/ERC20Token_flattened.sol\":84368:84375  uint256 */\n      0x00\n        /* \"contracts/ERC20Token_flattened.sol\":84394:84413  super.nonces(owner) */\n      tag_160\n        /* \"contracts/ERC20Token_flattened.sol\":84407:84412  owner */\n      dup3\n        /* \"contracts/ERC20Token_flattened.sol\":84394:84406  super.nonces */\n      tag_161\n        /* \"contracts/ERC20Token_flattened.sol\":84394:84413  super.nonces(owner) */\n      jump\t// in\n    tag_160:\n        /* \"contracts/ERC20Token_flattened.sol\":84387:84413  return super.nonces(owner) */\n      swap1\n      pop\n        /* \"contracts/ERC20Token_flattened.sol\":84277:84420  function nonces(address owner) public view virtual override(IERC20Permit, Nonces) returns (uint256) {... */\n      swap2\n      swap1\n      pop\n      jump\t// out\n        /* \"contracts/ERC20Token_flattened.sol\":85037:85096  function pause() public onlyOwner {... */\n    tag_82:\n        /* \"contracts/ERC20Token_flattened.sol\":28675:28688  _checkOwner() */\n      tag_163\n        /* \"contracts/ERC20Token_flattened.sol\":28675:28686  _checkOwner */\n      tag_135\n        /* \"contracts/ERC20Token_flattened.sol\":28675:28688  _checkOwner() */\n      jump\t// in\n    tag_163:\n        /* \"contracts/ERC20Token_flattened.sol\":85081:85089  _pause() */\n      tag_165\n        /* \"contracts/ERC20Token_flattened.sol\":85081:85087  _pause */\n      tag_166\n        /* \"contracts/ERC20Token_flattened.sol\":85081:85089  _pause() */\n      jump\t// in\n    tag_165:\n        /* \"contracts/ERC20Token_flattened.sol\":85037:85096  function pause() public onlyOwner {... */\n      jump\t// out\n        /* \"contracts/ERC20Token_flattened.sol\":79105:79662  function eip712Domain()... */\n    tag_84:\n        /* \"contracts/ERC20Token_flattened.sol\":79203:79216  bytes1 fields */\n      0x00\n        /* \"contracts/ERC20Token_flattened.sol\":79230:79248  string memory name */\n      0x60\n        /* \"contracts/ERC20Token_flattened.sol\":79262:79283  string memory version */\n      dup1\n        /* \"contracts/ERC20Token_flattened.sol\":79297:79312  uint256 chainId */\n      0x00\n        /* \"contracts/ERC20Token_flattened.sol\":79326:79351  address verifyingContract */\n      dup1\n        /* \"contracts/ERC20Token_flattened.sol\":79365:79377  bytes32 salt */\n      0x00\n        /* \"contracts/ERC20Token_flattened.sol\":79391:79418  uint256[] memory extensions */\n      0x60\n        /* \"contracts/ERC20Token_flattened.sol\":79494:79507  _EIP712Name() */\n      tag_168\n        /* \"contracts/ERC20Token_flattened.sol\":79494:79505  _EIP712Name */\n      tag_169\n        /* \"contracts/ERC20Token_flattened.sol\":79494:79507  _EIP712Name() */\n      jump\t// in\n    tag_168:\n        /* \"contracts/ERC20Token_flattened.sol\":79521:79537  _EIP712Version() */\n      tag_170\n        /* \"contracts/ERC20Token_flattened.sol\":79521:79535  _EIP712Version */\n      tag_171\n        /* \"contracts/ERC20Token_flattened.sol\":79521:79537  _EIP712Version() */\n      jump\t// in\n    tag_170:\n        /* \"contracts/ERC20Token_flattened.sol\":79551:79564  block.chainid */\n      chainid\n        /* \"contracts/ERC20Token_flattened.sol\":79586:79590  this */\n      address\n        /* \"contracts/ERC20Token_flattened.sol\":79613:79614  0 */\n      0x00\n        /* \"contracts/ERC20Token_flattened.sol\":79605:79615  bytes32(0) */\n      dup1\n      shl\n        /* \"contracts/ERC20Token_flattened.sol\":79643:79644  0 */\n      0x00\n        /* \"contracts/ERC20Token_flattened.sol\":79629:79645  new uint256[](0) */\n      0xffffffffffffffff\n      dup2\n      gt\n      iszero\n      tag_172\n      jumpi\n      tag_173\n      tag_174\n      jump\t// in\n    tag_173:\n    tag_172:\n      mload(0x40)\n      swap1\n      dup1\n      dup3\n      mstore\n      dup1\n      0x20\n      mul\n      0x20\n      add\n      dup3\n      add\n      0x40\n      mstore\n      dup1\n      iszero\n      tag_175\n      jumpi\n      dup2\n      0x20\n      add\n      0x20\n      dup3\n      mul\n      dup1\n      calldatasize\n      dup4\n      calldatacopy\n      dup1\n      dup3\n      add\n      swap2\n      pop\n      pop\n      swap1\n      pop\n    tag_175:\n      pop\n        /* \"contracts/ERC20Token_flattened.sol\":79443:79655  return (... */\n      0x0f00000000000000000000000000000000000000000000000000000000000000\n      swap6\n      swap5\n      swap4\n      swap3\n      swap2\n      swap1\n      swap7\n      pop\n      swap7\n      pop\n      swap7\n      pop\n      swap7\n      pop\n      swap7\n      pop\n      swap7\n      pop\n      swap7\n      pop\n        /* \"contracts/ERC20Token_flattened.sol\":79105:79662  function eip712Domain()... */\n      swap1\n      swap2\n      swap3\n      swap4\n      swap5\n      swap6\n      swap7\n      jump\t// out\n        /* \"contracts/ERC20Token_flattened.sol\":28782:28867  function owner() public view virtual returns (address) {... */\n    tag_88:\n        /* \"contracts/ERC20Token_flattened.sol\":28828:28835  address */\n      0x00\n        /* \"contracts/ERC20Token_flattened.sol\":28854:28860  _owner */\n      0x05\n      0x01\n      swap1\n      sload\n      swap1\n      0x0100\n      exp\n      swap1\n      div\n      0xffffffffffffffffffffffffffffffffffffffff\n      and\n        /* \"contracts/ERC20Token_flattened.sol\":28847:28860  return _owner */\n      swap1\n      pop\n        /* \"contracts/ERC20Token_flattened.sol\":28782:28867  function owner() public view virtual returns (address) {... */\n      swap1\n      jump\t// out\n        /* \"contracts/ERC20Token_flattened.sol\":13137:13230  function symbol() public view virtual returns (string memory) {... */\n    tag_92:\n        /* \"contracts/ERC20Token_flattened.sol\":13184:13197  string memory */\n      0x60\n        /* \"contracts/ERC20Token_flattened.sol\":13216:13223  _symbol */\n      0x04\n        /* \"contracts/ERC20Token_flattened.sol\":13209:13223  return _symbol */\n      dup1\n      sload\n      tag_178\n      swap1\n      tag_112\n      jump\t// in\n    tag_178:\n      dup1\n      0x1f\n      add\n      0x20\n      dup1\n      swap2\n      div\n      mul\n      0x20\n      add\n      mload(0x40)\n      swap1\n      dup2\n      add\n      0x40\n      mstore\n      dup1\n      swap3\n      swap2\n      swap1\n      dup2\n      dup2\n      mstore\n      0x20\n      add\n      dup3\n      dup1\n      sload\n      tag_179\n      swap1\n      tag_112\n      jump\t// in\n    tag_179:\n      dup1\n      iszero\n      tag_180\n      jumpi\n      dup1\n      0x1f\n      lt\n      tag_181\n      jumpi\n      0x0100\n      dup1\n      dup4\n      sload\n      div\n      mul\n      dup4\n      mstore\n      swap2\n      0x20\n      add\n      swap2\n      jump(tag_180)\n    tag_181:\n      dup3\n      add\n      swap2\n      swap1\n      0x00\n      mstore\n      keccak256(0x00, 0x20)\n      swap1\n    tag_182:\n      dup2\n      sload\n      dup2\n      mstore\n      swap1\n      0x01\n      add\n      swap1\n      0x20\n      add\n      dup1\n      dup4\n      gt\n      tag_182\n      jumpi\n      dup3\n      swap1\n      sub\n      0x1f\n      and\n      dup3\n      add\n      swap2\n    tag_180:\n      pop\n      pop\n      pop\n      pop\n      pop\n      swap1\n      pop\n        /* \"contracts/ERC20Token_flattened.sol\":13137:13230  function symbol() public view virtual returns (string memory) {... */\n      swap1\n      jump\t// out\n        /* \"contracts/ERC20Token_flattened.sol\":14471:14649  function transfer(address to, uint256 value) public virtual returns (bool) {... */\n    tag_96:\n        /* \"contracts/ERC20Token_flattened.sol\":14540:14544  bool */\n      0x00\n        /* \"contracts/ERC20Token_flattened.sol\":14556:14569  address owner */\n      dup1\n        /* \"contracts/ERC20Token_flattened.sol\":14572:14584  _msgSender() */\n      tag_184\n        /* \"contracts/ERC20Token_flattened.sol\":14572:14582  _msgSender */\n      tag_119\n        /* \"contracts/ERC20Token_flattened.sol\":14572:14584  _msgSender() */\n      jump\t// in\n    tag_184:\n        /* \"contracts/ERC20Token_flattened.sol\":14556:14584  address owner = _msgSender() */\n      swap1\n      pop\n        /* \"contracts/ERC20Token_flattened.sol\":14594:14621  _transfer(owner, to, value) */\n      tag_185\n        /* \"contracts/ERC20Token_flattened.sol\":14604:14609  owner */\n      dup2\n        /* \"contracts/ERC20Token_flattened.sol\":14611:14613  to */\n      dup6\n        /* \"contracts/ERC20Token_flattened.sol\":14615:14620  value */\n      dup6\n        /* \"contracts/ERC20Token_flattened.sol\":14594:14603  _transfer */\n      tag_128\n        /* \"contracts/ERC20Token_flattened.sol\":14594:14621  _transfer(owner, to, value) */\n      jump\t// in\n    tag_185:\n        /* \"contracts/ERC20Token_flattened.sol\":14638:14642  true */\n      0x01\n        /* \"contracts/ERC20Token_flattened.sol\":14631:14642  return true */\n      swap2\n      pop\n      pop\n        /* \"contracts/ERC20Token_flattened.sol\":14471:14649  function transfer(address to, uint256 value) public virtual returns (bool) {... */\n      swap3\n      swap2\n      pop\n      pop\n      jump\t// out\n        /* \"contracts/ERC20Token_flattened.sol\":83551:84223  function permit(... */\n    tag_101:\n        /* \"contracts/ERC20Token_flattened.sol\":83772:83780  deadline */\n      dup4\n        /* \"contracts/ERC20Token_flattened.sol\":83754:83769  block.timestamp */\n      timestamp\n        /* \"contracts/ERC20Token_flattened.sol\":83754:83780  block.timestamp > deadline */\n      gt\n        /* \"contracts/ERC20Token_flattened.sol\":83750:83847  if (block.timestamp > deadline) {... */\n      iszero\n      tag_187\n      jumpi\n        /* \"contracts/ERC20Token_flattened.sol\":83827:83835  deadline */\n      dup4\n        /* \"contracts/ERC20Token_flattened.sol\":83803:83836  ERC2612ExpiredSignature(deadline) */\n      mload(0x40)\n      0x6279130200000000000000000000000000000000000000000000000000000000\n      dup2\n      mstore\n      0x04\n      add\n      tag_188\n      swap2\n      swap1\n      tag_41\n      jump\t// in\n    tag_188:\n      mload(0x40)\n      dup1\n      swap2\n      sub\n      swap1\n      revert\n        /* \"contracts/ERC20Token_flattened.sol\":83750:83847  if (block.timestamp > deadline) {... */\n    tag_187:\n        /* \"contracts/ERC20Token_flattened.sol\":83857:83875  bytes32 structHash */\n      0x00\n        /* \"contracts/ERC20Token_flattened.sol\":82893:82988  keccak256(\"Permit(address owner,address spender,uint256 value,uint256 nonce,uint256 deadline)\") */\n      0x6e71edae12b1b97f4d1f60370fef10105fa2faae0126114a169c64845d6126c9\n        /* \"contracts/ERC20Token_flattened.sol\":83916:83921  owner */\n      dup9\n        /* \"contracts/ERC20Token_flattened.sol\":83923:83930  spender */\n      dup9\n        /* \"contracts/ERC20Token_flattened.sol\":83932:83937  value */\n      dup9\n        /* \"contracts/ERC20Token_flattened.sol\":83939:83955  _useNonce(owner) */\n      tag_189\n        /* \"contracts/ERC20Token_flattened.sol\":83949:83954  owner */\n      dup13\n        /* \"contracts/ERC20Token_flattened.sol\":83939:83948  _useNonce */\n      tag_190\n        /* \"contracts/ERC20Token_flattened.sol\":83939:83955  _useNonce(owner) */\n      jump\t// in\n    tag_189:\n        /* \"contracts/ERC20Token_flattened.sol\":83957:83965  deadline */\n      dup10\n        /* \"contracts/ERC20Token_flattened.sol\":83888:83966  abi.encode(PERMIT_TYPEHASH, owner, spender, value, _useNonce(owner), deadline) */\n      add(0x20, mload(0x40))\n      tag_191\n      swap7\n      swap6\n      swap5\n      swap4\n      swap3\n      swap2\n      swap1\n      tag_192\n      jump\t// in\n    tag_191:\n      mload(0x40)\n      0x20\n      dup2\n      dup4\n      sub\n      sub\n      dup2\n      mstore\n      swap1\n      0x40\n      mstore\n        /* \"contracts/ERC20Token_flattened.sol\":83878:83967  keccak256(abi.encode(PERMIT_TYPEHASH, owner, spender, value, _useNonce(owner), deadline)) */\n      dup1\n      mload\n      swap1\n      0x20\n      add\n      keccak256\n        /* \"contracts/ERC20Token_flattened.sol\":83857:83967  bytes32 structHash = keccak256(abi.encode(PERMIT_TYPEHASH, owner, spender, value, _useNonce(owner), deadline)) */\n      swap1\n      pop\n        /* \"contracts/ERC20Token_flattened.sol\":83978:83990  bytes32 hash */\n      0x00\n        /* \"contracts/ERC20Token_flattened.sol\":83993:84021  _hashTypedDataV4(structHash) */\n      tag_193\n        /* \"contracts/ERC20Token_flattened.sol\":84010:84020  structHash */\n      dup3\n        /* \"contracts/ERC20Token_flattened.sol\":83993:84009  _hashTypedDataV4 */\n      tag_194\n        /* \"contracts/ERC20Token_flattened.sol\":83993:84021  _hashTypedDataV4(structHash) */\n      jump\t// in\n    tag_193:\n        /* \"contracts/ERC20Token_flattened.sol\":83978:84021  bytes32 hash = _hashTypedDataV4(structHash) */\n      swap1\n      pop\n        /* \"contracts/ERC20Token_flattened.sol\":84032:84046  address signer */\n      0x00\n        /* \"contracts/ERC20Token_flattened.sol\":84049:84077  ECDSA.recover(hash, v, r, s) */\n      tag_195\n        /* \"contracts/ERC20Token_flattened.sol\":84063:84067  hash */\n      dup3\n        /* \"contracts/ERC20Token_flattened.sol\":84069:84070  v */\n      dup8\n        /* \"contracts/ERC20Token_flattened.sol\":84072:84073  r */\n      dup8\n        /* \"contracts/ERC20Token_flattened.sol\":84075:84076  s */\n      dup8\n        /* \"contracts/ERC20Token_flattened.sol\":84049:84062  ECDSA.recover */\n      tag_196\n        /* \"contracts/ERC20Token_flattened.sol\":84049:84077  ECDSA.recover(hash, v, r, s) */\n      jump\t// in\n    tag_195:\n        /* \"contracts/ERC20Token_flattened.sol\":84032:84077  address signer = ECDSA.recover(hash, v, r, s) */\n      swap1\n      pop\n        /* \"contracts/ERC20Token_flattened.sol\":84101:84106  owner */\n      dup10\n        /* \"contracts/ERC20Token_flattened.sol\":84091:84106  signer != owner */\n      0xffffffffffffffffffffffffffffffffffffffff\n      and\n        /* \"contracts/ERC20Token_flattened.sol\":84091:84097  signer */\n      dup2\n        /* \"contracts/ERC20Token_flattened.sol\":84091:84106  signer != owner */\n      0xffffffffffffffffffffffffffffffffffffffff\n      and\n      eq\n        /* \"contracts/ERC20Token_flattened.sol\":84087:84175  if (signer != owner) {... */\n      tag_197\n      jumpi\n        /* \"contracts/ERC20Token_flattened.sol\":84150:84156  signer */\n      dup1\n        /* \"contracts/ERC20Token_flattened.sol\":84158:84163  owner */\n      dup11\n        /* \"contracts/ERC20Token_flattened.sol\":84129:84164  ERC2612InvalidSigner(signer, owner) */\n      mload(0x40)\n      0x4b800e4600000000000000000000000000000000000000000000000000000000\n      dup2\n      mstore\n      0x04\n      add\n      tag_198\n      swap3\n      swap2\n      swap1\n      tag_199\n      jump\t// in\n    tag_198:\n      mload(0x40)\n      dup1\n      swap2\n      sub\n      swap1\n      revert\n        /* \"contracts/ERC20Token_flattened.sol\":84087:84175  if (signer != owner) {... */\n    tag_197:\n        /* \"contracts/ERC20Token_flattened.sol\":84185:84216  _approve(owner, spender, value) */\n      tag_200\n        /* \"contracts/ERC20Token_flattened.sol\":84194:84199  owner */\n      dup11\n        /* \"contracts/ERC20Token_flattened.sol\":84201:84208  spender */\n      dup11\n        /* \"contracts/ERC20Token_flattened.sol\":84210:84215  value */\n      dup11\n        /* \"contracts/ERC20Token_flattened.sol\":84185:84193  _approve */\n      tag_121\n        /* \"contracts/ERC20Token_flattened.sol\":84185:84216  _approve(owner, spender, value) */\n      jump\t// in\n    tag_200:\n        /* \"contracts/ERC20Token_flattened.sol\":83740:84223  {... */\n      pop\n      pop\n      pop\n        /* \"contracts/ERC20Token_flattened.sol\":83551:84223  function permit(... */\n      pop\n      pop\n      pop\n      pop\n      pop\n      pop\n      pop\n      jump\t// out\n        /* \"contracts/ERC20Token_flattened.sol\":14707:14847  function allowance(address owner, address spender) public view virtual returns (uint256) {... */\n    tag_105:\n        /* \"contracts/ERC20Token_flattened.sol\":14787:14794  uint256 */\n      0x00\n        /* \"contracts/ERC20Token_flattened.sol\":14813:14824  _allowances */\n      0x01\n        /* \"contracts/ERC20Token_flattened.sol\":14813:14831  _allowances[owner] */\n      0x00\n        /* \"contracts/ERC20Token_flattened.sol\":14825:14830  owner */\n      dup5\n        /* \"contracts/ERC20Token_flattened.sol\":14813:14831  _allowances[owner] */\n      0xffffffffffffffffffffffffffffffffffffffff\n      and\n      0xffffffffffffffffffffffffffffffffffffffff\n      and\n      dup2\n      mstore\n      0x20\n      add\n      swap1\n      dup2\n      mstore\n      0x20\n      add\n      0x00\n      keccak256\n        /* \"contracts/ERC20Token_flattened.sol\":14813:14840  _allowances[owner][spender] */\n      0x00\n        /* \"contracts/ERC20Token_flattened.sol\":14832:14839  spender */\n      dup4\n        /* \"contracts/ERC20Token_flattened.sol\":14813:14840  _allowances[owner][spender] */\n      0xffffffffffffffffffffffffffffffffffffffff\n      and\n      0xffffffffffffffffffffffffffffffffffffffff\n      and\n      dup2\n      mstore\n      0x20\n      add\n      swap1\n      dup2\n      mstore\n      0x20\n      add\n      0x00\n      keccak256\n      sload\n        /* \"contracts/ERC20Token_flattened.sol\":14806:14840  return _allowances[owner][spender] */\n      swap1\n      pop\n        /* \"contracts/ERC20Token_flattened.sol\":14707:14847  function allowance(address owner, address spender) public view virtual returns (uint256) {... */\n      swap3\n      swap2\n      pop\n      pop\n      jump\t// out\n        /* \"contracts/ERC20Token_flattened.sol\":29687:29902  function transferOwnership(address newOwner) public virtual onlyOwner {... */\n    tag_109:\n        /* \"contracts/ERC20Token_flattened.sol\":28675:28688  _checkOwner() */\n      tag_203\n        /* \"contracts/ERC20Token_flattened.sol\":28675:28686  _checkOwner */\n      tag_135\n        /* \"contracts/ERC20Token_flattened.sol\":28675:28688  _checkOwner() */\n      jump\t// in\n    tag_203:\n        /* \"contracts/ERC20Token_flattened.sol\":29791:29792  0 */\n      0x00\n        /* \"contracts/ERC20Token_flattened.sol\":29771:29793  newOwner == address(0) */\n      0xffffffffffffffffffffffffffffffffffffffff\n      and\n        /* \"contracts/ERC20Token_flattened.sol\":29771:29779  newOwner */\n      dup2\n        /* \"contracts/ERC20Token_flattened.sol\":29771:29793  newOwner == address(0) */\n      0xffffffffffffffffffffffffffffffffffffffff\n      and\n      sub\n        /* \"contracts/ERC20Token_flattened.sol\":29767:29858  if (newOwner == address(0)) {... */\n      tag_205\n      jumpi\n        /* \"contracts/ERC20Token_flattened.sol\":29844:29845  0 */\n      0x00\n        /* \"contracts/ERC20Token_flattened.sol\":29816:29847  OwnableInvalidOwner(address(0)) */\n      mload(0x40)\n      0x1e4fbdf700000000000000000000000000000000000000000000000000000000\n      dup2\n      mstore\n      0x04\n      add\n      tag_206\n      swap2\n      swap1\n      tag_90\n      jump\t// in\n    tag_206:\n      mload(0x40)\n      dup1\n      swap2\n      sub\n      swap1\n      revert\n        /* \"contracts/ERC20Token_flattened.sol\":29767:29858  if (newOwner == address(0)) {... */\n    tag_205:\n        /* \"contracts/ERC20Token_flattened.sol\":29867:29895  _transferOwnership(newOwner) */\n      tag_207\n        /* \"contracts/ERC20Token_flattened.sol\":29886:29894  newOwner */\n      dup2\n        /* \"contracts/ERC20Token_flattened.sol\":29867:29885  _transferOwnership */\n      tag_154\n        /* \"contracts/ERC20Token_flattened.sol\":29867:29895  _transferOwnership(newOwner) */\n      jump\t// in\n    tag_207:\n        /* \"contracts/ERC20Token_flattened.sol\":29687:29902  function transferOwnership(address newOwner) public virtual onlyOwner {... */\n      pop\n      jump\t// out\n        /* \"contracts/ERC20Token_flattened.sol\":4175:4271  function _msgSender() internal view virtual returns (address) {... */\n    tag_119:\n        /* \"contracts/ERC20Token_flattened.sol\":4228:4235  address */\n      0x00\n        /* \"contracts/ERC20Token_flattened.sol\":4254:4264  msg.sender */\n      caller\n        /* \"contracts/ERC20Token_flattened.sol\":4247:4264  return msg.sender */\n      swap1\n      pop\n        /* \"contracts/ERC20Token_flattened.sol\":4175:4271  function _msgSender() internal view virtual returns (address) {... */\n      swap1\n      jump\t// out\n        /* \"contracts/ERC20Token_flattened.sol\":19850:19978  function _approve(address owner, address spender, uint256 value) internal {... */\n    tag_121:\n        /* \"contracts/ERC20Token_flattened.sol\":19934:19971  _approve(owner, spender, value, true) */\n      tag_210\n        /* \"contracts/ERC20Token_flattened.sol\":19943:19948  owner */\n      dup4\n        /* \"contracts/ERC20Token_flattened.sol\":19950:19957  spender */\n      dup4\n        /* \"contracts/ERC20Token_flattened.sol\":19959:19964  value */\n      dup4\n        /* \"contracts/ERC20Token_flattened.sol\":19966:19970  true */\n      0x01\n        /* \"contracts/ERC20Token_flattened.sol\":19934:19942  _approve */\n      tag_211\n        /* \"contracts/ERC20Token_flattened.sol\":19934:19971  _approve(owner, spender, value, true) */\n      jump\t// in\n    tag_210:\n        /* \"contracts/ERC20Token_flattened.sol\":19850:19978  function _approve(address owner, address spender, uint256 value) internal {... */\n      pop\n      pop\n      pop\n      jump\t// out\n        /* \"contracts/ERC20Token_flattened.sol\":21524:22001  function _spendAllowance(address owner, address spender, uint256 value) internal virtual {... */\n    tag_126:\n        /* \"contracts/ERC20Token_flattened.sol\":21623:21647  uint256 currentAllowance */\n      0x00\n        /* \"contracts/ERC20Token_flattened.sol\":21650:21675  allowance(owner, spender) */\n      tag_213\n        /* \"contracts/ERC20Token_flattened.sol\":21660:21665  owner */\n      dup5\n        /* \"contracts/ERC20Token_flattened.sol\":21667:21674  spender */\n      dup5\n        /* \"contracts/ERC20Token_flattened.sol\":21650:21659  allowance */\n      tag_105\n        /* \"contracts/ERC20Token_flattened.sol\":21650:21675  allowance(owner, spender) */\n      jump\t// in\n    tag_213:\n        /* \"contracts/ERC20Token_flattened.sol\":21623:21675  uint256 currentAllowance = allowance(owner, spender) */\n      swap1\n      pop\n        /* \"contracts/ERC20Token_flattened.sol\":21709:21726  type(uint256).max */\n      0xffffffffffffffffffffffffffffffffffffffffffffffffffffffffffffffff\n        /* \"contracts/ERC20Token_flattened.sol\":21689:21705  currentAllowance */\n      dup2\n        /* \"contracts/ERC20Token_flattened.sol\":21689:21726  currentAllowance != type(uint256).max */\n      eq\n        /* \"contracts/ERC20Token_flattened.sol\":21685:21995  if (currentAllowance != type(uint256).max) {... */\n      tag_214\n      jumpi\n        /* \"contracts/ERC20Token_flattened.sol\":21765:21770  value */\n      dup2\n        /* \"contracts/ERC20Token_flattened.sol\":21746:21762  currentAllowance */\n      dup2\n        /* \"contracts/ERC20Token_flattened.sol\":21746:21770  currentAllowance < value */\n      lt\n        /* \"contracts/ERC20Token_flattened.sol\":21742:21872  if (currentAllowance < value) {... */\n      iszero\n      tag_215\n      jumpi\n        /* \"contracts/ERC20Token_flattened.sol\":21824:21831  spender */\n      dup3\n        /* \"contracts/ERC20Token_flattened.sol\":21833:21849  currentAllowance */\n      dup2\n        /* \"contracts/ERC20Token_flattened.sol\":21851:21856  value */\n      dup4\n        /* \"contracts/ERC20Token_flattened.sol\":21797:21857  ERC20InsufficientAllowance(spender, currentAllowance, value) */\n      mload(0x40)\n      0xfb8f41b200000000000000000000000000000000000000000000000000000000\n      dup2\n      mstore\n      0x04\n      add\n      tag_216\n      swap4\n      swap3\n      swap2\n      swap1\n      tag_217\n      jump\t// in\n    tag_216:\n      mload(0x40)\n      dup1\n      swap2\n      sub\n      swap1\n      revert\n        /* \"contracts/ERC20Token_flattened.sol\":21742:21872  if (currentAllowance < value) {... */\n    tag_215:\n        /* \"contracts/ERC20Token_flattened.sol\":21913:21970  _approve(owner, spender, currentAllowance - value, false) */\n      tag_218\n        /* \"contracts/ERC20Token_flattened.sol\":21922:21927  owner */\n      dup5\n        /* \"contracts/ERC20Token_flattened.sol\":21929:21936  spender */\n      dup5\n        /* \"contracts/ERC20Token_flattened.sol\":21957:21962  value */\n      dup5\n        /* \"contracts/ERC20Token_flattened.sol\":21938:21954  currentAllowance */\n      dup5\n        /* \"contracts/ERC20Token_flattened.sol\":21938:21962  currentAllowance - value */\n      sub\n        /* \"contracts/ERC20Token_flattened.sol\":21964:21969  false */\n      0x00\n        /* \"contracts/ERC20Token_flattened.sol\":21913:21921  _approve */\n      tag_211\n        /* \"contracts/ERC20Token_flattened.sol\":21913:21970  _approve(owner, spender, currentAllowance - value, false) */\n      jump\t// in\n    tag_218:\n        /* \"contracts/ERC20Token_flattened.sol\":21685:21995  if (currentAllowance != type(uint256).max) {... */\n    tag_214:\n        /* \"contracts/ERC20Token_flattened.sol\":21613:22001  {... */\n      pop\n        /* \"contracts/ERC20Token_flattened.sol\":21524:22001  function _spendAllowance(address owner, address spender, uint256 value) internal virtual {... */\n      pop\n      pop\n      pop\n      jump\t// out\n        /* \"contracts/ERC20Token_flattened.sol\":16517:16817  function _transfer(address from, address to, uint256 value) internal {... */\n    tag_128:\n        /* \"contracts/ERC20Token_flattened.sol\":16616:16617  0 */\n      0x00\n        /* \"contracts/ERC20Token_flattened.sol\":16600:16618  from == address(0) */\n      0xffffffffffffffffffffffffffffffffffffffff\n      and\n        /* \"contracts/ERC20Token_flattened.sol\":16600:16604  from */\n      dup4\n        /* \"contracts/ERC20Token_flattened.sol\":16600:16618  from == address(0) */\n      0xffffffffffffffffffffffffffffffffffffffff\n      and\n      sub\n        /* \"contracts/ERC20Token_flattened.sol\":16596:16682  if (from == address(0)) {... */\n      tag_220\n      jumpi\n        /* \"contracts/ERC20Token_flattened.sol\":16668:16669  0 */\n      0x00\n        /* \"contracts/ERC20Token_flattened.sol\":16641:16671  ERC20InvalidSender(address(0)) */\n      mload(0x40)\n      0x96c6fd1e00000000000000000000000000000000000000000000000000000000\n      dup2\n      mstore\n      0x04\n      add\n      tag_221\n      swap2\n      swap1\n      tag_90\n      jump\t// in\n    tag_221:\n      mload(0x40)\n      dup1\n      swap2\n      sub\n      swap1\n      revert\n        /* \"contracts/ERC20Token_flattened.sol\":16596:16682  if (from == address(0)) {... */\n    tag_220:\n        /* \"contracts/ERC20Token_flattened.sol\":16709:16710  0 */\n      0x00\n        /* \"contracts/ERC20Token_flattened.sol\":16695:16711  to == address(0) */\n      0xffffffffffffffffffffffffffffffffffffffff\n      and\n        /* \"contracts/ERC20Token_flattened.sol\":16695:16697  to */\n      dup3\n        /* \"contracts/ERC20Token_flattened.sol\":16695:16711  to == address(0) */\n      0xffffffffffffffffffffffffffffffffffffffff\n      and\n      sub\n        /* \"contracts/ERC20Token_flattened.sol\":16691:16777  if (to == address(0)) {... */\n      tag_222\n      jumpi\n        /* \"contracts/ERC20Token_flattened.sol\":16763:16764  0 */\n      0x00\n        /* \"contracts/ERC20Token_flattened.sol\":16734:16766  ERC20InvalidReceiver(address(0)) */\n      mload(0x40)\n      0xec442f0500000000000000000000000000000000000000000000000000000000\n      dup2\n      mstore\n      0x04\n      add\n      tag_223\n      swap2\n      swap1\n      tag_90\n      jump\t// in\n    tag_223:\n      mload(0x40)\n      dup1\n      swap2\n      sub\n      swap1\n      revert\n        /* \"contracts/ERC20Token_flattened.sol\":16691:16777  if (to == address(0)) {... */\n    tag_222:\n        /* \"contracts/ERC20Token_flattened.sol\":16786:16810  _update(from, to, value) */\n      tag_224\n        /* \"contracts/ERC20Token_flattened.sol\":16794:16798  from */\n      dup4\n        /* \"contracts/ERC20Token_flattened.sol\":16800:16802  to */\n      dup4\n        /* \"contracts/ERC20Token_flattened.sol\":16804:16809  value */\n      dup4\n        /* \"contracts/ERC20Token_flattened.sol\":16786:16793  _update */\n      tag_225\n        /* \"contracts/ERC20Token_flattened.sol\":16786:16810  _update(from, to, value) */\n      jump\t// in\n    tag_224:\n        /* \"contracts/ERC20Token_flattened.sol\":16517:16817  function _transfer(address from, address to, uint256 value) internal {... */\n      pop\n      pop\n      pop\n      jump\t// out\n        /* \"contracts/ERC20Token_flattened.sol\":77806:78068  function _domainSeparatorV4() internal view returns (bytes32) {... */\n    tag_132:\n        /* \"contracts/ERC20Token_flattened.sol\":77859:77866  bytes32 */\n      0x00\n        /* \"contracts/ERC20Token_flattened.sol\":77899:77910  _cachedThis */\n      immutable(\"0xce191cb8321ca757450c20e87b57fa44746b6a87612dab9cf25801eef5ed67f8\")\n        /* \"contracts/ERC20Token_flattened.sol\":77882:77910  address(this) == _cachedThis */\n      0xffffffffffffffffffffffffffffffffffffffff\n      and\n        /* \"contracts/ERC20Token_flattened.sol\":77890:77894  this */\n      address\n        /* \"contracts/ERC20Token_flattened.sol\":77882:77910  address(this) == _cachedThis */\n      0xffffffffffffffffffffffffffffffffffffffff\n      and\n      eq\n        /* \"contracts/ERC20Token_flattened.sol\":77882:77945  address(this) == _cachedThis && block.chainid == _cachedChainId */\n      dup1\n      iszero\n      tag_227\n      jumpi\n      pop\n        /* \"contracts/ERC20Token_flattened.sol\":77931:77945  _cachedChainId */\n      immutable(\"0x1a100bb1148e9e506f9ba8ec1947d4f84b922b6e9d33f30c8d12f2e351bcf10c\")\n        /* \"contracts/ERC20Token_flattened.sol\":77914:77927  block.chainid */\n      chainid\n        /* \"contracts/ERC20Token_flattened.sol\":77914:77945  block.chainid == _cachedChainId */\n      eq\n        /* \"contracts/ERC20Token_flattened.sol\":77882:77945  address(this) == _cachedThis && block.chainid == _cachedChainId */\n    tag_227:\n        /* \"contracts/ERC20Token_flattened.sol\":77878:78062  if (address(this) == _cachedThis && block.chainid == _cachedChainId) {... */\n      iszero\n      tag_228\n      jumpi\n        /* \"contracts/ERC20Token_flattened.sol\":77968:77990  _cachedDomainSeparator */\n      immutable(\"0x29952515f5d57954abac5ab7b1327bd7bcbb5425c05d93673edc46b02d7cb56d\")\n        /* \"contracts/ERC20Token_flattened.sol\":77961:77990  return _cachedDomainSeparator */\n      swap1\n      pop\n      jump(tag_226)\n        /* \"contracts/ERC20Token_flattened.sol\":77878:78062  if (address(this) == _cachedThis && block.chainid == _cachedChainId) {... */\n    tag_228:\n        /* \"contracts/ERC20Token_flattened.sol\":78028:78051  _buildDomainSeparator() */\n      tag_230\n        /* \"contracts/ERC20Token_flattened.sol\":78028:78049  _buildDomainSeparator */\n      tag_231\n        /* \"contracts/ERC20Token_flattened.sol\":78028:78051  _buildDomainSeparator() */\n      jump\t// in\n    tag_230:\n        /* \"contracts/ERC20Token_flattened.sol\":78021:78051  return _buildDomainSeparator() */\n      swap1\n      pop\n        /* \"contracts/ERC20Token_flattened.sol\":77806:78068  function _domainSeparatorV4() internal view returns (bytes32) {... */\n    tag_226:\n      swap1\n      jump\t// out\n        /* \"contracts/ERC20Token_flattened.sol\":28940:29102  function _checkOwner() internal view virtual {... */\n    tag_135:\n        /* \"contracts/ERC20Token_flattened.sol\":29010:29022  _msgSender() */\n      tag_233\n        /* \"contracts/ERC20Token_flattened.sol\":29010:29020  _msgSender */\n      tag_119\n        /* \"contracts/ERC20Token_flattened.sol\":29010:29022  _msgSender() */\n      jump\t// in\n    tag_233:\n        /* \"contracts/ERC20Token_flattened.sol\":28999:29022  owner() != _msgSender() */\n      0xffffffffffffffffffffffffffffffffffffffff\n      and\n        /* \"contracts/ERC20Token_flattened.sol\":28999:29006  owner() */\n      tag_234\n        /* \"contracts/ERC20Token_flattened.sol\":28999:29004  owner */\n      tag_88\n        /* \"contracts/ERC20Token_flattened.sol\":28999:29006  owner() */\n      jump\t// in\n    tag_234:\n        /* \"contracts/ERC20Token_flattened.sol\":28999:29022  owner() != _msgSender() */\n      0xffffffffffffffffffffffffffffffffffffffff\n      and\n      eq\n        /* \"contracts/ERC20Token_flattened.sol\":28995:29096  if (owner() != _msgSender()) {... */\n      tag_235\n      jumpi\n        /* \"contracts/ERC20Token_flattened.sol\":29072:29084  _msgSender() */\n      tag_236\n        /* \"contracts/ERC20Token_flattened.sol\":29072:29082  _msgSender */\n      tag_119\n        /* \"contracts/ERC20Token_flattened.sol\":29072:29084  _msgSender() */\n      jump\t// in\n    tag_236:\n        /* \"contracts/ERC20Token_flattened.sol\":29045:29085  OwnableUnauthorizedAccount(_msgSender()) */\n      mload(0x40)\n      0x118cdaa700000000000000000000000000000000000000000000000000000000\n      dup2\n      mstore\n      0x04\n      add\n      tag_237\n      swap2\n      swap1\n      tag_90\n      jump\t// in\n    tag_237:\n      mload(0x40)\n      dup1\n      swap2\n      sub\n      swap1\n      revert\n        /* \"contracts/ERC20Token_flattened.sol\":28995:29096  if (owner() != _msgSender()) {... */\n    tag_235:\n        /* \"contracts/ERC20Token_flattened.sol\":28940:29102  function _checkOwner() internal view virtual {... */\n      jump\t// out\n        /* \"contracts/ERC20Token_flattened.sol\":25831:25948  function _unpause() internal virtual whenPaused {... */\n    tag_138:\n        /* \"contracts/ERC20Token_flattened.sol\":24842:24858  _requirePaused() */\n      tag_239\n        /* \"contracts/ERC20Token_flattened.sol\":24842:24856  _requirePaused */\n      tag_240\n        /* \"contracts/ERC20Token_flattened.sol\":24842:24858  _requirePaused() */\n      jump\t// in\n    tag_239:\n        /* \"contracts/ERC20Token_flattened.sol\":25899:25904  false */\n      0x00\n        /* \"contracts/ERC20Token_flattened.sol\":25889:25896  _paused */\n      0x05\n      0x00\n        /* \"contracts/ERC20Token_flattened.sol\":25889:25904  _paused = false */\n      0x0100\n      exp\n      dup2\n      sload\n      dup2\n      0xff\n      mul\n      not\n      and\n      swap1\n      dup4\n      iszero\n      iszero\n      mul\n      or\n      swap1\n      sstore\n      pop\n        /* \"contracts/ERC20Token_flattened.sol\":25919:25941  Unpaused(_msgSender()) */\n      0x5db9ee0a495bf2e6ff9c91a7834c1ba4fdd244a5e8aa4e537bd38aeae4b073aa\n        /* \"contracts/ERC20Token_flattened.sol\":25928:25940  _msgSender() */\n      tag_242\n        /* \"contracts/ERC20Token_flattened.sol\":25928:25938  _msgSender */\n      tag_119\n        /* \"contracts/ERC20Token_flattened.sol\":25928:25940  _msgSender() */\n      jump\t// in\n    tag_242:\n        /* \"contracts/ERC20Token_flattened.sol\":25919:25941  Unpaused(_msgSender()) */\n      mload(0x40)\n      tag_243\n      swap2\n      swap1\n      tag_90\n      jump\t// in\n    tag_243:\n      mload(0x40)\n      dup1\n      swap2\n      sub\n      swap1\n      log1\n        /* \"contracts/ERC20Token_flattened.sol\":25831:25948  function _unpause() internal virtual whenPaused {... */\n      jump\t// out\n        /* \"contracts/ERC20Token_flattened.sol\":18582:18790  function _mint(address account, uint256 value) internal {... */\n    tag_143:\n        /* \"contracts/ERC20Token_flattened.sol\":18671:18672  0 */\n      0x00\n        /* \"contracts/ERC20Token_flattened.sol\":18652:18673  account == address(0) */\n      0xffffffffffffffffffffffffffffffffffffffff\n      and\n        /* \"contracts/ERC20Token_flattened.sol\":18652:18659  account */\n      dup3\n        /* \"contracts/ERC20Token_flattened.sol\":18652:18673  account == address(0) */\n      0xffffffffffffffffffffffffffffffffffffffff\n      and\n      sub\n        /* \"contracts/ERC20Token_flattened.sol\":18648:18739  if (account == address(0)) {... */\n      tag_245\n      jumpi\n        /* \"contracts/ERC20Token_flattened.sol\":18725:18726  0 */\n      0x00\n        /* \"contracts/ERC20Token_flattened.sol\":18696:18728  ERC20InvalidReceiver(address(0)) */\n      mload(0x40)\n      0xec442f0500000000000000000000000000000000000000000000000000000000\n      dup2\n      mstore\n      0x04\n      add\n      tag_246\n      swap2\n      swap1\n      tag_90\n      jump\t// in\n    tag_246:\n      mload(0x40)\n      dup1\n      swap2\n      sub\n      swap1\n      revert\n        /* \"contracts/ERC20Token_flattened.sol\":18648:18739  if (account == address(0)) {... */\n    tag_245:\n        /* \"contracts/ERC20Token_flattened.sol\":18748:18783  _update(address(0), account, value) */\n      tag_247\n        /* \"contracts/ERC20Token_flattened.sol\":18764:18765  0 */\n      0x00\n        /* \"contracts/ERC20Token_flattened.sol\":18768:18775  account */\n      dup4\n        /* \"contracts/ERC20Token_flattened.sol\":18777:18782  value */\n      dup4\n        /* \"contracts/ERC20Token_flattened.sol\":18748:18755  _update */\n      tag_225\n        /* \"contracts/ERC20Token_flattened.sol\":18748:18783  _update(address(0), account, value) */\n      jump\t// in\n    tag_247:\n        /* \"contracts/ERC20Token_flattened.sol\":18582:18790  function _mint(address account, uint256 value) internal {... */\n      pop\n      pop\n      jump\t// out\n        /* \"contracts/ERC20Token_flattened.sol\":19108:19314  function _burn(address account, uint256 value) internal {... */\n    tag_147:\n        /* \"contracts/ERC20Token_flattened.sol\":19197:19198  0 */\n      0x00\n        /* \"contracts/ERC20Token_flattened.sol\":19178:19199  account == address(0) */\n      0xffffffffffffffffffffffffffffffffffffffff\n      and\n        /* \"contracts/ERC20Token_flattened.sol\":19178:19185  account */\n      dup3\n        /* \"contracts/ERC20Token_flattened.sol\":19178:19199  account == address(0) */\n      0xffffffffffffffffffffffffffffffffffffffff\n      and\n      sub\n        /* \"contracts/ERC20Token_flattened.sol\":19174:19263  if (account == address(0)) {... */\n      tag_249\n      jumpi\n        /* \"contracts/ERC20Token_flattened.sol\":19249:19250  0 */\n      0x00\n        /* \"contracts/ERC20Token_flattened.sol\":19222:19252  ERC20InvalidSender(address(0)) */\n      mload(0x40)\n      0x96c6fd1e00000000000000000000000000000000000000000000000000000000\n      dup2\n      mstore\n      0x04\n      add\n      tag_250\n      swap2\n      swap1\n      tag_90\n      jump\t// in\n    tag_250:\n      mload(0x40)\n      dup1\n      swap2\n      sub\n      swap1\n      revert\n        /* \"contracts/ERC20Token_flattened.sol\":19174:19263  if (account == address(0)) {... */\n    tag_249:\n        /* \"contracts/ERC20Token_flattened.sol\":19272:19307  _update(account, address(0), value) */\n      tag_251\n        /* \"contracts/ERC20Token_flattened.sol\":19280:19287  account */\n      dup3\n        /* \"contracts/ERC20Token_flattened.sol\":19297:19298  0 */\n      0x00\n        /* \"contracts/ERC20Token_flattened.sol\":19301:19306  value */\n      dup4\n        /* \"contracts/ERC20Token_flattened.sol\":19272:19279  _update */\n      tag_225\n        /* \"contracts/ERC20Token_flattened.sol\":19272:19307  _update(account, address(0), value) */\n      jump\t// in\n    tag_251:\n        /* \"contracts/ERC20Token_flattened.sol\":19108:19314  function _burn(address account, uint256 value) internal {... */\n      pop\n      pop\n      jump\t// out\n        /* \"contracts/ERC20Token_flattened.sol\":30056:30243  function _transferOwnership(address newOwner) internal virtual {... */\n    tag_154:\n        /* \"contracts/ERC20Token_flattened.sol\":30129:30145  address oldOwner */\n      0x00\n        /* \"contracts/ERC20Token_flattened.sol\":30148:30154  _owner */\n      0x05\n      0x01\n      swap1\n      sload\n      swap1\n      0x0100\n      exp\n      swap1\n      div\n      0xffffffffffffffffffffffffffffffffffffffff\n      and\n        /* \"contracts/ERC20Token_flattened.sol\":30129:30154  address oldOwner = _owner */\n      swap1\n      pop\n        /* \"contracts/ERC20Token_flattened.sol\":30173:30181  newOwner */\n      dup2\n        /* \"contracts/ERC20Token_flattened.sol\":30164:30170  _owner */\n      0x05\n      0x01\n        /* \"contracts/ERC20Token_flattened.sol\":30164:30181  _owner = newOwner */\n      0x0100\n      exp\n      dup2\n      sload\n      dup2\n      0xffffffffffffffffffffffffffffffffffffffff\n      mul\n      not\n      and\n      swap1\n      dup4\n      0xffffffffffffffffffffffffffffffffffffffff\n      and\n      mul\n      or\n      swap1\n      sstore\n      pop\n        /* \"contracts/ERC20Token_flattened.sol\":30227:30235  newOwner */\n      dup2\n        /* \"contracts/ERC20Token_flattened.sol\":30196:30236  OwnershipTransferred(oldOwner, newOwner) */\n      0xffffffffffffffffffffffffffffffffffffffff\n      and\n        /* \"contracts/ERC20Token_flattened.sol\":30217:30225  oldOwner */\n      dup2\n        /* \"contracts/ERC20Token_flattened.sol\":30196:30236  OwnershipTransferred(oldOwner, newOwner) */\n      0xffffffffffffffffffffffffffffffffffffffff\n      and\n      0x8be0079c531659141344cd1fd0a4f28419497f9722a3daafe3b4186f6b6457e0\n      mload(0x40)\n      mload(0x40)\n      dup1\n      swap2\n      sub\n      swap1\n      log3\n        /* \"contracts/ERC20Token_flattened.sol\":30119:30243  {... */\n      pop\n        /* \"contracts/ERC20Token_flattened.sol\":30056:30243  function _transferOwnership(address newOwner) internal virtual {... */\n      pop\n      jump\t// out\n        /* \"contracts/ERC20Token_flattened.sol\":81131:81238  function nonces(address owner) public view virtual returns (uint256) {... */\n    tag_161:\n        /* \"contracts/ERC20Token_flattened.sol\":81191:81198  uint256 */\n      0x00\n        /* \"contracts/ERC20Token_flattened.sol\":81217:81224  _nonces */\n      0x08\n        /* \"contracts/ERC20Token_flattened.sol\":81217:81231  _nonces[owner] */\n      0x00\n        /* \"contracts/ERC20Token_flattened.sol\":81225:81230  owner */\n      dup4\n        /* \"contracts/ERC20Token_flattened.sol\":81217:81231  _nonces[owner] */\n      0xffffffffffffffffffffffffffffffffffffffff\n      and\n      0xffffffffffffffffffffffffffffffffffffffff\n      and\n      dup2\n      mstore\n      0x20\n      add\n      swap1\n      dup2\n      mstore\n      0x20\n      add\n      0x00\n      keccak256\n      sload\n        /* \"contracts/ERC20Token_flattened.sol\":81210:81231  return _nonces[owner] */\n      swap1\n      pop\n        /* \"contracts/ERC20Token_flattened.sol\":81131:81238  function nonces(address owner) public view virtual returns (uint256) {... */\n      swap2\n      swap1\n      pop\n      jump\t// out\n        /* \"contracts/ERC20Token_flattened.sol\":25584:25699  function _pause() internal virtual whenNotPaused {... */\n    tag_166:\n        /* \"contracts/ERC20Token_flattened.sol\":24595:24614  _requireNotPaused() */\n      tag_255\n        /* \"contracts/ERC20Token_flattened.sol\":24595:24612  _requireNotPaused */\n      tag_256\n        /* \"contracts/ERC20Token_flattened.sol\":24595:24614  _requireNotPaused() */\n      jump\t// in\n    tag_255:\n        /* \"contracts/ERC20Token_flattened.sol\":25653:25657  true */\n      0x01\n        /* \"contracts/ERC20Token_flattened.sol\":25643:25650  _paused */\n      0x05\n      0x00\n        /* \"contracts/ERC20Token_flattened.sol\":25643:25657  _paused = true */\n      0x0100\n      exp\n      dup2\n      sload\n      dup2\n      0xff\n      mul\n      not\n      and\n      swap1\n      dup4\n      iszero\n      iszero\n      mul\n      or\n      swap1\n      sstore\n      pop\n        /* \"contracts/ERC20Token_flattened.sol\":25672:25692  Paused(_msgSender()) */\n      0x62e78cea01bee320cd4e420270b5ea74000d11b0c9f74754ebdbfc544b05a258\n        /* \"contracts/ERC20Token_flattened.sol\":25679:25691  _msgSender() */\n      tag_258\n        /* \"contracts/ERC20Token_flattened.sol\":25679:25689  _msgSender */\n      tag_119\n        /* \"contracts/ERC20Token_flattened.sol\":25679:25691  _msgSender() */\n      jump\t// in\n    tag_258:\n        /* \"contracts/ERC20Token_flattened.sol\":25672:25692  Paused(_msgSender()) */\n      mload(0x40)\n      tag_259\n      swap2\n      swap1\n      tag_90\n      jump\t// in\n    tag_259:\n      mload(0x40)\n      dup1\n      swap2\n      sub\n      swap1\n      log1\n        /* \"contracts/ERC20Token_flattened.sol\":25584:25699  function _pause() internal virtual whenNotPaused {... */\n      jump\t// out\n        /* \"contracts/ERC20Token_flattened.sol\":79982:80108  function _EIP712Name() internal view returns (string memory) {... */\n    tag_169:\n        /* \"contracts/ERC20Token_flattened.sol\":80028:80041  string memory */\n      0x60\n        /* \"contracts/ERC20Token_flattened.sol\":80060:80101  _name.toStringWithFallback(_nameFallback) */\n      tag_261\n        /* \"contracts/ERC20Token_flattened.sol\":80087:80100  _nameFallback */\n      0x06\n        /* \"contracts/ERC20Token_flattened.sol\":80060:80065  _name */\n      immutable(\"0xb8163922f365f2d54f6122835c04019c69b181c4b5bf7a62d07ca62e91817bd9\")\n        /* \"contracts/ERC20Token_flattened.sol\":80060:80086  _name.toStringWithFallback */\n      tag_262\n      swap1\n        /* \"contracts/ERC20Token_flattened.sol\":80060:80101  _name.toStringWithFallback(_nameFallback) */\n      swap2\n      swap1\n      0xffffffff\n      and\n      jump\t// in\n    tag_261:\n        /* \"contracts/ERC20Token_flattened.sol\":80053:80101  return _name.toStringWithFallback(_nameFallback) */\n      swap1\n      pop\n        /* \"contracts/ERC20Token_flattened.sol\":79982:80108  function _EIP712Name() internal view returns (string memory) {... */\n      swap1\n      jump\t// out\n        /* \"contracts/ERC20Token_flattened.sol\":80434:80569  function _EIP712Version() internal view returns (string memory) {... */\n    tag_171:\n        /* \"contracts/ERC20Token_flattened.sol\":80483:80496  string memory */\n      0x60\n        /* \"contracts/ERC20Token_flattened.sol\":80515:80562  _version.toStringWithFallback(_versionFallback) */\n      tag_264\n        /* \"contracts/ERC20Token_flattened.sol\":80545:80561  _versionFallback */\n      0x07\n        /* \"contracts/ERC20Token_flattened.sol\":80515:80523  _version */\n      immutable(\"0xef17f12455e22a45134579834cdca993c5eec3070954e76052dcfac9f22697b4\")\n        /* \"contracts/ERC20Token_flattened.sol\":80515:80544  _version.toStringWithFallback */\n      tag_262\n      swap1\n        /* \"contracts/ERC20Token_flattened.sol\":80515:80562  _version.toStringWithFallback(_versionFallback) */\n      swap2\n      swap1\n      0xffffffff\n      and\n      jump\t// in\n    tag_264:\n        /* \"contracts/ERC20Token_flattened.sol\":80508:80562  return _version.toStringWithFallback(_versionFallback) */\n      swap1\n      pop\n        /* \"contracts/ERC20Token_flattened.sol\":80434:80569  function _EIP712Version() internal view returns (string memory) {... */\n      swap1\n      jump\t// out\n        /* \"contracts/ERC20Token_flattened.sol\":81352:81747  function _useNonce(address owner) internal virtual returns (uint256) {... */\n    tag_190:\n        /* \"contracts/ERC20Token_flattened.sol\":81412:81419  uint256 */\n      0x00\n        /* \"contracts/ERC20Token_flattened.sol\":81714:81721  _nonces */\n      0x08\n        /* \"contracts/ERC20Token_flattened.sol\":81714:81728  _nonces[owner] */\n      0x00\n        /* \"contracts/ERC20Token_flattened.sol\":81722:81727  owner */\n      dup4\n        /* \"contracts/ERC20Token_flattened.sol\":81714:81728  _nonces[owner] */\n      0xffffffffffffffffffffffffffffffffffffffff\n      and\n      0xffffffffffffffffffffffffffffffffffffffff\n      and\n      dup2\n      mstore\n      0x20\n      add\n      swap1\n      dup2\n      mstore\n      0x20\n      add\n      0x00\n      keccak256\n      0x00\n        /* \"contracts/ERC20Token_flattened.sol\":81714:81730  _nonces[owner]++ */\n      dup2\n      sload\n      dup1\n      swap3\n      swap2\n      swap1\n      0x01\n      add\n      swap2\n      swap1\n      pop\n      sstore\n        /* \"contracts/ERC20Token_flattened.sol\":81707:81730  return _nonces[owner]++ */\n      swap1\n      pop\n        /* \"contracts/ERC20Token_flattened.sol\":81352:81747  function _useNonce(address owner) internal virtual returns (uint256) {... */\n      swap2\n      swap1\n      pop\n      jump\t// out\n        /* \"contracts/ERC20Token_flattened.sol\":78878:79054  function _hashTypedDataV4(bytes32 structHash) internal view virtual returns (bytes32) {... */\n    tag_194:\n        /* \"contracts/ERC20Token_flattened.sol\":78955:78962  bytes32 */\n      0x00\n        /* \"contracts/ERC20Token_flattened.sol\":78981:79047  MessageHashUtils.toTypedDataHash(_domainSeparatorV4(), structHash) */\n      tag_267\n        /* \"contracts/ERC20Token_flattened.sol\":79014:79034  _domainSeparatorV4() */\n      tag_268\n        /* \"contracts/ERC20Token_flattened.sol\":79014:79032  _domainSeparatorV4 */\n      tag_132\n        /* \"contracts/ERC20Token_flattened.sol\":79014:79034  _domainSeparatorV4() */\n      jump\t// in\n    tag_268:\n        /* \"contracts/ERC20Token_flattened.sol\":79036:79046  structHash */\n      dup4\n        /* \"contracts/ERC20Token_flattened.sol\":78981:79013  MessageHashUtils.toTypedDataHash */\n      tag_269\n        /* \"contracts/ERC20Token_flattened.sol\":78981:79047  MessageHashUtils.toTypedDataHash(_domainSeparatorV4(), structHash) */\n      jump\t// in\n    tag_267:\n        /* \"contracts/ERC20Token_flattened.sol\":78974:79047  return MessageHashUtils.toTypedDataHash(_domainSeparatorV4(), structHash) */\n      swap1\n      pop\n        /* \"contracts/ERC20Token_flattened.sol\":78878:79054  function _hashTypedDataV4(bytes32 structHash) internal view virtual returns (bytes32) {... */\n      swap2\n      swap1\n      pop\n      jump\t// out\n        /* \"contracts/ERC20Token_flattened.sol\":40929:41189  function recover(bytes32 hash, uint8 v, bytes32 r, bytes32 s) internal pure returns (address) {... */\n    tag_196:\n        /* \"contracts/ERC20Token_flattened.sol\":41014:41021  address */\n      0x00\n        /* \"contracts/ERC20Token_flattened.sol\":41034:41051  address recovered */\n      dup1\n        /* \"contracts/ERC20Token_flattened.sol\":41053:41071  RecoverError error */\n      0x00\n        /* \"contracts/ERC20Token_flattened.sol\":41073:41089  bytes32 errorArg */\n      dup1\n        /* \"contracts/ERC20Token_flattened.sol\":41093:41118  tryRecover(hash, v, r, s) */\n      tag_271\n        /* \"contracts/ERC20Token_flattened.sol\":41104:41108  hash */\n      dup9\n        /* \"contracts/ERC20Token_flattened.sol\":41110:41111  v */\n      dup9\n        /* \"contracts/ERC20Token_flattened.sol\":41113:41114  r */\n      dup9\n        /* \"contracts/ERC20Token_flattened.sol\":41116:41117  s */\n      dup9\n        /* \"contracts/ERC20Token_flattened.sol\":41093:41103  tryRecover */\n      tag_272\n        /* \"contracts/ERC20Token_flattened.sol\":41093:41118  tryRecover(hash, v, r, s) */\n      jump\t// in\n    tag_271:\n        /* \"contracts/ERC20Token_flattened.sol\":41033:41118  (address recovered, RecoverError error, bytes32 errorArg) = tryRecover(hash, v, r, s) */\n      swap3\n      pop\n      swap3\n      pop\n      swap3\n      pop\n        /* \"contracts/ERC20Token_flattened.sol\":41128:41156  _throwError(error, errorArg) */\n      tag_273\n        /* \"contracts/ERC20Token_flattened.sol\":41140:41145  error */\n      dup3\n        /* \"contracts/ERC20Token_flattened.sol\":41147:41155  errorArg */\n      dup3\n        /* \"contracts/ERC20Token_flattened.sol\":41128:41139  _throwError */\n      tag_274\n        /* \"contracts/ERC20Token_flattened.sol\":41128:41156  _throwError(error, errorArg) */\n      jump\t// in\n    tag_273:\n        /* \"contracts/ERC20Token_flattened.sol\":41173:41182  recovered */\n      dup3\n        /* \"contracts/ERC20Token_flattened.sol\":41166:41182  return recovered */\n      swap4\n      pop\n      pop\n      pop\n      pop\n        /* \"contracts/ERC20Token_flattened.sol\":40929:41189  function recover(bytes32 hash, uint8 v, bytes32 r, bytes32 s) internal pure returns (address) {... */\n      swap5\n      swap4\n      pop\n      pop\n      pop\n      pop\n      jump\t// out\n        /* \"contracts/ERC20Token_flattened.sol\":20810:21242  function _approve(address owner, address spender, uint256 value, bool emitEvent) internal virtual {... */\n    tag_211:\n        /* \"contracts/ERC20Token_flattened.sol\":20939:20940  0 */\n      0x00\n        /* \"contracts/ERC20Token_flattened.sol\":20922:20941  owner == address(0) */\n      0xffffffffffffffffffffffffffffffffffffffff\n      and\n        /* \"contracts/ERC20Token_flattened.sol\":20922:20927  owner */\n      dup5\n        /* \"contracts/ERC20Token_flattened.sol\":20922:20941  owner == address(0) */\n      0xffffffffffffffffffffffffffffffffffffffff\n      and\n      sub\n        /* \"contracts/ERC20Token_flattened.sol\":20918:21007  if (owner == address(0)) {... */\n      tag_276\n      jumpi\n        /* \"contracts/ERC20Token_flattened.sol\":20993:20994  0 */\n      0x00\n        /* \"contracts/ERC20Token_flattened.sol\":20964:20996  ERC20InvalidApprover(address(0)) */\n      mload(0x40)\n      0xe602df0500000000000000000000000000000000000000000000000000000000\n      dup2\n      mstore\n      0x04\n      add\n      tag_277\n      swap2\n      swap1\n      tag_90\n      jump\t// in\n    tag_277:\n      mload(0x40)\n      dup1\n      swap2\n      sub\n      swap1\n      revert\n        /* \"contracts/ERC20Token_flattened.sol\":20918:21007  if (owner == address(0)) {... */\n    tag_276:\n        /* \"contracts/ERC20Token_flattened.sol\":21039:21040  0 */\n      0x00\n        /* \"contracts/ERC20Token_flattened.sol\":21020:21041  spender == address(0) */\n      0xffffffffffffffffffffffffffffffffffffffff\n      and\n        /* \"contracts/ERC20Token_flattened.sol\":21020:21027  spender */\n      dup4\n        /* \"contracts/ERC20Token_flattened.sol\":21020:21041  spender == address(0) */\n      0xffffffffffffffffffffffffffffffffffffffff\n      and\n      sub\n        /* \"contracts/ERC20Token_flattened.sol\":21016:21106  if (spender == address(0)) {... */\n      tag_278\n      jumpi\n        /* \"contracts/ERC20Token_flattened.sol\":21092:21093  0 */\n      0x00\n        /* \"contracts/ERC20Token_flattened.sol\":21064:21095  ERC20InvalidSpender(address(0)) */\n      mload(0x40)\n      0x94280d6200000000000000000000000000000000000000000000000000000000\n      dup2\n      mstore\n      0x04\n      add\n      tag_279\n      swap2\n      swap1\n      tag_90\n      jump\t// in\n    tag_279:\n      mload(0x40)\n      dup1\n      swap2\n      sub\n      swap1\n      revert\n        /* \"contracts/ERC20Token_flattened.sol\":21016:21106  if (spender == address(0)) {... */\n    tag_278:\n        /* \"contracts/ERC20Token_flattened.sol\":21145:21150  value */\n      dup2\n        /* \"contracts/ERC20Token_flattened.sol\":21115:21126  _allowances */\n      0x01\n        /* \"contracts/ERC20Token_flattened.sol\":21115:21133  _allowances[owner] */\n      0x00\n        /* \"contracts/ERC20Token_flattened.sol\":21127:21132  owner */\n      dup7\n        /* \"contracts/ERC20Token_flattened.sol\":21115:21133  _allowances[owner] */\n      0xffffffffffffffffffffffffffffffffffffffff\n      and\n      0xffffffffffffffffffffffffffffffffffffffff\n      and\n      dup2\n      mstore\n      0x20\n      add\n      swap1\n      dup2\n      mstore\n      0x20\n      add\n      0x00\n      keccak256\n        /* \"contracts/ERC20Token_flattened.sol\":21115:21142  _allowances[owner][spender] */\n      0x00\n        /* \"contracts/ERC20Token_flattened.sol\":21134:21141  spender */\n      dup6\n        /* \"contracts/ERC20Token_flattened.sol\":21115:21142  _allowances[owner][spender] */\n      0xffffffffffffffffffffffffffffffffffffffff\n      and\n      0xffffffffffffffffffffffffffffffffffffffff\n      and\n      dup2\n      mstore\n      0x20\n      add\n      swap1\n      dup2\n      mstore\n      0x20\n      add\n      0x00\n      keccak256\n        /* \"contracts/ERC20Token_flattened.sol\":21115:21150  _allowances[owner][spender] = value */\n      dup2\n      swap1\n      sstore\n      pop\n        /* \"contracts/ERC20Token_flattened.sol\":21164:21173  emitEvent */\n      dup1\n        /* \"contracts/ERC20Token_flattened.sol\":21160:21236  if (emitEvent) {... */\n      iszero\n      tag_280\n      jumpi\n        /* \"contracts/ERC20Token_flattened.sol\":21210:21217  spender */\n      dup3\n        /* \"contracts/ERC20Token_flattened.sol\":21194:21225  Approval(owner, spender, value) */\n      0xffffffffffffffffffffffffffffffffffffffff\n      and\n        /* \"contracts/ERC20Token_flattened.sol\":21203:21208  owner */\n      dup5\n        /* \"contracts/ERC20Token_flattened.sol\":21194:21225  Approval(owner, spender, value) */\n      0xffffffffffffffffffffffffffffffffffffffff\n      and\n      0x8c5be1e5ebec7d5bd14f71427d1e84f3dd0314c0f7b2291e5b200ac8c7c3b925\n        /* \"contracts/ERC20Token_flattened.sol\":21219:21224  value */\n      dup5\n        /* \"contracts/ERC20Token_flattened.sol\":21194:21225  Approval(owner, spender, value) */\n      mload(0x40)\n      tag_281\n      swap2\n      swap1\n      tag_41\n      jump\t// in\n    tag_281:\n      mload(0x40)\n      dup1\n      swap2\n      sub\n      swap1\n      log3\n        /* \"contracts/ERC20Token_flattened.sol\":21160:21236  if (emitEvent) {... */\n    tag_280:\n        /* \"contracts/ERC20Token_flattened.sol\":20810:21242  function _approve(address owner, address spender, uint256 value, bool emitEvent) internal virtual {... */\n      pop\n      pop\n      pop\n      pop\n      jump\t// out\n        /* \"contracts/ERC20Token_flattened.sol\":85338:85503  function _update(address from, address to, uint256 value)... */\n    tag_225:\n        /* \"contracts/ERC20Token_flattened.sol\":85466:85496  super._update(from, to, value) */\n      tag_283\n        /* \"contracts/ERC20Token_flattened.sol\":85480:85484  from */\n      dup4\n        /* \"contracts/ERC20Token_flattened.sol\":85486:85488  to */\n      dup4\n        /* \"contracts/ERC20Token_flattened.sol\":85490:85495  value */\n      dup4\n        /* \"contracts/ERC20Token_flattened.sol\":85466:85479  super._update */\n      tag_284\n        /* \"contracts/ERC20Token_flattened.sol\":85466:85496  super._update(from, to, value) */\n      jump\t// in\n    tag_283:\n        /* \"contracts/ERC20Token_flattened.sol\":85338:85503  function _update(address from, address to, uint256 value)... */\n      pop\n      pop\n      pop\n      jump\t// out\n        /* \"contracts/ERC20Token_flattened.sol\":78074:78253  function _buildDomainSeparator() private view returns (bytes32) {... */\n    tag_231:\n        /* \"contracts/ERC20Token_flattened.sol\":78129:78136  bytes32 */\n      0x00\n        /* \"contracts/ERC20Token_flattened.sol\":76040:76135  keccak256(\"EIP712Domain(string name,string version,uint256 chainId,address verifyingContract)\") */\n      0x8b73c3c69bb8fe3d512ecc4cf759cc79239f7b179b0ffacaa9a75d522b39400f\n        /* \"contracts/ERC20Token_flattened.sol\":78187:78198  _hashedName */\n      immutable(\"0xf40d89e88f976c0e4eebddab04ab11e8eb9a648fae2f79611f9b9f54d5ffefc8\")\n        /* \"contracts/ERC20Token_flattened.sol\":78200:78214  _hashedVersion */\n      immutable(\"0xc9c370779fd62a0c7c118a2246ccad4c103473123315c14d4e476e7f4b22843f\")\n        /* \"contracts/ERC20Token_flattened.sol\":78216:78229  block.chainid */\n      chainid\n        /* \"contracts/ERC20Token_flattened.sol\":78239:78243  this */\n      address\n        /* \"contracts/ERC20Token_flattened.sol\":78165:78245  abi.encode(TYPE_HASH, _hashedName, _hashedVersion, block.chainid, address(this)) */\n      add(0x20, mload(0x40))\n      tag_286\n      swap6\n      swap5\n      swap4\n      swap3\n      swap2\n      swap1\n      tag_287\n      jump\t// in\n    tag_286:\n      mload(0x40)\n      0x20\n      dup2\n      dup4\n      sub\n      sub\n      dup2\n      mstore\n      swap1\n      0x40\n      mstore\n        /* \"contracts/ERC20Token_flattened.sol\":78155:78246  keccak256(abi.encode(TYPE_HASH, _hashedName, _hashedVersion, block.chainid, address(this))) */\n      dup1\n      mload\n      swap1\n      0x20\n      add\n      keccak256\n        /* \"contracts/ERC20Token_flattened.sol\":78148:78246  return keccak256(abi.encode(TYPE_HASH, _hashedName, _hashedVersion, block.chainid, address(this))) */\n      swap1\n      pop\n        /* \"contracts/ERC20Token_flattened.sol\":78074:78253  function _buildDomainSeparator() private view returns (bytes32) {... */\n      swap1\n      jump\t// out\n        /* \"contracts/ERC20Token_flattened.sol\":25323:25449  function _requirePaused() internal view virtual {... */\n    tag_240:\n        /* \"contracts/ERC20Token_flattened.sol\":25386:25394  paused() */\n      tag_289\n        /* \"contracts/ERC20Token_flattened.sol\":25386:25392  paused */\n      tag_65\n        /* \"contracts/ERC20Token_flattened.sol\":25386:25394  paused() */\n      jump\t// in\n    tag_289:\n        /* \"contracts/ERC20Token_flattened.sol\":25381:25443  if (!paused()) {... */\n      tag_290\n      jumpi\n        /* \"contracts/ERC20Token_flattened.sol\":25417:25432  ExpectedPause() */\n      mload(0x40)\n      0x8dfc202b00000000000000000000000000000000000000000000000000000000\n      dup2\n      mstore\n      0x04\n      add\n      mload(0x40)\n      dup1\n      swap2\n      sub\n      swap1\n      revert\n        /* \"contracts/ERC20Token_flattened.sol\":25381:25443  if (!paused()) {... */\n    tag_290:\n        /* \"contracts/ERC20Token_flattened.sol\":25323:25449  function _requirePaused() internal view virtual {... */\n      jump\t// out\n        /* \"contracts/ERC20Token_flattened.sol\":25123:25251  function _requireNotPaused() internal view virtual {... */\n    tag_256:\n        /* \"contracts/ERC20Token_flattened.sol\":25188:25196  paused() */\n      tag_292\n        /* \"contracts/ERC20Token_flattened.sol\":25188:25194  paused */\n      tag_65\n        /* \"contracts/ERC20Token_flattened.sol\":25188:25196  paused() */\n      jump\t// in\n    tag_292:\n        /* \"contracts/ERC20Token_flattened.sol\":25184:25245  if (paused()) {... */\n      iszero\n      tag_293\n      jumpi\n        /* \"contracts/ERC20Token_flattened.sol\":25219:25234  EnforcedPause() */\n      mload(0x40)\n      0xd93c066500000000000000000000000000000000000000000000000000000000\n      dup2\n      mstore\n      0x04\n      add\n      mload(0x40)\n      dup1\n      swap2\n      sub\n      swap1\n      revert\n        /* \"contracts/ERC20Token_flattened.sol\":25184:25245  if (paused()) {... */\n    tag_293:\n        /* \"contracts/ERC20Token_flattened.sol\":25123:25251  function _requireNotPaused() internal view virtual {... */\n      jump\t// out\n        /* \"contracts/ERC20Token_flattened.sol\":72410:72677  function toStringWithFallback(ShortString value, string storage store) internal pure returns (string memory) {... */\n    tag_262:\n        /* \"contracts/ERC20Token_flattened.sol\":72504:72517  string memory */\n      0x60\n        /* \"contracts/ERC20Token_flattened.sol\":70415:70481  0x00000000000000000000000000000000000000000000000000000000000000FF */\n      0xff\n        /* \"contracts/ERC20Token_flattened.sol\":72562:72579  FALLBACK_SENTINEL */\n      0x00\n      shl\n        /* \"contracts/ERC20Token_flattened.sol\":72552:72557  value */\n      dup4\n        /* \"contracts/ERC20Token_flattened.sol\":72533:72579  ShortString.unwrap(value) != FALLBACK_SENTINEL */\n      eq\n        /* \"contracts/ERC20Token_flattened.sol\":72529:72671  if (ShortString.unwrap(value) != FALLBACK_SENTINEL) {... */\n      tag_295\n      jumpi\n        /* \"contracts/ERC20Token_flattened.sol\":72602:72617  toString(value) */\n      tag_296\n        /* \"contracts/ERC20Token_flattened.sol\":72611:72616  value */\n      dup4\n        /* \"contracts/ERC20Token_flattened.sol\":72602:72610  toString */\n      tag_297\n        /* \"contracts/ERC20Token_flattened.sol\":72602:72617  toString(value) */\n      jump\t// in\n    tag_296:\n        /* \"contracts/ERC20Token_flattened.sol\":72595:72617  return toString(value) */\n      swap1\n      pop\n      jump(tag_294)\n        /* \"contracts/ERC20Token_flattened.sol\":72529:72671  if (ShortString.unwrap(value) != FALLBACK_SENTINEL) {... */\n    tag_295:\n        /* \"contracts/ERC20Token_flattened.sol\":72655:72660  store */\n      dup2\n        /* \"contracts/ERC20Token_flattened.sol\":72648:72660  return store */\n      dup1\n      sload\n      tag_299\n      swap1\n      tag_112\n      jump\t// in\n    tag_299:\n      dup1\n      0x1f\n      add\n      0x20\n      dup1\n      swap2\n      div\n      mul\n      0x20\n      add\n      mload(0x40)\n      swap1\n      dup2\n      add\n      0x40\n      mstore\n      dup1\n      swap3\n      swap2\n      swap1\n      dup2\n      dup2\n      mstore\n      0x20\n      add\n      dup3\n      dup1\n      sload\n      tag_300\n      swap1\n      tag_112\n      jump\t// in\n    tag_300:\n      dup1\n      iszero\n      tag_301\n      jumpi\n      dup1\n      0x1f\n      lt\n      tag_302\n      jumpi\n      0x0100\n      dup1\n      dup4\n      sload\n      div\n      mul\n      dup4\n      mstore\n      swap2\n      0x20\n      add\n      swap2\n      jump(tag_301)\n    tag_302:\n      dup3\n      add\n      swap2\n      swap1\n      0x00\n      mstore\n      keccak256(0x00, 0x20)\n      swap1\n    tag_303:\n      dup2\n      sload\n      dup2\n      mstore\n      swap1\n      0x01\n      add\n      swap1\n      0x20\n      add\n      dup1\n      dup4\n      gt\n      tag_303\n      jumpi\n      dup3\n      swap1\n      sub\n      0x1f\n      and\n      dup3\n      add\n      swap2\n    tag_301:\n      pop\n      pop\n      pop\n      pop\n      pop\n      swap1\n      pop\n        /* \"contracts/ERC20Token_flattened.sol\":72410:72677  function toStringWithFallback(ShortString value, string storage store) internal pure returns (string memory) {... */\n    tag_294:\n      swap3\n      swap2\n      pop\n      pop\n      jump\t// out\n        /* \"contracts/ERC20Token_flattened.sol\":64684:65085  function toTypedDataHash(bytes32 domainSeparator, bytes32 structHash) internal pure returns (bytes32 digest) {... */\n    tag_269:\n        /* \"contracts/ERC20Token_flattened.sol\":64777:64791  bytes32 digest */\n      0x00\n        /* \"contracts/ERC20Token_flattened.sol\":64886:64890  0x40 */\n      0x40\n        /* \"contracts/ERC20Token_flattened.sol\":64880:64891  mload(0x40) */\n      mload\n        /* \"contracts/ERC20Token_flattened.sol\":64916:64926  hex\"19_01\" */\n      0x1901000000000000000000000000000000000000000000000000000000000000\n        /* \"contracts/ERC20Token_flattened.sol\":64911:64914  ptr */\n      dup2\n        /* \"contracts/ERC20Token_flattened.sol\":64904:64927  mstore(ptr, hex\"19_01\") */\n      mstore\n        /* \"contracts/ERC20Token_flattened.sol\":64963:64978  domainSeparator */\n      dup4\n        /* \"contracts/ERC20Token_flattened.sol\":64956:64960  0x02 */\n      0x02\n        /* \"contracts/ERC20Token_flattened.sol\":64951:64954  ptr */\n      dup3\n        /* \"contracts/ERC20Token_flattened.sol\":64947:64961  add(ptr, 0x02) */\n      add\n        /* \"contracts/ERC20Token_flattened.sol\":64940:64979  mstore(add(ptr, 0x02), domainSeparator) */\n      mstore\n        /* \"contracts/ERC20Token_flattened.sol\":65015:65025  structHash */\n      dup3\n        /* \"contracts/ERC20Token_flattened.sol\":65008:65012  0x22 */\n      0x22\n        /* \"contracts/ERC20Token_flattened.sol\":65003:65006  ptr */\n      dup3\n        /* \"contracts/ERC20Token_flattened.sol\":64999:65013  add(ptr, 0x22) */\n      add\n        /* \"contracts/ERC20Token_flattened.sol\":64992:65026  mstore(add(ptr, 0x22), structHash) */\n      mstore\n        /* \"contracts/ERC20Token_flattened.sol\":65064:65068  0x42 */\n      0x42\n        /* \"contracts/ERC20Token_flattened.sol\":65059:65062  ptr */\n      dup2\n        /* \"contracts/ERC20Token_flattened.sol\":65049:65069  keccak256(ptr, 0x42) */\n      keccak256\n        /* \"contracts/ERC20Token_flattened.sol\":65039:65069  digest := keccak256(ptr, 0x42) */\n      swap2\n      pop\n        /* \"contracts/ERC20Token_flattened.sol\":64855:65079  {... */\n      pop\n        /* \"contracts/ERC20Token_flattened.sol\":64684:65085  function toTypedDataHash(bytes32 domainSeparator, bytes32 structHash) internal pure returns (bytes32 digest) {... */\n      swap3\n      swap2\n      pop\n      pop\n      jump\t// out\n        /* \"contracts/ERC20Token_flattened.sol\":39266:40796  function tryRecover(... */\n    tag_272:\n        /* \"contracts/ERC20Token_flattened.sol\":39392:39399  address */\n      0x00\n        /* \"contracts/ERC20Token_flattened.sol\":39401:39413  RecoverError */\n      dup1\n        /* \"contracts/ERC20Token_flattened.sol\":39415:39422  bytes32 */\n      0x00\n        /* \"contracts/ERC20Token_flattened.sol\":40325:40391  0x7FFFFFFFFFFFFFFFFFFFFFFFFFFFFFFF5D576E7357A4501DDFE92F46681B20A0 */\n      0x7fffffffffffffffffffffffffffffff5d576e7357a4501ddfe92f46681b20a0\n        /* \"contracts/ERC20Token_flattened.sol\":40320:40321  s */\n      dup5\n        /* \"contracts/ERC20Token_flattened.sol\":40312:40322  uint256(s) */\n      0x00\n      shr\n        /* \"contracts/ERC20Token_flattened.sol\":40312:40391  uint256(s) > 0x7FFFFFFFFFFFFFFFFFFFFFFFFFFFFFFF5D576E7357A4501DDFE92F46681B20A0 */\n      gt\n        /* \"contracts/ERC20Token_flattened.sol\":40308:40472  if (uint256(s) > 0x7FFFFFFFFFFFFFFFFFFFFFFFFFFFFFFF5D576E7357A4501DDFE92F46681B20A0) {... */\n      iszero\n      tag_306\n      jumpi\n        /* \"contracts/ERC20Token_flattened.sol\":40423:40424  0 */\n      0x00\n        /* \"contracts/ERC20Token_flattened.sol\":40427:40457  RecoverError.InvalidSignatureS */\n      0x03\n        /* \"contracts/ERC20Token_flattened.sol\":40459:40460  s */\n      dup6\n        /* \"contracts/ERC20Token_flattened.sol\":40407:40461  return (address(0), RecoverError.InvalidSignatureS, s) */\n      swap3\n      pop\n      swap3\n      pop\n      swap3\n      pop\n      jump(tag_305)\n        /* \"contracts/ERC20Token_flattened.sol\":40308:40472  if (uint256(s) > 0x7FFFFFFFFFFFFFFFFFFFFFFFFFFFFFFF5D576E7357A4501DDFE92F46681B20A0) {... */\n    tag_306:\n        /* \"contracts/ERC20Token_flattened.sol\":40566:40580  address signer */\n      0x00\n        /* \"contracts/ERC20Token_flattened.sol\":40583:40607  ecrecover(hash, v, r, s) */\n      0x01\n        /* \"contracts/ERC20Token_flattened.sol\":40593:40597  hash */\n      dup9\n        /* \"contracts/ERC20Token_flattened.sol\":40599:40600  v */\n      dup9\n        /* \"contracts/ERC20Token_flattened.sol\":40602:40603  r */\n      dup9\n        /* \"contracts/ERC20Token_flattened.sol\":40605:40606  s */\n      dup9\n        /* \"contracts/ERC20Token_flattened.sol\":40583:40607  ecrecover(hash, v, r, s) */\n      mload(0x40)\n      0x00\n      dup2\n      mstore\n      0x20\n      add\n      0x40\n      mstore\n      mload(0x40)\n      tag_307\n      swap5\n      swap4\n      swap3\n      swap2\n      swap1\n      tag_308\n      jump\t// in\n    tag_307:\n      0x20\n      mload(0x40)\n      0x20\n      dup2\n      sub\n      swap1\n      dup1\n      dup5\n      sub\n      swap1\n      dup6\n      gas\n      staticcall\n      iszero\n      dup1\n      iszero\n      tag_310\n      jumpi\n      returndatasize\n      0x00\n      dup1\n      returndatacopy\n      revert(0x00, returndatasize)\n    tag_310:\n      pop\n      pop\n      pop\n      mload(sub(mload(0x40), 0x20))\n        /* \"contracts/ERC20Token_flattened.sol\":40566:40607  address signer = ecrecover(hash, v, r, s) */\n      swap1\n      pop\n        /* \"contracts/ERC20Token_flattened.sol\":40639:40640  0 */\n      0x00\n        /* \"contracts/ERC20Token_flattened.sol\":40621:40641  signer == address(0) */\n      0xffffffffffffffffffffffffffffffffffffffff\n      and\n        /* \"contracts/ERC20Token_flattened.sol\":40621:40627  signer */\n      dup2\n        /* \"contracts/ERC20Token_flattened.sol\":40621:40641  signer == address(0) */\n      0xffffffffffffffffffffffffffffffffffffffff\n      and\n      sub\n        /* \"contracts/ERC20Token_flattened.sol\":40617:40730  if (signer == address(0)) {... */\n      tag_311\n      jumpi\n        /* \"contracts/ERC20Token_flattened.sol\":40673:40674  0 */\n      0x00\n        /* \"contracts/ERC20Token_flattened.sol\":40677:40706  RecoverError.InvalidSignature */\n      0x01\n        /* \"contracts/ERC20Token_flattened.sol\":40716:40717  0 */\n      0x00\n        /* \"contracts/ERC20Token_flattened.sol\":40708:40718  bytes32(0) */\n      dup1\n      shl\n        /* \"contracts/ERC20Token_flattened.sol\":40657:40719  return (address(0), RecoverError.InvalidSignature, bytes32(0)) */\n      swap4\n      pop\n      swap4\n      pop\n      swap4\n      pop\n      pop\n      jump(tag_305)\n        /* \"contracts/ERC20Token_flattened.sol\":40617:40730  if (signer == address(0)) {... */\n    tag_311:\n        /* \"contracts/ERC20Token_flattened.sol\":40748:40754  signer */\n      dup1\n        /* \"contracts/ERC20Token_flattened.sol\":40756:40776  RecoverError.NoError */\n      0x00\n        /* \"contracts/ERC20Token_flattened.sol\":40786:40787  0 */\n      dup1\n        /* \"contracts/ERC20Token_flattened.sol\":40778:40788  bytes32(0) */\n      0x00\n      shl\n        /* \"contracts/ERC20Token_flattened.sol\":40740:40789  return (signer, RecoverError.NoError, bytes32(0)) */\n      swap4\n      pop\n      swap4\n      pop\n      swap4\n      pop\n      pop\n        /* \"contracts/ERC20Token_flattened.sol\":39266:40796  function tryRecover(... */\n    tag_305:\n      swap5\n      pop\n      swap5\n      pop\n      swap5\n      swap2\n      pop\n      pop\n      jump\t// out\n        /* \"contracts/ERC20Token_flattened.sol\":41322:41854  function _throwError(RecoverError error, bytes32 errorArg) private pure {... */\n    tag_274:\n        /* \"contracts/ERC20Token_flattened.sol\":41417:41437  RecoverError.NoError */\n      0x00\n        /* \"contracts/ERC20Token_flattened.sol\":41408:41437  error == RecoverError.NoError */\n      0x03\n      dup2\n      gt\n      iszero\n      tag_313\n      jumpi\n      tag_314\n      tag_315\n      jump\t// in\n    tag_314:\n    tag_313:\n        /* \"contracts/ERC20Token_flattened.sol\":41408:41413  error */\n      dup3\n        /* \"contracts/ERC20Token_flattened.sol\":41408:41437  error == RecoverError.NoError */\n      0x03\n      dup2\n      gt\n      iszero\n      tag_316\n      jumpi\n      tag_317\n      tag_315\n      jump\t// in\n    tag_317:\n    tag_316:\n      sub\n        /* \"contracts/ERC20Token_flattened.sol\":41404:41848  if (error == RecoverError.NoError) {... */\n      iszero\n        /* \"contracts/ERC20Token_flattened.sol\":41453:41460  return; */\n      tag_312\n        /* \"contracts/ERC20Token_flattened.sol\":41404:41848  if (error == RecoverError.NoError) {... */\n      jumpi\n        /* \"contracts/ERC20Token_flattened.sol\":41513:41542  RecoverError.InvalidSignature */\n      0x01\n        /* \"contracts/ERC20Token_flattened.sol\":41504:41542  error == RecoverError.InvalidSignature */\n      0x03\n      dup2\n      gt\n      iszero\n      tag_320\n      jumpi\n      tag_321\n      tag_315\n      jump\t// in\n    tag_321:\n    tag_320:\n        /* \"contracts/ERC20Token_flattened.sol\":41504:41509  error */\n      dup3\n        /* \"contracts/ERC20Token_flattened.sol\":41504:41542  error == RecoverError.InvalidSignature */\n      0x03\n      dup2\n      gt\n      iszero\n      tag_322\n      jumpi\n      tag_323\n      tag_315\n      jump\t// in\n    tag_323:\n    tag_322:\n      sub\n        /* \"contracts/ERC20Token_flattened.sol\":41500:41848  if (error == RecoverError.InvalidSignature) {... */\n      tag_324\n      jumpi\n        /* \"contracts/ERC20Token_flattened.sol\":41565:41588  ECDSAInvalidSignature() */\n      mload(0x40)\n      0xf645eedf00000000000000000000000000000000000000000000000000000000\n      dup2\n      mstore\n      0x04\n      add\n      mload(0x40)\n      dup1\n      swap2\n      sub\n      swap1\n      revert\n        /* \"contracts/ERC20Token_flattened.sol\":41500:41848  if (error == RecoverError.InvalidSignature) {... */\n    tag_324:\n        /* \"contracts/ERC20Token_flattened.sol\":41618:41653  RecoverError.InvalidSignatureLength */\n      0x02\n        /* \"contracts/ERC20Token_flattened.sol\":41609:41653  error == RecoverError.InvalidSignatureLength */\n      0x03\n      dup2\n      gt\n      iszero\n      tag_326\n      jumpi\n      tag_327\n      tag_315\n      jump\t// in\n    tag_327:\n    tag_326:\n        /* \"contracts/ERC20Token_flattened.sol\":41609:41614  error */\n      dup3\n        /* \"contracts/ERC20Token_flattened.sol\":41609:41653  error == RecoverError.InvalidSignatureLength */\n      0x03\n      dup2\n      gt\n      iszero\n      tag_328\n      jumpi\n      tag_329\n      tag_315\n      jump\t// in\n    tag_329:\n    tag_328:\n      sub\n        /* \"contracts/ERC20Token_flattened.sol\":41605:41848  if (error == RecoverError.InvalidSignatureLength) {... */\n      tag_330\n      jumpi\n        /* \"contracts/ERC20Token_flattened.sol\":41712:41720  errorArg */\n      dup1\n        /* \"contracts/ERC20Token_flattened.sol\":41704:41721  uint256(errorArg) */\n      0x00\n      shr\n        /* \"contracts/ERC20Token_flattened.sol\":41676:41722  ECDSAInvalidSignatureLength(uint256(errorArg)) */\n      mload(0x40)\n      0xfce698f700000000000000000000000000000000000000000000000000000000\n      dup2\n      mstore\n      0x04\n      add\n      tag_331\n      swap2\n      swap1\n      tag_41\n      jump\t// in\n    tag_331:\n      mload(0x40)\n      dup1\n      swap2\n      sub\n      swap1\n      revert\n        /* \"contracts/ERC20Token_flattened.sol\":41605:41848  if (error == RecoverError.InvalidSignatureLength) {... */\n    tag_330:\n        /* \"contracts/ERC20Token_flattened.sol\":41752:41782  RecoverError.InvalidSignatureS */\n      0x03\n        /* \"contracts/ERC20Token_flattened.sol\":41743:41782  error == RecoverError.InvalidSignatureS */\n      dup1\n      dup2\n      gt\n      iszero\n      tag_333\n      jumpi\n      tag_334\n      tag_315\n      jump\t// in\n    tag_334:\n    tag_333:\n        /* \"contracts/ERC20Token_flattened.sol\":41743:41748  error */\n      dup3\n        /* \"contracts/ERC20Token_flattened.sol\":41743:41782  error == RecoverError.InvalidSignatureS */\n      0x03\n      dup2\n      gt\n      iszero\n      tag_335\n      jumpi\n      tag_336\n      tag_315\n      jump\t// in\n    tag_336:\n    tag_335:\n      sub\n        /* \"contracts/ERC20Token_flattened.sol\":41739:41848  if (error == RecoverError.InvalidSignatureS) {... */\n      tag_337\n      jumpi\n        /* \"contracts/ERC20Token_flattened.sol\":41828:41836  errorArg */\n      dup1\n        /* \"contracts/ERC20Token_flattened.sol\":41805:41837  ECDSAInvalidSignatureS(errorArg) */\n      mload(0x40)\n      0xd78bce0c00000000000000000000000000000000000000000000000000000000\n      dup2\n      mstore\n      0x04\n      add\n      tag_338\n      swap2\n      swap1\n      tag_54\n      jump\t// in\n    tag_338:\n      mload(0x40)\n      dup1\n      swap2\n      sub\n      swap1\n      revert\n        /* \"contracts/ERC20Token_flattened.sol\":41739:41848  if (error == RecoverError.InvalidSignatureS) {... */\n    tag_337:\n        /* \"contracts/ERC20Token_flattened.sol\":41322:41854  function _throwError(RecoverError error, bytes32 errorArg) private pure {... */\n    tag_312:\n      pop\n      pop\n      jump\t// out\n        /* \"contracts/ERC20Token_flattened.sol\":27019:27164  function _update(address from, address to, uint256 value) internal virtual override whenNotPaused {... */\n    tag_284:\n        /* \"contracts/ERC20Token_flattened.sol\":24595:24614  _requireNotPaused() */\n      tag_340\n        /* \"contracts/ERC20Token_flattened.sol\":24595:24612  _requireNotPaused */\n      tag_256\n        /* \"contracts/ERC20Token_flattened.sol\":24595:24614  _requireNotPaused() */\n      jump\t// in\n    tag_340:\n        /* \"contracts/ERC20Token_flattened.sol\":27127:27157  super._update(from, to, value) */\n      tag_342\n        /* \"contracts/ERC20Token_flattened.sol\":27141:27145  from */\n      dup4\n        /* \"contracts/ERC20Token_flattened.sol\":27147:27149  to */\n      dup4\n        /* \"contracts/ERC20Token_flattened.sol\":27151:27156  value */\n      dup4\n        /* \"contracts/ERC20Token_flattened.sol\":27127:27140  super._update */\n      tag_343\n        /* \"contracts/ERC20Token_flattened.sol\":27127:27157  super._update(from, to, value) */\n      jump\t// in\n    tag_342:\n        /* \"contracts/ERC20Token_flattened.sol\":27019:27164  function _update(address from, address to, uint256 value) internal virtual override whenNotPaused {... */\n      pop\n      pop\n      pop\n      jump\t// out\n        /* \"contracts/ERC20Token_flattened.sol\":71103:71508  function toString(ShortString sstr) internal pure returns (string memory) {... */\n    tag_297:\n        /* \"contracts/ERC20Token_flattened.sol\":71162:71175  string memory */\n      0x60\n        /* \"contracts/ERC20Token_flattened.sol\":71187:71198  uint256 len */\n      0x00\n        /* \"contracts/ERC20Token_flattened.sol\":71201:71217  byteLength(sstr) */\n      tag_345\n        /* \"contracts/ERC20Token_flattened.sol\":71212:71216  sstr */\n      dup4\n        /* \"contracts/ERC20Token_flattened.sol\":71201:71211  byteLength */\n      tag_346\n        /* \"contracts/ERC20Token_flattened.sol\":71201:71217  byteLength(sstr) */\n      jump\t// in\n    tag_345:\n        /* \"contracts/ERC20Token_flattened.sol\":71187:71217  uint256 len = byteLength(sstr) */\n      swap1\n      pop\n        /* \"contracts/ERC20Token_flattened.sol\":71305:71322  string memory str */\n      0x00\n        /* \"contracts/ERC20Token_flattened.sol\":71336:71338  32 */\n      0x20\n        /* \"contracts/ERC20Token_flattened.sol\":71325:71339  new string(32) */\n      0xffffffffffffffff\n      dup2\n      gt\n      iszero\n      tag_347\n      jumpi\n      tag_348\n      tag_174\n      jump\t// in\n    tag_348:\n    tag_347:\n      mload(0x40)\n      swap1\n      dup1\n      dup3\n      mstore\n      dup1\n      0x1f\n      add\n      not(0x1f)\n      and\n      0x20\n      add\n      dup3\n      add\n      0x40\n      mstore\n      dup1\n      iszero\n      tag_349\n      jumpi\n      dup2\n      0x20\n      add\n      0x01\n      dup3\n      mul\n      dup1\n      calldatasize\n      dup4\n      calldatacopy\n      dup1\n      dup3\n      add\n      swap2\n      pop\n      pop\n      swap1\n      pop\n    tag_349:\n      pop\n        /* \"contracts/ERC20Token_flattened.sol\":71305:71339  string memory str = new string(32) */\n      swap1\n      pop\n        /* \"contracts/ERC20Token_flattened.sol\":71427:71430  len */\n      dup2\n        /* \"contracts/ERC20Token_flattened.sol\":71422:71425  str */\n      dup2\n        /* \"contracts/ERC20Token_flattened.sol\":71415:71431  mstore(str, len) */\n      mstore\n        /* \"contracts/ERC20Token_flattened.sol\":71467:71471  sstr */\n      dup4\n        /* \"contracts/ERC20Token_flattened.sol\":71460:71464  0x20 */\n      0x20\n        /* \"contracts/ERC20Token_flattened.sol\":71455:71458  str */\n      dup3\n        /* \"contracts/ERC20Token_flattened.sol\":71451:71465  add(str, 0x20) */\n      add\n        /* \"contracts/ERC20Token_flattened.sol\":71444:71472  mstore(add(str, 0x20), sstr) */\n      mstore\n        /* \"contracts/ERC20Token_flattened.sol\":71498:71501  str */\n      dup1\n        /* \"contracts/ERC20Token_flattened.sol\":71491:71501  return str */\n      swap3\n      pop\n      pop\n      pop\n        /* \"contracts/ERC20Token_flattened.sol\":71103:71508  function toString(ShortString sstr) internal pure returns (string memory) {... */\n      swap2\n      swap1\n      pop\n      jump\t// out\n        /* \"contracts/ERC20Token_flattened.sol\":17132:18239  function _update(address from, address to, uint256 value) internal virtual {... */\n    tag_343:\n        /* \"contracts/ERC20Token_flattened.sol\":17237:17238  0 */\n      0x00\n        /* \"contracts/ERC20Token_flattened.sol\":17221:17239  from == address(0) */\n      0xffffffffffffffffffffffffffffffffffffffff\n      and\n        /* \"contracts/ERC20Token_flattened.sol\":17221:17225  from */\n      dup4\n        /* \"contracts/ERC20Token_flattened.sol\":17221:17239  from == address(0) */\n      0xffffffffffffffffffffffffffffffffffffffff\n      and\n      sub\n        /* \"contracts/ERC20Token_flattened.sol\":17217:17757  if (from == address(0)) {... */\n      tag_351\n      jumpi\n        /* \"contracts/ERC20Token_flattened.sol\":17373:17378  value */\n      dup1\n        /* \"contracts/ERC20Token_flattened.sol\":17357:17369  _totalSupply */\n      0x02\n      0x00\n        /* \"contracts/ERC20Token_flattened.sol\":17357:17378  _totalSupply += value */\n      dup3\n      dup3\n      sload\n      tag_352\n      swap2\n      swap1\n      tag_353\n      jump\t// in\n    tag_352:\n      swap3\n      pop\n      pop\n      dup2\n      swap1\n      sstore\n      pop\n        /* \"contracts/ERC20Token_flattened.sol\":17217:17757  if (from == address(0)) {... */\n      jump(tag_354)\n    tag_351:\n        /* \"contracts/ERC20Token_flattened.sol\":17409:17428  uint256 fromBalance */\n      0x00\n        /* \"contracts/ERC20Token_flattened.sol\":17431:17440  _balances */\n      dup1\n        /* \"contracts/ERC20Token_flattened.sol\":17431:17446  _balances[from] */\n      0x00\n        /* \"contracts/ERC20Token_flattened.sol\":17441:17445  from */\n      dup6\n        /* \"contracts/ERC20Token_flattened.sol\":17431:17446  _balances[from] */\n      0xffffffffffffffffffffffffffffffffffffffff\n      and\n      0xffffffffffffffffffffffffffffffffffffffff\n      and\n      dup2\n      mstore\n      0x20\n      add\n      swap1\n      dup2\n      mstore\n      0x20\n      add\n      0x00\n      keccak256\n      sload\n        /* \"contracts/ERC20Token_flattened.sol\":17409:17446  uint256 fromBalance = _balances[from] */\n      swap1\n      pop\n        /* \"contracts/ERC20Token_flattened.sol\":17478:17483  value */\n      dup2\n        /* \"contracts/ERC20Token_flattened.sol\":17464:17475  fromBalance */\n      dup2\n        /* \"contracts/ERC20Token_flattened.sol\":17464:17483  fromBalance < value */\n      lt\n        /* \"contracts/ERC20Token_flattened.sol\":17460:17575  if (fromBalance < value) {... */\n      iszero\n      tag_355\n      jumpi\n        /* \"contracts/ERC20Token_flattened.sol\":17535:17539  from */\n      dup4\n        /* \"contracts/ERC20Token_flattened.sol\":17541:17552  fromBalance */\n      dup2\n        /* \"contracts/ERC20Token_flattened.sol\":17554:17559  value */\n      dup4\n        /* \"contracts/ERC20Token_flattened.sol\":17510:17560  ERC20InsufficientBalance(from, fromBalance, value) */\n      mload(0x40)\n      0xe450d38c00000000000000000000000000000000000000000000000000000000\n      dup2\n      mstore\n      0x04\n      add\n      tag_356\n      swap4\n      swap3\n      swap2\n      swap1\n      tag_217\n      jump\t// in\n    tag_356:\n      mload(0x40)\n      dup1\n      swap2\n      sub\n      swap1\n      revert\n        /* \"contracts/ERC20Token_flattened.sol\":17460:17575  if (fromBalance < value) {... */\n    tag_355:\n        /* \"contracts/ERC20Token_flattened.sol\":17727:17732  value */\n      dup2\n        /* \"contracts/ERC20Token_flattened.sol\":17713:17724  fromBalance */\n      dup2\n        /* \"contracts/ERC20Token_flattened.sol\":17713:17732  fromBalance - value */\n      sub\n        /* \"contracts/ERC20Token_flattened.sol\":17695:17704  _balances */\n      0x00\n        /* \"contracts/ERC20Token_flattened.sol\":17695:17710  _balances[from] */\n      dup1\n        /* \"contracts/ERC20Token_flattened.sol\":17705:17709  from */\n      dup7\n        /* \"contracts/ERC20Token_flattened.sol\":17695:17710  _balances[from] */\n      0xffffffffffffffffffffffffffffffffffffffff\n      and\n      0xffffffffffffffffffffffffffffffffffffffff\n      and\n      dup2\n      mstore\n      0x20\n      add\n      swap1\n      dup2\n      mstore\n      0x20\n      add\n      0x00\n      keccak256\n        /* \"contracts/ERC20Token_flattened.sol\":17695:17732  _balances[from] = fromBalance - value */\n      dup2\n      swap1\n      sstore\n      pop\n        /* \"contracts/ERC20Token_flattened.sol\":17395:17757  {... */\n      pop\n        /* \"contracts/ERC20Token_flattened.sol\":17217:17757  if (from == address(0)) {... */\n    tag_354:\n        /* \"contracts/ERC20Token_flattened.sol\":17785:17786  0 */\n      0x00\n        /* \"contracts/ERC20Token_flattened.sol\":17771:17787  to == address(0) */\n      0xffffffffffffffffffffffffffffffffffffffff\n      and\n        /* \"contracts/ERC20Token_flattened.sol\":17771:17773  to */\n      dup3\n        /* \"contracts/ERC20Token_flattened.sol\":17771:17787  to == address(0) */\n      0xffffffffffffffffffffffffffffffffffffffff\n      and\n      sub\n        /* \"contracts/ERC20Token_flattened.sol\":17767:18192  if (to == address(0)) {... */\n      tag_357\n      jumpi\n        /* \"contracts/ERC20Token_flattened.sol\":17950:17955  value */\n      dup1\n        /* \"contracts/ERC20Token_flattened.sol\":17934:17946  _totalSupply */\n      0x02\n      0x00\n        /* \"contracts/ERC20Token_flattened.sol\":17934:17955  _totalSupply -= value */\n      dup3\n      dup3\n      sload\n      sub\n      swap3\n      pop\n      pop\n      dup2\n      swap1\n      sstore\n      pop\n        /* \"contracts/ERC20Token_flattened.sol\":17767:18192  if (to == address(0)) {... */\n      jump(tag_358)\n    tag_357:\n        /* \"contracts/ERC20Token_flattened.sol\":18162:18167  value */\n      dup1\n        /* \"contracts/ERC20Token_flattened.sol\":18145:18154  _balances */\n      0x00\n        /* \"contracts/ERC20Token_flattened.sol\":18145:18158  _balances[to] */\n      dup1\n        /* \"contracts/ERC20Token_flattened.sol\":18155:18157  to */\n      dup5\n        /* \"contracts/ERC20Token_flattened.sol\":18145:18158  _balances[to] */\n      0xffffffffffffffffffffffffffffffffffffffff\n      and\n      0xffffffffffffffffffffffffffffffffffffffff\n      and\n      dup2\n      mstore\n      0x20\n      add\n      swap1\n      dup2\n      mstore\n      0x20\n      add\n      0x00\n      keccak256\n      0x00\n        /* \"contracts/ERC20Token_flattened.sol\":18145:18167  _balances[to] += value */\n      dup3\n      dup3\n      sload\n      add\n      swap3\n      pop\n      pop\n      dup2\n      swap1\n      sstore\n      pop\n        /* \"contracts/ERC20Token_flattened.sol\":17767:18192  if (to == address(0)) {... */\n    tag_358:\n        /* \"contracts/ERC20Token_flattened.sol\":18222:18224  to */\n      dup2\n        /* \"contracts/ERC20Token_flattened.sol\":18207:18232  Transfer(from, to, value) */\n      0xffffffffffffffffffffffffffffffffffffffff\n      and\n        /* \"contracts/ERC20Token_flattened.sol\":18216:18220  from */\n      dup4\n        /* \"contracts/ERC20Token_flattened.sol\":18207:18232  Transfer(from, to, value) */\n      0xffffffffffffffffffffffffffffffffffffffff\n      and\n      0xddf252ad1be2c89b69c2b068fc378daa952ba7f163c4a11628f55a4df523b3ef\n        /* \"contracts/ERC20Token_flattened.sol\":18226:18231  value */\n      dup4\n        /* \"contracts/ERC20Token_flattened.sol\":18207:18232  Transfer(from, to, value) */\n      mload(0x40)\n      tag_359\n      swap2\n      swap1\n      tag_41\n      jump\t// in\n    tag_359:\n      mload(0x40)\n      dup1\n      swap2\n      sub\n      swap1\n      log3\n        /* \"contracts/ERC20Token_flattened.sol\":17132:18239  function _update(address from, address to, uint256 value) internal virtual {... */\n      pop\n      pop\n      pop\n      jump\t// out\n        /* \"contracts/ERC20Token_flattened.sol\":71580:71825  function byteLength(ShortString sstr) internal pure returns (uint256) {... */\n    tag_346:\n        /* \"contracts/ERC20Token_flattened.sol\":71641:71648  uint256 */\n      0x00\n        /* \"contracts/ERC20Token_flattened.sol\":71660:71674  uint256 result */\n      dup1\n        /* \"contracts/ERC20Token_flattened.sol\":71713:71717  0xFF */\n      0xff\n        /* \"contracts/ERC20Token_flattened.sol\":71704:71708  sstr */\n      dup4\n        /* \"contracts/ERC20Token_flattened.sol\":71677:71710  uint256(ShortString.unwrap(sstr)) */\n      0x00\n      shr\n        /* \"contracts/ERC20Token_flattened.sol\":71677:71717  uint256(ShortString.unwrap(sstr)) & 0xFF */\n      and\n        /* \"contracts/ERC20Token_flattened.sol\":71660:71717  uint256 result = uint256(ShortString.unwrap(sstr)) & 0xFF */\n      swap1\n      pop\n        /* \"contracts/ERC20Token_flattened.sol\":71740:71742  31 */\n      0x1f\n        /* \"contracts/ERC20Token_flattened.sol\":71731:71737  result */\n      dup2\n        /* \"contracts/ERC20Token_flattened.sol\":71731:71742  result > 31 */\n      gt\n        /* \"contracts/ERC20Token_flattened.sol\":71727:71796  if (result > 31) {... */\n      iszero\n      tag_361\n      jumpi\n        /* \"contracts/ERC20Token_flattened.sol\":71765:71785  InvalidShortString() */\n      mload(0x40)\n      0xb3512b0c00000000000000000000000000000000000000000000000000000000\n      dup2\n      mstore\n      0x04\n      add\n      mload(0x40)\n      dup1\n      swap2\n      sub\n      swap1\n      revert\n        /* \"contracts/ERC20Token_flattened.sol\":71727:71796  if (result > 31) {... */\n    tag_361:\n        /* \"contracts/ERC20Token_flattened.sol\":71812:71818  result */\n      dup1\n        /* \"contracts/ERC20Token_flattened.sol\":71805:71818  return result */\n      swap2\n      pop\n      pop\n        /* \"contracts/ERC20Token_flattened.sol\":71580:71825  function byteLength(ShortString sstr) internal pure returns (uint256) {... */\n      swap2\n      swap1\n      pop\n      jump\t// out\n        /* \"#utility.yul\":7:106   */\n    tag_362:\n        /* \"#utility.yul\":59:65   */\n      0x00\n        /* \"#utility.yul\":93:98   */\n      dup2\n        /* \"#utility.yul\":87:99   */\n      mload\n        /* \"#utility.yul\":77:99   */\n      swap1\n      pop\n        /* \"#utility.yul\":7:106   */\n      swap2\n      swap1\n      pop\n      jump\t// out\n        /* \"#utility.yul\":112:281   */\n    tag_363:\n        /* \"#utility.yul\":196:207   */\n      0x00\n        /* \"#utility.yul\":230:236   */\n      dup3\n        /* \"#utility.yul\":225:228   */\n      dup3\n        /* \"#utility.yul\":218:237   */\n      mstore\n        /* \"#utility.yul\":270:274   */\n      0x20\n        /* \"#utility.yul\":265:268   */\n      dup3\n        /* \"#utility.yul\":261:275   */\n      add\n        /* \"#utility.yul\":246:275   */\n      swap1\n      pop\n        /* \"#utility.yul\":112:281   */\n      swap3\n      swap2\n      pop\n      pop\n      jump\t// out\n        /* \"#utility.yul\":287:533   */\n    tag_364:\n        /* \"#utility.yul\":368:369   */\n      0x00\n        /* \"#utility.yul\":378:491   */\n    tag_404:\n        /* \"#utility.yul\":392:398   */\n      dup4\n        /* \"#utility.yul\":389:390   */\n      dup2\n        /* \"#utility.yul\":386:399   */\n      lt\n        /* \"#utility.yul\":378:491   */\n      iszero\n      tag_406\n      jumpi\n        /* \"#utility.yul\":477:478   */\n      dup1\n        /* \"#utility.yul\":472:475   */\n      dup3\n        /* \"#utility.yul\":468:479   */\n      add\n        /* \"#utility.yul\":462:480   */\n      mload\n        /* \"#utility.yul\":458:459   */\n      dup2\n        /* \"#utility.yul\":453:456   */\n      dup5\n        /* \"#utility.yul\":449:460   */\n      add\n        /* \"#utility.yul\":442:481   */\n      mstore\n        /* \"#utility.yul\":414:416   */\n      0x20\n        /* \"#utility.yul\":411:412   */\n      dup2\n        /* \"#utility.yul\":407:417   */\n      add\n        /* \"#utility.yul\":402:417   */\n      swap1\n      pop\n        /* \"#utility.yul\":378:491   */\n      jump(tag_404)\n    tag_406:\n        /* \"#utility.yul\":525:526   */\n      0x00\n        /* \"#utility.yul\":516:522   */\n      dup5\n        /* \"#utility.yul\":511:514   */\n      dup5\n        /* \"#utility.yul\":507:523   */\n      add\n        /* \"#utility.yul\":500:527   */\n      mstore\n        /* \"#utility.yul\":349:533   */\n      pop\n        /* \"#utility.yul\":287:533   */\n      pop\n      pop\n      pop\n      jump\t// out\n        /* \"#utility.yul\":539:641   */\n    tag_365:\n        /* \"#utility.yul\":580:586   */\n      0x00\n        /* \"#utility.yul\":631:633   */\n      0x1f\n        /* \"#utility.yul\":627:634   */\n      not\n        /* \"#utility.yul\":622:624   */\n      0x1f\n        /* \"#utility.yul\":615:620   */\n      dup4\n        /* \"#utility.yul\":611:625   */\n      add\n        /* \"#utility.yul\":607:635   */\n      and\n        /* \"#utility.yul\":597:635   */\n      swap1\n      pop\n        /* \"#utility.yul\":539:641   */\n      swap2\n      swap1\n      pop\n      jump\t// out\n        /* \"#utility.yul\":647:1024   */\n    tag_366:\n        /* \"#utility.yul\":735:738   */\n      0x00\n        /* \"#utility.yul\":763:802   */\n      tag_409\n        /* \"#utility.yul\":796:801   */\n      dup3\n        /* \"#utility.yul\":763:802   */\n      tag_362\n      jump\t// in\n    tag_409:\n        /* \"#utility.yul\":818:889   */\n      tag_410\n        /* \"#utility.yul\":882:888   */\n      dup2\n        /* \"#utility.yul\":877:880   */\n      dup6\n        /* \"#utility.yul\":818:889   */\n      tag_363\n      jump\t// in\n    tag_410:\n        /* \"#utility.yul\":811:889   */\n      swap4\n      pop\n        /* \"#utility.yul\":898:963   */\n      tag_411\n        /* \"#utility.yul\":956:962   */\n      dup2\n        /* \"#utility.yul\":951:954   */\n      dup6\n        /* \"#utility.yul\":944:948   */\n      0x20\n        /* \"#utility.yul\":937:942   */\n      dup7\n        /* \"#utility.yul\":933:949   */\n      add\n        /* \"#utility.yul\":898:963   */\n      tag_364\n      jump\t// in\n    tag_411:\n        /* \"#utility.yul\":988:1017   */\n      tag_412\n        /* \"#utility.yul\":1010:1016   */\n      dup2\n        /* \"#utility.yul\":988:1017   */\n      tag_365\n      jump\t// in\n    tag_412:\n        /* \"#utility.yul\":983:986   */\n      dup5\n        /* \"#utility.yul\":979:1018   */\n      add\n        /* \"#utility.yul\":972:1018   */\n      swap2\n      pop\n        /* \"#utility.yul\":739:1024   */\n      pop\n        /* \"#utility.yul\":647:1024   */\n      swap3\n      swap2\n      pop\n      pop\n      jump\t// out\n        /* \"#utility.yul\":1030:1343   */\n    tag_31:\n        /* \"#utility.yul\":1143:1147   */\n      0x00\n        /* \"#utility.yul\":1181:1183   */\n      0x20\n        /* \"#utility.yul\":1170:1179   */\n      dup3\n        /* \"#utility.yul\":1166:1184   */\n      add\n        /* \"#utility.yul\":1158:1184   */\n      swap1\n      pop\n        /* \"#utility.yul\":1230:1239   */\n      dup2\n        /* \"#utility.yul\":1224:1228   */\n      dup2\n        /* \"#utility.yul\":1220:1240   */\n      sub\n        /* \"#utility.yul\":1216:1217   */\n      0x00\n        /* \"#utility.yul\":1205:1214   */\n      dup4\n        /* \"#utility.yul\":1201:1218   */\n      add\n        /* \"#utility.yul\":1194:1241   */\n      mstore\n        /* \"#utility.yul\":1258:1336   */\n      tag_414\n        /* \"#utility.yul\":1331:1335   */\n      dup2\n        /* \"#utility.yul\":1322:1328   */\n      dup5\n        /* \"#utility.yul\":1258:1336   */\n      tag_366\n      jump\t// in\n    tag_414:\n        /* \"#utility.yul\":1250:1336   */\n      swap1\n      pop\n        /* \"#utility.yul\":1030:1343   */\n      swap3\n      swap2\n      pop\n      pop\n      jump\t// out\n        /* \"#utility.yul\":1430:1547   */\n    tag_368:\n        /* \"#utility.yul\":1539:1540   */\n      0x00\n        /* \"#utility.yul\":1536:1537   */\n      dup1\n        /* \"#utility.yul\":1529:1541   */\n      revert\n        /* \"#utility.yul\":1676:1802   */\n    tag_370:\n        /* \"#utility.yul\":1713:1720   */\n      0x00\n        /* \"#utility.yul\":1753:1795   */\n      0xffffffffffffffffffffffffffffffffffffffff\n        /* \"#utility.yul\":1746:1751   */\n      dup3\n        /* \"#utility.yul\":1742:1796   */\n      and\n        /* \"#utility.yul\":1731:1796   */\n      swap1\n      pop\n        /* \"#utility.yul\":1676:1802   */\n      swap2\n      swap1\n      pop\n      jump\t// out\n        /* \"#utility.yul\":1808:1904   */\n    tag_371:\n        /* \"#utility.yul\":1845:1852   */\n      0x00\n        /* \"#utility.yul\":1874:1898   */\n      tag_420\n        /* \"#utility.yul\":1892:1897   */\n      dup3\n        /* \"#utility.yul\":1874:1898   */\n      tag_370\n      jump\t// in\n    tag_420:\n        /* \"#utility.yul\":1863:1898   */\n      swap1\n      pop\n        /* \"#utility.yul\":1808:1904   */\n      swap2\n      swap1\n      pop\n      jump\t// out\n        /* \"#utility.yul\":1910:2032   */\n    tag_372:\n        /* \"#utility.yul\":1983:2007   */\n      tag_422\n        /* \"#utility.yul\":2001:2006   */\n      dup2\n        /* \"#utility.yul\":1983:2007   */\n      tag_371\n      jump\t// in\n    tag_422:\n        /* \"#utility.yul\":1976:1981   */\n      dup2\n        /* \"#utility.yul\":1973:2008   */\n      eq\n        /* \"#utility.yul\":1963:2026   */\n      tag_423\n      jumpi\n        /* \"#utility.yul\":2022:2023   */\n      0x00\n        /* \"#utility.yul\":2019:2020   */\n      dup1\n        /* \"#utility.yul\":2012:2024   */\n      revert\n        /* \"#utility.yul\":1963:2026   */\n    tag_423:\n        /* \"#utility.yul\":1910:2032   */\n      pop\n      jump\t// out\n        /* \"#utility.yul\":2038:2177   */\n    tag_373:\n        /* \"#utility.yul\":2084:2089   */\n      0x00\n        /* \"#utility.yul\":2122:2128   */\n      dup2\n        /* \"#utility.yul\":2109:2129   */\n      calldataload\n        /* \"#utility.yul\":2100:2129   */\n      swap1\n      pop\n        /* \"#utility.yul\":2138:2171   */\n      tag_425\n        /* \"#utility.yul\":2165:2170   */\n      dup2\n        /* \"#utility.yul\":2138:2171   */\n      tag_372\n      jump\t// in\n    tag_425:\n        /* \"#utility.yul\":2038:2177   */\n      swap3\n      swap2\n      pop\n      pop\n      jump\t// out\n        /* \"#utility.yul\":2183:2260   */\n    tag_374:\n        /* \"#utility.yul\":2220:2227   */\n      0x00\n        /* \"#utility.yul\":2249:2254   */\n      dup2\n        /* \"#utility.yul\":2238:2254   */\n      swap1\n      pop\n        /* \"#utility.yul\":2183:2260   */\n      swap2\n      swap1\n      pop\n      jump\t// out\n        /* \"#utility.yul\":2266:2388   */\n    tag_375:\n        /* \"#utility.yul\":2339:2363   */\n      tag_428\n        /* \"#utility.yul\":2357:2362   */\n      dup2\n        /* \"#utility.yul\":2339:2363   */\n      tag_374\n      jump\t// in\n    tag_428:\n        /* \"#utility.yul\":2332:2337   */\n      dup2\n        /* \"#utility.yul\":2329:2364   */\n      eq\n        /* \"#utility.yul\":2319:2382   */\n      tag_429\n      jumpi\n        /* \"#utility.yul\":2378:2379   */\n      0x00\n        /* \"#utility.yul\":2375:2376   */\n      dup1\n        /* \"#utility.yul\":2368:2380   */\n      revert\n        /* \"#utility.yul\":2319:2382   */\n    tag_429:\n        /* \"#utility.yul\":2266:2388   */\n      pop\n      jump\t// out\n        /* \"#utility.yul\":2394:2533   */\n    tag_376:\n        /* \"#utility.yul\":2440:2445   */\n      0x00\n        /* \"#utility.yul\":2478:2484   */\n      dup2\n        /* \"#utility.yul\":2465:2485   */\n      calldataload\n        /* \"#utility.yul\":2456:2485   */\n      swap1\n      pop\n        /* \"#utility.yul\":2494:2527   */\n      tag_431\n        /* \"#utility.yul\":2521:2526   */\n      dup2\n        /* \"#utility.yul\":2494:2527   */\n      tag_375\n      jump\t// in\n    tag_431:\n        /* \"#utility.yul\":2394:2533   */\n      swap3\n      swap2\n      pop\n      pop\n      jump\t// out\n        /* \"#utility.yul\":2539:3013   */\n    tag_34:\n        /* \"#utility.yul\":2607:2613   */\n      0x00\n        /* \"#utility.yul\":2615:2621   */\n      dup1\n        /* \"#utility.yul\":2664:2666   */\n      0x40\n        /* \"#utility.yul\":2652:2661   */\n      dup4\n        /* \"#utility.yul\":2643:2650   */\n      dup6\n        /* \"#utility.yul\":2639:2662   */\n      sub\n        /* \"#utility.yul\":2635:2667   */\n      slt\n        /* \"#utility.yul\":2632:2751   */\n      iszero\n      tag_433\n      jumpi\n        /* \"#utility.yul\":2670:2749   */\n      tag_434\n      tag_368\n      jump\t// in\n    tag_434:\n        /* \"#utility.yul\":2632:2751   */\n    tag_433:\n        /* \"#utility.yul\":2790:2791   */\n      0x00\n        /* \"#utility.yul\":2815:2868   */\n      tag_435\n        /* \"#utility.yul\":2860:2867   */\n      dup6\n        /* \"#utility.yul\":2851:2857   */\n      dup3\n        /* \"#utility.yul\":2840:2849   */\n      dup7\n        /* \"#utility.yul\":2836:2858   */\n      add\n        /* \"#utility.yul\":2815:2868   */\n      tag_373\n      jump\t// in\n    tag_435:\n        /* \"#utility.yul\":2805:2868   */\n      swap3\n      pop\n        /* \"#utility.yul\":2761:2878   */\n      pop\n        /* \"#utility.yul\":2917:2919   */\n      0x20\n        /* \"#utility.yul\":2943:2996   */\n      tag_436\n        /* \"#utility.yul\":2988:2995   */\n      dup6\n        /* \"#utility.yul\":2979:2985   */\n      dup3\n        /* \"#utility.yul\":2968:2977   */\n      dup7\n        /* \"#utility.yul\":2964:2986   */\n      add\n        /* \"#utility.yul\":2943:2996   */\n      tag_376\n      jump\t// in\n    tag_436:\n        /* \"#utility.yul\":2933:2996   */\n      swap2\n      pop\n        /* \"#utility.yul\":2888:3006   */\n      pop\n        /* \"#utility.yul\":2539:3013   */\n      swap3\n      pop\n      swap3\n      swap1\n      pop\n      jump\t// out\n        /* \"#utility.yul\":3019:3109   */\n    tag_377:\n        /* \"#utility.yul\":3053:3060   */\n      0x00\n        /* \"#utility.yul\":3096:3101   */\n      dup2\n        /* \"#utility.yul\":3089:3102   */\n      iszero\n        /* \"#utility.yul\":3082:3103   */\n      iszero\n        /* \"#utility.yul\":3071:3103   */\n      swap1\n      pop\n        /* \"#utility.yul\":3019:3109   */\n      swap2\n      swap1\n      pop\n      jump\t// out\n        /* \"#utility.yul\":3115:3224   */\n    tag_378:\n        /* \"#utility.yul\":3196:3217   */\n      tag_439\n        /* \"#utility.yul\":3211:3216   */\n      dup2\n        /* \"#utility.yul\":3196:3217   */\n      tag_377\n      jump\t// in\n    tag_439:\n        /* \"#utility.yul\":3191:3194   */\n      dup3\n        /* \"#utility.yul\":3184:3218   */\n      mstore\n        /* \"#utility.yul\":3115:3224   */\n      pop\n      pop\n      jump\t// out\n        /* \"#utility.yul\":3230:3440   */\n    tag_37:\n        /* \"#utility.yul\":3317:3321   */\n      0x00\n        /* \"#utility.yul\":3355:3357   */\n      0x20\n        /* \"#utility.yul\":3344:3353   */\n      dup3\n        /* \"#utility.yul\":3340:3358   */\n      add\n        /* \"#utility.yul\":3332:3358   */\n      swap1\n      pop\n        /* \"#utility.yul\":3368:3433   */\n      tag_441\n        /* \"#utility.yul\":3430:3431   */\n      0x00\n        /* \"#utility.yul\":3419:3428   */\n      dup4\n        /* \"#utility.yul\":3415:3432   */\n      add\n        /* \"#utility.yul\":3406:3412   */\n      dup5\n        /* \"#utility.yul\":3368:3433   */\n      tag_378\n      jump\t// in\n    tag_441:\n        /* \"#utility.yul\":3230:3440   */\n      swap3\n      swap2\n      pop\n      pop\n      jump\t// out\n        /* \"#utility.yul\":3446:3564   */\n    tag_379:\n        /* \"#utility.yul\":3533:3557   */\n      tag_443\n        /* \"#utility.yul\":3551:3556   */\n      dup2\n        /* \"#utility.yul\":3533:3557   */\n      tag_374\n      jump\t// in\n    tag_443:\n        /* \"#utility.yul\":3528:3531   */\n      dup3\n        /* \"#utility.yul\":3521:3558   */\n      mstore\n        /* \"#utility.yul\":3446:3564   */\n      pop\n      pop\n      jump\t// out\n        /* \"#utility.yul\":3570:3792   */\n    tag_41:\n        /* \"#utility.yul\":3663:3667   */\n      0x00\n        /* \"#utility.yul\":3701:3703   */\n      0x20\n        /* \"#utility.yul\":3690:3699   */\n      dup3\n        /* \"#utility.yul\":3686:3704   */\n      add\n        /* \"#utility.yul\":3678:3704   */\n      swap1\n      pop\n        /* \"#utility.yul\":3714:3785   */\n      tag_445\n        /* \"#utility.yul\":3782:3783   */\n      0x00\n        /* \"#utility.yul\":3771:3780   */\n      dup4\n        /* \"#utility.yul\":3767:3784   */\n      add\n        /* \"#utility.yul\":3758:3764   */\n      dup5\n        /* \"#utility.yul\":3714:3785   */\n      tag_379\n      jump\t// in\n    tag_445:\n        /* \"#utility.yul\":3570:3792   */\n      swap3\n      swap2\n      pop\n      pop\n      jump\t// out\n        /* \"#utility.yul\":3798:4417   */\n    tag_44:\n        /* \"#utility.yul\":3875:3881   */\n      0x00\n        /* \"#utility.yul\":3883:3889   */\n      dup1\n        /* \"#utility.yul\":3891:3897   */\n      0x00\n        /* \"#utility.yul\":3940:3942   */\n      0x60\n        /* \"#utility.yul\":3928:3937   */\n      dup5\n        /* \"#utility.yul\":3919:3926   */\n      dup7\n        /* \"#utility.yul\":3915:3938   */\n      sub\n        /* \"#utility.yul\":3911:3943   */\n      slt\n        /* \"#utility.yul\":3908:4027   */\n      iszero\n      tag_447\n      jumpi\n        /* \"#utility.yul\":3946:4025   */\n      tag_448\n      tag_368\n      jump\t// in\n    tag_448:\n        /* \"#utility.yul\":3908:4027   */\n    tag_447:\n        /* \"#utility.yul\":4066:4067   */\n      0x00\n        /* \"#utility.yul\":4091:4144   */\n      tag_449\n        /* \"#utility.yul\":4136:4143   */\n      dup7\n        /* \"#utility.yul\":4127:4133   */\n      dup3\n        /* \"#utility.yul\":4116:4125   */\n      dup8\n        /* \"#utility.yul\":4112:4134   */\n      add\n        /* \"#utility.yul\":4091:4144   */\n      tag_373\n      jump\t// in\n    tag_449:\n        /* \"#utility.yul\":4081:4144   */\n      swap4\n      pop\n        /* \"#utility.yul\":4037:4154   */\n      pop\n        /* \"#utility.yul\":4193:4195   */\n      0x20\n        /* \"#utility.yul\":4219:4272   */\n      tag_450\n        /* \"#utility.yul\":4264:4271   */\n      dup7\n        /* \"#utility.yul\":4255:4261   */\n      dup3\n        /* \"#utility.yul\":4244:4253   */\n      dup8\n        /* \"#utility.yul\":4240:4262   */\n      add\n        /* \"#utility.yul\":4219:4272   */\n      tag_373\n      jump\t// in\n    tag_450:\n        /* \"#utility.yul\":4209:4272   */\n      swap3\n      pop\n        /* \"#utility.yul\":4164:4282   */\n      pop\n        /* \"#utility.yul\":4321:4323   */\n      0x40\n        /* \"#utility.yul\":4347:4400   */\n      tag_451\n        /* \"#utility.yul\":4392:4399   */\n      dup7\n        /* \"#utility.yul\":4383:4389   */\n      dup3\n        /* \"#utility.yul\":4372:4381   */\n      dup8\n        /* \"#utility.yul\":4368:4390   */\n      add\n        /* \"#utility.yul\":4347:4400   */\n      tag_376\n      jump\t// in\n    tag_451:\n        /* \"#utility.yul\":4337:4400   */\n      swap2\n      pop\n        /* \"#utility.yul\":4292:4410   */\n      pop\n        /* \"#utility.yul\":3798:4417   */\n      swap3\n      pop\n      swap3\n      pop\n      swap3\n      jump\t// out\n        /* \"#utility.yul\":4423:4509   */\n    tag_380:\n        /* \"#utility.yul\":4458:4465   */\n      0x00\n        /* \"#utility.yul\":4498:4502   */\n      0xff\n        /* \"#utility.yul\":4491:4496   */\n      dup3\n        /* \"#utility.yul\":4487:4503   */\n      and\n        /* \"#utility.yul\":4476:4503   */\n      swap1\n      pop\n        /* \"#utility.yul\":4423:4509   */\n      swap2\n      swap1\n      pop\n      jump\t// out\n        /* \"#utility.yul\":4515:4627   */\n    tag_381:\n        /* \"#utility.yul\":4598:4620   */\n      tag_454\n        /* \"#utility.yul\":4614:4619   */\n      dup2\n        /* \"#utility.yul\":4598:4620   */\n      tag_380\n      jump\t// in\n    tag_454:\n        /* \"#utility.yul\":4593:4596   */\n      dup3\n        /* \"#utility.yul\":4586:4621   */\n      mstore\n        /* \"#utility.yul\":4515:4627   */\n      pop\n      pop\n      jump\t// out\n        /* \"#utility.yul\":4633:4847   */\n    tag_50:\n        /* \"#utility.yul\":4722:4726   */\n      0x00\n        /* \"#utility.yul\":4760:4762   */\n      0x20\n        /* \"#utility.yul\":4749:4758   */\n      dup3\n        /* \"#utility.yul\":4745:4763   */\n      add\n        /* \"#utility.yul\":4737:4763   */\n      swap1\n      pop\n        /* \"#utility.yul\":4773:4840   */\n      tag_456\n        /* \"#utility.yul\":4837:4838   */\n      0x00\n        /* \"#utility.yul\":4826:4835   */\n      dup4\n        /* \"#utility.yul\":4822:4839   */\n      add\n        /* \"#utility.yul\":4813:4819   */\n      dup5\n        /* \"#utility.yul\":4773:4840   */\n      tag_381\n      jump\t// in\n    tag_456:\n        /* \"#utility.yul\":4633:4847   */\n      swap3\n      swap2\n      pop\n      pop\n      jump\t// out\n        /* \"#utility.yul\":4853:4930   */\n    tag_382:\n        /* \"#utility.yul\":4890:4897   */\n      0x00\n        /* \"#utility.yul\":4919:4924   */\n      dup2\n        /* \"#utility.yul\":4908:4924   */\n      swap1\n      pop\n        /* \"#utility.yul\":4853:4930   */\n      swap2\n      swap1\n      pop\n      jump\t// out\n        /* \"#utility.yul\":4936:5054   */\n    tag_383:\n        /* \"#utility.yul\":5023:5047   */\n      tag_459\n        /* \"#utility.yul\":5041:5046   */\n      dup2\n        /* \"#utility.yul\":5023:5047   */\n      tag_382\n      jump\t// in\n    tag_459:\n        /* \"#utility.yul\":5018:5021   */\n      dup3\n        /* \"#utility.yul\":5011:5048   */\n      mstore\n        /* \"#utility.yul\":4936:5054   */\n      pop\n      pop\n      jump\t// out\n        /* \"#utility.yul\":5060:5282   */\n    tag_54:\n        /* \"#utility.yul\":5153:5157   */\n      0x00\n        /* \"#utility.yul\":5191:5193   */\n      0x20\n        /* \"#utility.yul\":5180:5189   */\n      dup3\n        /* \"#utility.yul\":5176:5194   */\n      add\n        /* \"#utility.yul\":5168:5194   */\n      swap1\n      pop\n        /* \"#utility.yul\":5204:5275   */\n      tag_461\n        /* \"#utility.yul\":5272:5273   */\n      0x00\n        /* \"#utility.yul\":5261:5270   */\n      dup4\n        /* \"#utility.yul\":5257:5274   */\n      add\n        /* \"#utility.yul\":5248:5254   */\n      dup5\n        /* \"#utility.yul\":5204:5275   */\n      tag_383\n      jump\t// in\n    tag_461:\n        /* \"#utility.yul\":5060:5282   */\n      swap3\n      swap2\n      pop\n      pop\n      jump\t// out\n        /* \"#utility.yul\":5288:5617   */\n    tag_62:\n        /* \"#utility.yul\":5347:5353   */\n      0x00\n        /* \"#utility.yul\":5396:5398   */\n      0x20\n        /* \"#utility.yul\":5384:5393   */\n      dup3\n        /* \"#utility.yul\":5375:5382   */\n      dup5\n        /* \"#utility.yul\":5371:5394   */\n      sub\n        /* \"#utility.yul\":5367:5399   */\n      slt\n        /* \"#utility.yul\":5364:5483   */\n      iszero\n      tag_463\n      jumpi\n        /* \"#utility.yul\":5402:5481   */\n      tag_464\n      tag_368\n      jump\t// in\n    tag_464:\n        /* \"#utility.yul\":5364:5483   */\n    tag_463:\n        /* \"#utility.yul\":5522:5523   */\n      0x00\n        /* \"#utility.yul\":5547:5600   */\n      tag_465\n        /* \"#utility.yul\":5592:5599   */\n      dup5\n        /* \"#utility.yul\":5583:5589   */\n      dup3\n        /* \"#utility.yul\":5572:5581   */\n      dup6\n        /* \"#utility.yul\":5568:5590   */\n      add\n        /* \"#utility.yul\":5547:5600   */\n      tag_376\n      jump\t// in\n    tag_465:\n        /* \"#utility.yul\":5537:5600   */\n      swap2\n      pop\n        /* \"#utility.yul\":5493:5610   */\n      pop\n        /* \"#utility.yul\":5288:5617   */\n      swap3\n      swap2\n      pop\n      pop\n      jump\t// out\n        /* \"#utility.yul\":5623:5952   */\n    tag_69:\n        /* \"#utility.yul\":5682:5688   */\n      0x00\n        /* \"#utility.yul\":5731:5733   */\n      0x20\n        /* \"#utility.yul\":5719:5728   */\n      dup3\n        /* \"#utility.yul\":5710:5717   */\n      dup5\n        /* \"#utility.yul\":5706:5729   */\n      sub\n        /* \"#utility.yul\":5702:5734   */\n      slt\n        /* \"#utility.yul\":5699:5818   */\n      iszero\n      tag_467\n      jumpi\n        /* \"#utility.yul\":5737:5816   */\n      tag_468\n      tag_368\n      jump\t// in\n    tag_468:\n        /* \"#utility.yul\":5699:5818   */\n    tag_467:\n        /* \"#utility.yul\":5857:5858   */\n      0x00\n        /* \"#utility.yul\":5882:5935   */\n      tag_469\n        /* \"#utility.yul\":5927:5934   */\n      dup5\n        /* \"#utility.yul\":5918:5924   */\n      dup3\n        /* \"#utility.yul\":5907:5916   */\n      dup6\n        /* \"#utility.yul\":5903:5925   */\n      add\n        /* \"#utility.yul\":5882:5935   */\n      tag_373\n      jump\t// in\n    tag_469:\n        /* \"#utility.yul\":5872:5935   */\n      swap2\n      pop\n        /* \"#utility.yul\":5828:5945   */\n      pop\n        /* \"#utility.yul\":5623:5952   */\n      swap3\n      swap2\n      pop\n      pop\n      jump\t// out\n        /* \"#utility.yul\":5958:6107   */\n    tag_384:\n        /* \"#utility.yul\":5994:6001   */\n      0x00\n        /* \"#utility.yul\":6034:6100   */\n      0xff00000000000000000000000000000000000000000000000000000000000000\n        /* \"#utility.yul\":6027:6032   */\n      dup3\n        /* \"#utility.yul\":6023:6101   */\n      and\n        /* \"#utility.yul\":6012:6101   */\n      swap1\n      pop\n        /* \"#utility.yul\":5958:6107   */\n      swap2\n      swap1\n      pop\n      jump\t// out\n        /* \"#utility.yul\":6113:6228   */\n    tag_385:\n        /* \"#utility.yul\":6198:6221   */\n      tag_472\n        /* \"#utility.yul\":6215:6220   */\n      dup2\n        /* \"#utility.yul\":6198:6221   */\n      tag_384\n      jump\t// in\n    tag_472:\n        /* \"#utility.yul\":6193:6196   */\n      dup3\n        /* \"#utility.yul\":6186:6222   */\n      mstore\n        /* \"#utility.yul\":6113:6228   */\n      pop\n      pop\n      jump\t// out\n        /* \"#utility.yul\":6234:6352   */\n    tag_386:\n        /* \"#utility.yul\":6321:6345   */\n      tag_474\n        /* \"#utility.yul\":6339:6344   */\n      dup2\n        /* \"#utility.yul\":6321:6345   */\n      tag_371\n      jump\t// in\n    tag_474:\n        /* \"#utility.yul\":6316:6319   */\n      dup3\n        /* \"#utility.yul\":6309:6346   */\n      mstore\n        /* \"#utility.yul\":6234:6352   */\n      pop\n      pop\n      jump\t// out\n        /* \"#utility.yul\":6358:6472   */\n    tag_387:\n        /* \"#utility.yul\":6425:6431   */\n      0x00\n        /* \"#utility.yul\":6459:6464   */\n      dup2\n        /* \"#utility.yul\":6453:6465   */\n      mload\n        /* \"#utility.yul\":6443:6465   */\n      swap1\n      pop\n        /* \"#utility.yul\":6358:6472   */\n      swap2\n      swap1\n      pop\n      jump\t// out\n        /* \"#utility.yul\":6478:6662   */\n    tag_388:\n        /* \"#utility.yul\":6577:6588   */\n      0x00\n        /* \"#utility.yul\":6611:6617   */\n      dup3\n        /* \"#utility.yul\":6606:6609   */\n      dup3\n        /* \"#utility.yul\":6599:6618   */\n      mstore\n        /* \"#utility.yul\":6651:6655   */\n      0x20\n        /* \"#utility.yul\":6646:6649   */\n      dup3\n        /* \"#utility.yul\":6642:6656   */\n      add\n        /* \"#utility.yul\":6627:6656   */\n      swap1\n      pop\n        /* \"#utility.yul\":6478:6662   */\n      swap3\n      swap2\n      pop\n      pop\n      jump\t// out\n        /* \"#utility.yul\":6668:6800   */\n    tag_389:\n        /* \"#utility.yul\":6735:6739   */\n      0x00\n        /* \"#utility.yul\":6758:6761   */\n      dup2\n        /* \"#utility.yul\":6750:6761   */\n      swap1\n      pop\n        /* \"#utility.yul\":6788:6792   */\n      0x20\n        /* \"#utility.yul\":6783:6786   */\n      dup3\n        /* \"#utility.yul\":6779:6793   */\n      add\n        /* \"#utility.yul\":6771:6793   */\n      swap1\n      pop\n        /* \"#utility.yul\":6668:6800   */\n      swap2\n      swap1\n      pop\n      jump\t// out\n        /* \"#utility.yul\":6806:6914   */\n    tag_390:\n        /* \"#utility.yul\":6883:6907   */\n      tag_479\n        /* \"#utility.yul\":6901:6906   */\n      dup2\n        /* \"#utility.yul\":6883:6907   */\n      tag_374\n      jump\t// in\n    tag_479:\n        /* \"#utility.yul\":6878:6881   */\n      dup3\n        /* \"#utility.yul\":6871:6908   */\n      mstore\n        /* \"#utility.yul\":6806:6914   */\n      pop\n      pop\n      jump\t// out\n        /* \"#utility.yul\":6920:7099   */\n    tag_391:\n        /* \"#utility.yul\":6989:6999   */\n      0x00\n        /* \"#utility.yul\":7010:7056   */\n      tag_481\n        /* \"#utility.yul\":7052:7055   */\n      dup4\n        /* \"#utility.yul\":7044:7050   */\n      dup4\n        /* \"#utility.yul\":7010:7056   */\n      tag_390\n      jump\t// in\n    tag_481:\n        /* \"#utility.yul\":7088:7092   */\n      0x20\n        /* \"#utility.yul\":7083:7086   */\n      dup4\n        /* \"#utility.yul\":7079:7093   */\n      add\n        /* \"#utility.yul\":7065:7093   */\n      swap1\n      pop\n        /* \"#utility.yul\":6920:7099   */\n      swap3\n      swap2\n      pop\n      pop\n      jump\t// out\n        /* \"#utility.yul\":7105:7218   */\n    tag_392:\n        /* \"#utility.yul\":7175:7179   */\n      0x00\n        /* \"#utility.yul\":7207:7211   */\n      0x20\n        /* \"#utility.yul\":7202:7205   */\n      dup3\n        /* \"#utility.yul\":7198:7212   */\n      add\n        /* \"#utility.yul\":7190:7212   */\n      swap1\n      pop\n        /* \"#utility.yul\":7105:7218   */\n      swap2\n      swap1\n      pop\n      jump\t// out\n        /* \"#utility.yul\":7254:7986   */\n    tag_393:\n        /* \"#utility.yul\":7373:7376   */\n      0x00\n        /* \"#utility.yul\":7402:7456   */\n      tag_484\n        /* \"#utility.yul\":7450:7455   */\n      dup3\n        /* \"#utility.yul\":7402:7456   */\n      tag_387\n      jump\t// in\n    tag_484:\n        /* \"#utility.yul\":7472:7558   */\n      tag_485\n        /* \"#utility.yul\":7551:7557   */\n      dup2\n        /* \"#utility.yul\":7546:7549   */\n      dup6\n        /* \"#utility.yul\":7472:7558   */\n      tag_388\n      jump\t// in\n    tag_485:\n        /* \"#utility.yul\":7465:7558   */\n      swap4\n      pop\n        /* \"#utility.yul\":7582:7638   */\n      tag_486\n        /* \"#utility.yul\":7632:7637   */\n      dup4\n        /* \"#utility.yul\":7582:7638   */\n      tag_389\n      jump\t// in\n    tag_486:\n        /* \"#utility.yul\":7661:7668   */\n      dup1\n        /* \"#utility.yul\":7692:7693   */\n      0x00\n        /* \"#utility.yul\":7677:7961   */\n    tag_487:\n        /* \"#utility.yul\":7702:7708   */\n      dup4\n        /* \"#utility.yul\":7699:7700   */\n      dup2\n        /* \"#utility.yul\":7696:7709   */\n      lt\n        /* \"#utility.yul\":7677:7961   */\n      iszero\n      tag_489\n      jumpi\n        /* \"#utility.yul\":7778:7784   */\n      dup2\n        /* \"#utility.yul\":7772:7785   */\n      mload\n        /* \"#utility.yul\":7805:7868   */\n      tag_490\n        /* \"#utility.yul\":7864:7867   */\n      dup9\n        /* \"#utility.yul\":7849:7862   */\n      dup3\n        /* \"#utility.yul\":7805:7868   */\n      tag_391\n      jump\t// in\n    tag_490:\n        /* \"#utility.yul\":7798:7868   */\n      swap8\n      pop\n        /* \"#utility.yul\":7891:7951   */\n      tag_491\n        /* \"#utility.yul\":7944:7950   */\n      dup4\n        /* \"#utility.yul\":7891:7951   */\n      tag_392\n      jump\t// in\n    tag_491:\n        /* \"#utility.yul\":7881:7951   */\n      swap3\n      pop\n        /* \"#utility.yul\":7737:7961   */\n      pop\n        /* \"#utility.yul\":7724:7725   */\n      0x01\n        /* \"#utility.yul\":7721:7722   */\n      dup2\n        /* \"#utility.yul\":7717:7726   */\n      add\n        /* \"#utility.yul\":7712:7726   */\n      swap1\n      pop\n        /* \"#utility.yul\":7677:7961   */\n      jump(tag_487)\n    tag_489:\n        /* \"#utility.yul\":7681:7695   */\n      pop\n        /* \"#utility.yul\":7977:7980   */\n      dup6\n        /* \"#utility.yul\":7970:7980   */\n      swap4\n      pop\n        /* \"#utility.yul\":7378:7986   */\n      pop\n      pop\n      pop\n        /* \"#utility.yul\":7254:7986   */\n      swap3\n      swap2\n      pop\n      pop\n      jump\t// out\n        /* \"#utility.yul\":7992:9207   */\n    tag_86:\n        /* \"#utility.yul\":8341:8345   */\n      0x00\n        /* \"#utility.yul\":8379:8382   */\n      0xe0\n        /* \"#utility.yul\":8368:8377   */\n      dup3\n        /* \"#utility.yul\":8364:8383   */\n      add\n        /* \"#utility.yul\":8356:8383   */\n      swap1\n      pop\n        /* \"#utility.yul\":8393:8462   */\n      tag_493\n        /* \"#utility.yul\":8459:8460   */\n      0x00\n        /* \"#utility.yul\":8448:8457   */\n      dup4\n        /* \"#utility.yul\":8444:8461   */\n      add\n        /* \"#utility.yul\":8435:8441   */\n      dup11\n        /* \"#utility.yul\":8393:8462   */\n      tag_385\n      jump\t// in\n    tag_493:\n        /* \"#utility.yul\":8509:8518   */\n      dup2\n        /* \"#utility.yul\":8503:8507   */\n      dup2\n        /* \"#utility.yul\":8499:8519   */\n      sub\n        /* \"#utility.yul\":8494:8496   */\n      0x20\n        /* \"#utility.yul\":8483:8492   */\n      dup4\n        /* \"#utility.yul\":8479:8497   */\n      add\n        /* \"#utility.yul\":8472:8520   */\n      mstore\n        /* \"#utility.yul\":8537:8615   */\n      tag_494\n        /* \"#utility.yul\":8610:8614   */\n      dup2\n        /* \"#utility.yul\":8601:8607   */\n      dup10\n        /* \"#utility.yul\":8537:8615   */\n      tag_366\n      jump\t// in\n    tag_494:\n        /* \"#utility.yul\":8529:8615   */\n      swap1\n      pop\n        /* \"#utility.yul\":8662:8671   */\n      dup2\n        /* \"#utility.yul\":8656:8660   */\n      dup2\n        /* \"#utility.yul\":8652:8672   */\n      sub\n        /* \"#utility.yul\":8647:8649   */\n      0x40\n        /* \"#utility.yul\":8636:8645   */\n      dup4\n        /* \"#utility.yul\":8632:8650   */\n      add\n        /* \"#utility.yul\":8625:8673   */\n      mstore\n        /* \"#utility.yul\":8690:8768   */\n      tag_495\n        /* \"#utility.yul\":8763:8767   */\n      dup2\n        /* \"#utility.yul\":8754:8760   */\n      dup9\n        /* \"#utility.yul\":8690:8768   */\n      tag_366\n      jump\t// in\n    tag_495:\n        /* \"#utility.yul\":8682:8768   */\n      swap1\n      pop\n        /* \"#utility.yul\":8778:8850   */\n      tag_496\n        /* \"#utility.yul\":8846:8848   */\n      0x60\n        /* \"#utility.yul\":8835:8844   */\n      dup4\n        /* \"#utility.yul\":8831:8849   */\n      add\n        /* \"#utility.yul\":8822:8828   */\n      dup8\n        /* \"#utility.yul\":8778:8850   */\n      tag_379\n      jump\t// in\n    tag_496:\n        /* \"#utility.yul\":8860:8933   */\n      tag_497\n        /* \"#utility.yul\":8928:8931   */\n      0x80\n        /* \"#utility.yul\":8917:8926   */\n      dup4\n        /* \"#utility.yul\":8913:8932   */\n      add\n        /* \"#utility.yul\":8904:8910   */\n      dup7\n        /* \"#utility.yul\":8860:8933   */\n      tag_386\n      jump\t// in\n    tag_497:\n        /* \"#utility.yul\":8943:9016   */\n      tag_498\n        /* \"#utility.yul\":9011:9014   */\n      0xa0\n        /* \"#utility.yul\":9000:9009   */\n      dup4\n        /* \"#utility.yul\":8996:9015   */\n      add\n        /* \"#utility.yul\":8987:8993   */\n      dup6\n        /* \"#utility.yul\":8943:9016   */\n      tag_383\n      jump\t// in\n    tag_498:\n        /* \"#utility.yul\":9064:9073   */\n      dup2\n        /* \"#utility.yul\":9058:9062   */\n      dup2\n        /* \"#utility.yul\":9054:9074   */\n      sub\n        /* \"#utility.yul\":9048:9051   */\n      0xc0\n        /* \"#utility.yul\":9037:9046   */\n      dup4\n        /* \"#utility.yul\":9033:9052   */\n      add\n        /* \"#utility.yul\":9026:9075   */\n      mstore\n        /* \"#utility.yul\":9092:9200   */\n      tag_499\n        /* \"#utility.yul\":9195:9199   */\n      dup2\n        /* \"#utility.yul\":9186:9192   */\n      dup5\n        /* \"#utility.yul\":9092:9200   */\n      tag_393\n      jump\t// in\n    tag_499:\n        /* \"#utility.yul\":9084:9200   */\n      swap1\n      pop\n        /* \"#utility.yul\":7992:9207   */\n      swap9\n      swap8\n      pop\n      pop\n      pop\n      pop\n      pop\n      pop\n      pop\n      pop\n      jump\t// out\n        /* \"#utility.yul\":9213:9435   */\n    tag_90:\n        /* \"#utility.yul\":9306:9310   */\n      0x00\n        /* \"#utility.yul\":9344:9346   */\n      0x20\n        /* \"#utility.yul\":9333:9342   */\n      dup3\n        /* \"#utility.yul\":9329:9347   */\n      add\n        /* \"#utility.yul\":9321:9347   */\n      swap1\n      pop\n        /* \"#utility.yul\":9357:9428   */\n      tag_501\n        /* \"#utility.yul\":9425:9426   */\n      0x00\n        /* \"#utility.yul\":9414:9423   */\n      dup4\n        /* \"#utility.yul\":9410:9427   */\n      add\n        /* \"#utility.yul\":9401:9407   */\n      dup5\n        /* \"#utility.yul\":9357:9428   */\n      tag_386\n      jump\t// in\n    tag_501:\n        /* \"#utility.yul\":9213:9435   */\n      swap3\n      swap2\n      pop\n      pop\n      jump\t// out\n        /* \"#utility.yul\":9441:9559   */\n    tag_394:\n        /* \"#utility.yul\":9512:9534   */\n      tag_503\n        /* \"#utility.yul\":9528:9533   */\n      dup2\n        /* \"#utility.yul\":9512:9534   */\n      tag_380\n      jump\t// in\n    tag_503:\n        /* \"#utility.yul\":9505:9510   */\n      dup2\n        /* \"#utility.yul\":9502:9535   */\n      eq\n        /* \"#utility.yul\":9492:9553   */\n      tag_504\n      jumpi\n        /* \"#utility.yul\":9549:9550   */\n      0x00\n        /* \"#utility.yul\":9546:9547   */\n      dup1\n        /* \"#utility.yul\":9539:9551   */\n      revert\n        /* \"#utility.yul\":9492:9553   */\n    tag_504:\n        /* \"#utility.yul\":9441:9559   */\n      pop\n      jump\t// out\n        /* \"#utility.yul\":9565:9700   */\n    tag_395:\n        /* \"#utility.yul\":9609:9614   */\n      0x00\n        /* \"#utility.yul\":9647:9653   */\n      dup2\n        /* \"#utility.yul\":9634:9654   */\n      calldataload\n        /* \"#utility.yul\":9625:9654   */\n      swap1\n      pop\n        /* \"#utility.yul\":9663:9694   */\n      tag_506\n        /* \"#utility.yul\":9688:9693   */\n      dup2\n        /* \"#utility.yul\":9663:9694   */\n      tag_394\n      jump\t// in\n    tag_506:\n        /* \"#utility.yul\":9565:9700   */\n      swap3\n      swap2\n      pop\n      pop\n      jump\t// out\n        /* \"#utility.yul\":9706:9828   */\n    tag_396:\n        /* \"#utility.yul\":9779:9803   */\n      tag_508\n        /* \"#utility.yul\":9797:9802   */\n      dup2\n        /* \"#utility.yul\":9779:9803   */\n      tag_382\n      jump\t// in\n    tag_508:\n        /* \"#utility.yul\":9772:9777   */\n      dup2\n        /* \"#utility.yul\":9769:9804   */\n      eq\n        /* \"#utility.yul\":9759:9822   */\n      tag_509\n      jumpi\n        /* \"#utility.yul\":9818:9819   */\n      0x00\n        /* \"#utility.yul\":9815:9816   */\n      dup1\n        /* \"#utility.yul\":9808:9820   */\n      revert\n        /* \"#utility.yul\":9759:9822   */\n    tag_509:\n        /* \"#utility.yul\":9706:9828   */\n      pop\n      jump\t// out\n        /* \"#utility.yul\":9834:9973   */\n    tag_397:\n        /* \"#utility.yul\":9880:9885   */\n      0x00\n        /* \"#utility.yul\":9918:9924   */\n      dup2\n        /* \"#utility.yul\":9905:9925   */\n      calldataload\n        /* \"#utility.yul\":9896:9925   */\n      swap1\n      pop\n        /* \"#utility.yul\":9934:9967   */\n      tag_511\n        /* \"#utility.yul\":9961:9966   */\n      dup2\n        /* \"#utility.yul\":9934:9967   */\n      tag_396\n      jump\t// in\n    tag_511:\n        /* \"#utility.yul\":9834:9973   */\n      swap3\n      swap2\n      pop\n      pop\n      jump\t// out\n        /* \"#utility.yul\":9979:11178   */\n    tag_100:\n        /* \"#utility.yul\":10090:10096   */\n      0x00\n        /* \"#utility.yul\":10098:10104   */\n      dup1\n        /* \"#utility.yul\":10106:10112   */\n      0x00\n        /* \"#utility.yul\":10114:10120   */\n      dup1\n        /* \"#utility.yul\":10122:10128   */\n      0x00\n        /* \"#utility.yul\":10130:10136   */\n      dup1\n        /* \"#utility.yul\":10138:10144   */\n      0x00\n        /* \"#utility.yul\":10187:10190   */\n      0xe0\n        /* \"#utility.yul\":10175:10184   */\n      dup9\n        /* \"#utility.yul\":10166:10173   */\n      dup11\n        /* \"#utility.yul\":10162:10185   */\n      sub\n        /* \"#utility.yul\":10158:10191   */\n      slt\n        /* \"#utility.yul\":10155:10275   */\n      iszero\n      tag_513\n      jumpi\n        /* \"#utility.yul\":10194:10273   */\n      tag_514\n      tag_368\n      jump\t// in\n    tag_514:\n        /* \"#utility.yul\":10155:10275   */\n    tag_513:\n        /* \"#utility.yul\":10314:10315   */\n      0x00\n        /* \"#utility.yul\":10339:10392   */\n      tag_515\n        /* \"#utility.yul\":10384:10391   */\n      dup11\n        /* \"#utility.yul\":10375:10381   */\n      dup3\n        /* \"#utility.yul\":10364:10373   */\n      dup12\n        /* \"#utility.yul\":10360:10382   */\n      add\n        /* \"#utility.yul\":10339:10392   */\n      tag_373\n      jump\t// in\n    tag_515:\n        /* \"#utility.yul\":10329:10392   */\n      swap8\n      pop\n        /* \"#utility.yul\":10285:10402   */\n      pop\n        /* \"#utility.yul\":10441:10443   */\n      0x20\n        /* \"#utility.yul\":10467:10520   */\n      tag_516\n        /* \"#utility.yul\":10512:10519   */\n      dup11\n        /* \"#utility.yul\":10503:10509   */\n      dup3\n        /* \"#utility.yul\":10492:10501   */\n      dup12\n        /* \"#utility.yul\":10488:10510   */\n      add\n        /* \"#utility.yul\":10467:10520   */\n      tag_373\n      jump\t// in\n    tag_516:\n        /* \"#utility.yul\":10457:10520   */\n      swap7\n      pop\n        /* \"#utility.yul\":10412:10530   */\n      pop\n        /* \"#utility.yul\":10569:10571   */\n      0x40\n        /* \"#utility.yul\":10595:10648   */\n      tag_517\n        /* \"#utility.yul\":10640:10647   */\n      dup11\n        /* \"#utility.yul\":10631:10637   */\n      dup3\n        /* \"#utility.yul\":10620:10629   */\n      dup12\n        /* \"#utility.yul\":10616:10638   */\n      add\n        /* \"#utility.yul\":10595:10648   */\n      tag_376\n      jump\t// in\n    tag_517:\n        /* \"#utility.yul\":10585:10648   */\n      swap6\n      pop\n        /* \"#utility.yul\":10540:10658   */\n      pop\n        /* \"#utility.yul\":10697:10699   */\n      0x60\n        /* \"#utility.yul\":10723:10776   */\n      tag_518\n        /* \"#utility.yul\":10768:10775   */\n      dup11\n        /* \"#utility.yul\":10759:10765   */\n      dup3\n        /* \"#utility.yul\":10748:10757   */\n      dup12\n        /* \"#utility.yul\":10744:10766   */\n      add\n        /* \"#utility.yul\":10723:10776   */\n      tag_376\n      jump\t// in\n    tag_518:\n        /* \"#utility.yul\":10713:10776   */\n      swap5\n      pop\n        /* \"#utility.yul\":10668:10786   */\n      pop\n        /* \"#utility.yul\":10825:10828   */\n      0x80\n        /* \"#utility.yul\":10852:10903   */\n      tag_519\n        /* \"#utility.yul\":10895:10902   */\n      dup11\n        /* \"#utility.yul\":10886:10892   */\n      dup3\n        /* \"#utility.yul\":10875:10884   */\n      dup12\n        /* \"#utility.yul\":10871:10893   */\n      add\n        /* \"#utility.yul\":10852:10903   */\n      tag_395\n      jump\t// in\n    tag_519:\n        /* \"#utility.yul\":10842:10903   */\n      swap4\n      pop\n        /* \"#utility.yul\":10796:10913   */\n      pop\n        /* \"#utility.yul\":10952:10955   */\n      0xa0\n        /* \"#utility.yul\":10979:11032   */\n      tag_520\n        /* \"#utility.yul\":11024:11031   */\n      dup11\n        /* \"#utility.yul\":11015:11021   */\n      dup3\n        /* \"#utility.yul\":11004:11013   */\n      dup12\n        /* \"#utility.yul\":11000:11022   */\n      add\n        /* \"#utility.yul\":10979:11032   */\n      tag_397\n      jump\t// in\n    tag_520:\n        /* \"#utility.yul\":10969:11032   */\n      swap3\n      pop\n        /* \"#utility.yul\":10923:11042   */\n      pop\n        /* \"#utility.yul\":11081:11084   */\n      0xc0\n        /* \"#utility.yul\":11108:11161   */\n      tag_521\n        /* \"#utility.yul\":11153:11160   */\n      dup11\n        /* \"#utility.yul\":11144:11150   */\n      dup3\n        /* \"#utility.yul\":11133:11142   */\n      dup12\n        /* \"#utility.yul\":11129:11151   */\n      add\n        /* \"#utility.yul\":11108:11161   */\n      tag_397\n      jump\t// in\n    tag_521:\n        /* \"#utility.yul\":11098:11161   */\n      swap2\n      pop\n        /* \"#utility.yul\":11052:11171   */\n      pop\n        /* \"#utility.yul\":9979:11178   */\n      swap3\n      swap6\n      swap9\n      swap2\n      swap5\n      swap8\n      pop\n      swap3\n      swap6\n      pop\n      jump\t// out\n        /* \"#utility.yul\":11184:11658   */\n    tag_104:\n        /* \"#utility.yul\":11252:11258   */\n      0x00\n        /* \"#utility.yul\":11260:11266   */\n      dup1\n        /* \"#utility.yul\":11309:11311   */\n      0x40\n        /* \"#utility.yul\":11297:11306   */\n      dup4\n        /* \"#utility.yul\":11288:11295   */\n      dup6\n        /* \"#utility.yul\":11284:11307   */\n      sub\n        /* \"#utility.yul\":11280:11312   */\n      slt\n        /* \"#utility.yul\":11277:11396   */\n      iszero\n      tag_523\n      jumpi\n        /* \"#utility.yul\":11315:11394   */\n      tag_524\n      tag_368\n      jump\t// in\n    tag_524:\n        /* \"#utility.yul\":11277:11396   */\n    tag_523:\n        /* \"#utility.yul\":11435:11436   */\n      0x00\n        /* \"#utility.yul\":11460:11513   */\n      tag_525\n        /* \"#utility.yul\":11505:11512   */\n      dup6\n        /* \"#utility.yul\":11496:11502   */\n      dup3\n        /* \"#utility.yul\":11485:11494   */\n      dup7\n        /* \"#utility.yul\":11481:11503   */\n      add\n        /* \"#utility.yul\":11460:11513   */\n      tag_373\n      jump\t// in\n    tag_525:\n        /* \"#utility.yul\":11450:11513   */\n      swap3\n      pop\n        /* \"#utility.yul\":11406:11523   */\n      pop\n        /* \"#utility.yul\":11562:11564   */\n      0x20\n        /* \"#utility.yul\":11588:11641   */\n      tag_526\n        /* \"#utility.yul\":11633:11640   */\n      dup6\n        /* \"#utility.yul\":11624:11630   */\n      dup3\n        /* \"#utility.yul\":11613:11622   */\n      dup7\n        /* \"#utility.yul\":11609:11631   */\n      add\n        /* \"#utility.yul\":11588:11641   */\n      tag_373\n      jump\t// in\n    tag_526:\n        /* \"#utility.yul\":11578:11641   */\n      swap2\n      pop\n        /* \"#utility.yul\":11533:11651   */\n      pop\n        /* \"#utility.yul\":11184:11658   */\n      swap3\n      pop\n      swap3\n      swap1\n      pop\n      jump\t// out\n        /* \"#utility.yul\":11664:11844   */\n    tag_398:\n        /* \"#utility.yul\":11712:11789   */\n      0x4e487b7100000000000000000000000000000000000000000000000000000000\n        /* \"#utility.yul\":11709:11710   */\n      0x00\n        /* \"#utility.yul\":11702:11790   */\n      mstore\n        /* \"#utility.yul\":11809:11813   */\n      0x22\n        /* \"#utility.yul\":11806:11807   */\n      0x04\n        /* \"#utility.yul\":11799:11814   */\n      mstore\n        /* \"#utility.yul\":11833:11837   */\n      0x24\n        /* \"#utility.yul\":11830:11831   */\n      0x00\n        /* \"#utility.yul\":11823:11838   */\n      revert\n        /* \"#utility.yul\":11850:12170   */\n    tag_112:\n        /* \"#utility.yul\":11894:11900   */\n      0x00\n        /* \"#utility.yul\":11931:11932   */\n      0x02\n        /* \"#utility.yul\":11925:11929   */\n      dup3\n        /* \"#utility.yul\":11921:11933   */\n      div\n        /* \"#utility.yul\":11911:11933   */\n      swap1\n      pop\n        /* \"#utility.yul\":11978:11979   */\n      0x01\n        /* \"#utility.yul\":11972:11976   */\n      dup3\n        /* \"#utility.yul\":11968:11980   */\n      and\n        /* \"#utility.yul\":11999:12017   */\n      dup1\n        /* \"#utility.yul\":11989:12070   */\n      tag_529\n      jumpi\n        /* \"#utility.yul\":12055:12059   */\n      0x7f\n        /* \"#utility.yul\":12047:12053   */\n      dup3\n        /* \"#utility.yul\":12043:12060   */\n      and\n        /* \"#utility.yul\":12033:12060   */\n      swap2\n      pop\n        /* \"#utility.yul\":11989:12070   */\n    tag_529:\n        /* \"#utility.yul\":12117:12119   */\n      0x20\n        /* \"#utility.yul\":12109:12115   */\n      dup3\n        /* \"#utility.yul\":12106:12120   */\n      lt\n        /* \"#utility.yul\":12086:12104   */\n      dup2\n        /* \"#utility.yul\":12083:12121   */\n      sub\n        /* \"#utility.yul\":12080:12164   */\n      tag_530\n      jumpi\n        /* \"#utility.yul\":12136:12154   */\n      tag_531\n      tag_398\n      jump\t// in\n    tag_531:\n        /* \"#utility.yul\":12080:12164   */\n    tag_530:\n        /* \"#utility.yul\":11901:12170   */\n      pop\n        /* \"#utility.yul\":11850:12170   */\n      swap2\n      swap1\n      pop\n      jump\t// out\n        /* \"#utility.yul\":12176:12356   */\n    tag_174:\n        /* \"#utility.yul\":12224:12301   */\n      0x4e487b7100000000000000000000000000000000000000000000000000000000\n        /* \"#utility.yul\":12221:12222   */\n      0x00\n        /* \"#utility.yul\":12214:12302   */\n      mstore\n        /* \"#utility.yul\":12321:12325   */\n      0x41\n        /* \"#utility.yul\":12318:12319   */\n      0x04\n        /* \"#utility.yul\":12311:12326   */\n      mstore\n        /* \"#utility.yul\":12345:12349   */\n      0x24\n        /* \"#utility.yul\":12342:12343   */\n      0x00\n        /* \"#utility.yul\":12335:12350   */\n      revert\n        /* \"#utility.yul\":12362:13137   */\n    tag_192:\n        /* \"#utility.yul\":12595:12599   */\n      0x00\n        /* \"#utility.yul\":12633:12636   */\n      0xc0\n        /* \"#utility.yul\":12622:12631   */\n      dup3\n        /* \"#utility.yul\":12618:12637   */\n      add\n        /* \"#utility.yul\":12610:12637   */\n      swap1\n      pop\n        /* \"#utility.yul\":12647:12718   */\n      tag_534\n        /* \"#utility.yul\":12715:12716   */\n      0x00\n        /* \"#utility.yul\":12704:12713   */\n      dup4\n        /* \"#utility.yul\":12700:12717   */\n      add\n        /* \"#utility.yul\":12691:12697   */\n      dup10\n        /* \"#utility.yul\":12647:12718   */\n      tag_383\n      jump\t// in\n    tag_534:\n        /* \"#utility.yul\":12728:12800   */\n      tag_535\n        /* \"#utility.yul\":12796:12798   */\n      0x20\n        /* \"#utility.yul\":12785:12794   */\n      dup4\n        /* \"#utility.yul\":12781:12799   */\n      add\n        /* \"#utility.yul\":12772:12778   */\n      dup9\n        /* \"#utility.yul\":12728:12800   */\n      tag_386\n      jump\t// in\n    tag_535:\n        /* \"#utility.yul\":12810:12882   */\n      tag_536\n        /* \"#utility.yul\":12878:12880   */\n      0x40\n        /* \"#utility.yul\":12867:12876   */\n      dup4\n        /* \"#utility.yul\":12863:12881   */\n      add\n        /* \"#utility.yul\":12854:12860   */\n      dup8\n        /* \"#utility.yul\":12810:12882   */\n      tag_386\n      jump\t// in\n    tag_536:\n        /* \"#utility.yul\":12892:12964   */\n      tag_537\n        /* \"#utility.yul\":12960:12962   */\n      0x60\n        /* \"#utility.yul\":12949:12958   */\n      dup4\n        /* \"#utility.yul\":12945:12963   */\n      add\n        /* \"#utility.yul\":12936:12942   */\n      dup7\n        /* \"#utility.yul\":12892:12964   */\n      tag_379\n      jump\t// in\n    tag_537:\n        /* \"#utility.yul\":12974:13047   */\n      tag_538\n        /* \"#utility.yul\":13042:13045   */\n      0x80\n        /* \"#utility.yul\":13031:13040   */\n      dup4\n        /* \"#utility.yul\":13027:13046   */\n      add\n        /* \"#utility.yul\":13018:13024   */\n      dup6\n        /* \"#utility.yul\":12974:13047   */\n      tag_379\n      jump\t// in\n    tag_538:\n        /* \"#utility.yul\":13057:13130   */\n      tag_539\n        /* \"#utility.yul\":13125:13128   */\n      0xa0\n        /* \"#utility.yul\":13114:13123   */\n      dup4\n        /* \"#utility.yul\":13110:13129   */\n      add\n        /* \"#utility.yul\":13101:13107   */\n      dup5\n        /* \"#utility.yul\":13057:13130   */\n      tag_379\n      jump\t// in\n    tag_539:\n        /* \"#utility.yul\":12362:13137   */\n      swap8\n      swap7\n      pop\n      pop\n      pop\n      pop\n      pop\n      pop\n      pop\n      jump\t// out\n        /* \"#utility.yul\":13143:13475   */\n    tag_199:\n        /* \"#utility.yul\":13264:13268   */\n      0x00\n        /* \"#utility.yul\":13302:13304   */\n      0x40\n        /* \"#utility.yul\":13291:13300   */\n      dup3\n        /* \"#utility.yul\":13287:13305   */\n      add\n        /* \"#utility.yul\":13279:13305   */\n      swap1\n      pop\n        /* \"#utility.yul\":13315:13386   */\n      tag_541\n        /* \"#utility.yul\":13383:13384   */\n      0x00\n        /* \"#utility.yul\":13372:13381   */\n      dup4\n        /* \"#utility.yul\":13368:13385   */\n      add\n        /* \"#utility.yul\":13359:13365   */\n      dup6\n        /* \"#utility.yul\":13315:13386   */\n      tag_386\n      jump\t// in\n    tag_541:\n        /* \"#utility.yul\":13396:13468   */\n      tag_542\n        /* \"#utility.yul\":13464:13466   */\n      0x20\n        /* \"#utility.yul\":13453:13462   */\n      dup4\n        /* \"#utility.yul\":13449:13467   */\n      add\n        /* \"#utility.yul\":13440:13446   */\n      dup5\n        /* \"#utility.yul\":13396:13468   */\n      tag_386\n      jump\t// in\n    tag_542:\n        /* \"#utility.yul\":13143:13475   */\n      swap4\n      swap3\n      pop\n      pop\n      pop\n      jump\t// out\n        /* \"#utility.yul\":13481:13923   */\n    tag_217:\n        /* \"#utility.yul\":13630:13634   */\n      0x00\n        /* \"#utility.yul\":13668:13670   */\n      0x60\n        /* \"#utility.yul\":13657:13666   */\n      dup3\n        /* \"#utility.yul\":13653:13671   */\n      add\n        /* \"#utility.yul\":13645:13671   */\n      swap1\n      pop\n        /* \"#utility.yul\":13681:13752   */\n      tag_544\n        /* \"#utility.yul\":13749:13750   */\n      0x00\n        /* \"#utility.yul\":13738:13747   */\n      dup4\n        /* \"#utility.yul\":13734:13751   */\n      add\n        /* \"#utility.yul\":13725:13731   */\n      dup7\n        /* \"#utility.yul\":13681:13752   */\n      tag_386\n      jump\t// in\n    tag_544:\n        /* \"#utility.yul\":13762:13834   */\n      tag_545\n        /* \"#utility.yul\":13830:13832   */\n      0x20\n        /* \"#utility.yul\":13819:13828   */\n      dup4\n        /* \"#utility.yul\":13815:13833   */\n      add\n        /* \"#utility.yul\":13806:13812   */\n      dup6\n        /* \"#utility.yul\":13762:13834   */\n      tag_379\n      jump\t// in\n    tag_545:\n        /* \"#utility.yul\":13844:13916   */\n      tag_546\n        /* \"#utility.yul\":13912:13914   */\n      0x40\n        /* \"#utility.yul\":13901:13910   */\n      dup4\n        /* \"#utility.yul\":13897:13915   */\n      add\n        /* \"#utility.yul\":13888:13894   */\n      dup5\n        /* \"#utility.yul\":13844:13916   */\n      tag_379\n      jump\t// in\n    tag_546:\n        /* \"#utility.yul\":13481:13923   */\n      swap5\n      swap4\n      pop\n      pop\n      pop\n      pop\n      jump\t// out\n        /* \"#utility.yul\":13929:14593   */\n    tag_287:\n        /* \"#utility.yul\":14134:14138   */\n      0x00\n        /* \"#utility.yul\":14172:14175   */\n      0xa0\n        /* \"#utility.yul\":14161:14170   */\n      dup3\n        /* \"#utility.yul\":14157:14176   */\n      add\n        /* \"#utility.yul\":14149:14176   */\n      swap1\n      pop\n        /* \"#utility.yul\":14186:14257   */\n      tag_548\n        /* \"#utility.yul\":14254:14255   */\n      0x00\n        /* \"#utility.yul\":14243:14252   */\n      dup4\n        /* \"#utility.yul\":14239:14256   */\n      add\n        /* \"#utility.yul\":14230:14236   */\n      dup9\n        /* \"#utility.yul\":14186:14257   */\n      tag_383\n      jump\t// in\n    tag_548:\n        /* \"#utility.yul\":14267:14339   */\n      tag_549\n        /* \"#utility.yul\":14335:14337   */\n      0x20\n        /* \"#utility.yul\":14324:14333   */\n      dup4\n        /* \"#utility.yul\":14320:14338   */\n      add\n        /* \"#utility.yul\":14311:14317   */\n      dup8\n        /* \"#utility.yul\":14267:14339   */\n      tag_383\n      jump\t// in\n    tag_549:\n        /* \"#utility.yul\":14349:14421   */\n      tag_550\n        /* \"#utility.yul\":14417:14419   */\n      0x40\n        /* \"#utility.yul\":14406:14415   */\n      dup4\n        /* \"#utility.yul\":14402:14420   */\n      add\n        /* \"#utility.yul\":14393:14399   */\n      dup7\n        /* \"#utility.yul\":14349:14421   */\n      tag_383\n      jump\t// in\n    tag_550:\n        /* \"#utility.yul\":14431:14503   */\n      tag_551\n        /* \"#utility.yul\":14499:14501   */\n      0x60\n        /* \"#utility.yul\":14488:14497   */\n      dup4\n        /* \"#utility.yul\":14484:14502   */\n      add\n        /* \"#utility.yul\":14475:14481   */\n      dup6\n        /* \"#utility.yul\":14431:14503   */\n      tag_379\n      jump\t// in\n    tag_551:\n        /* \"#utility.yul\":14513:14586   */\n      tag_552\n        /* \"#utility.yul\":14581:14584   */\n      0x80\n        /* \"#utility.yul\":14570:14579   */\n      dup4\n        /* \"#utility.yul\":14566:14585   */\n      add\n        /* \"#utility.yul\":14557:14563   */\n      dup5\n        /* \"#utility.yul\":14513:14586   */\n      tag_386\n      jump\t// in\n    tag_552:\n        /* \"#utility.yul\":13929:14593   */\n      swap7\n      swap6\n      pop\n      pop\n      pop\n      pop\n      pop\n      pop\n      jump\t// out\n        /* \"#utility.yul\":14599:15144   */\n    tag_308:\n        /* \"#utility.yul\":14772:14776   */\n      0x00\n        /* \"#utility.yul\":14810:14813   */\n      0x80\n        /* \"#utility.yul\":14799:14808   */\n      dup3\n        /* \"#utility.yul\":14795:14814   */\n      add\n        /* \"#utility.yul\":14787:14814   */\n      swap1\n      pop\n        /* \"#utility.yul\":14824:14895   */\n      tag_554\n        /* \"#utility.yul\":14892:14893   */\n      0x00\n        /* \"#utility.yul\":14881:14890   */\n      dup4\n        /* \"#utility.yul\":14877:14894   */\n      add\n        /* \"#utility.yul\":14868:14874   */\n      dup8\n        /* \"#utility.yul\":14824:14895   */\n      tag_383\n      jump\t// in\n    tag_554:\n        /* \"#utility.yul\":14905:14973   */\n      tag_555\n        /* \"#utility.yul\":14969:14971   */\n      0x20\n        /* \"#utility.yul\":14958:14967   */\n      dup4\n        /* \"#utility.yul\":14954:14972   */\n      add\n        /* \"#utility.yul\":14945:14951   */\n      dup7\n        /* \"#utility.yul\":14905:14973   */\n      tag_381\n      jump\t// in\n    tag_555:\n        /* \"#utility.yul\":14983:15055   */\n      tag_556\n        /* \"#utility.yul\":15051:15053   */\n      0x40\n        /* \"#utility.yul\":15040:15049   */\n      dup4\n        /* \"#utility.yul\":15036:15054   */\n      add\n        /* \"#utility.yul\":15027:15033   */\n      dup6\n        /* \"#utility.yul\":14983:15055   */\n      tag_383\n      jump\t// in\n    tag_556:\n        /* \"#utility.yul\":15065:15137   */\n      tag_557\n        /* \"#utility.yul\":15133:15135   */\n      0x60\n        /* \"#utility.yul\":15122:15131   */\n      dup4\n        /* \"#utility.yul\":15118:15136   */\n      add\n        /* \"#utility.yul\":15109:15115   */\n      dup5\n        /* \"#utility.yul\":15065:15137   */\n      tag_383\n      jump\t// in\n    tag_557:\n        /* \"#utility.yul\":14599:15144   */\n      swap6\n      swap5\n      pop\n      pop\n      pop\n      pop\n      pop\n      jump\t// out\n        /* \"#utility.yul\":15150:15330   */\n    tag_315:\n        /* \"#utility.yul\":15198:15275   */\n      0x4e487b7100000000000000000000000000000000000000000000000000000000\n        /* \"#utility.yul\":15195:15196   */\n      0x00\n        /* \"#utility.yul\":15188:15276   */\n      mstore\n        /* \"#utility.yul\":15295:15299   */\n      0x21\n        /* \"#utility.yul\":15292:15293   */\n      0x04\n        /* \"#utility.yul\":15285:15300   */\n      mstore\n        /* \"#utility.yul\":15319:15323   */\n      0x24\n        /* \"#utility.yul\":15316:15317   */\n      0x00\n        /* \"#utility.yul\":15309:15324   */\n      revert\n        /* \"#utility.yul\":15336:15516   */\n    tag_399:\n        /* \"#utility.yul\":15384:15461   */\n      0x4e487b7100000000000000000000000000000000000000000000000000000000\n        /* \"#utility.yul\":15381:15382   */\n      0x00\n        /* \"#utility.yul\":15374:15462   */\n      mstore\n        /* \"#utility.yul\":15481:15485   */\n      0x11\n        /* \"#utility.yul\":15478:15479   */\n      0x04\n        /* \"#utility.yul\":15471:15486   */\n      mstore\n        /* \"#utility.yul\":15505:15509   */\n      0x24\n        /* \"#utility.yul\":15502:15503   */\n      0x00\n        /* \"#utility.yul\":15495:15510   */\n      revert\n        /* \"#utility.yul\":15522:15713   */\n    tag_353:\n        /* \"#utility.yul\":15562:15565   */\n      0x00\n        /* \"#utility.yul\":15581:15601   */\n      tag_561\n        /* \"#utility.yul\":15599:15600   */\n      dup3\n        /* \"#utility.yul\":15581:15601   */\n      tag_374\n      jump\t// in\n    tag_561:\n        /* \"#utility.yul\":15576:15601   */\n      swap2\n      pop\n        /* \"#utility.yul\":15615:15635   */\n      tag_562\n        /* \"#utility.yul\":15633:15634   */\n      dup4\n        /* \"#utility.yul\":15615:15635   */\n      tag_374\n      jump\t// in\n    tag_562:\n        /* \"#utility.yul\":15610:15635   */\n      swap3\n      pop\n        /* \"#utility.yul\":15658:15659   */\n      dup3\n        /* \"#utility.yul\":15655:15656   */\n      dup3\n        /* \"#utility.yul\":15651:15660   */\n      add\n        /* \"#utility.yul\":15644:15660   */\n      swap1\n      pop\n        /* \"#utility.yul\":15679:15682   */\n      dup1\n        /* \"#utility.yul\":15676:15677   */\n      dup3\n        /* \"#utility.yul\":15673:15683   */\n      gt\n        /* \"#utility.yul\":15670:15706   */\n      iszero\n      tag_563\n      jumpi\n        /* \"#utility.yul\":15686:15704   */\n      tag_564\n      tag_399\n      jump\t// in\n    tag_564:\n        /* \"#utility.yul\":15670:15706   */\n    tag_563:\n        /* \"#utility.yul\":15522:15713   */\n      swap3\n      swap2\n      pop\n      pop\n      jump\t// out\n\n    auxdata: 0xa2646970667358221220ad3948f7005a1c3554453c469dc81a81de0d7522bf2b079561631841a967f48664736f6c63430008140033\n}\n",
				"bytecode": {
					"linkReferences": {},
					"object": "61016060405234801562000011575f80fd5b50604051620032b8380380620032b8833981810160405281019062000037919062000870565b6040518060400160405280600581526020017f564547414e000000000000000000000000000000000000000000000000000000815250806040518060400160405280600181526020017f3100000000000000000000000000000000000000000000000000000000000000815250836040518060400160405280600581526020017f564547414e0000000000000000000000000000000000000000000000000000008152506040518060400160405280600381526020017f56474e0000000000000000000000000000000000000000000000000000000000815250816003908162000122919062000b04565b50806004908162000134919062000b04565b5050505f60055f6101000a81548160ff0219169083151502179055505f73ffffffffffffffffffffffffffffffffffffffff168173ffffffffffffffffffffffffffffffffffffffff1603620001c3575f6040517f1e4fbdf7000000000000000000000000000000000000000000000000000000008152600401620001ba919062000bf9565b60405180910390fd5b620001d481620002cd60201b60201c565b50620001eb6006836200039260201b90919060201c565b6101208181525050620002096007826200039260201b90919060201c565b6101408181525050818051906020012060e08181525050808051906020012061010081815250504660a0818152505062000248620003e760201b60201c565b608081815250503073ffffffffffffffffffffffffffffffffffffffff1660c08173ffffffffffffffffffffffffffffffffffffffff1681525050505050620002c6336200029b6200044360201b60201c565b600a620002a9919062000d9d565b6301406f40620002ba919062000ded565b6200044b60201b60201c565b5062001097565b5f600560019054906101000a900473ffffffffffffffffffffffffffffffffffffffff16905081600560016101000a81548173ffffffffffffffffffffffffffffffffffffffff021916908373ffffffffffffffffffffffffffffffffffffffff1602179055508173ffffffffffffffffffffffffffffffffffffffff168173ffffffffffffffffffffffffffffffffffffffff167f8be0079c531659141344cd1fd0a4f28419497f9722a3daafe3b4186f6b6457e060405160405180910390a35050565b5f602083511015620003b757620003af83620004d560201b60201c565b9050620003e1565b82620003c9836200053f60201b60201c565b5f019081620003d9919062000b04565b5060ff5f1b90505b92915050565b5f7f8b73c3c69bb8fe3d512ecc4cf759cc79239f7b179b0ffacaa9a75d522b39400f60e0516101005146306040516020016200042895949392919062000e62565b60405160208183030381529060405280519060200120905090565b5f6012905090565b5f73ffffffffffffffffffffffffffffffffffffffff168273ffffffffffffffffffffffffffffffffffffffff1603620004be575f6040517fec442f05000000000000000000000000000000000000000000000000000000008152600401620004b5919062000bf9565b60405180910390fd5b620004d15f83836200054860201b60201c565b5050565b5f80829050601f815111156200052457826040517f305a27a90000000000000000000000000000000000000000000000000000000081526004016200051b919062000f47565b60405180910390fd5b805181620005329062000f98565b5f1c175f1b915050919050565b5f819050919050565b6200055b8383836200056060201b60201c565b505050565b620005706200058860201b60201c565b62000583838383620005d260201b60201c565b505050565b62000598620007f660201b60201c565b15620005d0576040517fd93c066500000000000000000000000000000000000000000000000000000000815260040160405180910390fd5b565b5f73ffffffffffffffffffffffffffffffffffffffff168373ffffffffffffffffffffffffffffffffffffffff160362000626578060025f82825462000619919062001007565b92505081905550620006f7565b5f805f8573ffffffffffffffffffffffffffffffffffffffff1673ffffffffffffffffffffffffffffffffffffffff1681526020019081526020015f2054905081811015620006b2578381836040517fe450d38c000000000000000000000000000000000000000000000000000000008152600401620006a99392919062001041565b60405180910390fd5b8181035f808673ffffffffffffffffffffffffffffffffffffffff1673ffffffffffffffffffffffffffffffffffffffff1681526020019081526020015f2081905550505b5f73ffffffffffffffffffffffffffffffffffffffff168273ffffffffffffffffffffffffffffffffffffffff160362000740578060025f82825403925050819055506200078a565b805f808473ffffffffffffffffffffffffffffffffffffffff1673ffffffffffffffffffffffffffffffffffffffff1681526020019081526020015f205f82825401925050819055505b8173ffffffffffffffffffffffffffffffffffffffff168373ffffffffffffffffffffffffffffffffffffffff167fddf252ad1be2c89b69c2b068fc378daa952ba7f163c4a11628f55a4df523b3ef83604051620007e991906200107c565b60405180910390a3505050565b5f60055f9054906101000a900460ff16905090565b5f80fd5b5f73ffffffffffffffffffffffffffffffffffffffff82169050919050565b5f6200083a826200080f565b9050919050565b6200084c816200082e565b811462000857575f80fd5b50565b5f815190506200086a8162000841565b92915050565b5f602082840312156200088857620008876200080b565b5b5f62000897848285016200085a565b91505092915050565b5f81519050919050565b7f4e487b71000000000000000000000000000000000000000000000000000000005f52604160045260245ffd5b7f4e487b71000000000000000000000000000000000000000000000000000000005f52602260045260245ffd5b5f60028204905060018216806200091c57607f821691505b602082108103620009325762000931620008d7565b5b50919050565b5f819050815f5260205f209050919050565b5f6020601f8301049050919050565b5f82821b905092915050565b5f60088302620009967fffffffffffffffffffffffffffffffffffffffffffffffffffffffffffffffff8262000959565b620009a2868362000959565b95508019841693508086168417925050509392505050565b5f819050919050565b5f819050919050565b5f620009ec620009e6620009e084620009ba565b620009c3565b620009ba565b9050919050565b5f819050919050565b62000a0783620009cc565b62000a1f62000a1682620009f3565b84845462000965565b825550505050565b5f90565b62000a3562000a27565b62000a42818484620009fc565b505050565b5b8181101562000a695762000a5d5f8262000a2b565b60018101905062000a48565b5050565b601f82111562000ab85762000a828162000938565b62000a8d846200094a565b8101602085101562000a9d578190505b62000ab562000aac856200094a565b83018262000a47565b50505b505050565b5f82821c905092915050565b5f62000ada5f198460080262000abd565b1980831691505092915050565b5f62000af4838362000ac9565b9150826002028217905092915050565b62000b0f82620008a0565b67ffffffffffffffff81111562000b2b5762000b2a620008aa565b5b62000b37825462000904565b62000b4482828562000a6d565b5f60209050601f83116001811462000b7a575f841562000b65578287015190505b62000b71858262000ae7565b86555062000be0565b601f19841662000b8a8662000938565b5f5b8281101562000bb35784890151825560018201915060208501945060208101905062000b8c565b8683101562000bd3578489015162000bcf601f89168262000ac9565b8355505b6001600288020188555050505b505050505050565b62000bf3816200082e565b82525050565b5f60208201905062000c0e5f83018462000be8565b92915050565b7f4e487b71000000000000000000000000000000000000000000000000000000005f52601160045260245ffd5b5f8160011c9050919050565b5f808291508390505b600185111562000c9e5780860481111562000c765762000c7562000c14565b5b600185161562000c865780820291505b808102905062000c968562000c41565b945062000c56565b94509492505050565b5f8262000cb8576001905062000d8a565b8162000cc7575f905062000d8a565b816001811462000ce0576002811462000ceb5762000d21565b600191505062000d8a565b60ff84111562000d005762000cff62000c14565b5b8360020a91508482111562000d1a5762000d1962000c14565b5b5062000d8a565b5060208310610133831016604e8410600b841016171562000d5b5782820a90508381111562000d555762000d5462000c14565b5b62000d8a565b62000d6a848484600162000c4d565b9250905081840481111562000d845762000d8362000c14565b5b81810290505b9392505050565b5f60ff82169050919050565b5f62000da982620009ba565b915062000db68362000d91565b925062000de57fffffffffffffffffffffffffffffffffffffffffffffffffffffffffffffffff848462000ca7565b905092915050565b5f62000df982620009ba565b915062000e0683620009ba565b925082820262000e1681620009ba565b9150828204841483151762000e305762000e2f62000c14565b5b5092915050565b5f819050919050565b62000e4b8162000e37565b82525050565b62000e5c81620009ba565b82525050565b5f60a08201905062000e775f83018862000e40565b62000e86602083018762000e40565b62000e95604083018662000e40565b62000ea4606083018562000e51565b62000eb3608083018462000be8565b9695505050505050565b5f82825260208201905092915050565b5f5b8381101562000eec57808201518184015260208101905062000ecf565b5f8484015250505050565b5f601f19601f8301169050919050565b5f62000f1382620008a0565b62000f1f818562000ebd565b935062000f3181856020860162000ecd565b62000f3c8162000ef7565b840191505092915050565b5f6020820190508181035f83015262000f61818462000f07565b905092915050565b5f81519050919050565b5f819050602082019050919050565b5f62000f8f825162000e37565b80915050919050565b5f62000fa48262000f69565b8262000fb08462000f73565b905062000fbd8162000f82565b92506020821015620010005762000ffb7fffffffffffffffffffffffffffffffffffffffffffffffffffffffffffffffff8360200360080262000959565b831692505b5050919050565b5f6200101382620009ba565b91506200102083620009ba565b92508282019050808211156200103b576200103a62000c14565b5b92915050565b5f606082019050620010565f83018662000be8565b62001065602083018562000e51565b62001074604083018462000e51565b949350505050565b5f602082019050620010915f83018462000e51565b92915050565b60805160a05160c05160e0516101005161012051610140516121cf620010e95f395f610fa201525f610f6701525f61129201525f61127101525f610b5801525f610bae01525f610bd701526121cf5ff3fe608060405234801561000f575f80fd5b5060043610610140575f3560e01c8063715018a6116100b65780638da5cb5b1161007a5780638da5cb5b1461033057806395d89b411461034e578063a9059cbb1461036c578063d505accf1461039c578063dd62ed3e146103b8578063f2fde38b146103e857610140565b8063715018a6146102ac57806379cc6790146102b65780637ecebe00146102d25780638456cb591461030257806384b0196e1461030c57610140565b80633644e515116101085780633644e515146101fe5780633f4ba83a1461021c57806340c10f191461022657806342966c68146102425780635c975abb1461025e57806370a082311461027c57610140565b806306fdde0314610144578063095ea7b31461016257806318160ddd1461019257806323b872dd146101b0578063313ce567146101e0575b5f80fd5b61014c610404565b6040516101599190611a14565b60405180910390f35b61017c60048036038101906101779190611ac5565b610494565b6040516101899190611b1d565b60405180910390f35b61019a6104b6565b6040516101a79190611b45565b60405180910390f35b6101ca60048036038101906101c59190611b5e565b6104bf565b6040516101d79190611b1d565b60405180910390f35b6101e86104ed565b6040516101f59190611bc9565b60405180910390f35b6102066104f5565b6040516102139190611bfa565b60405180910390f35b610224610503565b005b610240600480360381019061023b9190611ac5565b610515565b005b61025c60048036038101906102579190611c13565b61052b565b005b61026661053f565b6040516102739190611b1d565b60405180910390f35b61029660048036038101906102919190611c3e565b610554565b6040516102a39190611b45565b60405180910390f35b6102b4610599565b005b6102d060048036038101906102cb9190611ac5565b6105ac565b005b6102ec60048036038101906102e79190611c3e565b6105cc565b6040516102f99190611b45565b60405180910390f35b61030a6105dd565b005b6103146105ef565b6040516103279796959493929190611d69565b60405180910390f35b610338610694565b6040516103459190611deb565b60405180910390f35b6103566106bd565b6040516103639190611a14565b60405180910390f35b61038660048036038101906103819190611ac5565b61074d565b6040516103939190611b1d565b60405180910390f35b6103b660048036038101906103b19190611e58565b61076f565b005b6103d260048036038101906103cd9190611ef5565b6108b4565b6040516103df9190611b45565b60405180910390f35b61040260048036038101906103fd9190611c3e565b610936565b005b60606003805461041390611f60565b80601f016020809104026020016040519081016040528092919081815260200182805461043f90611f60565b801561048a5780601f106104615761010080835404028352916020019161048a565b820191905f5260205f20905b81548152906001019060200180831161046d57829003601f168201915b5050505050905090565b5f8061049e6109ba565b90506104ab8185856109c1565b600191505092915050565b5f600254905090565b5f806104c96109ba565b90506104d68582856109d3565b6104e1858585610a65565b60019150509392505050565b5f6012905090565b5f6104fe610b55565b905090565b61050b610c0b565b610513610c92565b565b61051d610c0b565b6105278282610cf3565b5050565b61053c6105366109ba565b82610d72565b50565b5f60055f9054906101000a900460ff16905090565b5f805f8373ffffffffffffffffffffffffffffffffffffffff1673ffffffffffffffffffffffffffffffffffffffff1681526020019081526020015f20549050919050565b6105a1610c0b565b6105aa5f610df1565b565b6105be826105b86109ba565b836109d3565b6105c88282610d72565b5050565b5f6105d682610eb6565b9050919050565b6105e5610c0b565b6105ed610efc565b565b5f6060805f805f6060610600610f5e565b610608610f99565b46305f801b5f67ffffffffffffffff81111561062757610626611f90565b5b6040519080825280602002602001820160405280156106555781602001602082028036833780820191505090505b507f0f00000000000000000000000000000000000000000000000000000000000000959493929190965096509650965096509650965090919293949596565b5f600560019054906101000a900473ffffffffffffffffffffffffffffffffffffffff16905090565b6060600480546106cc90611f60565b80601f01602080910402602001604051908101604052809291908181526020018280546106f890611f60565b80156107435780601f1061071a57610100808354040283529160200191610743565b820191905f5260205f20905b81548152906001019060200180831161072657829003601f168201915b5050505050905090565b5f806107576109ba565b9050610764818585610a65565b600191505092915050565b834211156107b457836040517f627913020000000000000000000000000000000000000000000000000000000081526004016107ab9190611b45565b60405180910390fd5b5f7f6e71edae12b1b97f4d1f60370fef10105fa2faae0126114a169c64845d6126c98888886107e28c610fd4565b896040516020016107f896959493929190611fbd565b6040516020818303038152906040528051906020012090505f61081a82611027565b90505f61082982878787611040565b90508973ffffffffffffffffffffffffffffffffffffffff168173ffffffffffffffffffffffffffffffffffffffff161461089d57808a6040517f4b800e4600000000000000000000000000000000000000000000000000000000815260040161089492919061201c565b60405180910390fd5b6108a88a8a8a6109c1565b50505050505050505050565b5f60015f8473ffffffffffffffffffffffffffffffffffffffff1673ffffffffffffffffffffffffffffffffffffffff1681526020019081526020015f205f8373ffffffffffffffffffffffffffffffffffffffff1673ffffffffffffffffffffffffffffffffffffffff1681526020019081526020015f2054905092915050565b61093e610c0b565b5f73ffffffffffffffffffffffffffffffffffffffff168173ffffffffffffffffffffffffffffffffffffffff16036109ae575f6040517f1e4fbdf70000000000000000000000000000000000000000000000000000000081526004016109a59190611deb565b60405180910390fd5b6109b781610df1565b50565b5f33905090565b6109ce838383600161106e565b505050565b5f6109de84846108b4565b90507fffffffffffffffffffffffffffffffffffffffffffffffffffffffffffffffff8114610a5f5781811015610a50578281836040517ffb8f41b2000000000000000000000000000000000000000000000000000000008152600401610a4793929190612043565b60405180910390fd5b610a5e84848484035f61106e565b5b50505050565b5f73ffffffffffffffffffffffffffffffffffffffff168373ffffffffffffffffffffffffffffffffffffffff1603610ad5575f6040517f96c6fd1e000000000000000000000000000000000000000000000000000000008152600401610acc9190611deb565b60405180910390fd5b5f73ffffffffffffffffffffffffffffffffffffffff168273ffffffffffffffffffffffffffffffffffffffff1603610b45575f6040517fec442f05000000000000000000000000000000000000000000000000000000008152600401610b3c9190611deb565b60405180910390fd5b610b5083838361123d565b505050565b5f7f000000000000000000000000000000000000000000000000000000000000000073ffffffffffffffffffffffffffffffffffffffff163073ffffffffffffffffffffffffffffffffffffffff16148015610bd057507f000000000000000000000000000000000000000000000000000000000000000046145b15610bfd577f00000000000000000000000000000000000000000000000000000000000000009050610c08565b610c0561124d565b90505b90565b610c136109ba565b73ffffffffffffffffffffffffffffffffffffffff16610c31610694565b73ffffffffffffffffffffffffffffffffffffffff1614610c9057610c546109ba565b6040517f118cdaa7000000000000000000000000000000000000000000000000000000008152600401610c879190611deb565b60405180910390fd5b565b610c9a6112e2565b5f60055f6101000a81548160ff0219169083151502179055507f5db9ee0a495bf2e6ff9c91a7834c1ba4fdd244a5e8aa4e537bd38aeae4b073aa610cdc6109ba565b604051610ce99190611deb565b60405180910390a1565b5f73ffffffffffffffffffffffffffffffffffffffff168273ffffffffffffffffffffffffffffffffffffffff1603610d63575f6040517fec442f05000000000000000000000000000000000000000000000000000000008152600401610d5a9190611deb565b60405180910390fd5b610d6e5f838361123d565b5050565b5f73ffffffffffffffffffffffffffffffffffffffff168273ffffffffffffffffffffffffffffffffffffffff1603610de2575f6040517f96c6fd1e000000000000000000000000000000000000000000000000000000008152600401610dd99190611deb565b60405180910390fd5b610ded825f8361123d565b5050565b5f600560019054906101000a900473ffffffffffffffffffffffffffffffffffffffff16905081600560016101000a81548173ffffffffffffffffffffffffffffffffffffffff021916908373ffffffffffffffffffffffffffffffffffffffff1602179055508173ffffffffffffffffffffffffffffffffffffffff168173ffffffffffffffffffffffffffffffffffffffff167f8be0079c531659141344cd1fd0a4f28419497f9722a3daafe3b4186f6b6457e060405160405180910390a35050565b5f60085f8373ffffffffffffffffffffffffffffffffffffffff1673ffffffffffffffffffffffffffffffffffffffff1681526020019081526020015f20549050919050565b610f04611322565b600160055f6101000a81548160ff0219169083151502179055507f62e78cea01bee320cd4e420270b5ea74000d11b0c9f74754ebdbfc544b05a258610f476109ba565b604051610f549190611deb565b60405180910390a1565b6060610f9460067f000000000000000000000000000000000000000000000000000000000000000061136390919063ffffffff16565b905090565b6060610fcf60077f000000000000000000000000000000000000000000000000000000000000000061136390919063ffffffff16565b905090565b5f60085f8373ffffffffffffffffffffffffffffffffffffffff1673ffffffffffffffffffffffffffffffffffffffff1681526020019081526020015f205f815480929190600101919050559050919050565b5f611039611033610b55565b83611410565b9050919050565b5f805f8061105088888888611450565b9250925092506110608282611537565b829350505050949350505050565b5f73ffffffffffffffffffffffffffffffffffffffff168473ffffffffffffffffffffffffffffffffffffffff16036110de575f6040517fe602df050000000000000000000000000000000000000000000000000000000081526004016110d59190611deb565b60405180910390fd5b5f73ffffffffffffffffffffffffffffffffffffffff168373ffffffffffffffffffffffffffffffffffffffff160361114e575f6040517f94280d620000000000000000000000000000000000000000000000000000000081526004016111459190611deb565b60405180910390fd5b8160015f8673ffffffffffffffffffffffffffffffffffffffff1673ffffffffffffffffffffffffffffffffffffffff1681526020019081526020015f205f8573ffffffffffffffffffffffffffffffffffffffff1673ffffffffffffffffffffffffffffffffffffffff1681526020019081526020015f20819055508015611237578273ffffffffffffffffffffffffffffffffffffffff168473ffffffffffffffffffffffffffffffffffffffff167f8c5be1e5ebec7d5bd14f71427d1e84f3dd0314c0f7b2291e5b200ac8c7c3b9258460405161122e9190611b45565b60405180910390a35b50505050565b611248838383611699565b505050565b5f7f8b73c3c69bb8fe3d512ecc4cf759cc79239f7b179b0ffacaa9a75d522b39400f7f00000000000000000000000000000000000000000000000000000000000000007f000000000000000000000000000000000000000000000000000000000000000046306040516020016112c7959493929190612078565b60405160208183030381529060405280519060200120905090565b6112ea61053f565b611320576040517f8dfc202b00000000000000000000000000000000000000000000000000000000815260040160405180910390fd5b565b61132a61053f565b15611361576040517fd93c066500000000000000000000000000000000000000000000000000000000815260040160405180910390fd5b565b606060ff5f1b831461137f57611378836116b1565b905061140a565b81805461138b90611f60565b80601f01602080910402602001604051908101604052809291908181526020018280546113b790611f60565b80156114025780601f106113d957610100808354040283529160200191611402565b820191905f5260205f20905b8154815290600101906020018083116113e557829003601f168201915b505050505090505b92915050565b5f6040517f190100000000000000000000000000000000000000000000000000000000000081528360028201528260228201526042812091505092915050565b5f805f7f7fffffffffffffffffffffffffffffff5d576e7357a4501ddfe92f46681b20a0845f1c111561148c575f60038592509250925061152d565b5f6001888888886040515f81526020016040526040516114af94939291906120c9565b6020604051602081039080840390855afa1580156114cf573d5f803e3d5ffd5b5050506020604051035190505f73ffffffffffffffffffffffffffffffffffffffff168173ffffffffffffffffffffffffffffffffffffffff1603611520575f60015f801b9350935093505061152d565b805f805f1b935093509350505b9450945094915050565b5f600381111561154a5761154961210c565b5b82600381111561155d5761155c61210c565b5b031561169557600160038111156115775761157661210c565b5b82600381111561158a5761158961210c565b5b036115c1576040517ff645eedf00000000000000000000000000000000000000000000000000000000815260040160405180910390fd5b600260038111156115d5576115d461210c565b5b8260038111156115e8576115e761210c565b5b0361162c57805f1c6040517ffce698f70000000000000000000000000000000000000000000000000000000081526004016116239190611b45565b60405180910390fd5b60038081111561163f5761163e61210c565b5b8260038111156116525761165161210c565b5b0361169457806040517fd78bce0c00000000000000000000000000000000000000000000000000000000815260040161168b9190611bfa565b60405180910390fd5b5b5050565b6116a1611322565b6116ac838383611723565b505050565b60605f6116bd8361193c565b90505f602067ffffffffffffffff8111156116db576116da611f90565b5b6040519080825280601f01601f19166020018201604052801561170d5781602001600182028036833780820191505090505b5090508181528360208201528092505050919050565b5f73ffffffffffffffffffffffffffffffffffffffff168373ffffffffffffffffffffffffffffffffffffffff1603611773578060025f8282546117679190612166565b92505081905550611841565b5f805f8573ffffffffffffffffffffffffffffffffffffffff1673ffffffffffffffffffffffffffffffffffffffff1681526020019081526020015f20549050818110156117fc578381836040517fe450d38c0000000000000000000000000000000000000000000000000000000081526004016117f393929190612043565b60405180910390fd5b8181035f808673ffffffffffffffffffffffffffffffffffffffff1673ffffffffffffffffffffffffffffffffffffffff1681526020019081526020015f2081905550505b5f73ffffffffffffffffffffffffffffffffffffffff168273ffffffffffffffffffffffffffffffffffffffff1603611888578060025f82825403925050819055506118d2565b805f808473ffffffffffffffffffffffffffffffffffffffff1673ffffffffffffffffffffffffffffffffffffffff1681526020019081526020015f205f82825401925050819055505b8173ffffffffffffffffffffffffffffffffffffffff168373ffffffffffffffffffffffffffffffffffffffff167fddf252ad1be2c89b69c2b068fc378daa952ba7f163c4a11628f55a4df523b3ef8360405161192f9190611b45565b60405180910390a3505050565b5f8060ff835f1c169050601f811115611981576040517fb3512b0c00000000000000000000000000000000000000000000000000000000815260040160405180910390fd5b80915050919050565b5f81519050919050565b5f82825260208201905092915050565b5f5b838110156119c15780820151818401526020810190506119a6565b5f8484015250505050565b5f601f19601f8301169050919050565b5f6119e68261198a565b6119f08185611994565b9350611a008185602086016119a4565b611a09816119cc565b840191505092915050565b5f6020820190508181035f830152611a2c81846119dc565b905092915050565b5f80fd5b5f73ffffffffffffffffffffffffffffffffffffffff82169050919050565b5f611a6182611a38565b9050919050565b611a7181611a57565b8114611a7b575f80fd5b50565b5f81359050611a8c81611a68565b92915050565b5f819050919050565b611aa481611a92565b8114611aae575f80fd5b50565b5f81359050611abf81611a9b565b92915050565b5f8060408385031215611adb57611ada611a34565b5b5f611ae885828601611a7e565b9250506020611af985828601611ab1565b9150509250929050565b5f8115159050919050565b611b1781611b03565b82525050565b5f602082019050611b305f830184611b0e565b92915050565b611b3f81611a92565b82525050565b5f602082019050611b585f830184611b36565b92915050565b5f805f60608486031215611b7557611b74611a34565b5b5f611b8286828701611a7e565b9350506020611b9386828701611a7e565b9250506040611ba486828701611ab1565b9150509250925092565b5f60ff82169050919050565b611bc381611bae565b82525050565b5f602082019050611bdc5f830184611bba565b92915050565b5f819050919050565b611bf481611be2565b82525050565b5f602082019050611c0d5f830184611beb565b92915050565b5f60208284031215611c2857611c27611a34565b5b5f611c3584828501611ab1565b91505092915050565b5f60208284031215611c5357611c52611a34565b5b5f611c6084828501611a7e565b91505092915050565b5f7fff0000000000000000000000000000000000000000000000000000000000000082169050919050565b611c9d81611c69565b82525050565b611cac81611a57565b82525050565b5f81519050919050565b5f82825260208201905092915050565b5f819050602082019050919050565b611ce481611a92565b82525050565b5f611cf58383611cdb565b60208301905092915050565b5f602082019050919050565b5f611d1782611cb2565b611d218185611cbc565b9350611d2c83611ccc565b805f5b83811015611d5c578151611d438882611cea565b9750611d4e83611d01565b925050600181019050611d2f565b5085935050505092915050565b5f60e082019050611d7c5f83018a611c94565b8181036020830152611d8e81896119dc565b90508181036040830152611da281886119dc565b9050611db16060830187611b36565b611dbe6080830186611ca3565b611dcb60a0830185611beb565b81810360c0830152611ddd8184611d0d565b905098975050505050505050565b5f602082019050611dfe5f830184611ca3565b92915050565b611e0d81611bae565b8114611e17575f80fd5b50565b5f81359050611e2881611e04565b92915050565b611e3781611be2565b8114611e41575f80fd5b50565b5f81359050611e5281611e2e565b92915050565b5f805f805f805f60e0888a031215611e7357611e72611a34565b5b5f611e808a828b01611a7e565b9750506020611e918a828b01611a7e565b9650506040611ea28a828b01611ab1565b9550506060611eb38a828b01611ab1565b9450506080611ec48a828b01611e1a565b93505060a0611ed58a828b01611e44565b92505060c0611ee68a828b01611e44565b91505092959891949750929550565b5f8060408385031215611f0b57611f0a611a34565b5b5f611f1885828601611a7e565b9250506020611f2985828601611a7e565b9150509250929050565b7f4e487b71000000000000000000000000000000000000000000000000000000005f52602260045260245ffd5b5f6002820490506001821680611f7757607f821691505b602082108103611f8a57611f89611f33565b5b50919050565b7f4e487b71000000000000000000000000000000000000000000000000000000005f52604160045260245ffd5b5f60c082019050611fd05f830189611beb565b611fdd6020830188611ca3565b611fea6040830187611ca3565b611ff76060830186611b36565b6120046080830185611b36565b61201160a0830184611b36565b979650505050505050565b5f60408201905061202f5f830185611ca3565b61203c6020830184611ca3565b9392505050565b5f6060820190506120565f830186611ca3565b6120636020830185611b36565b6120706040830184611b36565b949350505050565b5f60a08201905061208b5f830188611beb565b6120986020830187611beb565b6120a56040830186611beb565b6120b26060830185611b36565b6120bf6080830184611ca3565b9695505050505050565b5f6080820190506120dc5f830187611beb565b6120e96020830186611bba565b6120f66040830185611beb565b6121036060830184611beb565b95945050505050565b7f4e487b71000000000000000000000000000000000000000000000000000000005f52602160045260245ffd5b7f4e487b71000000000000000000000000000000000000000000000000000000005f52601160045260245ffd5b5f61217082611a92565b915061217b83611a92565b925082820190508082111561219357612192612139565b5b9291505056fea2646970667358221220ad3948f7005a1c3554453c469dc81a81de0d7522bf2b079561631841a967f48664736f6c63430008140033",
					"opcodes": "PUSH2 0x160 PUSH1 0x40 MSTORE CALLVALUE DUP1 ISZERO PUSH3 0x11 JUMPI PUSH0 DUP1 REVERT JUMPDEST POP PUSH1 0x40 MLOAD PUSH3 0x32B8 CODESIZE SUB DUP1 PUSH3 0x32B8 DUP4 CODECOPY DUP2 DUP2 ADD PUSH1 0x40 MSTORE DUP2 ADD SWAP1 PUSH3 0x37 SWAP2 SWAP1 PUSH3 0x870 JUMP JUMPDEST PUSH1 0x40 MLOAD DUP1 PUSH1 0x40 ADD PUSH1 0x40 MSTORE DUP1 PUSH1 0x5 DUP2 MSTORE PUSH1 0x20 ADD PUSH32 0x564547414E000000000000000000000000000000000000000000000000000000 DUP2 MSTORE POP DUP1 PUSH1 0x40 MLOAD DUP1 PUSH1 0x40 ADD PUSH1 0x40 MSTORE DUP1 PUSH1 0x1 DUP2 MSTORE PUSH1 0x20 ADD PUSH32 0x3100000000000000000000000000000000000000000000000000000000000000 DUP2 MSTORE POP DUP4 PUSH1 0x40 MLOAD DUP1 PUSH1 0x40 ADD PUSH1 0x40 MSTORE DUP1 PUSH1 0x5 DUP2 MSTORE PUSH1 0x20 ADD PUSH32 0x564547414E000000000000000000000000000000000000000000000000000000 DUP2 MSTORE POP PUSH1 0x40 MLOAD DUP1 PUSH1 0x40 ADD PUSH1 0x40 MSTORE DUP1 PUSH1 0x3 DUP2 MSTORE PUSH1 0x20 ADD PUSH32 0x56474E0000000000000000000000000000000000000000000000000000000000 DUP2 MSTORE POP DUP2 PUSH1 0x3 SWAP1 DUP2 PUSH3 0x122 SWAP2 SWAP1 PUSH3 0xB04 JUMP JUMPDEST POP DUP1 PUSH1 0x4 SWAP1 DUP2 PUSH3 0x134 SWAP2 SWAP1 PUSH3 0xB04 JUMP JUMPDEST POP POP POP PUSH0 PUSH1 0x5 PUSH0 PUSH2 0x100 EXP DUP2 SLOAD DUP2 PUSH1 0xFF MUL NOT AND SWAP1 DUP4 ISZERO ISZERO MUL OR SWAP1 SSTORE POP PUSH0 PUSH20 0xFFFFFFFFFFFFFFFFFFFFFFFFFFFFFFFFFFFFFFFF AND DUP2 PUSH20 0xFFFFFFFFFFFFFFFFFFFFFFFFFFFFFFFFFFFFFFFF AND SUB PUSH3 0x1C3 JUMPI PUSH0 PUSH1 0x40 MLOAD PUSH32 0x1E4FBDF700000000000000000000000000000000000000000000000000000000 DUP2 MSTORE PUSH1 0x4 ADD PUSH3 0x1BA SWAP2 SWAP1 PUSH3 0xBF9 JUMP JUMPDEST PUSH1 0x40 MLOAD DUP1 SWAP2 SUB SWAP1 REVERT JUMPDEST PUSH3 0x1D4 DUP2 PUSH3 0x2CD PUSH1 0x20 SHL PUSH1 0x20 SHR JUMP JUMPDEST POP PUSH3 0x1EB PUSH1 0x6 DUP4 PUSH3 0x392 PUSH1 0x20 SHL SWAP1 SWAP2 SWAP1 PUSH1 0x20 SHR JUMP JUMPDEST PUSH2 0x120 DUP2 DUP2 MSTORE POP POP PUSH3 0x209 PUSH1 0x7 DUP3 PUSH3 0x392 PUSH1 0x20 SHL SWAP1 SWAP2 SWAP1 PUSH1 0x20 SHR JUMP JUMPDEST PUSH2 0x140 DUP2 DUP2 MSTORE POP POP DUP2 DUP1 MLOAD SWAP1 PUSH1 0x20 ADD KECCAK256 PUSH1 0xE0 DUP2 DUP2 MSTORE POP POP DUP1 DUP1 MLOAD SWAP1 PUSH1 0x20 ADD KECCAK256 PUSH2 0x100 DUP2 DUP2 MSTORE POP POP CHAINID PUSH1 0xA0 DUP2 DUP2 MSTORE POP POP PUSH3 0x248 PUSH3 0x3E7 PUSH1 0x20 SHL PUSH1 0x20 SHR JUMP JUMPDEST PUSH1 0x80 DUP2 DUP2 MSTORE POP POP ADDRESS PUSH20 0xFFFFFFFFFFFFFFFFFFFFFFFFFFFFFFFFFFFFFFFF AND PUSH1 0xC0 DUP2 PUSH20 0xFFFFFFFFFFFFFFFFFFFFFFFFFFFFFFFFFFFFFFFF AND DUP2 MSTORE POP POP POP POP POP PUSH3 0x2C6 CALLER PUSH3 0x29B PUSH3 0x443 PUSH1 0x20 SHL PUSH1 0x20 SHR JUMP JUMPDEST PUSH1 0xA PUSH3 0x2A9 SWAP2 SWAP1 PUSH3 0xD9D JUMP JUMPDEST PUSH4 0x1406F40 PUSH3 0x2BA SWAP2 SWAP1 PUSH3 0xDED JUMP JUMPDEST PUSH3 0x44B PUSH1 0x20 SHL PUSH1 0x20 SHR JUMP JUMPDEST POP PUSH3 0x1097 JUMP JUMPDEST PUSH0 PUSH1 0x5 PUSH1 0x1 SWAP1 SLOAD SWAP1 PUSH2 0x100 EXP SWAP1 DIV PUSH20 0xFFFFFFFFFFFFFFFFFFFFFFFFFFFFFFFFFFFFFFFF AND SWAP1 POP DUP2 PUSH1 0x5 PUSH1 0x1 PUSH2 0x100 EXP DUP2 SLOAD DUP2 PUSH20 0xFFFFFFFFFFFFFFFFFFFFFFFFFFFFFFFFFFFFFFFF MUL NOT AND SWAP1 DUP4 PUSH20 0xFFFFFFFFFFFFFFFFFFFFFFFFFFFFFFFFFFFFFFFF AND MUL OR SWAP1 SSTORE POP DUP2 PUSH20 0xFFFFFFFFFFFFFFFFFFFFFFFFFFFFFFFFFFFFFFFF AND DUP2 PUSH20 0xFFFFFFFFFFFFFFFFFFFFFFFFFFFFFFFFFFFFFFFF AND PUSH32 0x8BE0079C531659141344CD1FD0A4F28419497F9722A3DAAFE3B4186F6B6457E0 PUSH1 0x40 MLOAD PUSH1 0x40 MLOAD DUP1 SWAP2 SUB SWAP1 LOG3 POP POP JUMP JUMPDEST PUSH0 PUSH1 0x20 DUP4 MLOAD LT ISZERO PUSH3 0x3B7 JUMPI PUSH3 0x3AF DUP4 PUSH3 0x4D5 PUSH1 0x20 SHL PUSH1 0x20 SHR JUMP JUMPDEST SWAP1 POP PUSH3 0x3E1 JUMP JUMPDEST DUP3 PUSH3 0x3C9 DUP4 PUSH3 0x53F PUSH1 0x20 SHL PUSH1 0x20 SHR JUMP JUMPDEST PUSH0 ADD SWAP1 DUP2 PUSH3 0x3D9 SWAP2 SWAP1 PUSH3 0xB04 JUMP JUMPDEST POP PUSH1 0xFF PUSH0 SHL SWAP1 POP JUMPDEST SWAP3 SWAP2 POP POP JUMP JUMPDEST PUSH0 PUSH32 0x8B73C3C69BB8FE3D512ECC4CF759CC79239F7B179B0FFACAA9A75D522B39400F PUSH1 0xE0 MLOAD PUSH2 0x100 MLOAD CHAINID ADDRESS PUSH1 0x40 MLOAD PUSH1 0x20 ADD PUSH3 0x428 SWAP6 SWAP5 SWAP4 SWAP3 SWAP2 SWAP1 PUSH3 0xE62 JUMP JUMPDEST PUSH1 0x40 MLOAD PUSH1 0x20 DUP2 DUP4 SUB SUB DUP2 MSTORE SWAP1 PUSH1 0x40 MSTORE DUP1 MLOAD SWAP1 PUSH1 0x20 ADD KECCAK256 SWAP1 POP SWAP1 JUMP JUMPDEST PUSH0 PUSH1 0x12 SWAP1 POP SWAP1 JUMP JUMPDEST PUSH0 PUSH20 0xFFFFFFFFFFFFFFFFFFFFFFFFFFFFFFFFFFFFFFFF AND DUP3 PUSH20 0xFFFFFFFFFFFFFFFFFFFFFFFFFFFFFFFFFFFFFFFF AND SUB PUSH3 0x4BE JUMPI PUSH0 PUSH1 0x40 MLOAD PUSH32 0xEC442F0500000000000000000000000000000000000000000000000000000000 DUP2 MSTORE PUSH1 0x4 ADD PUSH3 0x4B5 SWAP2 SWAP1 PUSH3 0xBF9 JUMP JUMPDEST PUSH1 0x40 MLOAD DUP1 SWAP2 SUB SWAP1 REVERT JUMPDEST PUSH3 0x4D1 PUSH0 DUP4 DUP4 PUSH3 0x548 PUSH1 0x20 SHL PUSH1 0x20 SHR JUMP JUMPDEST POP POP JUMP JUMPDEST PUSH0 DUP1 DUP3 SWAP1 POP PUSH1 0x1F DUP2 MLOAD GT ISZERO PUSH3 0x524 JUMPI DUP3 PUSH1 0x40 MLOAD PUSH32 0x305A27A900000000000000000000000000000000000000000000000000000000 DUP2 MSTORE PUSH1 0x4 ADD PUSH3 0x51B SWAP2 SWAP1 PUSH3 0xF47 JUMP JUMPDEST PUSH1 0x40 MLOAD DUP1 SWAP2 SUB SWAP1 REVERT JUMPDEST DUP1 MLOAD DUP2 PUSH3 0x532 SWAP1 PUSH3 0xF98 JUMP JUMPDEST PUSH0 SHR OR PUSH0 SHL SWAP2 POP POP SWAP2 SWAP1 POP JUMP JUMPDEST PUSH0 DUP2 SWAP1 POP SWAP2 SWAP1 POP JUMP JUMPDEST PUSH3 0x55B DUP4 DUP4 DUP4 PUSH3 0x560 PUSH1 0x20 SHL PUSH1 0x20 SHR JUMP JUMPDEST POP POP POP JUMP JUMPDEST PUSH3 0x570 PUSH3 0x588 PUSH1 0x20 SHL PUSH1 0x20 SHR JUMP JUMPDEST PUSH3 0x583 DUP4 DUP4 DUP4 PUSH3 0x5D2 PUSH1 0x20 SHL PUSH1 0x20 SHR JUMP JUMPDEST POP POP POP JUMP JUMPDEST PUSH3 0x598 PUSH3 0x7F6 PUSH1 0x20 SHL PUSH1 0x20 SHR JUMP JUMPDEST ISZERO PUSH3 0x5D0 JUMPI PUSH1 0x40 MLOAD PUSH32 0xD93C066500000000000000000000000000000000000000000000000000000000 DUP2 MSTORE PUSH1 0x4 ADD PUSH1 0x40 MLOAD DUP1 SWAP2 SUB SWAP1 REVERT JUMPDEST JUMP JUMPDEST PUSH0 PUSH20 0xFFFFFFFFFFFFFFFFFFFFFFFFFFFFFFFFFFFFFFFF AND DUP4 PUSH20 0xFFFFFFFFFFFFFFFFFFFFFFFFFFFFFFFFFFFFFFFF AND SUB PUSH3 0x626 JUMPI DUP1 PUSH1 0x2 PUSH0 DUP3 DUP3 SLOAD PUSH3 0x619 SWAP2 SWAP1 PUSH3 0x1007 JUMP JUMPDEST SWAP3 POP POP DUP2 SWAP1 SSTORE POP PUSH3 0x6F7 JUMP JUMPDEST PUSH0 DUP1 PUSH0 DUP6 PUSH20 0xFFFFFFFFFFFFFFFFFFFFFFFFFFFFFFFFFFFFFFFF AND PUSH20 0xFFFFFFFFFFFFFFFFFFFFFFFFFFFFFFFFFFFFFFFF AND DUP2 MSTORE PUSH1 0x20 ADD SWAP1 DUP2 MSTORE PUSH1 0x20 ADD PUSH0 KECCAK256 SLOAD SWAP1 POP DUP2 DUP2 LT ISZERO PUSH3 0x6B2 JUMPI DUP4 DUP2 DUP4 PUSH1 0x40 MLOAD PUSH32 0xE450D38C00000000000000000000000000000000000000000000000000000000 DUP2 MSTORE PUSH1 0x4 ADD PUSH3 0x6A9 SWAP4 SWAP3 SWAP2 SWAP1 PUSH3 0x1041 JUMP JUMPDEST PUSH1 0x40 MLOAD DUP1 SWAP2 SUB SWAP1 REVERT JUMPDEST DUP2 DUP2 SUB PUSH0 DUP1 DUP7 PUSH20 0xFFFFFFFFFFFFFFFFFFFFFFFFFFFFFFFFFFFFFFFF AND PUSH20 0xFFFFFFFFFFFFFFFFFFFFFFFFFFFFFFFFFFFFFFFF AND DUP2 MSTORE PUSH1 0x20 ADD SWAP1 DUP2 MSTORE PUSH1 0x20 ADD PUSH0 KECCAK256 DUP2 SWAP1 SSTORE POP POP JUMPDEST PUSH0 PUSH20 0xFFFFFFFFFFFFFFFFFFFFFFFFFFFFFFFFFFFFFFFF AND DUP3 PUSH20 0xFFFFFFFFFFFFFFFFFFFFFFFFFFFFFFFFFFFFFFFF AND SUB PUSH3 0x740 JUMPI DUP1 PUSH1 0x2 PUSH0 DUP3 DUP3 SLOAD SUB SWAP3 POP POP DUP2 SWAP1 SSTORE POP PUSH3 0x78A JUMP JUMPDEST DUP1 PUSH0 DUP1 DUP5 PUSH20 0xFFFFFFFFFFFFFFFFFFFFFFFFFFFFFFFFFFFFFFFF AND PUSH20 0xFFFFFFFFFFFFFFFFFFFFFFFFFFFFFFFFFFFFFFFF AND DUP2 MSTORE PUSH1 0x20 ADD SWAP1 DUP2 MSTORE PUSH1 0x20 ADD PUSH0 KECCAK256 PUSH0 DUP3 DUP3 SLOAD ADD SWAP3 POP POP DUP2 SWAP1 SSTORE POP JUMPDEST DUP2 PUSH20 0xFFFFFFFFFFFFFFFFFFFFFFFFFFFFFFFFFFFFFFFF AND DUP4 PUSH20 0xFFFFFFFFFFFFFFFFFFFFFFFFFFFFFFFFFFFFFFFF AND PUSH32 0xDDF252AD1BE2C89B69C2B068FC378DAA952BA7F163C4A11628F55A4DF523B3EF DUP4 PUSH1 0x40 MLOAD PUSH3 0x7E9 SWAP2 SWAP1 PUSH3 0x107C JUMP JUMPDEST PUSH1 0x40 MLOAD DUP1 SWAP2 SUB SWAP1 LOG3 POP POP POP JUMP JUMPDEST PUSH0 PUSH1 0x5 PUSH0 SWAP1 SLOAD SWAP1 PUSH2 0x100 EXP SWAP1 DIV PUSH1 0xFF AND SWAP1 POP SWAP1 JUMP JUMPDEST PUSH0 DUP1 REVERT JUMPDEST PUSH0 PUSH20 0xFFFFFFFFFFFFFFFFFFFFFFFFFFFFFFFFFFFFFFFF DUP3 AND SWAP1 POP SWAP2 SWAP1 POP JUMP JUMPDEST PUSH0 PUSH3 0x83A DUP3 PUSH3 0x80F JUMP JUMPDEST SWAP1 POP SWAP2 SWAP1 POP JUMP JUMPDEST PUSH3 0x84C DUP2 PUSH3 0x82E JUMP JUMPDEST DUP2 EQ PUSH3 0x857 JUMPI PUSH0 DUP1 REVERT JUMPDEST POP JUMP JUMPDEST PUSH0 DUP2 MLOAD SWAP1 POP PUSH3 0x86A DUP2 PUSH3 0x841 JUMP JUMPDEST SWAP3 SWAP2 POP POP JUMP JUMPDEST PUSH0 PUSH1 0x20 DUP3 DUP5 SUB SLT ISZERO PUSH3 0x888 JUMPI PUSH3 0x887 PUSH3 0x80B JUMP JUMPDEST JUMPDEST PUSH0 PUSH3 0x897 DUP5 DUP3 DUP6 ADD PUSH3 0x85A JUMP JUMPDEST SWAP2 POP POP SWAP3 SWAP2 POP POP JUMP JUMPDEST PUSH0 DUP2 MLOAD SWAP1 POP SWAP2 SWAP1 POP JUMP JUMPDEST PUSH32 0x4E487B7100000000000000000000000000000000000000000000000000000000 PUSH0 MSTORE PUSH1 0x41 PUSH1 0x4 MSTORE PUSH1 0x24 PUSH0 REVERT JUMPDEST PUSH32 0x4E487B7100000000000000000000000000000000000000000000000000000000 PUSH0 MSTORE PUSH1 0x22 PUSH1 0x4 MSTORE PUSH1 0x24 PUSH0 REVERT JUMPDEST PUSH0 PUSH1 0x2 DUP3 DIV SWAP1 POP PUSH1 0x1 DUP3 AND DUP1 PUSH3 0x91C JUMPI PUSH1 0x7F DUP3 AND SWAP2 POP JUMPDEST PUSH1 0x20 DUP3 LT DUP2 SUB PUSH3 0x932 JUMPI PUSH3 0x931 PUSH3 0x8D7 JUMP JUMPDEST JUMPDEST POP SWAP2 SWAP1 POP JUMP JUMPDEST PUSH0 DUP2 SWAP1 POP DUP2 PUSH0 MSTORE PUSH1 0x20 PUSH0 KECCAK256 SWAP1 POP SWAP2 SWAP1 POP JUMP JUMPDEST PUSH0 PUSH1 0x20 PUSH1 0x1F DUP4 ADD DIV SWAP1 POP SWAP2 SWAP1 POP JUMP JUMPDEST PUSH0 DUP3 DUP3 SHL SWAP1 POP SWAP3 SWAP2 POP POP JUMP JUMPDEST PUSH0 PUSH1 0x8 DUP4 MUL PUSH3 0x996 PUSH32 0xFFFFFFFFFFFFFFFFFFFFFFFFFFFFFFFFFFFFFFFFFFFFFFFFFFFFFFFFFFFFFFFF DUP3 PUSH3 0x959 JUMP JUMPDEST PUSH3 0x9A2 DUP7 DUP4 PUSH3 0x959 JUMP JUMPDEST SWAP6 POP DUP1 NOT DUP5 AND SWAP4 POP DUP1 DUP7 AND DUP5 OR SWAP3 POP POP POP SWAP4 SWAP3 POP POP POP JUMP JUMPDEST PUSH0 DUP2 SWAP1 POP SWAP2 SWAP1 POP JUMP JUMPDEST PUSH0 DUP2 SWAP1 POP SWAP2 SWAP1 POP JUMP JUMPDEST PUSH0 PUSH3 0x9EC PUSH3 0x9E6 PUSH3 0x9E0 DUP5 PUSH3 0x9BA JUMP JUMPDEST PUSH3 0x9C3 JUMP JUMPDEST PUSH3 0x9BA JUMP JUMPDEST SWAP1 POP SWAP2 SWAP1 POP JUMP JUMPDEST PUSH0 DUP2 SWAP1 POP SWAP2 SWAP1 POP JUMP JUMPDEST PUSH3 0xA07 DUP4 PUSH3 0x9CC JUMP JUMPDEST PUSH3 0xA1F PUSH3 0xA16 DUP3 PUSH3 0x9F3 JUMP JUMPDEST DUP5 DUP5 SLOAD PUSH3 0x965 JUMP JUMPDEST DUP3 SSTORE POP POP POP POP JUMP JUMPDEST PUSH0 SWAP1 JUMP JUMPDEST PUSH3 0xA35 PUSH3 0xA27 JUMP JUMPDEST PUSH3 0xA42 DUP2 DUP5 DUP5 PUSH3 0x9FC JUMP JUMPDEST POP POP POP JUMP JUMPDEST JUMPDEST DUP2 DUP2 LT ISZERO PUSH3 0xA69 JUMPI PUSH3 0xA5D PUSH0 DUP3 PUSH3 0xA2B JUMP JUMPDEST PUSH1 0x1 DUP2 ADD SWAP1 POP PUSH3 0xA48 JUMP JUMPDEST POP POP JUMP JUMPDEST PUSH1 0x1F DUP3 GT ISZERO PUSH3 0xAB8 JUMPI PUSH3 0xA82 DUP2 PUSH3 0x938 JUMP JUMPDEST PUSH3 0xA8D DUP5 PUSH3 0x94A JUMP JUMPDEST DUP2 ADD PUSH1 0x20 DUP6 LT ISZERO PUSH3 0xA9D JUMPI DUP2 SWAP1 POP JUMPDEST PUSH3 0xAB5 PUSH3 0xAAC DUP6 PUSH3 0x94A JUMP JUMPDEST DUP4 ADD DUP3 PUSH3 0xA47 JUMP JUMPDEST POP POP JUMPDEST POP POP POP JUMP JUMPDEST PUSH0 DUP3 DUP3 SHR SWAP1 POP SWAP3 SWAP2 POP POP JUMP JUMPDEST PUSH0 PUSH3 0xADA PUSH0 NOT DUP5 PUSH1 0x8 MUL PUSH3 0xABD JUMP JUMPDEST NOT DUP1 DUP4 AND SWAP2 POP POP SWAP3 SWAP2 POP POP JUMP JUMPDEST PUSH0 PUSH3 0xAF4 DUP4 DUP4 PUSH3 0xAC9 JUMP JUMPDEST SWAP2 POP DUP3 PUSH1 0x2 MUL DUP3 OR SWAP1 POP SWAP3 SWAP2 POP POP JUMP JUMPDEST PUSH3 0xB0F DUP3 PUSH3 0x8A0 JUMP JUMPDEST PUSH8 0xFFFFFFFFFFFFFFFF DUP2 GT ISZERO PUSH3 0xB2B JUMPI PUSH3 0xB2A PUSH3 0x8AA JUMP JUMPDEST JUMPDEST PUSH3 0xB37 DUP3 SLOAD PUSH3 0x904 JUMP JUMPDEST PUSH3 0xB44 DUP3 DUP3 DUP6 PUSH3 0xA6D JUMP JUMPDEST PUSH0 PUSH1 0x20 SWAP1 POP PUSH1 0x1F DUP4 GT PUSH1 0x1 DUP2 EQ PUSH3 0xB7A JUMPI PUSH0 DUP5 ISZERO PUSH3 0xB65 JUMPI DUP3 DUP8 ADD MLOAD SWAP1 POP JUMPDEST PUSH3 0xB71 DUP6 DUP3 PUSH3 0xAE7 JUMP JUMPDEST DUP7 SSTORE POP PUSH3 0xBE0 JUMP JUMPDEST PUSH1 0x1F NOT DUP5 AND PUSH3 0xB8A DUP7 PUSH3 0x938 JUMP JUMPDEST PUSH0 JUMPDEST DUP3 DUP2 LT ISZERO PUSH3 0xBB3 JUMPI DUP5 DUP10 ADD MLOAD DUP3 SSTORE PUSH1 0x1 DUP3 ADD SWAP2 POP PUSH1 0x20 DUP6 ADD SWAP5 POP PUSH1 0x20 DUP2 ADD SWAP1 POP PUSH3 0xB8C JUMP JUMPDEST DUP7 DUP4 LT ISZERO PUSH3 0xBD3 JUMPI DUP5 DUP10 ADD MLOAD PUSH3 0xBCF PUSH1 0x1F DUP10 AND DUP3 PUSH3 0xAC9 JUMP JUMPDEST DUP4 SSTORE POP JUMPDEST PUSH1 0x1 PUSH1 0x2 DUP9 MUL ADD DUP9 SSTORE POP POP POP JUMPDEST POP POP POP POP POP POP JUMP JUMPDEST PUSH3 0xBF3 DUP2 PUSH3 0x82E JUMP JUMPDEST DUP3 MSTORE POP POP JUMP JUMPDEST PUSH0 PUSH1 0x20 DUP3 ADD SWAP1 POP PUSH3 0xC0E PUSH0 DUP4 ADD DUP5 PUSH3 0xBE8 JUMP JUMPDEST SWAP3 SWAP2 POP POP JUMP JUMPDEST PUSH32 0x4E487B7100000000000000000000000000000000000000000000000000000000 PUSH0 MSTORE PUSH1 0x11 PUSH1 0x4 MSTORE PUSH1 0x24 PUSH0 REVERT JUMPDEST PUSH0 DUP2 PUSH1 0x1 SHR SWAP1 POP SWAP2 SWAP1 POP JUMP JUMPDEST PUSH0 DUP1 DUP3 SWAP2 POP DUP4 SWAP1 POP JUMPDEST PUSH1 0x1 DUP6 GT ISZERO PUSH3 0xC9E JUMPI DUP1 DUP7 DIV DUP2 GT ISZERO PUSH3 0xC76 JUMPI PUSH3 0xC75 PUSH3 0xC14 JUMP JUMPDEST JUMPDEST PUSH1 0x1 DUP6 AND ISZERO PUSH3 0xC86 JUMPI DUP1 DUP3 MUL SWAP2 POP JUMPDEST DUP1 DUP2 MUL SWAP1 POP PUSH3 0xC96 DUP6 PUSH3 0xC41 JUMP JUMPDEST SWAP5 POP PUSH3 0xC56 JUMP JUMPDEST SWAP5 POP SWAP5 SWAP3 POP POP POP JUMP JUMPDEST PUSH0 DUP3 PUSH3 0xCB8 JUMPI PUSH1 0x1 SWAP1 POP PUSH3 0xD8A JUMP JUMPDEST DUP2 PUSH3 0xCC7 JUMPI PUSH0 SWAP1 POP PUSH3 0xD8A JUMP JUMPDEST DUP2 PUSH1 0x1 DUP2 EQ PUSH3 0xCE0 JUMPI PUSH1 0x2 DUP2 EQ PUSH3 0xCEB JUMPI PUSH3 0xD21 JUMP JUMPDEST PUSH1 0x1 SWAP2 POP POP PUSH3 0xD8A JUMP JUMPDEST PUSH1 0xFF DUP5 GT ISZERO PUSH3 0xD00 JUMPI PUSH3 0xCFF PUSH3 0xC14 JUMP JUMPDEST JUMPDEST DUP4 PUSH1 0x2 EXP SWAP2 POP DUP5 DUP3 GT ISZERO PUSH3 0xD1A JUMPI PUSH3 0xD19 PUSH3 0xC14 JUMP JUMPDEST JUMPDEST POP PUSH3 0xD8A JUMP JUMPDEST POP PUSH1 0x20 DUP4 LT PUSH2 0x133 DUP4 LT AND PUSH1 0x4E DUP5 LT PUSH1 0xB DUP5 LT AND OR ISZERO PUSH3 0xD5B JUMPI DUP3 DUP3 EXP SWAP1 POP DUP4 DUP2 GT ISZERO PUSH3 0xD55 JUMPI PUSH3 0xD54 PUSH3 0xC14 JUMP JUMPDEST JUMPDEST PUSH3 0xD8A JUMP JUMPDEST PUSH3 0xD6A DUP5 DUP5 DUP5 PUSH1 0x1 PUSH3 0xC4D JUMP JUMPDEST SWAP3 POP SWAP1 POP DUP2 DUP5 DIV DUP2 GT ISZERO PUSH3 0xD84 JUMPI PUSH3 0xD83 PUSH3 0xC14 JUMP JUMPDEST JUMPDEST DUP2 DUP2 MUL SWAP1 POP JUMPDEST SWAP4 SWAP3 POP POP POP JUMP JUMPDEST PUSH0 PUSH1 0xFF DUP3 AND SWAP1 POP SWAP2 SWAP1 POP JUMP JUMPDEST PUSH0 PUSH3 0xDA9 DUP3 PUSH3 0x9BA JUMP JUMPDEST SWAP2 POP PUSH3 0xDB6 DUP4 PUSH3 0xD91 JUMP JUMPDEST SWAP3 POP PUSH3 0xDE5 PUSH32 0xFFFFFFFFFFFFFFFFFFFFFFFFFFFFFFFFFFFFFFFFFFFFFFFFFFFFFFFFFFFFFFFF DUP5 DUP5 PUSH3 0xCA7 JUMP JUMPDEST SWAP1 POP SWAP3 SWAP2 POP POP JUMP JUMPDEST PUSH0 PUSH3 0xDF9 DUP3 PUSH3 0x9BA JUMP JUMPDEST SWAP2 POP PUSH3 0xE06 DUP4 PUSH3 0x9BA JUMP JUMPDEST SWAP3 POP DUP3 DUP3 MUL PUSH3 0xE16 DUP2 PUSH3 0x9BA JUMP JUMPDEST SWAP2 POP DUP3 DUP3 DIV DUP5 EQ DUP4 ISZERO OR PUSH3 0xE30 JUMPI PUSH3 0xE2F PUSH3 0xC14 JUMP JUMPDEST JUMPDEST POP SWAP3 SWAP2 POP POP JUMP JUMPDEST PUSH0 DUP2 SWAP1 POP SWAP2 SWAP1 POP JUMP JUMPDEST PUSH3 0xE4B DUP2 PUSH3 0xE37 JUMP JUMPDEST DUP3 MSTORE POP POP JUMP JUMPDEST PUSH3 0xE5C DUP2 PUSH3 0x9BA JUMP JUMPDEST DUP3 MSTORE POP POP JUMP JUMPDEST PUSH0 PUSH1 0xA0 DUP3 ADD SWAP1 POP PUSH3 0xE77 PUSH0 DUP4 ADD DUP9 PUSH3 0xE40 JUMP JUMPDEST PUSH3 0xE86 PUSH1 0x20 DUP4 ADD DUP8 PUSH3 0xE40 JUMP JUMPDEST PUSH3 0xE95 PUSH1 0x40 DUP4 ADD DUP7 PUSH3 0xE40 JUMP JUMPDEST PUSH3 0xEA4 PUSH1 0x60 DUP4 ADD DUP6 PUSH3 0xE51 JUMP JUMPDEST PUSH3 0xEB3 PUSH1 0x80 DUP4 ADD DUP5 PUSH3 0xBE8 JUMP JUMPDEST SWAP7 SWAP6 POP POP POP POP POP POP JUMP JUMPDEST PUSH0 DUP3 DUP3 MSTORE PUSH1 0x20 DUP3 ADD SWAP1 POP SWAP3 SWAP2 POP POP JUMP JUMPDEST PUSH0 JUMPDEST DUP4 DUP2 LT ISZERO PUSH3 0xEEC JUMPI DUP1 DUP3 ADD MLOAD DUP2 DUP5 ADD MSTORE PUSH1 0x20 DUP2 ADD SWAP1 POP PUSH3 0xECF JUMP JUMPDEST PUSH0 DUP5 DUP5 ADD MSTORE POP POP POP POP JUMP JUMPDEST PUSH0 PUSH1 0x1F NOT PUSH1 0x1F DUP4 ADD AND SWAP1 POP SWAP2 SWAP1 POP JUMP JUMPDEST PUSH0 PUSH3 0xF13 DUP3 PUSH3 0x8A0 JUMP JUMPDEST PUSH3 0xF1F DUP2 DUP6 PUSH3 0xEBD JUMP JUMPDEST SWAP4 POP PUSH3 0xF31 DUP2 DUP6 PUSH1 0x20 DUP7 ADD PUSH3 0xECD JUMP JUMPDEST PUSH3 0xF3C DUP2 PUSH3 0xEF7 JUMP JUMPDEST DUP5 ADD SWAP2 POP POP SWAP3 SWAP2 POP POP JUMP JUMPDEST PUSH0 PUSH1 0x20 DUP3 ADD SWAP1 POP DUP2 DUP2 SUB PUSH0 DUP4 ADD MSTORE PUSH3 0xF61 DUP2 DUP5 PUSH3 0xF07 JUMP JUMPDEST SWAP1 POP SWAP3 SWAP2 POP POP JUMP JUMPDEST PUSH0 DUP2 MLOAD SWAP1 POP SWAP2 SWAP1 POP JUMP JUMPDEST PUSH0 DUP2 SWAP1 POP PUSH1 0x20 DUP3 ADD SWAP1 POP SWAP2 SWAP1 POP JUMP JUMPDEST PUSH0 PUSH3 0xF8F DUP3 MLOAD PUSH3 0xE37 JUMP JUMPDEST DUP1 SWAP2 POP POP SWAP2 SWAP1 POP JUMP JUMPDEST PUSH0 PUSH3 0xFA4 DUP3 PUSH3 0xF69 JUMP JUMPDEST DUP3 PUSH3 0xFB0 DUP5 PUSH3 0xF73 JUMP JUMPDEST SWAP1 POP PUSH3 0xFBD DUP2 PUSH3 0xF82 JUMP JUMPDEST SWAP3 POP PUSH1 0x20 DUP3 LT ISZERO PUSH3 0x1000 JUMPI PUSH3 0xFFB PUSH32 0xFFFFFFFFFFFFFFFFFFFFFFFFFFFFFFFFFFFFFFFFFFFFFFFFFFFFFFFFFFFFFFFF DUP4 PUSH1 0x20 SUB PUSH1 0x8 MUL PUSH3 0x959 JUMP JUMPDEST DUP4 AND SWAP3 POP JUMPDEST POP POP SWAP2 SWAP1 POP JUMP JUMPDEST PUSH0 PUSH3 0x1013 DUP3 PUSH3 0x9BA JUMP JUMPDEST SWAP2 POP PUSH3 0x1020 DUP4 PUSH3 0x9BA JUMP JUMPDEST SWAP3 POP DUP3 DUP3 ADD SWAP1 POP DUP1 DUP3 GT ISZERO PUSH3 0x103B JUMPI PUSH3 0x103A PUSH3 0xC14 JUMP JUMPDEST JUMPDEST SWAP3 SWAP2 POP POP JUMP JUMPDEST PUSH0 PUSH1 0x60 DUP3 ADD SWAP1 POP PUSH3 0x1056 PUSH0 DUP4 ADD DUP7 PUSH3 0xBE8 JUMP JUMPDEST PUSH3 0x1065 PUSH1 0x20 DUP4 ADD DUP6 PUSH3 0xE51 JUMP JUMPDEST PUSH3 0x1074 PUSH1 0x40 DUP4 ADD DUP5 PUSH3 0xE51 JUMP JUMPDEST SWAP5 SWAP4 POP POP POP POP JUMP JUMPDEST PUSH0 PUSH1 0x20 DUP3 ADD SWAP1 POP PUSH3 0x1091 PUSH0 DUP4 ADD DUP5 PUSH3 0xE51 JUMP JUMPDEST SWAP3 SWAP2 POP POP JUMP JUMPDEST PUSH1 0x80 MLOAD PUSH1 0xA0 MLOAD PUSH1 0xC0 MLOAD PUSH1 0xE0 MLOAD PUSH2 0x100 MLOAD PUSH2 0x120 MLOAD PUSH2 0x140 MLOAD PUSH2 0x21CF PUSH3 0x10E9 PUSH0 CODECOPY PUSH0 PUSH2 0xFA2 ADD MSTORE PUSH0 PUSH2 0xF67 ADD MSTORE PUSH0 PUSH2 0x1292 ADD MSTORE PUSH0 PUSH2 0x1271 ADD MSTORE PUSH0 PUSH2 0xB58 ADD MSTORE PUSH0 PUSH2 0xBAE ADD MSTORE PUSH0 PUSH2 0xBD7 ADD MSTORE PUSH2 0x21CF PUSH0 RETURN INVALID PUSH1 0x80 PUSH1 0x40 MSTORE CALLVALUE DUP1 ISZERO PUSH2 0xF JUMPI PUSH0 DUP1 REVERT JUMPDEST POP PUSH1 0x4 CALLDATASIZE LT PUSH2 0x140 JUMPI PUSH0 CALLDATALOAD PUSH1 0xE0 SHR DUP1 PUSH4 0x715018A6 GT PUSH2 0xB6 JUMPI DUP1 PUSH4 0x8DA5CB5B GT PUSH2 0x7A JUMPI DUP1 PUSH4 0x8DA5CB5B EQ PUSH2 0x330 JUMPI DUP1 PUSH4 0x95D89B41 EQ PUSH2 0x34E JUMPI DUP1 PUSH4 0xA9059CBB EQ PUSH2 0x36C JUMPI DUP1 PUSH4 0xD505ACCF EQ PUSH2 0x39C JUMPI DUP1 PUSH4 0xDD62ED3E EQ PUSH2 0x3B8 JUMPI DUP1 PUSH4 0xF2FDE38B EQ PUSH2 0x3E8 JUMPI PUSH2 0x140 JUMP JUMPDEST DUP1 PUSH4 0x715018A6 EQ PUSH2 0x2AC JUMPI DUP1 PUSH4 0x79CC6790 EQ PUSH2 0x2B6 JUMPI DUP1 PUSH4 0x7ECEBE00 EQ PUSH2 0x2D2 JUMPI DUP1 PUSH4 0x8456CB59 EQ PUSH2 0x302 JUMPI DUP1 PUSH4 0x84B0196E EQ PUSH2 0x30C JUMPI PUSH2 0x140 JUMP JUMPDEST DUP1 PUSH4 0x3644E515 GT PUSH2 0x108 JUMPI DUP1 PUSH4 0x3644E515 EQ PUSH2 0x1FE JUMPI DUP1 PUSH4 0x3F4BA83A EQ PUSH2 0x21C JUMPI DUP1 PUSH4 0x40C10F19 EQ PUSH2 0x226 JUMPI DUP1 PUSH4 0x42966C68 EQ PUSH2 0x242 JUMPI DUP1 PUSH4 0x5C975ABB EQ PUSH2 0x25E JUMPI DUP1 PUSH4 0x70A08231 EQ PUSH2 0x27C JUMPI PUSH2 0x140 JUMP JUMPDEST DUP1 PUSH4 0x6FDDE03 EQ PUSH2 0x144 JUMPI DUP1 PUSH4 0x95EA7B3 EQ PUSH2 0x162 JUMPI DUP1 PUSH4 0x18160DDD EQ PUSH2 0x192 JUMPI DUP1 PUSH4 0x23B872DD EQ PUSH2 0x1B0 JUMPI DUP1 PUSH4 0x313CE567 EQ PUSH2 0x1E0 JUMPI JUMPDEST PUSH0 DUP1 REVERT JUMPDEST PUSH2 0x14C PUSH2 0x404 JUMP JUMPDEST PUSH1 0x40 MLOAD PUSH2 0x159 SWAP2 SWAP1 PUSH2 0x1A14 JUMP JUMPDEST PUSH1 0x40 MLOAD DUP1 SWAP2 SUB SWAP1 RETURN JUMPDEST PUSH2 0x17C PUSH1 0x4 DUP1 CALLDATASIZE SUB DUP2 ADD SWAP1 PUSH2 0x177 SWAP2 SWAP1 PUSH2 0x1AC5 JUMP JUMPDEST PUSH2 0x494 JUMP JUMPDEST PUSH1 0x40 MLOAD PUSH2 0x189 SWAP2 SWAP1 PUSH2 0x1B1D JUMP JUMPDEST PUSH1 0x40 MLOAD DUP1 SWAP2 SUB SWAP1 RETURN JUMPDEST PUSH2 0x19A PUSH2 0x4B6 JUMP JUMPDEST PUSH1 0x40 MLOAD PUSH2 0x1A7 SWAP2 SWAP1 PUSH2 0x1B45 JUMP JUMPDEST PUSH1 0x40 MLOAD DUP1 SWAP2 SUB SWAP1 RETURN JUMPDEST PUSH2 0x1CA PUSH1 0x4 DUP1 CALLDATASIZE SUB DUP2 ADD SWAP1 PUSH2 0x1C5 SWAP2 SWAP1 PUSH2 0x1B5E JUMP JUMPDEST PUSH2 0x4BF JUMP JUMPDEST PUSH1 0x40 MLOAD PUSH2 0x1D7 SWAP2 SWAP1 PUSH2 0x1B1D JUMP JUMPDEST PUSH1 0x40 MLOAD DUP1 SWAP2 SUB SWAP1 RETURN JUMPDEST PUSH2 0x1E8 PUSH2 0x4ED JUMP JUMPDEST PUSH1 0x40 MLOAD PUSH2 0x1F5 SWAP2 SWAP1 PUSH2 0x1BC9 JUMP JUMPDEST PUSH1 0x40 MLOAD DUP1 SWAP2 SUB SWAP1 RETURN JUMPDEST PUSH2 0x206 PUSH2 0x4F5 JUMP JUMPDEST PUSH1 0x40 MLOAD PUSH2 0x213 SWAP2 SWAP1 PUSH2 0x1BFA JUMP JUMPDEST PUSH1 0x40 MLOAD DUP1 SWAP2 SUB SWAP1 RETURN JUMPDEST PUSH2 0x224 PUSH2 0x503 JUMP JUMPDEST STOP JUMPDEST PUSH2 0x240 PUSH1 0x4 DUP1 CALLDATASIZE SUB DUP2 ADD SWAP1 PUSH2 0x23B SWAP2 SWAP1 PUSH2 0x1AC5 JUMP JUMPDEST PUSH2 0x515 JUMP JUMPDEST STOP JUMPDEST PUSH2 0x25C PUSH1 0x4 DUP1 CALLDATASIZE SUB DUP2 ADD SWAP1 PUSH2 0x257 SWAP2 SWAP1 PUSH2 0x1C13 JUMP JUMPDEST PUSH2 0x52B JUMP JUMPDEST STOP JUMPDEST PUSH2 0x266 PUSH2 0x53F JUMP JUMPDEST PUSH1 0x40 MLOAD PUSH2 0x273 SWAP2 SWAP1 PUSH2 0x1B1D JUMP JUMPDEST PUSH1 0x40 MLOAD DUP1 SWAP2 SUB SWAP1 RETURN JUMPDEST PUSH2 0x296 PUSH1 0x4 DUP1 CALLDATASIZE SUB DUP2 ADD SWAP1 PUSH2 0x291 SWAP2 SWAP1 PUSH2 0x1C3E JUMP JUMPDEST PUSH2 0x554 JUMP JUMPDEST PUSH1 0x40 MLOAD PUSH2 0x2A3 SWAP2 SWAP1 PUSH2 0x1B45 JUMP JUMPDEST PUSH1 0x40 MLOAD DUP1 SWAP2 SUB SWAP1 RETURN JUMPDEST PUSH2 0x2B4 PUSH2 0x599 JUMP JUMPDEST STOP JUMPDEST PUSH2 0x2D0 PUSH1 0x4 DUP1 CALLDATASIZE SUB DUP2 ADD SWAP1 PUSH2 0x2CB SWAP2 SWAP1 PUSH2 0x1AC5 JUMP JUMPDEST PUSH2 0x5AC JUMP JUMPDEST STOP JUMPDEST PUSH2 0x2EC PUSH1 0x4 DUP1 CALLDATASIZE SUB DUP2 ADD SWAP1 PUSH2 0x2E7 SWAP2 SWAP1 PUSH2 0x1C3E JUMP JUMPDEST PUSH2 0x5CC JUMP JUMPDEST PUSH1 0x40 MLOAD PUSH2 0x2F9 SWAP2 SWAP1 PUSH2 0x1B45 JUMP JUMPDEST PUSH1 0x40 MLOAD DUP1 SWAP2 SUB SWAP1 RETURN JUMPDEST PUSH2 0x30A PUSH2 0x5DD JUMP JUMPDEST STOP JUMPDEST PUSH2 0x314 PUSH2 0x5EF JUMP JUMPDEST PUSH1 0x40 MLOAD PUSH2 0x327 SWAP8 SWAP7 SWAP6 SWAP5 SWAP4 SWAP3 SWAP2 SWAP1 PUSH2 0x1D69 JUMP JUMPDEST PUSH1 0x40 MLOAD DUP1 SWAP2 SUB SWAP1 RETURN JUMPDEST PUSH2 0x338 PUSH2 0x694 JUMP JUMPDEST PUSH1 0x40 MLOAD PUSH2 0x345 SWAP2 SWAP1 PUSH2 0x1DEB JUMP JUMPDEST PUSH1 0x40 MLOAD DUP1 SWAP2 SUB SWAP1 RETURN JUMPDEST PUSH2 0x356 PUSH2 0x6BD JUMP JUMPDEST PUSH1 0x40 MLOAD PUSH2 0x363 SWAP2 SWAP1 PUSH2 0x1A14 JUMP JUMPDEST PUSH1 0x40 MLOAD DUP1 SWAP2 SUB SWAP1 RETURN JUMPDEST PUSH2 0x386 PUSH1 0x4 DUP1 CALLDATASIZE SUB DUP2 ADD SWAP1 PUSH2 0x381 SWAP2 SWAP1 PUSH2 0x1AC5 JUMP JUMPDEST PUSH2 0x74D JUMP JUMPDEST PUSH1 0x40 MLOAD PUSH2 0x393 SWAP2 SWAP1 PUSH2 0x1B1D JUMP JUMPDEST PUSH1 0x40 MLOAD DUP1 SWAP2 SUB SWAP1 RETURN JUMPDEST PUSH2 0x3B6 PUSH1 0x4 DUP1 CALLDATASIZE SUB DUP2 ADD SWAP1 PUSH2 0x3B1 SWAP2 SWAP1 PUSH2 0x1E58 JUMP JUMPDEST PUSH2 0x76F JUMP JUMPDEST STOP JUMPDEST PUSH2 0x3D2 PUSH1 0x4 DUP1 CALLDATASIZE SUB DUP2 ADD SWAP1 PUSH2 0x3CD SWAP2 SWAP1 PUSH2 0x1EF5 JUMP JUMPDEST PUSH2 0x8B4 JUMP JUMPDEST PUSH1 0x40 MLOAD PUSH2 0x3DF SWAP2 SWAP1 PUSH2 0x1B45 JUMP JUMPDEST PUSH1 0x40 MLOAD DUP1 SWAP2 SUB SWAP1 RETURN JUMPDEST PUSH2 0x402 PUSH1 0x4 DUP1 CALLDATASIZE SUB DUP2 ADD SWAP1 PUSH2 0x3FD SWAP2 SWAP1 PUSH2 0x1C3E JUMP JUMPDEST PUSH2 0x936 JUMP JUMPDEST STOP JUMPDEST PUSH1 0x60 PUSH1 0x3 DUP1 SLOAD PUSH2 0x413 SWAP1 PUSH2 0x1F60 JUMP JUMPDEST DUP1 PUSH1 0x1F ADD PUSH1 0x20 DUP1 SWAP2 DIV MUL PUSH1 0x20 ADD PUSH1 0x40 MLOAD SWAP1 DUP2 ADD PUSH1 0x40 MSTORE DUP1 SWAP3 SWAP2 SWAP1 DUP2 DUP2 MSTORE PUSH1 0x20 ADD DUP3 DUP1 SLOAD PUSH2 0x43F SWAP1 PUSH2 0x1F60 JUMP JUMPDEST DUP1 ISZERO PUSH2 0x48A JUMPI DUP1 PUSH1 0x1F LT PUSH2 0x461 JUMPI PUSH2 0x100 DUP1 DUP4 SLOAD DIV MUL DUP4 MSTORE SWAP2 PUSH1 0x20 ADD SWAP2 PUSH2 0x48A JUMP JUMPDEST DUP3 ADD SWAP2 SWAP1 PUSH0 MSTORE PUSH1 0x20 PUSH0 KECCAK256 SWAP1 JUMPDEST DUP2 SLOAD DUP2 MSTORE SWAP1 PUSH1 0x1 ADD SWAP1 PUSH1 0x20 ADD DUP1 DUP4 GT PUSH2 0x46D JUMPI DUP3 SWAP1 SUB PUSH1 0x1F AND DUP3 ADD SWAP2 JUMPDEST POP POP POP POP POP SWAP1 POP SWAP1 JUMP JUMPDEST PUSH0 DUP1 PUSH2 0x49E PUSH2 0x9BA JUMP JUMPDEST SWAP1 POP PUSH2 0x4AB DUP2 DUP6 DUP6 PUSH2 0x9C1 JUMP JUMPDEST PUSH1 0x1 SWAP2 POP POP SWAP3 SWAP2 POP POP JUMP JUMPDEST PUSH0 PUSH1 0x2 SLOAD SWAP1 POP SWAP1 JUMP JUMPDEST PUSH0 DUP1 PUSH2 0x4C9 PUSH2 0x9BA JUMP JUMPDEST SWAP1 POP PUSH2 0x4D6 DUP6 DUP3 DUP6 PUSH2 0x9D3 JUMP JUMPDEST PUSH2 0x4E1 DUP6 DUP6 DUP6 PUSH2 0xA65 JUMP JUMPDEST PUSH1 0x1 SWAP2 POP POP SWAP4 SWAP3 POP POP POP JUMP JUMPDEST PUSH0 PUSH1 0x12 SWAP1 POP SWAP1 JUMP JUMPDEST PUSH0 PUSH2 0x4FE PUSH2 0xB55 JUMP JUMPDEST SWAP1 POP SWAP1 JUMP JUMPDEST PUSH2 0x50B PUSH2 0xC0B JUMP JUMPDEST PUSH2 0x513 PUSH2 0xC92 JUMP JUMPDEST JUMP JUMPDEST PUSH2 0x51D PUSH2 0xC0B JUMP JUMPDEST PUSH2 0x527 DUP3 DUP3 PUSH2 0xCF3 JUMP JUMPDEST POP POP JUMP JUMPDEST PUSH2 0x53C PUSH2 0x536 PUSH2 0x9BA JUMP JUMPDEST DUP3 PUSH2 0xD72 JUMP JUMPDEST POP JUMP JUMPDEST PUSH0 PUSH1 0x5 PUSH0 SWAP1 SLOAD SWAP1 PUSH2 0x100 EXP SWAP1 DIV PUSH1 0xFF AND SWAP1 POP SWAP1 JUMP JUMPDEST PUSH0 DUP1 PUSH0 DUP4 PUSH20 0xFFFFFFFFFFFFFFFFFFFFFFFFFFFFFFFFFFFFFFFF AND PUSH20 0xFFFFFFFFFFFFFFFFFFFFFFFFFFFFFFFFFFFFFFFF AND DUP2 MSTORE PUSH1 0x20 ADD SWAP1 DUP2 MSTORE PUSH1 0x20 ADD PUSH0 KECCAK256 SLOAD SWAP1 POP SWAP2 SWAP1 POP JUMP JUMPDEST PUSH2 0x5A1 PUSH2 0xC0B JUMP JUMPDEST PUSH2 0x5AA PUSH0 PUSH2 0xDF1 JUMP JUMPDEST JUMP JUMPDEST PUSH2 0x5BE DUP3 PUSH2 0x5B8 PUSH2 0x9BA JUMP JUMPDEST DUP4 PUSH2 0x9D3 JUMP JUMPDEST PUSH2 0x5C8 DUP3 DUP3 PUSH2 0xD72 JUMP JUMPDEST POP POP JUMP JUMPDEST PUSH0 PUSH2 0x5D6 DUP3 PUSH2 0xEB6 JUMP JUMPDEST SWAP1 POP SWAP2 SWAP1 POP JUMP JUMPDEST PUSH2 0x5E5 PUSH2 0xC0B JUMP JUMPDEST PUSH2 0x5ED PUSH2 0xEFC JUMP JUMPDEST JUMP JUMPDEST PUSH0 PUSH1 0x60 DUP1 PUSH0 DUP1 PUSH0 PUSH1 0x60 PUSH2 0x600 PUSH2 0xF5E JUMP JUMPDEST PUSH2 0x608 PUSH2 0xF99 JUMP JUMPDEST CHAINID ADDRESS PUSH0 DUP1 SHL PUSH0 PUSH8 0xFFFFFFFFFFFFFFFF DUP2 GT ISZERO PUSH2 0x627 JUMPI PUSH2 0x626 PUSH2 0x1F90 JUMP JUMPDEST JUMPDEST PUSH1 0x40 MLOAD SWAP1 DUP1 DUP3 MSTORE DUP1 PUSH1 0x20 MUL PUSH1 0x20 ADD DUP3 ADD PUSH1 0x40 MSTORE DUP1 ISZERO PUSH2 0x655 JUMPI DUP2 PUSH1 0x20 ADD PUSH1 0x20 DUP3 MUL DUP1 CALLDATASIZE DUP4 CALLDATACOPY DUP1 DUP3 ADD SWAP2 POP POP SWAP1 POP JUMPDEST POP PUSH32 0xF00000000000000000000000000000000000000000000000000000000000000 SWAP6 SWAP5 SWAP4 SWAP3 SWAP2 SWAP1 SWAP7 POP SWAP7 POP SWAP7 POP SWAP7 POP SWAP7 POP SWAP7 POP SWAP7 POP SWAP1 SWAP2 SWAP3 SWAP4 SWAP5 SWAP6 SWAP7 JUMP JUMPDEST PUSH0 PUSH1 0x5 PUSH1 0x1 SWAP1 SLOAD SWAP1 PUSH2 0x100 EXP SWAP1 DIV PUSH20 0xFFFFFFFFFFFFFFFFFFFFFFFFFFFFFFFFFFFFFFFF AND SWAP1 POP SWAP1 JUMP JUMPDEST PUSH1 0x60 PUSH1 0x4 DUP1 SLOAD PUSH2 0x6CC SWAP1 PUSH2 0x1F60 JUMP JUMPDEST DUP1 PUSH1 0x1F ADD PUSH1 0x20 DUP1 SWAP2 DIV MUL PUSH1 0x20 ADD PUSH1 0x40 MLOAD SWAP1 DUP2 ADD PUSH1 0x40 MSTORE DUP1 SWAP3 SWAP2 SWAP1 DUP2 DUP2 MSTORE PUSH1 0x20 ADD DUP3 DUP1 SLOAD PUSH2 0x6F8 SWAP1 PUSH2 0x1F60 JUMP JUMPDEST DUP1 ISZERO PUSH2 0x743 JUMPI DUP1 PUSH1 0x1F LT PUSH2 0x71A JUMPI PUSH2 0x100 DUP1 DUP4 SLOAD DIV MUL DUP4 MSTORE SWAP2 PUSH1 0x20 ADD SWAP2 PUSH2 0x743 JUMP JUMPDEST DUP3 ADD SWAP2 SWAP1 PUSH0 MSTORE PUSH1 0x20 PUSH0 KECCAK256 SWAP1 JUMPDEST DUP2 SLOAD DUP2 MSTORE SWAP1 PUSH1 0x1 ADD SWAP1 PUSH1 0x20 ADD DUP1 DUP4 GT PUSH2 0x726 JUMPI DUP3 SWAP1 SUB PUSH1 0x1F AND DUP3 ADD SWAP2 JUMPDEST POP POP POP POP POP SWAP1 POP SWAP1 JUMP JUMPDEST PUSH0 DUP1 PUSH2 0x757 PUSH2 0x9BA JUMP JUMPDEST SWAP1 POP PUSH2 0x764 DUP2 DUP6 DUP6 PUSH2 0xA65 JUMP JUMPDEST PUSH1 0x1 SWAP2 POP POP SWAP3 SWAP2 POP POP JUMP JUMPDEST DUP4 TIMESTAMP GT ISZERO PUSH2 0x7B4 JUMPI DUP4 PUSH1 0x40 MLOAD PUSH32 0x6279130200000000000000000000000000000000000000000000000000000000 DUP2 MSTORE PUSH1 0x4 ADD PUSH2 0x7AB SWAP2 SWAP1 PUSH2 0x1B45 JUMP JUMPDEST PUSH1 0x40 MLOAD DUP1 SWAP2 SUB SWAP1 REVERT JUMPDEST PUSH0 PUSH32 0x6E71EDAE12B1B97F4D1F60370FEF10105FA2FAAE0126114A169C64845D6126C9 DUP9 DUP9 DUP9 PUSH2 0x7E2 DUP13 PUSH2 0xFD4 JUMP JUMPDEST DUP10 PUSH1 0x40 MLOAD PUSH1 0x20 ADD PUSH2 0x7F8 SWAP7 SWAP6 SWAP5 SWAP4 SWAP3 SWAP2 SWAP1 PUSH2 0x1FBD JUMP JUMPDEST PUSH1 0x40 MLOAD PUSH1 0x20 DUP2 DUP4 SUB SUB DUP2 MSTORE SWAP1 PUSH1 0x40 MSTORE DUP1 MLOAD SWAP1 PUSH1 0x20 ADD KECCAK256 SWAP1 POP PUSH0 PUSH2 0x81A DUP3 PUSH2 0x1027 JUMP JUMPDEST SWAP1 POP PUSH0 PUSH2 0x829 DUP3 DUP8 DUP8 DUP8 PUSH2 0x1040 JUMP JUMPDEST SWAP1 POP DUP10 PUSH20 0xFFFFFFFFFFFFFFFFFFFFFFFFFFFFFFFFFFFFFFFF AND DUP2 PUSH20 0xFFFFFFFFFFFFFFFFFFFFFFFFFFFFFFFFFFFFFFFF AND EQ PUSH2 0x89D JUMPI DUP1 DUP11 PUSH1 0x40 MLOAD PUSH32 0x4B800E4600000000000000000000000000000000000000000000000000000000 DUP2 MSTORE PUSH1 0x4 ADD PUSH2 0x894 SWAP3 SWAP2 SWAP1 PUSH2 0x201C JUMP JUMPDEST PUSH1 0x40 MLOAD DUP1 SWAP2 SUB SWAP1 REVERT JUMPDEST PUSH2 0x8A8 DUP11 DUP11 DUP11 PUSH2 0x9C1 JUMP JUMPDEST POP POP POP POP POP POP POP POP POP POP JUMP JUMPDEST PUSH0 PUSH1 0x1 PUSH0 DUP5 PUSH20 0xFFFFFFFFFFFFFFFFFFFFFFFFFFFFFFFFFFFFFFFF AND PUSH20 0xFFFFFFFFFFFFFFFFFFFFFFFFFFFFFFFFFFFFFFFF AND DUP2 MSTORE PUSH1 0x20 ADD SWAP1 DUP2 MSTORE PUSH1 0x20 ADD PUSH0 KECCAK256 PUSH0 DUP4 PUSH20 0xFFFFFFFFFFFFFFFFFFFFFFFFFFFFFFFFFFFFFFFF AND PUSH20 0xFFFFFFFFFFFFFFFFFFFFFFFFFFFFFFFFFFFFFFFF AND DUP2 MSTORE PUSH1 0x20 ADD SWAP1 DUP2 MSTORE PUSH1 0x20 ADD PUSH0 KECCAK256 SLOAD SWAP1 POP SWAP3 SWAP2 POP POP JUMP JUMPDEST PUSH2 0x93E PUSH2 0xC0B JUMP JUMPDEST PUSH0 PUSH20 0xFFFFFFFFFFFFFFFFFFFFFFFFFFFFFFFFFFFFFFFF AND DUP2 PUSH20 0xFFFFFFFFFFFFFFFFFFFFFFFFFFFFFFFFFFFFFFFF AND SUB PUSH2 0x9AE JUMPI PUSH0 PUSH1 0x40 MLOAD PUSH32 0x1E4FBDF700000000000000000000000000000000000000000000000000000000 DUP2 MSTORE PUSH1 0x4 ADD PUSH2 0x9A5 SWAP2 SWAP1 PUSH2 0x1DEB JUMP JUMPDEST PUSH1 0x40 MLOAD DUP1 SWAP2 SUB SWAP1 REVERT JUMPDEST PUSH2 0x9B7 DUP2 PUSH2 0xDF1 JUMP JUMPDEST POP JUMP JUMPDEST PUSH0 CALLER SWAP1 POP SWAP1 JUMP JUMPDEST PUSH2 0x9CE DUP4 DUP4 DUP4 PUSH1 0x1 PUSH2 0x106E JUMP JUMPDEST POP POP POP JUMP JUMPDEST PUSH0 PUSH2 0x9DE DUP5 DUP5 PUSH2 0x8B4 JUMP JUMPDEST SWAP1 POP PUSH32 0xFFFFFFFFFFFFFFFFFFFFFFFFFFFFFFFFFFFFFFFFFFFFFFFFFFFFFFFFFFFFFFFF DUP2 EQ PUSH2 0xA5F JUMPI DUP2 DUP2 LT ISZERO PUSH2 0xA50 JUMPI DUP3 DUP2 DUP4 PUSH1 0x40 MLOAD PUSH32 0xFB8F41B200000000000000000000000000000000000000000000000000000000 DUP2 MSTORE PUSH1 0x4 ADD PUSH2 0xA47 SWAP4 SWAP3 SWAP2 SWAP1 PUSH2 0x2043 JUMP JUMPDEST PUSH1 0x40 MLOAD DUP1 SWAP2 SUB SWAP1 REVERT JUMPDEST PUSH2 0xA5E DUP5 DUP5 DUP5 DUP5 SUB PUSH0 PUSH2 0x106E JUMP JUMPDEST JUMPDEST POP POP POP POP JUMP JUMPDEST PUSH0 PUSH20 0xFFFFFFFFFFFFFFFFFFFFFFFFFFFFFFFFFFFFFFFF AND DUP4 PUSH20 0xFFFFFFFFFFFFFFFFFFFFFFFFFFFFFFFFFFFFFFFF AND SUB PUSH2 0xAD5 JUMPI PUSH0 PUSH1 0x40 MLOAD PUSH32 0x96C6FD1E00000000000000000000000000000000000000000000000000000000 DUP2 MSTORE PUSH1 0x4 ADD PUSH2 0xACC SWAP2 SWAP1 PUSH2 0x1DEB JUMP JUMPDEST PUSH1 0x40 MLOAD DUP1 SWAP2 SUB SWAP1 REVERT JUMPDEST PUSH0 PUSH20 0xFFFFFFFFFFFFFFFFFFFFFFFFFFFFFFFFFFFFFFFF AND DUP3 PUSH20 0xFFFFFFFFFFFFFFFFFFFFFFFFFFFFFFFFFFFFFFFF AND SUB PUSH2 0xB45 JUMPI PUSH0 PUSH1 0x40 MLOAD PUSH32 0xEC442F0500000000000000000000000000000000000000000000000000000000 DUP2 MSTORE PUSH1 0x4 ADD PUSH2 0xB3C SWAP2 SWAP1 PUSH2 0x1DEB JUMP JUMPDEST PUSH1 0x40 MLOAD DUP1 SWAP2 SUB SWAP1 REVERT JUMPDEST PUSH2 0xB50 DUP4 DUP4 DUP4 PUSH2 0x123D JUMP JUMPDEST POP POP POP JUMP JUMPDEST PUSH0 PUSH32 0x0 PUSH20 0xFFFFFFFFFFFFFFFFFFFFFFFFFFFFFFFFFFFFFFFF AND ADDRESS PUSH20 0xFFFFFFFFFFFFFFFFFFFFFFFFFFFFFFFFFFFFFFFF AND EQ DUP1 ISZERO PUSH2 0xBD0 JUMPI POP PUSH32 0x0 CHAINID EQ JUMPDEST ISZERO PUSH2 0xBFD JUMPI PUSH32 0x0 SWAP1 POP PUSH2 0xC08 JUMP JUMPDEST PUSH2 0xC05 PUSH2 0x124D JUMP JUMPDEST SWAP1 POP JUMPDEST SWAP1 JUMP JUMPDEST PUSH2 0xC13 PUSH2 0x9BA JUMP JUMPDEST PUSH20 0xFFFFFFFFFFFFFFFFFFFFFFFFFFFFFFFFFFFFFFFF AND PUSH2 0xC31 PUSH2 0x694 JUMP JUMPDEST PUSH20 0xFFFFFFFFFFFFFFFFFFFFFFFFFFFFFFFFFFFFFFFF AND EQ PUSH2 0xC90 JUMPI PUSH2 0xC54 PUSH2 0x9BA JUMP JUMPDEST PUSH1 0x40 MLOAD PUSH32 0x118CDAA700000000000000000000000000000000000000000000000000000000 DUP2 MSTORE PUSH1 0x4 ADD PUSH2 0xC87 SWAP2 SWAP1 PUSH2 0x1DEB JUMP JUMPDEST PUSH1 0x40 MLOAD DUP1 SWAP2 SUB SWAP1 REVERT JUMPDEST JUMP JUMPDEST PUSH2 0xC9A PUSH2 0x12E2 JUMP JUMPDEST PUSH0 PUSH1 0x5 PUSH0 PUSH2 0x100 EXP DUP2 SLOAD DUP2 PUSH1 0xFF MUL NOT AND SWAP1 DUP4 ISZERO ISZERO MUL OR SWAP1 SSTORE POP PUSH32 0x5DB9EE0A495BF2E6FF9C91A7834C1BA4FDD244A5E8AA4E537BD38AEAE4B073AA PUSH2 0xCDC PUSH2 0x9BA JUMP JUMPDEST PUSH1 0x40 MLOAD PUSH2 0xCE9 SWAP2 SWAP1 PUSH2 0x1DEB JUMP JUMPDEST PUSH1 0x40 MLOAD DUP1 SWAP2 SUB SWAP1 LOG1 JUMP JUMPDEST PUSH0 PUSH20 0xFFFFFFFFFFFFFFFFFFFFFFFFFFFFFFFFFFFFFFFF AND DUP3 PUSH20 0xFFFFFFFFFFFFFFFFFFFFFFFFFFFFFFFFFFFFFFFF AND SUB PUSH2 0xD63 JUMPI PUSH0 PUSH1 0x40 MLOAD PUSH32 0xEC442F0500000000000000000000000000000000000000000000000000000000 DUP2 MSTORE PUSH1 0x4 ADD PUSH2 0xD5A SWAP2 SWAP1 PUSH2 0x1DEB JUMP JUMPDEST PUSH1 0x40 MLOAD DUP1 SWAP2 SUB SWAP1 REVERT JUMPDEST PUSH2 0xD6E PUSH0 DUP4 DUP4 PUSH2 0x123D JUMP JUMPDEST POP POP JUMP JUMPDEST PUSH0 PUSH20 0xFFFFFFFFFFFFFFFFFFFFFFFFFFFFFFFFFFFFFFFF AND DUP3 PUSH20 0xFFFFFFFFFFFFFFFFFFFFFFFFFFFFFFFFFFFFFFFF AND SUB PUSH2 0xDE2 JUMPI PUSH0 PUSH1 0x40 MLOAD PUSH32 0x96C6FD1E00000000000000000000000000000000000000000000000000000000 DUP2 MSTORE PUSH1 0x4 ADD PUSH2 0xDD9 SWAP2 SWAP1 PUSH2 0x1DEB JUMP JUMPDEST PUSH1 0x40 MLOAD DUP1 SWAP2 SUB SWAP1 REVERT JUMPDEST PUSH2 0xDED DUP3 PUSH0 DUP4 PUSH2 0x123D JUMP JUMPDEST POP POP JUMP JUMPDEST PUSH0 PUSH1 0x5 PUSH1 0x1 SWAP1 SLOAD SWAP1 PUSH2 0x100 EXP SWAP1 DIV PUSH20 0xFFFFFFFFFFFFFFFFFFFFFFFFFFFFFFFFFFFFFFFF AND SWAP1 POP DUP2 PUSH1 0x5 PUSH1 0x1 PUSH2 0x100 EXP DUP2 SLOAD DUP2 PUSH20 0xFFFFFFFFFFFFFFFFFFFFFFFFFFFFFFFFFFFFFFFF MUL NOT AND SWAP1 DUP4 PUSH20 0xFFFFFFFFFFFFFFFFFFFFFFFFFFFFFFFFFFFFFFFF AND MUL OR SWAP1 SSTORE POP DUP2 PUSH20 0xFFFFFFFFFFFFFFFFFFFFFFFFFFFFFFFFFFFFFFFF AND DUP2 PUSH20 0xFFFFFFFFFFFFFFFFFFFFFFFFFFFFFFFFFFFFFFFF AND PUSH32 0x8BE0079C531659141344CD1FD0A4F28419497F9722A3DAAFE3B4186F6B6457E0 PUSH1 0x40 MLOAD PUSH1 0x40 MLOAD DUP1 SWAP2 SUB SWAP1 LOG3 POP POP JUMP JUMPDEST PUSH0 PUSH1 0x8 PUSH0 DUP4 PUSH20 0xFFFFFFFFFFFFFFFFFFFFFFFFFFFFFFFFFFFFFFFF AND PUSH20 0xFFFFFFFFFFFFFFFFFFFFFFFFFFFFFFFFFFFFFFFF AND DUP2 MSTORE PUSH1 0x20 ADD SWAP1 DUP2 MSTORE PUSH1 0x20 ADD PUSH0 KECCAK256 SLOAD SWAP1 POP SWAP2 SWAP1 POP JUMP JUMPDEST PUSH2 0xF04 PUSH2 0x1322 JUMP JUMPDEST PUSH1 0x1 PUSH1 0x5 PUSH0 PUSH2 0x100 EXP DUP2 SLOAD DUP2 PUSH1 0xFF MUL NOT AND SWAP1 DUP4 ISZERO ISZERO MUL OR SWAP1 SSTORE POP PUSH32 0x62E78CEA01BEE320CD4E420270B5EA74000D11B0C9F74754EBDBFC544B05A258 PUSH2 0xF47 PUSH2 0x9BA JUMP JUMPDEST PUSH1 0x40 MLOAD PUSH2 0xF54 SWAP2 SWAP1 PUSH2 0x1DEB JUMP JUMPDEST PUSH1 0x40 MLOAD DUP1 SWAP2 SUB SWAP1 LOG1 JUMP JUMPDEST PUSH1 0x60 PUSH2 0xF94 PUSH1 0x6 PUSH32 0x0 PUSH2 0x1363 SWAP1 SWAP2 SWAP1 PUSH4 0xFFFFFFFF AND JUMP JUMPDEST SWAP1 POP SWAP1 JUMP JUMPDEST PUSH1 0x60 PUSH2 0xFCF PUSH1 0x7 PUSH32 0x0 PUSH2 0x1363 SWAP1 SWAP2 SWAP1 PUSH4 0xFFFFFFFF AND JUMP JUMPDEST SWAP1 POP SWAP1 JUMP JUMPDEST PUSH0 PUSH1 0x8 PUSH0 DUP4 PUSH20 0xFFFFFFFFFFFFFFFFFFFFFFFFFFFFFFFFFFFFFFFF AND PUSH20 0xFFFFFFFFFFFFFFFFFFFFFFFFFFFFFFFFFFFFFFFF AND DUP2 MSTORE PUSH1 0x20 ADD SWAP1 DUP2 MSTORE PUSH1 0x20 ADD PUSH0 KECCAK256 PUSH0 DUP2 SLOAD DUP1 SWAP3 SWAP2 SWAP1 PUSH1 0x1 ADD SWAP2 SWAP1 POP SSTORE SWAP1 POP SWAP2 SWAP1 POP JUMP JUMPDEST PUSH0 PUSH2 0x1039 PUSH2 0x1033 PUSH2 0xB55 JUMP JUMPDEST DUP4 PUSH2 0x1410 JUMP JUMPDEST SWAP1 POP SWAP2 SWAP1 POP JUMP JUMPDEST PUSH0 DUP1 PUSH0 DUP1 PUSH2 0x1050 DUP9 DUP9 DUP9 DUP9 PUSH2 0x1450 JUMP JUMPDEST SWAP3 POP SWAP3 POP SWAP3 POP PUSH2 0x1060 DUP3 DUP3 PUSH2 0x1537 JUMP JUMPDEST DUP3 SWAP4 POP POP POP POP SWAP5 SWAP4 POP POP POP POP JUMP JUMPDEST PUSH0 PUSH20 0xFFFFFFFFFFFFFFFFFFFFFFFFFFFFFFFFFFFFFFFF AND DUP5 PUSH20 0xFFFFFFFFFFFFFFFFFFFFFFFFFFFFFFFFFFFFFFFF AND SUB PUSH2 0x10DE JUMPI PUSH0 PUSH1 0x40 MLOAD PUSH32 0xE602DF0500000000000000000000000000000000000000000000000000000000 DUP2 MSTORE PUSH1 0x4 ADD PUSH2 0x10D5 SWAP2 SWAP1 PUSH2 0x1DEB JUMP JUMPDEST PUSH1 0x40 MLOAD DUP1 SWAP2 SUB SWAP1 REVERT JUMPDEST PUSH0 PUSH20 0xFFFFFFFFFFFFFFFFFFFFFFFFFFFFFFFFFFFFFFFF AND DUP4 PUSH20 0xFFFFFFFFFFFFFFFFFFFFFFFFFFFFFFFFFFFFFFFF AND SUB PUSH2 0x114E JUMPI PUSH0 PUSH1 0x40 MLOAD PUSH32 0x94280D6200000000000000000000000000000000000000000000000000000000 DUP2 MSTORE PUSH1 0x4 ADD PUSH2 0x1145 SWAP2 SWAP1 PUSH2 0x1DEB JUMP JUMPDEST PUSH1 0x40 MLOAD DUP1 SWAP2 SUB SWAP1 REVERT JUMPDEST DUP2 PUSH1 0x1 PUSH0 DUP7 PUSH20 0xFFFFFFFFFFFFFFFFFFFFFFFFFFFFFFFFFFFFFFFF AND PUSH20 0xFFFFFFFFFFFFFFFFFFFFFFFFFFFFFFFFFFFFFFFF AND DUP2 MSTORE PUSH1 0x20 ADD SWAP1 DUP2 MSTORE PUSH1 0x20 ADD PUSH0 KECCAK256 PUSH0 DUP6 PUSH20 0xFFFFFFFFFFFFFFFFFFFFFFFFFFFFFFFFFFFFFFFF AND PUSH20 0xFFFFFFFFFFFFFFFFFFFFFFFFFFFFFFFFFFFFFFFF AND DUP2 MSTORE PUSH1 0x20 ADD SWAP1 DUP2 MSTORE PUSH1 0x20 ADD PUSH0 KECCAK256 DUP2 SWAP1 SSTORE POP DUP1 ISZERO PUSH2 0x1237 JUMPI DUP3 PUSH20 0xFFFFFFFFFFFFFFFFFFFFFFFFFFFFFFFFFFFFFFFF AND DUP5 PUSH20 0xFFFFFFFFFFFFFFFFFFFFFFFFFFFFFFFFFFFFFFFF AND PUSH32 0x8C5BE1E5EBEC7D5BD14F71427D1E84F3DD0314C0F7B2291E5B200AC8C7C3B925 DUP5 PUSH1 0x40 MLOAD PUSH2 0x122E SWAP2 SWAP1 PUSH2 0x1B45 JUMP JUMPDEST PUSH1 0x40 MLOAD DUP1 SWAP2 SUB SWAP1 LOG3 JUMPDEST POP POP POP POP JUMP JUMPDEST PUSH2 0x1248 DUP4 DUP4 DUP4 PUSH2 0x1699 JUMP JUMPDEST POP POP POP JUMP JUMPDEST PUSH0 PUSH32 0x8B73C3C69BB8FE3D512ECC4CF759CC79239F7B179B0FFACAA9A75D522B39400F PUSH32 0x0 PUSH32 0x0 CHAINID ADDRESS PUSH1 0x40 MLOAD PUSH1 0x20 ADD PUSH2 0x12C7 SWAP6 SWAP5 SWAP4 SWAP3 SWAP2 SWAP1 PUSH2 0x2078 JUMP JUMPDEST PUSH1 0x40 MLOAD PUSH1 0x20 DUP2 DUP4 SUB SUB DUP2 MSTORE SWAP1 PUSH1 0x40 MSTORE DUP1 MLOAD SWAP1 PUSH1 0x20 ADD KECCAK256 SWAP1 POP SWAP1 JUMP JUMPDEST PUSH2 0x12EA PUSH2 0x53F JUMP JUMPDEST PUSH2 0x1320 JUMPI PUSH1 0x40 MLOAD PUSH32 0x8DFC202B00000000000000000000000000000000000000000000000000000000 DUP2 MSTORE PUSH1 0x4 ADD PUSH1 0x40 MLOAD DUP1 SWAP2 SUB SWAP1 REVERT JUMPDEST JUMP JUMPDEST PUSH2 0x132A PUSH2 0x53F JUMP JUMPDEST ISZERO PUSH2 0x1361 JUMPI PUSH1 0x40 MLOAD PUSH32 0xD93C066500000000000000000000000000000000000000000000000000000000 DUP2 MSTORE PUSH1 0x4 ADD PUSH1 0x40 MLOAD DUP1 SWAP2 SUB SWAP1 REVERT JUMPDEST JUMP JUMPDEST PUSH1 0x60 PUSH1 0xFF PUSH0 SHL DUP4 EQ PUSH2 0x137F JUMPI PUSH2 0x1378 DUP4 PUSH2 0x16B1 JUMP JUMPDEST SWAP1 POP PUSH2 0x140A JUMP JUMPDEST DUP2 DUP1 SLOAD PUSH2 0x138B SWAP1 PUSH2 0x1F60 JUMP JUMPDEST DUP1 PUSH1 0x1F ADD PUSH1 0x20 DUP1 SWAP2 DIV MUL PUSH1 0x20 ADD PUSH1 0x40 MLOAD SWAP1 DUP2 ADD PUSH1 0x40 MSTORE DUP1 SWAP3 SWAP2 SWAP1 DUP2 DUP2 MSTORE PUSH1 0x20 ADD DUP3 DUP1 SLOAD PUSH2 0x13B7 SWAP1 PUSH2 0x1F60 JUMP JUMPDEST DUP1 ISZERO PUSH2 0x1402 JUMPI DUP1 PUSH1 0x1F LT PUSH2 0x13D9 JUMPI PUSH2 0x100 DUP1 DUP4 SLOAD DIV MUL DUP4 MSTORE SWAP2 PUSH1 0x20 ADD SWAP2 PUSH2 0x1402 JUMP JUMPDEST DUP3 ADD SWAP2 SWAP1 PUSH0 MSTORE PUSH1 0x20 PUSH0 KECCAK256 SWAP1 JUMPDEST DUP2 SLOAD DUP2 MSTORE SWAP1 PUSH1 0x1 ADD SWAP1 PUSH1 0x20 ADD DUP1 DUP4 GT PUSH2 0x13E5 JUMPI DUP3 SWAP1 SUB PUSH1 0x1F AND DUP3 ADD SWAP2 JUMPDEST POP POP POP POP POP SWAP1 POP JUMPDEST SWAP3 SWAP2 POP POP JUMP JUMPDEST PUSH0 PUSH1 0x40 MLOAD PUSH32 0x1901000000000000000000000000000000000000000000000000000000000000 DUP2 MSTORE DUP4 PUSH1 0x2 DUP3 ADD MSTORE DUP3 PUSH1 0x22 DUP3 ADD MSTORE PUSH1 0x42 DUP2 KECCAK256 SWAP2 POP POP SWAP3 SWAP2 POP POP JUMP JUMPDEST PUSH0 DUP1 PUSH0 PUSH32 0x7FFFFFFFFFFFFFFFFFFFFFFFFFFFFFFF5D576E7357A4501DDFE92F46681B20A0 DUP5 PUSH0 SHR GT ISZERO PUSH2 0x148C JUMPI PUSH0 PUSH1 0x3 DUP6 SWAP3 POP SWAP3 POP SWAP3 POP PUSH2 0x152D JUMP JUMPDEST PUSH0 PUSH1 0x1 DUP9 DUP9 DUP9 DUP9 PUSH1 0x40 MLOAD PUSH0 DUP2 MSTORE PUSH1 0x20 ADD PUSH1 0x40 MSTORE PUSH1 0x40 MLOAD PUSH2 0x14AF SWAP5 SWAP4 SWAP3 SWAP2 SWAP1 PUSH2 0x20C9 JUMP JUMPDEST PUSH1 0x20 PUSH1 0x40 MLOAD PUSH1 0x20 DUP2 SUB SWAP1 DUP1 DUP5 SUB SWAP1 DUP6 GAS STATICCALL ISZERO DUP1 ISZERO PUSH2 0x14CF JUMPI RETURNDATASIZE PUSH0 DUP1 RETURNDATACOPY RETURNDATASIZE PUSH0 REVERT JUMPDEST POP POP POP PUSH1 0x20 PUSH1 0x40 MLOAD SUB MLOAD SWAP1 POP PUSH0 PUSH20 0xFFFFFFFFFFFFFFFFFFFFFFFFFFFFFFFFFFFFFFFF AND DUP2 PUSH20 0xFFFFFFFFFFFFFFFFFFFFFFFFFFFFFFFFFFFFFFFF AND SUB PUSH2 0x1520 JUMPI PUSH0 PUSH1 0x1 PUSH0 DUP1 SHL SWAP4 POP SWAP4 POP SWAP4 POP POP PUSH2 0x152D JUMP JUMPDEST DUP1 PUSH0 DUP1 PUSH0 SHL SWAP4 POP SWAP4 POP SWAP4 POP POP JUMPDEST SWAP5 POP SWAP5 POP SWAP5 SWAP2 POP POP JUMP JUMPDEST PUSH0 PUSH1 0x3 DUP2 GT ISZERO PUSH2 0x154A JUMPI PUSH2 0x1549 PUSH2 0x210C JUMP JUMPDEST JUMPDEST DUP3 PUSH1 0x3 DUP2 GT ISZERO PUSH2 0x155D JUMPI PUSH2 0x155C PUSH2 0x210C JUMP JUMPDEST JUMPDEST SUB ISZERO PUSH2 0x1695 JUMPI PUSH1 0x1 PUSH1 0x3 DUP2 GT ISZERO PUSH2 0x1577 JUMPI PUSH2 0x1576 PUSH2 0x210C JUMP JUMPDEST JUMPDEST DUP3 PUSH1 0x3 DUP2 GT ISZERO PUSH2 0x158A JUMPI PUSH2 0x1589 PUSH2 0x210C JUMP JUMPDEST JUMPDEST SUB PUSH2 0x15C1 JUMPI PUSH1 0x40 MLOAD PUSH32 0xF645EEDF00000000000000000000000000000000000000000000000000000000 DUP2 MSTORE PUSH1 0x4 ADD PUSH1 0x40 MLOAD DUP1 SWAP2 SUB SWAP1 REVERT JUMPDEST PUSH1 0x2 PUSH1 0x3 DUP2 GT ISZERO PUSH2 0x15D5 JUMPI PUSH2 0x15D4 PUSH2 0x210C JUMP JUMPDEST JUMPDEST DUP3 PUSH1 0x3 DUP2 GT ISZERO PUSH2 0x15E8 JUMPI PUSH2 0x15E7 PUSH2 0x210C JUMP JUMPDEST JUMPDEST SUB PUSH2 0x162C JUMPI DUP1 PUSH0 SHR PUSH1 0x40 MLOAD PUSH32 0xFCE698F700000000000000000000000000000000000000000000000000000000 DUP2 MSTORE PUSH1 0x4 ADD PUSH2 0x1623 SWAP2 SWAP1 PUSH2 0x1B45 JUMP JUMPDEST PUSH1 0x40 MLOAD DUP1 SWAP2 SUB SWAP1 REVERT JUMPDEST PUSH1 0x3 DUP1 DUP2 GT ISZERO PUSH2 0x163F JUMPI PUSH2 0x163E PUSH2 0x210C JUMP JUMPDEST JUMPDEST DUP3 PUSH1 0x3 DUP2 GT ISZERO PUSH2 0x1652 JUMPI PUSH2 0x1651 PUSH2 0x210C JUMP JUMPDEST JUMPDEST SUB PUSH2 0x1694 JUMPI DUP1 PUSH1 0x40 MLOAD PUSH32 0xD78BCE0C00000000000000000000000000000000000000000000000000000000 DUP2 MSTORE PUSH1 0x4 ADD PUSH2 0x168B SWAP2 SWAP1 PUSH2 0x1BFA JUMP JUMPDEST PUSH1 0x40 MLOAD DUP1 SWAP2 SUB SWAP1 REVERT JUMPDEST JUMPDEST POP POP JUMP JUMPDEST PUSH2 0x16A1 PUSH2 0x1322 JUMP JUMPDEST PUSH2 0x16AC DUP4 DUP4 DUP4 PUSH2 0x1723 JUMP JUMPDEST POP POP POP JUMP JUMPDEST PUSH1 0x60 PUSH0 PUSH2 0x16BD DUP4 PUSH2 0x193C JUMP JUMPDEST SWAP1 POP PUSH0 PUSH1 0x20 PUSH8 0xFFFFFFFFFFFFFFFF DUP2 GT ISZERO PUSH2 0x16DB JUMPI PUSH2 0x16DA PUSH2 0x1F90 JUMP JUMPDEST JUMPDEST PUSH1 0x40 MLOAD SWAP1 DUP1 DUP3 MSTORE DUP1 PUSH1 0x1F ADD PUSH1 0x1F NOT AND PUSH1 0x20 ADD DUP3 ADD PUSH1 0x40 MSTORE DUP1 ISZERO PUSH2 0x170D JUMPI DUP2 PUSH1 0x20 ADD PUSH1 0x1 DUP3 MUL DUP1 CALLDATASIZE DUP4 CALLDATACOPY DUP1 DUP3 ADD SWAP2 POP POP SWAP1 POP JUMPDEST POP SWAP1 POP DUP2 DUP2 MSTORE DUP4 PUSH1 0x20 DUP3 ADD MSTORE DUP1 SWAP3 POP POP POP SWAP2 SWAP1 POP JUMP JUMPDEST PUSH0 PUSH20 0xFFFFFFFFFFFFFFFFFFFFFFFFFFFFFFFFFFFFFFFF AND DUP4 PUSH20 0xFFFFFFFFFFFFFFFFFFFFFFFFFFFFFFFFFFFFFFFF AND SUB PUSH2 0x1773 JUMPI DUP1 PUSH1 0x2 PUSH0 DUP3 DUP3 SLOAD PUSH2 0x1767 SWAP2 SWAP1 PUSH2 0x2166 JUMP JUMPDEST SWAP3 POP POP DUP2 SWAP1 SSTORE POP PUSH2 0x1841 JUMP JUMPDEST PUSH0 DUP1 PUSH0 DUP6 PUSH20 0xFFFFFFFFFFFFFFFFFFFFFFFFFFFFFFFFFFFFFFFF AND PUSH20 0xFFFFFFFFFFFFFFFFFFFFFFFFFFFFFFFFFFFFFFFF AND DUP2 MSTORE PUSH1 0x20 ADD SWAP1 DUP2 MSTORE PUSH1 0x20 ADD PUSH0 KECCAK256 SLOAD SWAP1 POP DUP2 DUP2 LT ISZERO PUSH2 0x17FC JUMPI DUP4 DUP2 DUP4 PUSH1 0x40 MLOAD PUSH32 0xE450D38C00000000000000000000000000000000000000000000000000000000 DUP2 MSTORE PUSH1 0x4 ADD PUSH2 0x17F3 SWAP4 SWAP3 SWAP2 SWAP1 PUSH2 0x2043 JUMP JUMPDEST PUSH1 0x40 MLOAD DUP1 SWAP2 SUB SWAP1 REVERT JUMPDEST DUP2 DUP2 SUB PUSH0 DUP1 DUP7 PUSH20 0xFFFFFFFFFFFFFFFFFFFFFFFFFFFFFFFFFFFFFFFF AND PUSH20 0xFFFFFFFFFFFFFFFFFFFFFFFFFFFFFFFFFFFFFFFF AND DUP2 MSTORE PUSH1 0x20 ADD SWAP1 DUP2 MSTORE PUSH1 0x20 ADD PUSH0 KECCAK256 DUP2 SWAP1 SSTORE POP POP JUMPDEST PUSH0 PUSH20 0xFFFFFFFFFFFFFFFFFFFFFFFFFFFFFFFFFFFFFFFF AND DUP3 PUSH20 0xFFFFFFFFFFFFFFFFFFFFFFFFFFFFFFFFFFFFFFFF AND SUB PUSH2 0x1888 JUMPI DUP1 PUSH1 0x2 PUSH0 DUP3 DUP3 SLOAD SUB SWAP3 POP POP DUP2 SWAP1 SSTORE POP PUSH2 0x18D2 JUMP JUMPDEST DUP1 PUSH0 DUP1 DUP5 PUSH20 0xFFFFFFFFFFFFFFFFFFFFFFFFFFFFFFFFFFFFFFFF AND PUSH20 0xFFFFFFFFFFFFFFFFFFFFFFFFFFFFFFFFFFFFFFFF AND DUP2 MSTORE PUSH1 0x20 ADD SWAP1 DUP2 MSTORE PUSH1 0x20 ADD PUSH0 KECCAK256 PUSH0 DUP3 DUP3 SLOAD ADD SWAP3 POP POP DUP2 SWAP1 SSTORE POP JUMPDEST DUP2 PUSH20 0xFFFFFFFFFFFFFFFFFFFFFFFFFFFFFFFFFFFFFFFF AND DUP4 PUSH20 0xFFFFFFFFFFFFFFFFFFFFFFFFFFFFFFFFFFFFFFFF AND PUSH32 0xDDF252AD1BE2C89B69C2B068FC378DAA952BA7F163C4A11628F55A4DF523B3EF DUP4 PUSH1 0x40 MLOAD PUSH2 0x192F SWAP2 SWAP1 PUSH2 0x1B45 JUMP JUMPDEST PUSH1 0x40 MLOAD DUP1 SWAP2 SUB SWAP1 LOG3 POP POP POP JUMP JUMPDEST PUSH0 DUP1 PUSH1 0xFF DUP4 PUSH0 SHR AND SWAP1 POP PUSH1 0x1F DUP2 GT ISZERO PUSH2 0x1981 JUMPI PUSH1 0x40 MLOAD PUSH32 0xB3512B0C00000000000000000000000000000000000000000000000000000000 DUP2 MSTORE PUSH1 0x4 ADD PUSH1 0x40 MLOAD DUP1 SWAP2 SUB SWAP1 REVERT JUMPDEST DUP1 SWAP2 POP POP SWAP2 SWAP1 POP JUMP JUMPDEST PUSH0 DUP2 MLOAD SWAP1 POP SWAP2 SWAP1 POP JUMP JUMPDEST PUSH0 DUP3 DUP3 MSTORE PUSH1 0x20 DUP3 ADD SWAP1 POP SWAP3 SWAP2 POP POP JUMP JUMPDEST PUSH0 JUMPDEST DUP4 DUP2 LT ISZERO PUSH2 0x19C1 JUMPI DUP1 DUP3 ADD MLOAD DUP2 DUP5 ADD MSTORE PUSH1 0x20 DUP2 ADD SWAP1 POP PUSH2 0x19A6 JUMP JUMPDEST PUSH0 DUP5 DUP5 ADD MSTORE POP POP POP POP JUMP JUMPDEST PUSH0 PUSH1 0x1F NOT PUSH1 0x1F DUP4 ADD AND SWAP1 POP SWAP2 SWAP1 POP JUMP JUMPDEST PUSH0 PUSH2 0x19E6 DUP3 PUSH2 0x198A JUMP JUMPDEST PUSH2 0x19F0 DUP2 DUP6 PUSH2 0x1994 JUMP JUMPDEST SWAP4 POP PUSH2 0x1A00 DUP2 DUP6 PUSH1 0x20 DUP7 ADD PUSH2 0x19A4 JUMP JUMPDEST PUSH2 0x1A09 DUP2 PUSH2 0x19CC JUMP JUMPDEST DUP5 ADD SWAP2 POP POP SWAP3 SWAP2 POP POP JUMP JUMPDEST PUSH0 PUSH1 0x20 DUP3 ADD SWAP1 POP DUP2 DUP2 SUB PUSH0 DUP4 ADD MSTORE PUSH2 0x1A2C DUP2 DUP5 PUSH2 0x19DC JUMP JUMPDEST SWAP1 POP SWAP3 SWAP2 POP POP JUMP JUMPDEST PUSH0 DUP1 REVERT JUMPDEST PUSH0 PUSH20 0xFFFFFFFFFFFFFFFFFFFFFFFFFFFFFFFFFFFFFFFF DUP3 AND SWAP1 POP SWAP2 SWAP1 POP JUMP JUMPDEST PUSH0 PUSH2 0x1A61 DUP3 PUSH2 0x1A38 JUMP JUMPDEST SWAP1 POP SWAP2 SWAP1 POP JUMP JUMPDEST PUSH2 0x1A71 DUP2 PUSH2 0x1A57 JUMP JUMPDEST DUP2 EQ PUSH2 0x1A7B JUMPI PUSH0 DUP1 REVERT JUMPDEST POP JUMP JUMPDEST PUSH0 DUP2 CALLDATALOAD SWAP1 POP PUSH2 0x1A8C DUP2 PUSH2 0x1A68 JUMP JUMPDEST SWAP3 SWAP2 POP POP JUMP JUMPDEST PUSH0 DUP2 SWAP1 POP SWAP2 SWAP1 POP JUMP JUMPDEST PUSH2 0x1AA4 DUP2 PUSH2 0x1A92 JUMP JUMPDEST DUP2 EQ PUSH2 0x1AAE JUMPI PUSH0 DUP1 REVERT JUMPDEST POP JUMP JUMPDEST PUSH0 DUP2 CALLDATALOAD SWAP1 POP PUSH2 0x1ABF DUP2 PUSH2 0x1A9B JUMP JUMPDEST SWAP3 SWAP2 POP POP JUMP JUMPDEST PUSH0 DUP1 PUSH1 0x40 DUP4 DUP6 SUB SLT ISZERO PUSH2 0x1ADB JUMPI PUSH2 0x1ADA PUSH2 0x1A34 JUMP JUMPDEST JUMPDEST PUSH0 PUSH2 0x1AE8 DUP6 DUP3 DUP7 ADD PUSH2 0x1A7E JUMP JUMPDEST SWAP3 POP POP PUSH1 0x20 PUSH2 0x1AF9 DUP6 DUP3 DUP7 ADD PUSH2 0x1AB1 JUMP JUMPDEST SWAP2 POP POP SWAP3 POP SWAP3 SWAP1 POP JUMP JUMPDEST PUSH0 DUP2 ISZERO ISZERO SWAP1 POP SWAP2 SWAP1 POP JUMP JUMPDEST PUSH2 0x1B17 DUP2 PUSH2 0x1B03 JUMP JUMPDEST DUP3 MSTORE POP POP JUMP JUMPDEST PUSH0 PUSH1 0x20 DUP3 ADD SWAP1 POP PUSH2 0x1B30 PUSH0 DUP4 ADD DUP5 PUSH2 0x1B0E JUMP JUMPDEST SWAP3 SWAP2 POP POP JUMP JUMPDEST PUSH2 0x1B3F DUP2 PUSH2 0x1A92 JUMP JUMPDEST DUP3 MSTORE POP POP JUMP JUMPDEST PUSH0 PUSH1 0x20 DUP3 ADD SWAP1 POP PUSH2 0x1B58 PUSH0 DUP4 ADD DUP5 PUSH2 0x1B36 JUMP JUMPDEST SWAP3 SWAP2 POP POP JUMP JUMPDEST PUSH0 DUP1 PUSH0 PUSH1 0x60 DUP5 DUP7 SUB SLT ISZERO PUSH2 0x1B75 JUMPI PUSH2 0x1B74 PUSH2 0x1A34 JUMP JUMPDEST JUMPDEST PUSH0 PUSH2 0x1B82 DUP7 DUP3 DUP8 ADD PUSH2 0x1A7E JUMP JUMPDEST SWAP4 POP POP PUSH1 0x20 PUSH2 0x1B93 DUP7 DUP3 DUP8 ADD PUSH2 0x1A7E JUMP JUMPDEST SWAP3 POP POP PUSH1 0x40 PUSH2 0x1BA4 DUP7 DUP3 DUP8 ADD PUSH2 0x1AB1 JUMP JUMPDEST SWAP2 POP POP SWAP3 POP SWAP3 POP SWAP3 JUMP JUMPDEST PUSH0 PUSH1 0xFF DUP3 AND SWAP1 POP SWAP2 SWAP1 POP JUMP JUMPDEST PUSH2 0x1BC3 DUP2 PUSH2 0x1BAE JUMP JUMPDEST DUP3 MSTORE POP POP JUMP JUMPDEST PUSH0 PUSH1 0x20 DUP3 ADD SWAP1 POP PUSH2 0x1BDC PUSH0 DUP4 ADD DUP5 PUSH2 0x1BBA JUMP JUMPDEST SWAP3 SWAP2 POP POP JUMP JUMPDEST PUSH0 DUP2 SWAP1 POP SWAP2 SWAP1 POP JUMP JUMPDEST PUSH2 0x1BF4 DUP2 PUSH2 0x1BE2 JUMP JUMPDEST DUP3 MSTORE POP POP JUMP JUMPDEST PUSH0 PUSH1 0x20 DUP3 ADD SWAP1 POP PUSH2 0x1C0D PUSH0 DUP4 ADD DUP5 PUSH2 0x1BEB JUMP JUMPDEST SWAP3 SWAP2 POP POP JUMP JUMPDEST PUSH0 PUSH1 0x20 DUP3 DUP5 SUB SLT ISZERO PUSH2 0x1C28 JUMPI PUSH2 0x1C27 PUSH2 0x1A34 JUMP JUMPDEST JUMPDEST PUSH0 PUSH2 0x1C35 DUP5 DUP3 DUP6 ADD PUSH2 0x1AB1 JUMP JUMPDEST SWAP2 POP POP SWAP3 SWAP2 POP POP JUMP JUMPDEST PUSH0 PUSH1 0x20 DUP3 DUP5 SUB SLT ISZERO PUSH2 0x1C53 JUMPI PUSH2 0x1C52 PUSH2 0x1A34 JUMP JUMPDEST JUMPDEST PUSH0 PUSH2 0x1C60 DUP5 DUP3 DUP6 ADD PUSH2 0x1A7E JUMP JUMPDEST SWAP2 POP POP SWAP3 SWAP2 POP POP JUMP JUMPDEST PUSH0 PUSH32 0xFF00000000000000000000000000000000000000000000000000000000000000 DUP3 AND SWAP1 POP SWAP2 SWAP1 POP JUMP JUMPDEST PUSH2 0x1C9D DUP2 PUSH2 0x1C69 JUMP JUMPDEST DUP3 MSTORE POP POP JUMP JUMPDEST PUSH2 0x1CAC DUP2 PUSH2 0x1A57 JUMP JUMPDEST DUP3 MSTORE POP POP JUMP JUMPDEST PUSH0 DUP2 MLOAD SWAP1 POP SWAP2 SWAP1 POP JUMP JUMPDEST PUSH0 DUP3 DUP3 MSTORE PUSH1 0x20 DUP3 ADD SWAP1 POP SWAP3 SWAP2 POP POP JUMP JUMPDEST PUSH0 DUP2 SWAP1 POP PUSH1 0x20 DUP3 ADD SWAP1 POP SWAP2 SWAP1 POP JUMP JUMPDEST PUSH2 0x1CE4 DUP2 PUSH2 0x1A92 JUMP JUMPDEST DUP3 MSTORE POP POP JUMP JUMPDEST PUSH0 PUSH2 0x1CF5 DUP4 DUP4 PUSH2 0x1CDB JUMP JUMPDEST PUSH1 0x20 DUP4 ADD SWAP1 POP SWAP3 SWAP2 POP POP JUMP JUMPDEST PUSH0 PUSH1 0x20 DUP3 ADD SWAP1 POP SWAP2 SWAP1 POP JUMP JUMPDEST PUSH0 PUSH2 0x1D17 DUP3 PUSH2 0x1CB2 JUMP JUMPDEST PUSH2 0x1D21 DUP2 DUP6 PUSH2 0x1CBC JUMP JUMPDEST SWAP4 POP PUSH2 0x1D2C DUP4 PUSH2 0x1CCC JUMP JUMPDEST DUP1 PUSH0 JUMPDEST DUP4 DUP2 LT ISZERO PUSH2 0x1D5C JUMPI DUP2 MLOAD PUSH2 0x1D43 DUP9 DUP3 PUSH2 0x1CEA JUMP JUMPDEST SWAP8 POP PUSH2 0x1D4E DUP4 PUSH2 0x1D01 JUMP JUMPDEST SWAP3 POP POP PUSH1 0x1 DUP2 ADD SWAP1 POP PUSH2 0x1D2F JUMP JUMPDEST POP DUP6 SWAP4 POP POP POP POP SWAP3 SWAP2 POP POP JUMP JUMPDEST PUSH0 PUSH1 0xE0 DUP3 ADD SWAP1 POP PUSH2 0x1D7C PUSH0 DUP4 ADD DUP11 PUSH2 0x1C94 JUMP JUMPDEST DUP2 DUP2 SUB PUSH1 0x20 DUP4 ADD MSTORE PUSH2 0x1D8E DUP2 DUP10 PUSH2 0x19DC JUMP JUMPDEST SWAP1 POP DUP2 DUP2 SUB PUSH1 0x40 DUP4 ADD MSTORE PUSH2 0x1DA2 DUP2 DUP9 PUSH2 0x19DC JUMP JUMPDEST SWAP1 POP PUSH2 0x1DB1 PUSH1 0x60 DUP4 ADD DUP8 PUSH2 0x1B36 JUMP JUMPDEST PUSH2 0x1DBE PUSH1 0x80 DUP4 ADD DUP7 PUSH2 0x1CA3 JUMP JUMPDEST PUSH2 0x1DCB PUSH1 0xA0 DUP4 ADD DUP6 PUSH2 0x1BEB JUMP JUMPDEST DUP2 DUP2 SUB PUSH1 0xC0 DUP4 ADD MSTORE PUSH2 0x1DDD DUP2 DUP5 PUSH2 0x1D0D JUMP JUMPDEST SWAP1 POP SWAP9 SWAP8 POP POP POP POP POP POP POP POP JUMP JUMPDEST PUSH0 PUSH1 0x20 DUP3 ADD SWAP1 POP PUSH2 0x1DFE PUSH0 DUP4 ADD DUP5 PUSH2 0x1CA3 JUMP JUMPDEST SWAP3 SWAP2 POP POP JUMP JUMPDEST PUSH2 0x1E0D DUP2 PUSH2 0x1BAE JUMP JUMPDEST DUP2 EQ PUSH2 0x1E17 JUMPI PUSH0 DUP1 REVERT JUMPDEST POP JUMP JUMPDEST PUSH0 DUP2 CALLDATALOAD SWAP1 POP PUSH2 0x1E28 DUP2 PUSH2 0x1E04 JUMP JUMPDEST SWAP3 SWAP2 POP POP JUMP JUMPDEST PUSH2 0x1E37 DUP2 PUSH2 0x1BE2 JUMP JUMPDEST DUP2 EQ PUSH2 0x1E41 JUMPI PUSH0 DUP1 REVERT JUMPDEST POP JUMP JUMPDEST PUSH0 DUP2 CALLDATALOAD SWAP1 POP PUSH2 0x1E52 DUP2 PUSH2 0x1E2E JUMP JUMPDEST SWAP3 SWAP2 POP POP JUMP JUMPDEST PUSH0 DUP1 PUSH0 DUP1 PUSH0 DUP1 PUSH0 PUSH1 0xE0 DUP9 DUP11 SUB SLT ISZERO PUSH2 0x1E73 JUMPI PUSH2 0x1E72 PUSH2 0x1A34 JUMP JUMPDEST JUMPDEST PUSH0 PUSH2 0x1E80 DUP11 DUP3 DUP12 ADD PUSH2 0x1A7E JUMP JUMPDEST SWAP8 POP POP PUSH1 0x20 PUSH2 0x1E91 DUP11 DUP3 DUP12 ADD PUSH2 0x1A7E JUMP JUMPDEST SWAP7 POP POP PUSH1 0x40 PUSH2 0x1EA2 DUP11 DUP3 DUP12 ADD PUSH2 0x1AB1 JUMP JUMPDEST SWAP6 POP POP PUSH1 0x60 PUSH2 0x1EB3 DUP11 DUP3 DUP12 ADD PUSH2 0x1AB1 JUMP JUMPDEST SWAP5 POP POP PUSH1 0x80 PUSH2 0x1EC4 DUP11 DUP3 DUP12 ADD PUSH2 0x1E1A JUMP JUMPDEST SWAP4 POP POP PUSH1 0xA0 PUSH2 0x1ED5 DUP11 DUP3 DUP12 ADD PUSH2 0x1E44 JUMP JUMPDEST SWAP3 POP POP PUSH1 0xC0 PUSH2 0x1EE6 DUP11 DUP3 DUP12 ADD PUSH2 0x1E44 JUMP JUMPDEST SWAP2 POP POP SWAP3 SWAP6 SWAP9 SWAP2 SWAP5 SWAP8 POP SWAP3 SWAP6 POP JUMP JUMPDEST PUSH0 DUP1 PUSH1 0x40 DUP4 DUP6 SUB SLT ISZERO PUSH2 0x1F0B JUMPI PUSH2 0x1F0A PUSH2 0x1A34 JUMP JUMPDEST JUMPDEST PUSH0 PUSH2 0x1F18 DUP6 DUP3 DUP7 ADD PUSH2 0x1A7E JUMP JUMPDEST SWAP3 POP POP PUSH1 0x20 PUSH2 0x1F29 DUP6 DUP3 DUP7 ADD PUSH2 0x1A7E JUMP JUMPDEST SWAP2 POP POP SWAP3 POP SWAP3 SWAP1 POP JUMP JUMPDEST PUSH32 0x4E487B7100000000000000000000000000000000000000000000000000000000 PUSH0 MSTORE PUSH1 0x22 PUSH1 0x4 MSTORE PUSH1 0x24 PUSH0 REVERT JUMPDEST PUSH0 PUSH1 0x2 DUP3 DIV SWAP1 POP PUSH1 0x1 DUP3 AND DUP1 PUSH2 0x1F77 JUMPI PUSH1 0x7F DUP3 AND SWAP2 POP JUMPDEST PUSH1 0x20 DUP3 LT DUP2 SUB PUSH2 0x1F8A JUMPI PUSH2 0x1F89 PUSH2 0x1F33 JUMP JUMPDEST JUMPDEST POP SWAP2 SWAP1 POP JUMP JUMPDEST PUSH32 0x4E487B7100000000000000000000000000000000000000000000000000000000 PUSH0 MSTORE PUSH1 0x41 PUSH1 0x4 MSTORE PUSH1 0x24 PUSH0 REVERT JUMPDEST PUSH0 PUSH1 0xC0 DUP3 ADD SWAP1 POP PUSH2 0x1FD0 PUSH0 DUP4 ADD DUP10 PUSH2 0x1BEB JUMP JUMPDEST PUSH2 0x1FDD PUSH1 0x20 DUP4 ADD DUP9 PUSH2 0x1CA3 JUMP JUMPDEST PUSH2 0x1FEA PUSH1 0x40 DUP4 ADD DUP8 PUSH2 0x1CA3 JUMP JUMPDEST PUSH2 0x1FF7 PUSH1 0x60 DUP4 ADD DUP7 PUSH2 0x1B36 JUMP JUMPDEST PUSH2 0x2004 PUSH1 0x80 DUP4 ADD DUP6 PUSH2 0x1B36 JUMP JUMPDEST PUSH2 0x2011 PUSH1 0xA0 DUP4 ADD DUP5 PUSH2 0x1B36 JUMP JUMPDEST SWAP8 SWAP7 POP POP POP POP POP POP POP JUMP JUMPDEST PUSH0 PUSH1 0x40 DUP3 ADD SWAP1 POP PUSH2 0x202F PUSH0 DUP4 ADD DUP6 PUSH2 0x1CA3 JUMP JUMPDEST PUSH2 0x203C PUSH1 0x20 DUP4 ADD DUP5 PUSH2 0x1CA3 JUMP JUMPDEST SWAP4 SWAP3 POP POP POP JUMP JUMPDEST PUSH0 PUSH1 0x60 DUP3 ADD SWAP1 POP PUSH2 0x2056 PUSH0 DUP4 ADD DUP7 PUSH2 0x1CA3 JUMP JUMPDEST PUSH2 0x2063 PUSH1 0x20 DUP4 ADD DUP6 PUSH2 0x1B36 JUMP JUMPDEST PUSH2 0x2070 PUSH1 0x40 DUP4 ADD DUP5 PUSH2 0x1B36 JUMP JUMPDEST SWAP5 SWAP4 POP POP POP POP JUMP JUMPDEST PUSH0 PUSH1 0xA0 DUP3 ADD SWAP1 POP PUSH2 0x208B PUSH0 DUP4 ADD DUP9 PUSH2 0x1BEB JUMP JUMPDEST PUSH2 0x2098 PUSH1 0x20 DUP4 ADD DUP8 PUSH2 0x1BEB JUMP JUMPDEST PUSH2 0x20A5 PUSH1 0x40 DUP4 ADD DUP7 PUSH2 0x1BEB JUMP JUMPDEST PUSH2 0x20B2 PUSH1 0x60 DUP4 ADD DUP6 PUSH2 0x1B36 JUMP JUMPDEST PUSH2 0x20BF PUSH1 0x80 DUP4 ADD DUP5 PUSH2 0x1CA3 JUMP JUMPDEST SWAP7 SWAP6 POP POP POP POP POP POP JUMP JUMPDEST PUSH0 PUSH1 0x80 DUP3 ADD SWAP1 POP PUSH2 0x20DC PUSH0 DUP4 ADD DUP8 PUSH2 0x1BEB JUMP JUMPDEST PUSH2 0x20E9 PUSH1 0x20 DUP4 ADD DUP7 PUSH2 0x1BBA JUMP JUMPDEST PUSH2 0x20F6 PUSH1 0x40 DUP4 ADD DUP6 PUSH2 0x1BEB JUMP JUMPDEST PUSH2 0x2103 PUSH1 0x60 DUP4 ADD DUP5 PUSH2 0x1BEB JUMP JUMPDEST SWAP6 SWAP5 POP POP POP POP POP JUMP JUMPDEST PUSH32 0x4E487B7100000000000000000000000000000000000000000000000000000000 PUSH0 MSTORE PUSH1 0x21 PUSH1 0x4 MSTORE PUSH1 0x24 PUSH0 REVERT JUMPDEST PUSH32 0x4E487B7100000000000000000000000000000000000000000000000000000000 PUSH0 MSTORE PUSH1 0x11 PUSH1 0x4 MSTORE PUSH1 0x24 PUSH0 REVERT JUMPDEST PUSH0 PUSH2 0x2170 DUP3 PUSH2 0x1A92 JUMP JUMPDEST SWAP2 POP PUSH2 0x217B DUP4 PUSH2 0x1A92 JUMP JUMPDEST SWAP3 POP DUP3 DUP3 ADD SWAP1 POP DUP1 DUP3 GT ISZERO PUSH2 0x2193 JUMPI PUSH2 0x2192 PUSH2 0x2139 JUMP JUMPDEST JUMPDEST SWAP3 SWAP2 POP POP JUMP INVALID LOG2 PUSH5 0x6970667358 0x22 SLT KECCAK256 0xAD CODECOPY BASEFEE 0xF7 STOP GAS SHR CALLDATALOAD SLOAD GASLIMIT EXTCODECOPY CHAINID SWAP14 0xC8 BYTE DUP2 0xDE 0xD PUSH22 0x22BF2B079561631841A967F48664736F6C6343000814 STOP CALLER "
				},
				"gasEstimates": {
					"creation": {
						"codeDepositCost": "1731000",
						"executionCost": "infinite",
						"totalCost": "infinite"
					},
					"external": {
						"DOMAIN_SEPARATOR()": "infinite",
						"allowance(address,address)": "infinite",
						"approve(address,uint256)": "infinite",
						"balanceOf(address)": "2962",
						"burn(uint256)": "infinite",
						"burnFrom(address,uint256)": "infinite",
						"decimals()": "450",
						"eip712Domain()": "infinite",
						"mint(address,uint256)": "infinite",
						"name()": "infinite",
						"nonces(address)": "2938",
						"owner()": "2588",
						"pause()": "infinite",
						"paused()": "2584",
						"permit(address,address,uint256,uint256,uint8,bytes32,bytes32)": "infinite",
						"renounceOwnership()": "infinite",
						"symbol()": "infinite",
						"totalSupply()": "2500",
						"transfer(address,uint256)": "infinite",
						"transferFrom(address,address,uint256)": "infinite",
						"transferOwnership(address)": "infinite",
						"unpause()": "infinite"
					},
					"internal": {
						"_update(address,address,uint256)": "infinite"
					}
				},
				"methodIdentifiers": {
					"DOMAIN_SEPARATOR()": "3644e515",
					"allowance(address,address)": "dd62ed3e",
					"approve(address,uint256)": "095ea7b3",
					"balanceOf(address)": "70a08231",
					"burn(uint256)": "42966c68",
					"burnFrom(address,uint256)": "79cc6790",
					"decimals()": "313ce567",
					"eip712Domain()": "84b0196e",
					"mint(address,uint256)": "40c10f19",
					"name()": "06fdde03",
					"nonces(address)": "7ecebe00",
					"owner()": "8da5cb5b",
					"pause()": "8456cb59",
					"paused()": "5c975abb",
					"permit(address,address,uint256,uint256,uint8,bytes32,bytes32)": "d505accf",
					"renounceOwnership()": "715018a6",
					"symbol()": "95d89b41",
					"totalSupply()": "18160ddd",
					"transfer(address,uint256)": "a9059cbb",
					"transferFrom(address,address,uint256)": "23b872dd",
					"transferOwnership(address)": "f2fde38b",
					"unpause()": "3f4ba83a"
				}
			},
			"storageLayout": {
				"storage": [
					{
						"astId": 279,
						"contract": "contracts/ERC20Token_flattened.sol:VEGAN",
						"label": "_balances",
						"offset": 0,
						"slot": "0",
						"type": "t_mapping(t_address,t_uint256)"
					},
					{
						"astId": 285,
						"contract": "contracts/ERC20Token_flattened.sol:VEGAN",
						"label": "_allowances",
						"offset": 0,
						"slot": "1",
						"type": "t_mapping(t_address,t_mapping(t_address,t_uint256))"
					},
					{
						"astId": 287,
						"contract": "contracts/ERC20Token_flattened.sol:VEGAN",
						"label": "_totalSupply",
						"offset": 0,
						"slot": "2",
						"type": "t_uint256"
					},
					{
						"astId": 289,
						"contract": "contracts/ERC20Token_flattened.sol:VEGAN",
						"label": "_name",
						"offset": 0,
						"slot": "3",
						"type": "t_string_storage"
					},
					{
						"astId": 291,
						"contract": "contracts/ERC20Token_flattened.sol:VEGAN",
						"label": "_symbol",
						"offset": 0,
						"slot": "4",
						"type": "t_string_storage"
					},
					{
						"astId": 818,
						"contract": "contracts/ERC20Token_flattened.sol:VEGAN",
						"label": "_paused",
						"offset": 0,
						"slot": "5",
						"type": "t_bool"
					},
					{
						"astId": 961,
						"contract": "contracts/ERC20Token_flattened.sol:VEGAN",
						"label": "_owner",
						"offset": 1,
						"slot": "5",
						"type": "t_address"
					},
					{
						"astId": 3336,
						"contract": "contracts/ERC20Token_flattened.sol:VEGAN",
						"label": "_nameFallback",
						"offset": 0,
						"slot": "6",
						"type": "t_string_storage"
					},
					{
						"astId": 3338,
						"contract": "contracts/ERC20Token_flattened.sol:VEGAN",
						"label": "_versionFallback",
						"offset": 0,
						"slot": "7",
						"type": "t_string_storage"
					},
					{
						"astId": 3539,
						"contract": "contracts/ERC20Token_flattened.sol:VEGAN",
						"label": "_nonces",
						"offset": 0,
						"slot": "8",
						"type": "t_mapping(t_address,t_uint256)"
					}
				],
				"types": {
					"t_address": {
						"encoding": "inplace",
						"label": "address",
						"numberOfBytes": "20"
					},
					"t_bool": {
						"encoding": "inplace",
						"label": "bool",
						"numberOfBytes": "1"
					},
					"t_mapping(t_address,t_mapping(t_address,t_uint256))": {
						"encoding": "mapping",
						"key": "t_address",
						"label": "mapping(address => mapping(address => uint256))",
						"numberOfBytes": "32",
						"value": "t_mapping(t_address,t_uint256)"
					},
					"t_mapping(t_address,t_uint256)": {
						"encoding": "mapping",
						"key": "t_address",
						"label": "mapping(address => uint256)",
						"numberOfBytes": "32",
						"value": "t_uint256"
					},
					"t_string_storage": {
						"encoding": "bytes",
						"label": "string",
						"numberOfBytes": "32"
					},
					"t_uint256": {
						"encoding": "inplace",
						"label": "uint256",
						"numberOfBytes": "32"
					}
				}
			},
			"userdoc": {
				"kind": "user",
				"methods": {},
				"version": 1
			}
		}
	}
}